{
	"BinarySearch.sol": {
		"BinarySearch": {
			"abi": [
				{
					"inputs": [
						{
							"internalType": "uint256[]",
							"name": "arr",
							"type": "uint256[]"
						},
						{
							"internalType": "uint256",
							"name": "target",
							"type": "uint256"
						}
					],
					"name": "binarySearch",
					"outputs": [
						{
							"internalType": "uint256",
							"name": "",
							"type": "uint256"
						}
					],
					"stateMutability": "pure",
					"type": "function"
				},
				{
					"inputs": [],
					"name": "comprehensiveTest",
					"outputs": [
						{
							"internalType": "string",
							"name": "",
							"type": "string"
						}
					],
					"stateMutability": "pure",
					"type": "function"
				},
				{
					"inputs": [],
					"name": "getNotFoundValue",
					"outputs": [
						{
							"internalType": "uint256",
							"name": "",
							"type": "uint256"
						}
					],
					"stateMutability": "pure",
					"type": "function"
				},
				{
					"inputs": [
						{
							"internalType": "uint256",
							"name": "result",
							"type": "uint256"
						}
					],
					"name": "isFound",
					"outputs": [
						{
							"internalType": "bool",
							"name": "",
							"type": "bool"
						}
					],
					"stateMutability": "pure",
					"type": "function"
				},
				{
					"inputs": [],
					"name": "testDuplicateElements",
					"outputs": [
						{
							"internalType": "uint256[2]",
							"name": "results",
							"type": "uint256[2]"
						}
					],
					"stateMutability": "pure",
					"type": "function"
				},
				{
					"inputs": [],
					"name": "testEdgeCases",
					"outputs": [
						{
							"internalType": "uint256[3]",
							"name": "results",
							"type": "uint256[3]"
						}
					],
					"stateMutability": "pure",
					"type": "function"
				},
				{
					"inputs": [],
					"name": "testLargeArray",
					"outputs": [
						{
							"internalType": "uint256[3]",
							"name": "results",
							"type": "uint256[3]"
						}
					],
					"stateMutability": "pure",
					"type": "function"
				},
				{
					"inputs": [],
					"name": "testNormalSearch",
					"outputs": [
						{
							"internalType": "uint256[4]",
							"name": "results",
							"type": "uint256[4]"
						}
					],
					"stateMutability": "pure",
					"type": "function"
				}
			],
			"devdoc": {
				"kind": "dev",
				"methods": {},
				"version": 1
			},
			"evm": {
				"assembly": "    /* \"BinarySearch.sol\":60:4208  contract BinarySearch{... */\n  mstore(0x40, 0x80)\n  callvalue\n  dup1\n  iszero\n  tag_1\n  jumpi\n  revert(0x00, 0x00)\ntag_1:\n  pop\n  dataSize(sub_0)\n  dup1\n  dataOffset(sub_0)\n  0x00\n  codecopy\n  0x00\n  return\nstop\n\nsub_0: assembly {\n        /* \"BinarySearch.sol\":60:4208  contract BinarySearch{... */\n      mstore(0x40, 0x80)\n      callvalue\n      dup1\n      iszero\n      tag_1\n      jumpi\n      revert(0x00, 0x00)\n    tag_1:\n      pop\n      jumpi(tag_2, lt(calldatasize, 0x04))\n      shr(0xe0, calldataload(0x00))\n      dup1\n      0xcfdd605d\n      gt\n      tag_11\n      jumpi\n      dup1\n      0xcfdd605d\n      eq\n      tag_7\n      jumpi\n      dup1\n      0xd9f1ad2d\n      eq\n      tag_8\n      jumpi\n      dup1\n      0xe23e74c2\n      eq\n      tag_9\n      jumpi\n      dup1\n      0xf7392e1f\n      eq\n      tag_10\n      jumpi\n      jump(tag_2)\n    tag_11:\n      dup1\n      0x0be7705e\n      eq\n      tag_3\n      jumpi\n      dup1\n      0x33034c2c\n      eq\n      tag_4\n      jumpi\n      dup1\n      0xb12601da\n      eq\n      tag_5\n      jumpi\n      dup1\n      0xb3d0343e\n      eq\n      tag_6\n      jumpi\n    tag_2:\n      revert(0x00, 0x00)\n        /* \"BinarySearch.sol\":3485:3580  function getNotFoundValue() public pure returns (uint) {... */\n    tag_3:\n      tag_12\n      tag_13\n      jump\t// in\n    tag_12:\n      mload(0x40)\n      tag_14\n      swap2\n      swap1\n      tag_15\n      jump\t// in\n    tag_14:\n      mload(0x40)\n      dup1\n      swap2\n      sub\n      swap1\n      return\n        /* \"BinarySearch.sol\":2204:2700  function testLargeArray() public pure returns (uint[3] memory results) {... */\n    tag_4:\n      tag_16\n      tag_17\n      jump\t// in\n    tag_16:\n      mload(0x40)\n      tag_18\n      swap2\n      swap1\n      tag_19\n      jump\t// in\n    tag_18:\n      mload(0x40)\n      dup1\n      swap2\n      sub\n      swap1\n      return\n        /* \"BinarySearch.sol\":303:1112  function binarySearch(uint[] memory arr,uint target) public pure returns (uint){... */\n    tag_5:\n      tag_20\n      0x04\n      dup1\n      calldatasize\n      sub\n      dup2\n      add\n      swap1\n      tag_21\n      swap2\n      swap1\n      tag_22\n      jump\t// in\n    tag_21:\n      tag_23\n      jump\t// in\n    tag_20:\n      mload(0x40)\n      tag_24\n      swap2\n      swap1\n      tag_15\n      jump\t// in\n    tag_24:\n      mload(0x40)\n      dup1\n      swap2\n      sub\n      swap1\n      return\n        /* \"BinarySearch.sol\":1170:1707  function testNormalSearch() public pure returns (uint[4] memory results){... */\n    tag_6:\n      tag_25\n      tag_26\n      jump\t// in\n    tag_25:\n      mload(0x40)\n      tag_27\n      swap2\n      swap1\n      tag_28\n      jump\t// in\n    tag_27:\n      mload(0x40)\n      dup1\n      swap2\n      sub\n      swap1\n      return\n        /* \"BinarySearch.sol\":2804:3218  function testDuplicateElements() public pure returns (uint[2] memory results) {... */\n    tag_7:\n      tag_29\n      tag_30\n      jump\t// in\n    tag_29:\n      mload(0x40)\n      tag_31\n      swap2\n      swap1\n      tag_32\n      jump\t// in\n    tag_31:\n      mload(0x40)\n      dup1\n      swap2\n      sub\n      swap1\n      return\n        /* \"BinarySearch.sol\":3295:3402  function isFound(uint result) public pure returns (bool) {... */\n    tag_8:\n      tag_33\n      0x04\n      dup1\n      calldatasize\n      sub\n      dup2\n      add\n      swap1\n      tag_34\n      swap2\n      swap1\n      tag_35\n      jump\t// in\n    tag_34:\n      tag_36\n      jump\t// in\n    tag_33:\n      mload(0x40)\n      tag_37\n      swap2\n      swap1\n      tag_38\n      jump\t// in\n    tag_37:\n      mload(0x40)\n      dup1\n      swap2\n      sub\n      swap1\n      return\n        /* \"BinarySearch.sol\":1770:2141  function testEdgeCases() public pure returns (uint[3] memory results) {... */\n    tag_9:\n      tag_39\n      tag_40\n      jump\t// in\n    tag_39:\n      mload(0x40)\n      tag_41\n      swap2\n      swap1\n      tag_19\n      jump\t// in\n    tag_41:\n      mload(0x40)\n      dup1\n      swap2\n      sub\n      swap1\n      return\n        /* \"BinarySearch.sol\":3633:4205  function comprehensiveTest() public pure returns (string memory) {... */\n    tag_10:\n      tag_42\n      tag_43\n      jump\t// in\n    tag_42:\n      mload(0x40)\n      tag_44\n      swap2\n      swap1\n      tag_45\n      jump\t// in\n    tag_44:\n      mload(0x40)\n      dup1\n      swap2\n      sub\n      swap1\n      return\n        /* \"BinarySearch.sol\":3485:3580  function getNotFoundValue() public pure returns (uint) {... */\n    tag_13:\n        /* \"BinarySearch.sol\":3534:3538  uint */\n      0x00\n        /* \"BinarySearch.sol\":3558:3572  type(uint).max */\n      0xffffffffffffffffffffffffffffffffffffffffffffffffffffffffffffffff\n        /* \"BinarySearch.sol\":3551:3572  return type(uint).max */\n      swap1\n      pop\n        /* \"BinarySearch.sol\":3485:3580  function getNotFoundValue() public pure returns (uint) {... */\n      swap1\n      jump\t// out\n        /* \"BinarySearch.sol\":2204:2700  function testLargeArray() public pure returns (uint[3] memory results) {... */\n    tag_17:\n        /* \"BinarySearch.sol\":2251:2273  uint[3] memory results */\n      tag_47\n      tag_48\n      jump\t// in\n    tag_47:\n        /* \"BinarySearch.sol\":2286:2303  uint[] memory arr */\n      0x00\n        /* \"BinarySearch.sol\":2317:2318  8 */\n      0x08\n        /* \"BinarySearch.sol\":2306:2319  new uint[](8) */\n      0xffffffffffffffff\n      dup2\n      gt\n      iszero\n      tag_50\n      jumpi\n      tag_51\n      tag_52\n      jump\t// in\n    tag_51:\n    tag_50:\n      mload(0x40)\n      swap1\n      dup1\n      dup3\n      mstore\n      dup1\n      0x20\n      mul\n      0x20\n      add\n      dup3\n      add\n      0x40\n      mstore\n      dup1\n      iszero\n      tag_53\n      jumpi\n      dup2\n      0x20\n      add\n      0x20\n      dup3\n      mul\n      dup1\n      calldatasize\n      dup4\n      calldatacopy\n      dup1\n      dup3\n      add\n      swap2\n      pop\n      pop\n      swap1\n      pop\n    tag_53:\n      pop\n        /* \"BinarySearch.sol\":2286:2319  uint[] memory arr = new uint[](8) */\n      swap1\n      pop\n        /* \"BinarySearch.sol\":2339:2340  1 */\n      0x01\n        /* \"BinarySearch.sol\":2330:2333  arr */\n      dup2\n        /* \"BinarySearch.sol\":2334:2335  0 */\n      0x00\n        /* \"BinarySearch.sol\":2330:2336  arr[0] */\n      dup2\n      mload\n      dup2\n      lt\n      tag_54\n      jumpi\n      tag_55\n      tag_56\n      jump\t// in\n    tag_55:\n    tag_54:\n      0x20\n      mul\n      0x20\n      add\n      add\n        /* \"BinarySearch.sol\":2330:2340  arr[0] = 1 */\n      dup2\n      dup2\n      mstore\n      pop\n      pop\n        /* \"BinarySearch.sol\":2360:2361  3 */\n      0x03\n        /* \"BinarySearch.sol\":2351:2354  arr */\n      dup2\n        /* \"BinarySearch.sol\":2355:2356  1 */\n      0x01\n        /* \"BinarySearch.sol\":2351:2357  arr[1] */\n      dup2\n      mload\n      dup2\n      lt\n      tag_57\n      jumpi\n      tag_58\n      tag_56\n      jump\t// in\n    tag_58:\n    tag_57:\n      0x20\n      mul\n      0x20\n      add\n      add\n        /* \"BinarySearch.sol\":2351:2361  arr[1] = 3 */\n      dup2\n      dup2\n      mstore\n      pop\n      pop\n        /* \"BinarySearch.sol\":2381:2382  5 */\n      0x05\n        /* \"BinarySearch.sol\":2372:2375  arr */\n      dup2\n        /* \"BinarySearch.sol\":2376:2377  2 */\n      0x02\n        /* \"BinarySearch.sol\":2372:2378  arr[2] */\n      dup2\n      mload\n      dup2\n      lt\n      tag_59\n      jumpi\n      tag_60\n      tag_56\n      jump\t// in\n    tag_60:\n    tag_59:\n      0x20\n      mul\n      0x20\n      add\n      add\n        /* \"BinarySearch.sol\":2372:2382  arr[2] = 5 */\n      dup2\n      dup2\n      mstore\n      pop\n      pop\n        /* \"BinarySearch.sol\":2402:2403  7 */\n      0x07\n        /* \"BinarySearch.sol\":2393:2396  arr */\n      dup2\n        /* \"BinarySearch.sol\":2397:2398  3 */\n      0x03\n        /* \"BinarySearch.sol\":2393:2399  arr[3] */\n      dup2\n      mload\n      dup2\n      lt\n      tag_61\n      jumpi\n      tag_62\n      tag_56\n      jump\t// in\n    tag_62:\n    tag_61:\n      0x20\n      mul\n      0x20\n      add\n      add\n        /* \"BinarySearch.sol\":2393:2403  arr[3] = 7 */\n      dup2\n      dup2\n      mstore\n      pop\n      pop\n        /* \"BinarySearch.sol\":2423:2424  9 */\n      0x09\n        /* \"BinarySearch.sol\":2414:2417  arr */\n      dup2\n        /* \"BinarySearch.sol\":2418:2419  4 */\n      0x04\n        /* \"BinarySearch.sol\":2414:2420  arr[4] */\n      dup2\n      mload\n      dup2\n      lt\n      tag_63\n      jumpi\n      tag_64\n      tag_56\n      jump\t// in\n    tag_64:\n    tag_63:\n      0x20\n      mul\n      0x20\n      add\n      add\n        /* \"BinarySearch.sol\":2414:2424  arr[4] = 9 */\n      dup2\n      dup2\n      mstore\n      pop\n      pop\n        /* \"BinarySearch.sol\":2444:2446  11 */\n      0x0b\n        /* \"BinarySearch.sol\":2435:2438  arr */\n      dup2\n        /* \"BinarySearch.sol\":2439:2440  5 */\n      0x05\n        /* \"BinarySearch.sol\":2435:2441  arr[5] */\n      dup2\n      mload\n      dup2\n      lt\n      tag_65\n      jumpi\n      tag_66\n      tag_56\n      jump\t// in\n    tag_66:\n    tag_65:\n      0x20\n      mul\n      0x20\n      add\n      add\n        /* \"BinarySearch.sol\":2435:2446  arr[5] = 11 */\n      dup2\n      dup2\n      mstore\n      pop\n      pop\n        /* \"BinarySearch.sol\":2466:2468  13 */\n      0x0d\n        /* \"BinarySearch.sol\":2457:2460  arr */\n      dup2\n        /* \"BinarySearch.sol\":2461:2462  6 */\n      0x06\n        /* \"BinarySearch.sol\":2457:2463  arr[6] */\n      dup2\n      mload\n      dup2\n      lt\n      tag_67\n      jumpi\n      tag_68\n      tag_56\n      jump\t// in\n    tag_68:\n    tag_67:\n      0x20\n      mul\n      0x20\n      add\n      add\n        /* \"BinarySearch.sol\":2457:2468  arr[6] = 13 */\n      dup2\n      dup2\n      mstore\n      pop\n      pop\n        /* \"BinarySearch.sol\":2488:2490  15 */\n      0x0f\n        /* \"BinarySearch.sol\":2479:2482  arr */\n      dup2\n        /* \"BinarySearch.sol\":2483:2484  7 */\n      0x07\n        /* \"BinarySearch.sol\":2479:2485  arr[7] */\n      dup2\n      mload\n      dup2\n      lt\n      tag_69\n      jumpi\n      tag_70\n      tag_56\n      jump\t// in\n    tag_70:\n    tag_69:\n      0x20\n      mul\n      0x20\n      add\n      add\n        /* \"BinarySearch.sol\":2479:2490  arr[7] = 15 */\n      dup2\n      dup2\n      mstore\n      pop\n      pop\n        /* \"BinarySearch.sol\":2524:2544  binarySearch(arr, 1) */\n      tag_71\n        /* \"BinarySearch.sol\":2537:2540  arr */\n      dup2\n        /* \"BinarySearch.sol\":2542:2543  1 */\n      0x01\n        /* \"BinarySearch.sol\":2524:2536  binarySearch */\n      tag_23\n        /* \"BinarySearch.sol\":2524:2544  binarySearch(arr, 1) */\n      jump\t// in\n    tag_71:\n        /* \"BinarySearch.sol\":2511:2518  results */\n      dup3\n        /* \"BinarySearch.sol\":2519:2520  0 */\n      0x00\n        /* \"BinarySearch.sol\":2511:2521  results[0] */\n      0x03\n      dup2\n      lt\n      tag_72\n      jumpi\n      tag_73\n      tag_56\n      jump\t// in\n    tag_73:\n    tag_72:\n      0x20\n      mul\n      add\n        /* \"BinarySearch.sol\":2511:2544  results[0] = binarySearch(arr, 1) */\n      dup2\n      dup2\n      mstore\n      pop\n      pop\n        /* \"BinarySearch.sol\":2588:2608  binarySearch(arr, 9) */\n      tag_74\n        /* \"BinarySearch.sol\":2601:2604  arr */\n      dup2\n        /* \"BinarySearch.sol\":2606:2607  9 */\n      0x09\n        /* \"BinarySearch.sol\":2588:2600  binarySearch */\n      tag_23\n        /* \"BinarySearch.sol\":2588:2608  binarySearch(arr, 9) */\n      jump\t// in\n    tag_74:\n        /* \"BinarySearch.sol\":2575:2582  results */\n      dup3\n        /* \"BinarySearch.sol\":2583:2584  1 */\n      0x01\n        /* \"BinarySearch.sol\":2575:2585  results[1] */\n      0x03\n      dup2\n      lt\n      tag_75\n      jumpi\n      tag_76\n      tag_56\n      jump\t// in\n    tag_76:\n    tag_75:\n      0x20\n      mul\n      add\n        /* \"BinarySearch.sol\":2575:2608  results[1] = binarySearch(arr, 9) */\n      dup2\n      dup2\n      mstore\n      pop\n      pop\n        /* \"BinarySearch.sol\":2652:2673  binarySearch(arr, 15) */\n      tag_77\n        /* \"BinarySearch.sol\":2665:2668  arr */\n      dup2\n        /* \"BinarySearch.sol\":2670:2672  15 */\n      0x0f\n        /* \"BinarySearch.sol\":2652:2664  binarySearch */\n      tag_23\n        /* \"BinarySearch.sol\":2652:2673  binarySearch(arr, 15) */\n      jump\t// in\n    tag_77:\n        /* \"BinarySearch.sol\":2639:2646  results */\n      dup3\n        /* \"BinarySearch.sol\":2647:2648  2 */\n      0x02\n        /* \"BinarySearch.sol\":2639:2649  results[2] */\n      0x03\n      dup2\n      lt\n      tag_78\n      jumpi\n      tag_79\n      tag_56\n      jump\t// in\n    tag_79:\n    tag_78:\n      0x20\n      mul\n      add\n        /* \"BinarySearch.sol\":2639:2673  results[2] = binarySearch(arr, 15) */\n      dup2\n      dup2\n      mstore\n      pop\n      pop\n        /* \"BinarySearch.sol\":2275:2700  {... */\n      pop\n        /* \"BinarySearch.sol\":2204:2700  function testLargeArray() public pure returns (uint[3] memory results) {... */\n      swap1\n      jump\t// out\n        /* \"BinarySearch.sol\":303:1112  function binarySearch(uint[] memory arr,uint target) public pure returns (uint){... */\n    tag_23:\n        /* \"BinarySearch.sol\":377:381  uint */\n      0x00\n        /* \"BinarySearch.sol\":445:446  0 */\n      0x00\n        /* \"BinarySearch.sol\":433:436  arr */\n      dup4\n        /* \"BinarySearch.sol\":433:443  arr.length */\n      mload\n        /* \"BinarySearch.sol\":433:446  arr.length==0 */\n      sub\n        /* \"BinarySearch.sol\":429:495  if (arr.length==0){... */\n      tag_81\n      jumpi\n        /* \"BinarySearch.sol\":469:483  type(uint).max */\n      0xffffffffffffffffffffffffffffffffffffffffffffffffffffffffffffffff\n        /* \"BinarySearch.sol\":462:483  return type(uint).max */\n      swap1\n      pop\n      jump(tag_80)\n        /* \"BinarySearch.sol\":429:495  if (arr.length==0){... */\n    tag_81:\n        /* \"BinarySearch.sol\":505:514  uint left */\n      0x00\n        /* \"BinarySearch.sol\":517:518  0 */\n      0x00\n        /* \"BinarySearch.sol\":505:518  uint left = 0 */\n      swap1\n      pop\n        /* \"BinarySearch.sol\":530:540  uint right */\n      0x00\n        /* \"BinarySearch.sol\":554:555  1 */\n      0x01\n        /* \"BinarySearch.sol\":543:546  arr */\n      dup6\n        /* \"BinarySearch.sol\":543:553  arr.length */\n      mload\n        /* \"BinarySearch.sol\":543:555  arr.length-1 */\n      tag_82\n      swap2\n      swap1\n      tag_83\n      jump\t// in\n    tag_82:\n        /* \"BinarySearch.sol\":530:555  uint right = arr.length-1 */\n      swap1\n      pop\n        /* \"BinarySearch.sol\":566:1040  while (left<=right){... */\n    tag_84:\n        /* \"BinarySearch.sol\":579:584  right */\n      dup1\n        /* \"BinarySearch.sol\":573:577  left */\n      dup3\n        /* \"BinarySearch.sol\":573:584  left<=right */\n      gt\n        /* \"BinarySearch.sol\":566:1040  while (left<=right){... */\n      tag_85\n      jumpi\n        /* \"BinarySearch.sol\":649:657  uint mid */\n      0x00\n        /* \"BinarySearch.sol\":680:681  2 */\n      0x02\n        /* \"BinarySearch.sol\":674:678  left */\n      dup4\n        /* \"BinarySearch.sol\":668:673  right */\n      dup4\n        /* \"BinarySearch.sol\":668:678  right-left */\n      tag_86\n      swap2\n      swap1\n      tag_83\n      jump\t// in\n    tag_86:\n        /* \"BinarySearch.sol\":667:681  (right-left)/2 */\n      tag_87\n      swap2\n      swap1\n      tag_88\n      jump\t// in\n    tag_87:\n        /* \"BinarySearch.sol\":660:664  left */\n      dup4\n        /* \"BinarySearch.sol\":660:681  left + (right-left)/2 */\n      tag_89\n      swap2\n      swap1\n      tag_90\n      jump\t// in\n    tag_89:\n        /* \"BinarySearch.sol\":649:681  uint mid = left + (right-left)/2 */\n      swap1\n      pop\n        /* \"BinarySearch.sol\":712:718  target */\n      dup5\n        /* \"BinarySearch.sol\":700:703  arr */\n      dup7\n        /* \"BinarySearch.sol\":704:707  mid */\n      dup3\n        /* \"BinarySearch.sol\":700:708  arr[mid] */\n      dup2\n      mload\n      dup2\n      lt\n      tag_91\n      jumpi\n      tag_92\n      tag_56\n      jump\t// in\n    tag_92:\n    tag_91:\n      0x20\n      mul\n      0x20\n      add\n      add\n      mload\n        /* \"BinarySearch.sol\":700:718  arr[mid] == target */\n      sub\n        /* \"BinarySearch.sol\":696:1029  if (arr[mid] == target){... */\n      tag_93\n      jumpi\n        /* \"BinarySearch.sol\":795:798  mid */\n      dup1\n        /* \"BinarySearch.sol\":788:798  return mid */\n      swap4\n      pop\n      pop\n      pop\n      pop\n      jump(tag_80)\n        /* \"BinarySearch.sol\":696:1029  if (arr[mid] == target){... */\n    tag_93:\n        /* \"BinarySearch.sol\":832:838  target */\n      dup5\n        /* \"BinarySearch.sol\":823:826  arr */\n      dup7\n        /* \"BinarySearch.sol\":827:830  mid */\n      dup3\n        /* \"BinarySearch.sol\":823:831  arr[mid] */\n      dup2\n      mload\n      dup2\n      lt\n      tag_95\n      jumpi\n      tag_96\n      tag_56\n      jump\t// in\n    tag_96:\n    tag_95:\n      0x20\n      mul\n      0x20\n      add\n      add\n      mload\n        /* \"BinarySearch.sol\":823:838  arr[mid]<target */\n      lt\n        /* \"BinarySearch.sol\":819:1029  if (arr[mid]<target){... */\n      iszero\n      tag_97\n      jumpi\n        /* \"BinarySearch.sol\":914:915  1 */\n      0x01\n        /* \"BinarySearch.sol\":909:912  mid */\n      dup2\n        /* \"BinarySearch.sol\":909:915  mid +1 */\n      tag_98\n      swap2\n      swap1\n      tag_90\n      jump\t// in\n    tag_98:\n        /* \"BinarySearch.sol\":902:915  left = mid +1 */\n      swap3\n      pop\n        /* \"BinarySearch.sol\":819:1029  if (arr[mid]<target){... */\n      jump(tag_99)\n    tag_97:\n        /* \"BinarySearch.sol\":1012:1013  1 */\n      0x01\n        /* \"BinarySearch.sol\":1007:1010  mid */\n      dup2\n        /* \"BinarySearch.sol\":1007:1013  mid -1 */\n      tag_100\n      swap2\n      swap1\n      tag_83\n      jump\t// in\n    tag_100:\n        /* \"BinarySearch.sol\":999:1013  right = mid -1 */\n      swap2\n      pop\n        /* \"BinarySearch.sol\":819:1029  if (arr[mid]<target){... */\n    tag_99:\n        /* \"BinarySearch.sol\":585:1040  {... */\n      pop\n        /* \"BinarySearch.sol\":566:1040  while (left<=right){... */\n      jump(tag_84)\n    tag_85:\n        /* \"BinarySearch.sol\":1090:1104  type(uint).max */\n      0xffffffffffffffffffffffffffffffffffffffffffffffffffffffffffffffff\n        /* \"BinarySearch.sol\":1083:1104  return type(uint).max */\n      swap3\n      pop\n      pop\n      pop\n        /* \"BinarySearch.sol\":303:1112  function binarySearch(uint[] memory arr,uint target) public pure returns (uint){... */\n    tag_80:\n      swap3\n      swap2\n      pop\n      pop\n      jump\t// out\n        /* \"BinarySearch.sol\":1170:1707  function testNormalSearch() public pure returns (uint[4] memory results){... */\n    tag_26:\n        /* \"BinarySearch.sol\":1219:1241  uint[4] memory results */\n      tag_101\n      tag_102\n      jump\t// in\n    tag_101:\n        /* \"BinarySearch.sol\":1253:1270  uint[] memory arr */\n      0x00\n        /* \"BinarySearch.sol\":1284:1285  6 */\n      0x06\n        /* \"BinarySearch.sol\":1273:1286  new uint[](6) */\n      0xffffffffffffffff\n      dup2\n      gt\n      iszero\n      tag_104\n      jumpi\n      tag_105\n      tag_52\n      jump\t// in\n    tag_105:\n    tag_104:\n      mload(0x40)\n      swap1\n      dup1\n      dup3\n      mstore\n      dup1\n      0x20\n      mul\n      0x20\n      add\n      dup3\n      add\n      0x40\n      mstore\n      dup1\n      iszero\n      tag_106\n      jumpi\n      dup2\n      0x20\n      add\n      0x20\n      dup3\n      mul\n      dup1\n      calldatasize\n      dup4\n      calldatacopy\n      dup1\n      dup3\n      add\n      swap2\n      pop\n      pop\n      swap1\n      pop\n    tag_106:\n      pop\n        /* \"BinarySearch.sol\":1253:1286  uint[] memory arr = new uint[](6) */\n      swap1\n      pop\n        /* \"BinarySearch.sol\":1306:1308  10 */\n      0x0a\n        /* \"BinarySearch.sol\":1297:1300  arr */\n      dup2\n        /* \"BinarySearch.sol\":1301:1302  0 */\n      0x00\n        /* \"BinarySearch.sol\":1297:1303  arr[0] */\n      dup2\n      mload\n      dup2\n      lt\n      tag_107\n      jumpi\n      tag_108\n      tag_56\n      jump\t// in\n    tag_108:\n    tag_107:\n      0x20\n      mul\n      0x20\n      add\n      add\n        /* \"BinarySearch.sol\":1297:1308  arr[0] = 10 */\n      dup2\n      dup2\n      mstore\n      pop\n      pop\n        /* \"BinarySearch.sol\":1328:1330  20 */\n      0x14\n        /* \"BinarySearch.sol\":1319:1322  arr */\n      dup2\n        /* \"BinarySearch.sol\":1323:1324  1 */\n      0x01\n        /* \"BinarySearch.sol\":1319:1325  arr[1] */\n      dup2\n      mload\n      dup2\n      lt\n      tag_109\n      jumpi\n      tag_110\n      tag_56\n      jump\t// in\n    tag_110:\n    tag_109:\n      0x20\n      mul\n      0x20\n      add\n      add\n        /* \"BinarySearch.sol\":1319:1330  arr[1] = 20 */\n      dup2\n      dup2\n      mstore\n      pop\n      pop\n        /* \"BinarySearch.sol\":1350:1352  30 */\n      0x1e\n        /* \"BinarySearch.sol\":1341:1344  arr */\n      dup2\n        /* \"BinarySearch.sol\":1345:1346  2 */\n      0x02\n        /* \"BinarySearch.sol\":1341:1347  arr[2] */\n      dup2\n      mload\n      dup2\n      lt\n      tag_111\n      jumpi\n      tag_112\n      tag_56\n      jump\t// in\n    tag_112:\n    tag_111:\n      0x20\n      mul\n      0x20\n      add\n      add\n        /* \"BinarySearch.sol\":1341:1352  arr[2] = 30 */\n      dup2\n      dup2\n      mstore\n      pop\n      pop\n        /* \"BinarySearch.sol\":1372:1374  40 */\n      0x28\n        /* \"BinarySearch.sol\":1363:1366  arr */\n      dup2\n        /* \"BinarySearch.sol\":1367:1368  3 */\n      0x03\n        /* \"BinarySearch.sol\":1363:1369  arr[3] */\n      dup2\n      mload\n      dup2\n      lt\n      tag_113\n      jumpi\n      tag_114\n      tag_56\n      jump\t// in\n    tag_114:\n    tag_113:\n      0x20\n      mul\n      0x20\n      add\n      add\n        /* \"BinarySearch.sol\":1363:1374  arr[3] = 40 */\n      dup2\n      dup2\n      mstore\n      pop\n      pop\n        /* \"BinarySearch.sol\":1394:1396  50 */\n      0x32\n        /* \"BinarySearch.sol\":1385:1388  arr */\n      dup2\n        /* \"BinarySearch.sol\":1389:1390  4 */\n      0x04\n        /* \"BinarySearch.sol\":1385:1391  arr[4] */\n      dup2\n      mload\n      dup2\n      lt\n      tag_115\n      jumpi\n      tag_116\n      tag_56\n      jump\t// in\n    tag_116:\n    tag_115:\n      0x20\n      mul\n      0x20\n      add\n      add\n        /* \"BinarySearch.sol\":1385:1396  arr[4] = 50 */\n      dup2\n      dup2\n      mstore\n      pop\n      pop\n        /* \"BinarySearch.sol\":1416:1418  60 */\n      0x3c\n        /* \"BinarySearch.sol\":1407:1410  arr */\n      dup2\n        /* \"BinarySearch.sol\":1411:1412  5 */\n      0x05\n        /* \"BinarySearch.sol\":1407:1413  arr[5] */\n      dup2\n      mload\n      dup2\n      lt\n      tag_117\n      jumpi\n      tag_118\n      tag_56\n      jump\t// in\n    tag_118:\n    tag_117:\n      0x20\n      mul\n      0x20\n      add\n      add\n        /* \"BinarySearch.sol\":1407:1418  arr[5] = 60 */\n      dup2\n      dup2\n      mstore\n      pop\n      pop\n        /* \"BinarySearch.sol\":1442:1463  binarySearch(arr, 10) */\n      tag_119\n        /* \"BinarySearch.sol\":1455:1458  arr */\n      dup2\n        /* \"BinarySearch.sol\":1460:1462  10 */\n      0x0a\n        /* \"BinarySearch.sol\":1442:1454  binarySearch */\n      tag_23\n        /* \"BinarySearch.sol\":1442:1463  binarySearch(arr, 10) */\n      jump\t// in\n    tag_119:\n        /* \"BinarySearch.sol\":1429:1436  results */\n      dup3\n        /* \"BinarySearch.sol\":1437:1438  0 */\n      0x00\n        /* \"BinarySearch.sol\":1429:1439  results[0] */\n      0x04\n      dup2\n      lt\n      tag_120\n      jumpi\n      tag_121\n      tag_56\n      jump\t// in\n    tag_121:\n    tag_120:\n      0x20\n      mul\n      add\n        /* \"BinarySearch.sol\":1429:1463  results[0] = binarySearch(arr, 10) */\n      dup2\n      dup2\n      mstore\n      pop\n      pop\n        /* \"BinarySearch.sol\":1506:1527  binarySearch(arr, 30) */\n      tag_122\n        /* \"BinarySearch.sol\":1519:1522  arr */\n      dup2\n        /* \"BinarySearch.sol\":1524:1526  30 */\n      0x1e\n        /* \"BinarySearch.sol\":1506:1518  binarySearch */\n      tag_23\n        /* \"BinarySearch.sol\":1506:1527  binarySearch(arr, 30) */\n      jump\t// in\n    tag_122:\n        /* \"BinarySearch.sol\":1493:1500  results */\n      dup3\n        /* \"BinarySearch.sol\":1501:1502  1 */\n      0x01\n        /* \"BinarySearch.sol\":1493:1503  results[1] */\n      0x04\n      dup2\n      lt\n      tag_123\n      jumpi\n      tag_124\n      tag_56\n      jump\t// in\n    tag_124:\n    tag_123:\n      0x20\n      mul\n      add\n        /* \"BinarySearch.sol\":1493:1527  results[1] = binarySearch(arr, 30) */\n      dup2\n      dup2\n      mstore\n      pop\n      pop\n        /* \"BinarySearch.sol\":1570:1591  binarySearch(arr, 60) */\n      tag_125\n        /* \"BinarySearch.sol\":1583:1586  arr */\n      dup2\n        /* \"BinarySearch.sol\":1588:1590  60 */\n      0x3c\n        /* \"BinarySearch.sol\":1570:1582  binarySearch */\n      tag_23\n        /* \"BinarySearch.sol\":1570:1591  binarySearch(arr, 60) */\n      jump\t// in\n    tag_125:\n        /* \"BinarySearch.sol\":1557:1564  results */\n      dup3\n        /* \"BinarySearch.sol\":1565:1566  2 */\n      0x02\n        /* \"BinarySearch.sol\":1557:1567  results[2] */\n      0x04\n      dup2\n      lt\n      tag_126\n      jumpi\n      tag_127\n      tag_56\n      jump\t// in\n    tag_127:\n    tag_126:\n      0x20\n      mul\n      add\n        /* \"BinarySearch.sol\":1557:1591  results[2] = binarySearch(arr, 60) */\n      dup2\n      dup2\n      mstore\n      pop\n      pop\n        /* \"BinarySearch.sol\":1634:1655  binarySearch(arr, 99) */\n      tag_128\n        /* \"BinarySearch.sol\":1647:1650  arr */\n      dup2\n        /* \"BinarySearch.sol\":1652:1654  99 */\n      0x63\n        /* \"BinarySearch.sol\":1634:1646  binarySearch */\n      tag_23\n        /* \"BinarySearch.sol\":1634:1655  binarySearch(arr, 99) */\n      jump\t// in\n    tag_128:\n        /* \"BinarySearch.sol\":1621:1628  results */\n      dup3\n        /* \"BinarySearch.sol\":1629:1630  3 */\n      0x03\n        /* \"BinarySearch.sol\":1621:1631  results[3] */\n      0x04\n      dup2\n      lt\n      tag_129\n      jumpi\n      tag_130\n      tag_56\n      jump\t// in\n    tag_130:\n    tag_129:\n      0x20\n      mul\n      add\n        /* \"BinarySearch.sol\":1621:1655  results[3] = binarySearch(arr, 99) */\n      dup2\n      dup2\n      mstore\n      pop\n      pop\n        /* \"BinarySearch.sol\":1242:1707  {... */\n      pop\n        /* \"BinarySearch.sol\":1170:1707  function testNormalSearch() public pure returns (uint[4] memory results){... */\n      swap1\n      jump\t// out\n        /* \"BinarySearch.sol\":2804:3218  function testDuplicateElements() public pure returns (uint[2] memory results) {... */\n    tag_30:\n        /* \"BinarySearch.sol\":2858:2880  uint[2] memory results */\n      tag_131\n      tag_132\n      jump\t// in\n    tag_131:\n        /* \"BinarySearch.sol\":2893:2910  uint[] memory arr */\n      0x00\n        /* \"BinarySearch.sol\":2924:2925  6 */\n      0x06\n        /* \"BinarySearch.sol\":2913:2926  new uint[](6) */\n      0xffffffffffffffff\n      dup2\n      gt\n      iszero\n      tag_134\n      jumpi\n      tag_135\n      tag_52\n      jump\t// in\n    tag_135:\n    tag_134:\n      mload(0x40)\n      swap1\n      dup1\n      dup3\n      mstore\n      dup1\n      0x20\n      mul\n      0x20\n      add\n      dup3\n      add\n      0x40\n      mstore\n      dup1\n      iszero\n      tag_136\n      jumpi\n      dup2\n      0x20\n      add\n      0x20\n      dup3\n      mul\n      dup1\n      calldatasize\n      dup4\n      calldatacopy\n      dup1\n      dup3\n      add\n      swap2\n      pop\n      pop\n      swap1\n      pop\n    tag_136:\n      pop\n        /* \"BinarySearch.sol\":2893:2926  uint[] memory arr = new uint[](6) */\n      swap1\n      pop\n        /* \"BinarySearch.sol\":2946:2947  1 */\n      0x01\n        /* \"BinarySearch.sol\":2937:2940  arr */\n      dup2\n        /* \"BinarySearch.sol\":2941:2942  0 */\n      0x00\n        /* \"BinarySearch.sol\":2937:2943  arr[0] */\n      dup2\n      mload\n      dup2\n      lt\n      tag_137\n      jumpi\n      tag_138\n      tag_56\n      jump\t// in\n    tag_138:\n    tag_137:\n      0x20\n      mul\n      0x20\n      add\n      add\n        /* \"BinarySearch.sol\":2937:2947  arr[0] = 1 */\n      dup2\n      dup2\n      mstore\n      pop\n      pop\n        /* \"BinarySearch.sol\":2967:2968  2 */\n      0x02\n        /* \"BinarySearch.sol\":2958:2961  arr */\n      dup2\n        /* \"BinarySearch.sol\":2962:2963  1 */\n      0x01\n        /* \"BinarySearch.sol\":2958:2964  arr[1] */\n      dup2\n      mload\n      dup2\n      lt\n      tag_139\n      jumpi\n      tag_140\n      tag_56\n      jump\t// in\n    tag_140:\n    tag_139:\n      0x20\n      mul\n      0x20\n      add\n      add\n        /* \"BinarySearch.sol\":2958:2968  arr[1] = 2 */\n      dup2\n      dup2\n      mstore\n      pop\n      pop\n        /* \"BinarySearch.sol\":2988:2989  2 */\n      0x02\n        /* \"BinarySearch.sol\":2979:2982  arr */\n      dup2\n        /* \"BinarySearch.sol\":2983:2984  2 */\n      0x02\n        /* \"BinarySearch.sol\":2979:2985  arr[2] */\n      dup2\n      mload\n      dup2\n      lt\n      tag_141\n      jumpi\n      tag_142\n      tag_56\n      jump\t// in\n    tag_142:\n    tag_141:\n      0x20\n      mul\n      0x20\n      add\n      add\n        /* \"BinarySearch.sol\":2979:2989  arr[2] = 2 */\n      dup2\n      dup2\n      mstore\n      pop\n      pop\n        /* \"BinarySearch.sol\":3009:3010  2 */\n      0x02\n        /* \"BinarySearch.sol\":3000:3003  arr */\n      dup2\n        /* \"BinarySearch.sol\":3004:3005  3 */\n      0x03\n        /* \"BinarySearch.sol\":3000:3006  arr[3] */\n      dup2\n      mload\n      dup2\n      lt\n      tag_143\n      jumpi\n      tag_144\n      tag_56\n      jump\t// in\n    tag_144:\n    tag_143:\n      0x20\n      mul\n      0x20\n      add\n      add\n        /* \"BinarySearch.sol\":3000:3010  arr[3] = 2 */\n      dup2\n      dup2\n      mstore\n      pop\n      pop\n        /* \"BinarySearch.sol\":3030:3031  3 */\n      0x03\n        /* \"BinarySearch.sol\":3021:3024  arr */\n      dup2\n        /* \"BinarySearch.sol\":3025:3026  4 */\n      0x04\n        /* \"BinarySearch.sol\":3021:3027  arr[4] */\n      dup2\n      mload\n      dup2\n      lt\n      tag_145\n      jumpi\n      tag_146\n      tag_56\n      jump\t// in\n    tag_146:\n    tag_145:\n      0x20\n      mul\n      0x20\n      add\n      add\n        /* \"BinarySearch.sol\":3021:3031  arr[4] = 3 */\n      dup2\n      dup2\n      mstore\n      pop\n      pop\n        /* \"BinarySearch.sol\":3051:3052  4 */\n      0x04\n        /* \"BinarySearch.sol\":3042:3045  arr */\n      dup2\n        /* \"BinarySearch.sol\":3046:3047  5 */\n      0x05\n        /* \"BinarySearch.sol\":3042:3048  arr[5] */\n      dup2\n      mload\n      dup2\n      lt\n      tag_147\n      jumpi\n      tag_148\n      tag_56\n      jump\t// in\n    tag_148:\n    tag_147:\n      0x20\n      mul\n      0x20\n      add\n      add\n        /* \"BinarySearch.sol\":3042:3052  arr[5] = 4 */\n      dup2\n      dup2\n      mstore\n      pop\n      pop\n        /* \"BinarySearch.sol\":3086:3106  binarySearch(arr, 2) */\n      tag_149\n        /* \"BinarySearch.sol\":3099:3102  arr */\n      dup2\n        /* \"BinarySearch.sol\":3104:3105  2 */\n      0x02\n        /* \"BinarySearch.sol\":3086:3098  binarySearch */\n      tag_23\n        /* \"BinarySearch.sol\":3086:3106  binarySearch(arr, 2) */\n      jump\t// in\n    tag_149:\n        /* \"BinarySearch.sol\":3073:3080  results */\n      dup3\n        /* \"BinarySearch.sol\":3081:3082  0 */\n      0x00\n        /* \"BinarySearch.sol\":3073:3083  results[0] */\n      0x02\n      dup2\n      lt\n      tag_150\n      jumpi\n      tag_151\n      tag_56\n      jump\t// in\n    tag_151:\n    tag_150:\n      0x20\n      mul\n      add\n        /* \"BinarySearch.sol\":3073:3106  results[0] = binarySearch(arr, 2) */\n      dup2\n      dup2\n      mstore\n      pop\n      pop\n        /* \"BinarySearch.sol\":3158:3178  binarySearch(arr, 5) */\n      tag_152\n        /* \"BinarySearch.sol\":3171:3174  arr */\n      dup2\n        /* \"BinarySearch.sol\":3176:3177  5 */\n      0x05\n        /* \"BinarySearch.sol\":3158:3170  binarySearch */\n      tag_23\n        /* \"BinarySearch.sol\":3158:3178  binarySearch(arr, 5) */\n      jump\t// in\n    tag_152:\n        /* \"BinarySearch.sol\":3145:3152  results */\n      dup3\n        /* \"BinarySearch.sol\":3153:3154  1 */\n      0x01\n        /* \"BinarySearch.sol\":3145:3155  results[1] */\n      0x02\n      dup2\n      lt\n      tag_153\n      jumpi\n      tag_154\n      tag_56\n      jump\t// in\n    tag_154:\n    tag_153:\n      0x20\n      mul\n      add\n        /* \"BinarySearch.sol\":3145:3178  results[1] = binarySearch(arr, 5) */\n      dup2\n      dup2\n      mstore\n      pop\n      pop\n        /* \"BinarySearch.sol\":2882:3218  {... */\n      pop\n        /* \"BinarySearch.sol\":2804:3218  function testDuplicateElements() public pure returns (uint[2] memory results) {... */\n      swap1\n      jump\t// out\n        /* \"BinarySearch.sol\":3295:3402  function isFound(uint result) public pure returns (bool) {... */\n    tag_36:\n        /* \"BinarySearch.sol\":3346:3350  bool */\n      0x00\n        /* \"BinarySearch.sol\":3380:3394  type(uint).max */\n      0xffffffffffffffffffffffffffffffffffffffffffffffffffffffffffffffff\n        /* \"BinarySearch.sol\":3370:3376  result */\n      dup3\n        /* \"BinarySearch.sol\":3370:3394  result != type(uint).max */\n      eq\n      iszero\n        /* \"BinarySearch.sol\":3363:3394  return result != type(uint).max */\n      swap1\n      pop\n        /* \"BinarySearch.sol\":3295:3402  function isFound(uint result) public pure returns (bool) {... */\n      swap2\n      swap1\n      pop\n      jump\t// out\n        /* \"BinarySearch.sol\":1770:2141  function testEdgeCases() public pure returns (uint[3] memory results) {... */\n    tag_40:\n        /* \"BinarySearch.sol\":1816:1838  uint[3] memory results */\n      tag_156\n      tag_48\n      jump\t// in\n    tag_156:\n        /* \"BinarySearch.sol\":1851:1868  uint[] memory arr */\n      0x00\n        /* \"BinarySearch.sol\":1882:1883  1 */\n      0x01\n        /* \"BinarySearch.sol\":1871:1884  new uint[](1) */\n      0xffffffffffffffff\n      dup2\n      gt\n      iszero\n      tag_158\n      jumpi\n      tag_159\n      tag_52\n      jump\t// in\n    tag_159:\n    tag_158:\n      mload(0x40)\n      swap1\n      dup1\n      dup3\n      mstore\n      dup1\n      0x20\n      mul\n      0x20\n      add\n      dup3\n      add\n      0x40\n      mstore\n      dup1\n      iszero\n      tag_160\n      jumpi\n      dup2\n      0x20\n      add\n      0x20\n      dup3\n      mul\n      dup1\n      calldatasize\n      dup4\n      calldatacopy\n      dup1\n      dup3\n      add\n      swap2\n      pop\n      pop\n      swap1\n      pop\n    tag_160:\n      pop\n        /* \"BinarySearch.sol\":1851:1884  uint[] memory arr = new uint[](1) */\n      swap1\n      pop\n        /* \"BinarySearch.sol\":1904:1905  5 */\n      0x05\n        /* \"BinarySearch.sol\":1895:1898  arr */\n      dup2\n        /* \"BinarySearch.sol\":1899:1900  0 */\n      0x00\n        /* \"BinarySearch.sol\":1895:1901  arr[0] */\n      dup2\n      mload\n      dup2\n      lt\n      tag_161\n      jumpi\n      tag_162\n      tag_56\n      jump\t// in\n    tag_162:\n    tag_161:\n      0x20\n      mul\n      0x20\n      add\n      add\n        /* \"BinarySearch.sol\":1895:1905  arr[0] = 5 */\n      dup2\n      dup2\n      mstore\n      pop\n      pop\n        /* \"BinarySearch.sol\":1939:1959  binarySearch(arr, 5) */\n      tag_163\n        /* \"BinarySearch.sol\":1952:1955  arr */\n      dup2\n        /* \"BinarySearch.sol\":1957:1958  5 */\n      0x05\n        /* \"BinarySearch.sol\":1939:1951  binarySearch */\n      tag_23\n        /* \"BinarySearch.sol\":1939:1959  binarySearch(arr, 5) */\n      jump\t// in\n    tag_163:\n        /* \"BinarySearch.sol\":1926:1933  results */\n      dup3\n        /* \"BinarySearch.sol\":1934:1935  0 */\n      0x00\n        /* \"BinarySearch.sol\":1926:1936  results[0] */\n      0x03\n      dup2\n      lt\n      tag_164\n      jumpi\n      tag_165\n      tag_56\n      jump\t// in\n    tag_165:\n    tag_164:\n      0x20\n      mul\n      add\n        /* \"BinarySearch.sol\":1926:1959  results[0] = binarySearch(arr, 5) */\n      dup2\n      dup2\n      mstore\n      pop\n      pop\n        /* \"BinarySearch.sol\":2083:2113  binarySearch(new uint[](0), 5) */\n      tag_166\n        /* \"BinarySearch.sol\":2107:2108  0 */\n      0x00\n        /* \"BinarySearch.sol\":2096:2109  new uint[](0) */\n      0xffffffffffffffff\n      dup2\n      gt\n      iszero\n      tag_167\n      jumpi\n      tag_168\n      tag_52\n      jump\t// in\n    tag_168:\n    tag_167:\n      mload(0x40)\n      swap1\n      dup1\n      dup3\n      mstore\n      dup1\n      0x20\n      mul\n      0x20\n      add\n      dup3\n      add\n      0x40\n      mstore\n      dup1\n      iszero\n      tag_169\n      jumpi\n      dup2\n      0x20\n      add\n      0x20\n      dup3\n      mul\n      dup1\n      calldatasize\n      dup4\n      calldatacopy\n      dup1\n      dup3\n      add\n      swap2\n      pop\n      pop\n      swap1\n      pop\n    tag_169:\n      pop\n        /* \"BinarySearch.sol\":2111:2112  5 */\n      0x05\n        /* \"BinarySearch.sol\":2083:2095  binarySearch */\n      tag_23\n        /* \"BinarySearch.sol\":2083:2113  binarySearch(new uint[](0), 5) */\n      jump\t// in\n    tag_166:\n        /* \"BinarySearch.sol\":2070:2077  results */\n      dup3\n        /* \"BinarySearch.sol\":2078:2079  2 */\n      0x02\n        /* \"BinarySearch.sol\":2070:2080  results[2] */\n      0x03\n      dup2\n      lt\n      tag_170\n      jumpi\n      tag_171\n      tag_56\n      jump\t// in\n    tag_171:\n    tag_170:\n      0x20\n      mul\n      add\n        /* \"BinarySearch.sol\":2070:2113  results[2] = binarySearch(new uint[](0), 5) */\n      dup2\n      dup2\n      mstore\n      pop\n      pop\n        /* \"BinarySearch.sol\":1840:2141  {... */\n      pop\n        /* \"BinarySearch.sol\":1770:2141  function testEdgeCases() public pure returns (uint[3] memory results) {... */\n      swap1\n      jump\t// out\n        /* \"BinarySearch.sol\":3633:4205  function comprehensiveTest() public pure returns (string memory) {... */\n    tag_43:\n        /* \"BinarySearch.sol\":3683:3696  string memory */\n      0x60\n        /* \"BinarySearch.sol\":3709:3726  uint[] memory arr */\n      0x00\n        /* \"BinarySearch.sol\":3740:3741  5 */\n      0x05\n        /* \"BinarySearch.sol\":3729:3742  new uint[](5) */\n      0xffffffffffffffff\n      dup2\n      gt\n      iszero\n      tag_173\n      jumpi\n      tag_174\n      tag_52\n      jump\t// in\n    tag_174:\n    tag_173:\n      mload(0x40)\n      swap1\n      dup1\n      dup3\n      mstore\n      dup1\n      0x20\n      mul\n      0x20\n      add\n      dup3\n      add\n      0x40\n      mstore\n      dup1\n      iszero\n      tag_175\n      jumpi\n      dup2\n      0x20\n      add\n      0x20\n      dup3\n      mul\n      dup1\n      calldatasize\n      dup4\n      calldatacopy\n      dup1\n      dup3\n      add\n      swap2\n      pop\n      pop\n      swap1\n      pop\n    tag_175:\n      pop\n        /* \"BinarySearch.sol\":3709:3742  uint[] memory arr = new uint[](5) */\n      swap1\n      pop\n        /* \"BinarySearch.sol\":3762:3765  100 */\n      0x64\n        /* \"BinarySearch.sol\":3753:3756  arr */\n      dup2\n        /* \"BinarySearch.sol\":3757:3758  0 */\n      0x00\n        /* \"BinarySearch.sol\":3753:3759  arr[0] */\n      dup2\n      mload\n      dup2\n      lt\n      tag_176\n      jumpi\n      tag_177\n      tag_56\n      jump\t// in\n    tag_177:\n    tag_176:\n      0x20\n      mul\n      0x20\n      add\n      add\n        /* \"BinarySearch.sol\":3753:3765  arr[0] = 100 */\n      dup2\n      dup2\n      mstore\n      pop\n      pop\n        /* \"BinarySearch.sol\":3785:3788  200 */\n      0xc8\n        /* \"BinarySearch.sol\":3776:3779  arr */\n      dup2\n        /* \"BinarySearch.sol\":3780:3781  1 */\n      0x01\n        /* \"BinarySearch.sol\":3776:3782  arr[1] */\n      dup2\n      mload\n      dup2\n      lt\n      tag_178\n      jumpi\n      tag_179\n      tag_56\n      jump\t// in\n    tag_179:\n    tag_178:\n      0x20\n      mul\n      0x20\n      add\n      add\n        /* \"BinarySearch.sol\":3776:3788  arr[1] = 200 */\n      dup2\n      dup2\n      mstore\n      pop\n      pop\n        /* \"BinarySearch.sol\":3808:3811  300 */\n      0x012c\n        /* \"BinarySearch.sol\":3799:3802  arr */\n      dup2\n        /* \"BinarySearch.sol\":3803:3804  2 */\n      0x02\n        /* \"BinarySearch.sol\":3799:3805  arr[2] */\n      dup2\n      mload\n      dup2\n      lt\n      tag_180\n      jumpi\n      tag_181\n      tag_56\n      jump\t// in\n    tag_181:\n    tag_180:\n      0x20\n      mul\n      0x20\n      add\n      add\n        /* \"BinarySearch.sol\":3799:3811  arr[2] = 300 */\n      dup2\n      dup2\n      mstore\n      pop\n      pop\n        /* \"BinarySearch.sol\":3831:3834  400 */\n      0x0190\n        /* \"BinarySearch.sol\":3822:3825  arr */\n      dup2\n        /* \"BinarySearch.sol\":3826:3827  3 */\n      0x03\n        /* \"BinarySearch.sol\":3822:3828  arr[3] */\n      dup2\n      mload\n      dup2\n      lt\n      tag_182\n      jumpi\n      tag_183\n      tag_56\n      jump\t// in\n    tag_183:\n    tag_182:\n      0x20\n      mul\n      0x20\n      add\n      add\n        /* \"BinarySearch.sol\":3822:3834  arr[3] = 400 */\n      dup2\n      dup2\n      mstore\n      pop\n      pop\n        /* \"BinarySearch.sol\":3854:3857  500 */\n      0x01f4\n        /* \"BinarySearch.sol\":3845:3848  arr */\n      dup2\n        /* \"BinarySearch.sol\":3849:3850  4 */\n      0x04\n        /* \"BinarySearch.sol\":3845:3851  arr[4] */\n      dup2\n      mload\n      dup2\n      lt\n      tag_184\n      jumpi\n      tag_185\n      tag_56\n      jump\t// in\n    tag_185:\n    tag_184:\n      0x20\n      mul\n      0x20\n      add\n      add\n        /* \"BinarySearch.sol\":3845:3857  arr[4] = 500 */\n      dup2\n      dup2\n      mstore\n      pop\n      pop\n        /* \"BinarySearch.sol\":3878:3890  uint result1 */\n      0x00\n        /* \"BinarySearch.sol\":3893:3915  binarySearch(arr, 300) */\n      tag_186\n        /* \"BinarySearch.sol\":3906:3909  arr */\n      dup3\n        /* \"BinarySearch.sol\":3911:3914  300 */\n      0x012c\n        /* \"BinarySearch.sol\":3893:3905  binarySearch */\n      tag_23\n        /* \"BinarySearch.sol\":3893:3915  binarySearch(arr, 300) */\n      jump\t// in\n    tag_186:\n        /* \"BinarySearch.sol\":3878:3915  uint result1 = binarySearch(arr, 300) */\n      swap1\n      pop\n        /* \"BinarySearch.sol\":3937:3949  uint result2 */\n      0x00\n        /* \"BinarySearch.sol\":3952:3974  binarySearch(arr, 250) */\n      tag_187\n        /* \"BinarySearch.sol\":3965:3968  arr */\n      dup4\n        /* \"BinarySearch.sol\":3970:3973  250 */\n      0xfa\n        /* \"BinarySearch.sol\":3952:3964  binarySearch */\n      tag_23\n        /* \"BinarySearch.sol\":3952:3974  binarySearch(arr, 250) */\n      jump\t// in\n    tag_187:\n        /* \"BinarySearch.sol\":3937:3974  uint result2 = binarySearch(arr, 250) */\n      swap1\n      pop\n        /* \"BinarySearch.sol\":4013:4029  isFound(result1) */\n      tag_188\n        /* \"BinarySearch.sol\":4021:4028  result1 */\n      dup3\n        /* \"BinarySearch.sol\":4013:4020  isFound */\n      tag_36\n        /* \"BinarySearch.sol\":4013:4029  isFound(result1) */\n      jump\t// in\n    tag_188:\n        /* \"BinarySearch.sol\":4013:4050  isFound(result1) && !isFound(result2) */\n      dup1\n      iszero\n      tag_189\n      jumpi\n      pop\n        /* \"BinarySearch.sol\":4034:4050  isFound(result2) */\n      tag_190\n        /* \"BinarySearch.sol\":4042:4049  result2 */\n      dup2\n        /* \"BinarySearch.sol\":4034:4041  isFound */\n      tag_36\n        /* \"BinarySearch.sol\":4034:4050  isFound(result2) */\n      jump\t// in\n    tag_190:\n        /* \"BinarySearch.sol\":4033:4050  !isFound(result2) */\n      iszero\n        /* \"BinarySearch.sol\":4013:4050  isFound(result1) && !isFound(result2) */\n    tag_189:\n        /* \"BinarySearch.sol\":4009:4198  if (isFound(result1) && !isFound(result2)) {... */\n      iszero\n      tag_191\n      jumpi\n        /* \"BinarySearch.sol\":4067:4122  return unicode\"测试通过！二分查找正常工作\" */\n      mload(0x40)\n      dup1\n      0x60\n      add\n      0x40\n      mstore\n      dup1\n      0x27\n      dup2\n      mstore\n      0x20\n      add\n      data_f3c728dc92f1a6923793fc1bd307373b1bf77a6307d6ed351cfbde9553e967a2\n      0x27\n      swap2\n      codecopy\n      swap4\n      pop\n      pop\n      pop\n      pop\n      jump(tag_172)\n        /* \"BinarySearch.sol\":4009:4198  if (isFound(result1) && !isFound(result2)) {... */\n    tag_191:\n        /* \"BinarySearch.sol\":4155:4186  return unicode\"测试失败！\" */\n      mload(0x40)\n      dup1\n      0x40\n      add\n      0x40\n      mstore\n      dup1\n      0x0f\n      dup2\n      mstore\n      0x20\n      add\n      0xe6b58be8af95e5a4b1e8b4a5efbc810000000000000000000000000000000000\n      dup2\n      mstore\n      pop\n      swap4\n      pop\n      pop\n      pop\n      pop\n        /* \"BinarySearch.sol\":3633:4205  function comprehensiveTest() public pure returns (string memory) {... */\n    tag_172:\n      swap1\n      jump\t// out\n    tag_48:\n      mload(0x40)\n      dup1\n      0x60\n      add\n      0x40\n      mstore\n      dup1\n      0x03\n      swap1\n      0x20\n      dup3\n      mul\n      dup1\n      calldatasize\n      dup4\n      calldatacopy\n      dup1\n      dup3\n      add\n      swap2\n      pop\n      pop\n      swap1\n      pop\n      pop\n      swap1\n      jump\t// out\n    tag_102:\n      mload(0x40)\n      dup1\n      0x80\n      add\n      0x40\n      mstore\n      dup1\n      0x04\n      swap1\n      0x20\n      dup3\n      mul\n      dup1\n      calldatasize\n      dup4\n      calldatacopy\n      dup1\n      dup3\n      add\n      swap2\n      pop\n      pop\n      swap1\n      pop\n      pop\n      swap1\n      jump\t// out\n    tag_132:\n      mload(0x40)\n      dup1\n      0x40\n      add\n      0x40\n      mstore\n      dup1\n      0x02\n      swap1\n      0x20\n      dup3\n      mul\n      dup1\n      calldatasize\n      dup4\n      calldatacopy\n      dup1\n      dup3\n      add\n      swap2\n      pop\n      pop\n      swap1\n      pop\n      pop\n      swap1\n      jump\t// out\n        /* \"#utility.yul\":7:84   */\n    tag_193:\n        /* \"#utility.yul\":44:51   */\n      0x00\n        /* \"#utility.yul\":73:78   */\n      dup2\n        /* \"#utility.yul\":62:78   */\n      swap1\n      pop\n        /* \"#utility.yul\":7:84   */\n      swap2\n      swap1\n      pop\n      jump\t// out\n        /* \"#utility.yul\":90:208   */\n    tag_194:\n        /* \"#utility.yul\":177:201   */\n      tag_236\n        /* \"#utility.yul\":195:200   */\n      dup2\n        /* \"#utility.yul\":177:201   */\n      tag_193\n      jump\t// in\n    tag_236:\n        /* \"#utility.yul\":172:175   */\n      dup3\n        /* \"#utility.yul\":165:202   */\n      mstore\n        /* \"#utility.yul\":90:208   */\n      pop\n      pop\n      jump\t// out\n        /* \"#utility.yul\":214:436   */\n    tag_15:\n        /* \"#utility.yul\":307:311   */\n      0x00\n        /* \"#utility.yul\":345:347   */\n      0x20\n        /* \"#utility.yul\":334:343   */\n      dup3\n        /* \"#utility.yul\":330:348   */\n      add\n        /* \"#utility.yul\":322:348   */\n      swap1\n      pop\n        /* \"#utility.yul\":358:429   */\n      tag_238\n        /* \"#utility.yul\":426:427   */\n      0x00\n        /* \"#utility.yul\":415:424   */\n      dup4\n        /* \"#utility.yul\":411:428   */\n      add\n        /* \"#utility.yul\":402:408   */\n      dup5\n        /* \"#utility.yul\":358:429   */\n      tag_194\n      jump\t// in\n    tag_238:\n        /* \"#utility.yul\":214:436   */\n      swap3\n      swap2\n      pop\n      pop\n      jump\t// out\n        /* \"#utility.yul\":442:546   */\n    tag_195:\n        /* \"#utility.yul\":507:513   */\n      0x00\n        /* \"#utility.yul\":535:539   */\n      0x03\n        /* \"#utility.yul\":525:539   */\n      swap1\n      pop\n        /* \"#utility.yul\":442:546   */\n      swap2\n      swap1\n      pop\n      jump\t// out\n        /* \"#utility.yul\":552:695   */\n    tag_196:\n        /* \"#utility.yul\":649:660   */\n      0x00\n        /* \"#utility.yul\":686:689   */\n      dup2\n        /* \"#utility.yul\":671:689   */\n      swap1\n      pop\n        /* \"#utility.yul\":552:695   */\n      swap3\n      swap2\n      pop\n      pop\n      jump\t// out\n        /* \"#utility.yul\":701:799   */\n    tag_197:\n        /* \"#utility.yul\":766:770   */\n      0x00\n        /* \"#utility.yul\":789:792   */\n      dup2\n        /* \"#utility.yul\":781:792   */\n      swap1\n      pop\n        /* \"#utility.yul\":701:799   */\n      swap2\n      swap1\n      pop\n      jump\t// out\n        /* \"#utility.yul\":805:913   */\n    tag_198:\n        /* \"#utility.yul\":882:906   */\n      tag_243\n        /* \"#utility.yul\":900:905   */\n      dup2\n        /* \"#utility.yul\":882:906   */\n      tag_193\n      jump\t// in\n    tag_243:\n        /* \"#utility.yul\":877:880   */\n      dup3\n        /* \"#utility.yul\":870:907   */\n      mstore\n        /* \"#utility.yul\":805:913   */\n      pop\n      pop\n      jump\t// out\n        /* \"#utility.yul\":919:1098   */\n    tag_199:\n        /* \"#utility.yul\":988:998   */\n      0x00\n        /* \"#utility.yul\":1009:1055   */\n      tag_245\n        /* \"#utility.yul\":1051:1054   */\n      dup4\n        /* \"#utility.yul\":1043:1049   */\n      dup4\n        /* \"#utility.yul\":1009:1055   */\n      tag_198\n      jump\t// in\n    tag_245:\n        /* \"#utility.yul\":1087:1091   */\n      0x20\n        /* \"#utility.yul\":1082:1085   */\n      dup4\n        /* \"#utility.yul\":1078:1092   */\n      add\n        /* \"#utility.yul\":1064:1092   */\n      swap1\n      pop\n        /* \"#utility.yul\":919:1098   */\n      swap3\n      swap2\n      pop\n      pop\n      jump\t// out\n        /* \"#utility.yul\":1104:1215   */\n    tag_200:\n        /* \"#utility.yul\":1172:1176   */\n      0x00\n        /* \"#utility.yul\":1204:1208   */\n      0x20\n        /* \"#utility.yul\":1199:1202   */\n      dup3\n        /* \"#utility.yul\":1195:1209   */\n      add\n        /* \"#utility.yul\":1187:1209   */\n      swap1\n      pop\n        /* \"#utility.yul\":1104:1215   */\n      swap2\n      swap1\n      pop\n      jump\t// out\n        /* \"#utility.yul\":1253:1947   */\n    tag_201:\n        /* \"#utility.yul\":1389:1441   */\n      tag_248\n        /* \"#utility.yul\":1435:1440   */\n      dup2\n        /* \"#utility.yul\":1389:1441   */\n      tag_195\n      jump\t// in\n    tag_248:\n        /* \"#utility.yul\":1457:1541   */\n      tag_249\n        /* \"#utility.yul\":1534:1540   */\n      dup2\n        /* \"#utility.yul\":1529:1532   */\n      dup5\n        /* \"#utility.yul\":1457:1541   */\n      tag_196\n      jump\t// in\n    tag_249:\n        /* \"#utility.yul\":1450:1541   */\n      swap3\n      pop\n        /* \"#utility.yul\":1565:1619   */\n      tag_250\n        /* \"#utility.yul\":1613:1618   */\n      dup3\n        /* \"#utility.yul\":1565:1619   */\n      tag_197\n      jump\t// in\n    tag_250:\n        /* \"#utility.yul\":1642:1649   */\n      dup1\n        /* \"#utility.yul\":1673:1674   */\n      0x00\n        /* \"#utility.yul\":1658:1940   */\n    tag_251:\n        /* \"#utility.yul\":1683:1689   */\n      dup4\n        /* \"#utility.yul\":1680:1681   */\n      dup2\n        /* \"#utility.yul\":1677:1690   */\n      lt\n        /* \"#utility.yul\":1658:1940   */\n      iszero\n      tag_253\n      jumpi\n        /* \"#utility.yul\":1759:1765   */\n      dup2\n        /* \"#utility.yul\":1753:1766   */\n      mload\n        /* \"#utility.yul\":1786:1849   */\n      tag_254\n        /* \"#utility.yul\":1845:1848   */\n      dup8\n        /* \"#utility.yul\":1830:1843   */\n      dup3\n        /* \"#utility.yul\":1786:1849   */\n      tag_199\n      jump\t// in\n    tag_254:\n        /* \"#utility.yul\":1779:1849   */\n      swap7\n      pop\n        /* \"#utility.yul\":1872:1930   */\n      tag_255\n        /* \"#utility.yul\":1923:1929   */\n      dup4\n        /* \"#utility.yul\":1872:1930   */\n      tag_200\n      jump\t// in\n    tag_255:\n        /* \"#utility.yul\":1862:1930   */\n      swap3\n      pop\n        /* \"#utility.yul\":1718:1940   */\n      pop\n        /* \"#utility.yul\":1705:1706   */\n      0x01\n        /* \"#utility.yul\":1702:1703   */\n      dup2\n        /* \"#utility.yul\":1698:1707   */\n      add\n        /* \"#utility.yul\":1693:1707   */\n      swap1\n      pop\n        /* \"#utility.yul\":1658:1940   */\n      jump(tag_251)\n    tag_253:\n        /* \"#utility.yul\":1662:1676   */\n      pop\n        /* \"#utility.yul\":1365:1947   */\n      pop\n      pop\n      pop\n        /* \"#utility.yul\":1253:1947   */\n      pop\n      pop\n      jump\t// out\n        /* \"#utility.yul\":1953:2267   */\n    tag_19:\n        /* \"#utility.yul\":2092:2096   */\n      0x00\n        /* \"#utility.yul\":2130:2132   */\n      0x60\n        /* \"#utility.yul\":2119:2128   */\n      dup3\n        /* \"#utility.yul\":2115:2133   */\n      add\n        /* \"#utility.yul\":2107:2133   */\n      swap1\n      pop\n        /* \"#utility.yul\":2143:2260   */\n      tag_257\n        /* \"#utility.yul\":2257:2258   */\n      0x00\n        /* \"#utility.yul\":2246:2255   */\n      dup4\n        /* \"#utility.yul\":2242:2259   */\n      add\n        /* \"#utility.yul\":2233:2239   */\n      dup5\n        /* \"#utility.yul\":2143:2260   */\n      tag_201\n      jump\t// in\n    tag_257:\n        /* \"#utility.yul\":1953:2267   */\n      swap3\n      swap2\n      pop\n      pop\n      jump\t// out\n        /* \"#utility.yul\":2273:2348   */\n    tag_202:\n        /* \"#utility.yul\":2306:2312   */\n      0x00\n        /* \"#utility.yul\":2339:2341   */\n      0x40\n        /* \"#utility.yul\":2333:2342   */\n      mload\n        /* \"#utility.yul\":2323:2342   */\n      swap1\n      pop\n        /* \"#utility.yul\":2273:2348   */\n      swap1\n      jump\t// out\n        /* \"#utility.yul\":2354:2471   */\n    tag_203:\n        /* \"#utility.yul\":2463:2464   */\n      0x00\n        /* \"#utility.yul\":2460:2461   */\n      0x00\n        /* \"#utility.yul\":2453:2465   */\n      revert\n        /* \"#utility.yul\":2477:2594   */\n    tag_204:\n        /* \"#utility.yul\":2586:2587   */\n      0x00\n        /* \"#utility.yul\":2583:2584   */\n      0x00\n        /* \"#utility.yul\":2576:2588   */\n      revert\n        /* \"#utility.yul\":2600:2717   */\n    tag_205:\n        /* \"#utility.yul\":2709:2710   */\n      0x00\n        /* \"#utility.yul\":2706:2707   */\n      0x00\n        /* \"#utility.yul\":2699:2711   */\n      revert\n        /* \"#utility.yul\":2723:2825   */\n    tag_206:\n        /* \"#utility.yul\":2764:2770   */\n      0x00\n        /* \"#utility.yul\":2815:2817   */\n      0x1f\n        /* \"#utility.yul\":2811:2818   */\n      not\n        /* \"#utility.yul\":2806:2808   */\n      0x1f\n        /* \"#utility.yul\":2799:2804   */\n      dup4\n        /* \"#utility.yul\":2795:2809   */\n      add\n        /* \"#utility.yul\":2791:2819   */\n      and\n        /* \"#utility.yul\":2781:2819   */\n      swap1\n      pop\n        /* \"#utility.yul\":2723:2825   */\n      swap2\n      swap1\n      pop\n      jump\t// out\n        /* \"#utility.yul\":2831:3011   */\n    tag_52:\n        /* \"#utility.yul\":2879:2956   */\n      0x4e487b7100000000000000000000000000000000000000000000000000000000\n        /* \"#utility.yul\":2876:2877   */\n      0x00\n        /* \"#utility.yul\":2869:2957   */\n      mstore\n        /* \"#utility.yul\":2976:2980   */\n      0x41\n        /* \"#utility.yul\":2973:2974   */\n      0x04\n        /* \"#utility.yul\":2966:2981   */\n      mstore\n        /* \"#utility.yul\":3000:3004   */\n      0x24\n        /* \"#utility.yul\":2997:2998   */\n      0x00\n        /* \"#utility.yul\":2990:3005   */\n      revert\n        /* \"#utility.yul\":3017:3298   */\n    tag_207:\n        /* \"#utility.yul\":3100:3127   */\n      tag_265\n        /* \"#utility.yul\":3122:3126   */\n      dup3\n        /* \"#utility.yul\":3100:3127   */\n      tag_206\n      jump\t// in\n    tag_265:\n        /* \"#utility.yul\":3092:3098   */\n      dup2\n        /* \"#utility.yul\":3088:3128   */\n      add\n        /* \"#utility.yul\":3230:3236   */\n      dup2\n        /* \"#utility.yul\":3218:3228   */\n      dup2\n        /* \"#utility.yul\":3215:3237   */\n      lt\n        /* \"#utility.yul\":3194:3212   */\n      0xffffffffffffffff\n        /* \"#utility.yul\":3182:3192   */\n      dup3\n        /* \"#utility.yul\":3179:3213   */\n      gt\n        /* \"#utility.yul\":3176:3238   */\n      or\n        /* \"#utility.yul\":3173:3261   */\n      iszero\n      tag_266\n      jumpi\n        /* \"#utility.yul\":3241:3259   */\n      tag_267\n      tag_52\n      jump\t// in\n    tag_267:\n        /* \"#utility.yul\":3173:3261   */\n    tag_266:\n        /* \"#utility.yul\":3281:3291   */\n      dup1\n        /* \"#utility.yul\":3277:3279   */\n      0x40\n        /* \"#utility.yul\":3270:3292   */\n      mstore\n        /* \"#utility.yul\":3060:3298   */\n      pop\n        /* \"#utility.yul\":3017:3298   */\n      pop\n      pop\n      jump\t// out\n        /* \"#utility.yul\":3304:3433   */\n    tag_208:\n        /* \"#utility.yul\":3338:3344   */\n      0x00\n        /* \"#utility.yul\":3365:3385   */\n      tag_269\n      tag_202\n      jump\t// in\n    tag_269:\n        /* \"#utility.yul\":3355:3385   */\n      swap1\n      pop\n        /* \"#utility.yul\":3394:3427   */\n      tag_270\n        /* \"#utility.yul\":3422:3426   */\n      dup3\n        /* \"#utility.yul\":3414:3420   */\n      dup3\n        /* \"#utility.yul\":3394:3427   */\n      tag_207\n      jump\t// in\n    tag_270:\n        /* \"#utility.yul\":3304:3433   */\n      swap2\n      swap1\n      pop\n      jump\t// out\n        /* \"#utility.yul\":3439:3750   */\n    tag_209:\n        /* \"#utility.yul\":3516:3520   */\n      0x00\n        /* \"#utility.yul\":3606:3624   */\n      0xffffffffffffffff\n        /* \"#utility.yul\":3598:3604   */\n      dup3\n        /* \"#utility.yul\":3595:3625   */\n      gt\n        /* \"#utility.yul\":3592:3648   */\n      iszero\n      tag_272\n      jumpi\n        /* \"#utility.yul\":3628:3646   */\n      tag_273\n      tag_52\n      jump\t// in\n    tag_273:\n        /* \"#utility.yul\":3592:3648   */\n    tag_272:\n        /* \"#utility.yul\":3678:3682   */\n      0x20\n        /* \"#utility.yul\":3670:3676   */\n      dup3\n        /* \"#utility.yul\":3666:3683   */\n      mul\n        /* \"#utility.yul\":3658:3683   */\n      swap1\n      pop\n        /* \"#utility.yul\":3738:3742   */\n      0x20\n        /* \"#utility.yul\":3732:3736   */\n      dup2\n        /* \"#utility.yul\":3728:3743   */\n      add\n        /* \"#utility.yul\":3720:3743   */\n      swap1\n      pop\n        /* \"#utility.yul\":3439:3750   */\n      swap2\n      swap1\n      pop\n      jump\t// out\n        /* \"#utility.yul\":3756:3873   */\n    tag_210:\n        /* \"#utility.yul\":3865:3866   */\n      0x00\n        /* \"#utility.yul\":3862:3863   */\n      0x00\n        /* \"#utility.yul\":3855:3867   */\n      revert\n        /* \"#utility.yul\":3879:4001   */\n    tag_211:\n        /* \"#utility.yul\":3952:3976   */\n      tag_276\n        /* \"#utility.yul\":3970:3975   */\n      dup2\n        /* \"#utility.yul\":3952:3976   */\n      tag_193\n      jump\t// in\n    tag_276:\n        /* \"#utility.yul\":3945:3950   */\n      dup2\n        /* \"#utility.yul\":3942:3977   */\n      eq\n        /* \"#utility.yul\":3932:3995   */\n      tag_277\n      jumpi\n        /* \"#utility.yul\":3991:3992   */\n      0x00\n        /* \"#utility.yul\":3988:3989   */\n      0x00\n        /* \"#utility.yul\":3981:3993   */\n      revert\n        /* \"#utility.yul\":3932:3995   */\n    tag_277:\n        /* \"#utility.yul\":3879:4001   */\n      pop\n      jump\t// out\n        /* \"#utility.yul\":4007:4146   */\n    tag_212:\n        /* \"#utility.yul\":4053:4058   */\n      0x00\n        /* \"#utility.yul\":4091:4097   */\n      dup2\n        /* \"#utility.yul\":4078:4098   */\n      calldataload\n        /* \"#utility.yul\":4069:4098   */\n      swap1\n      pop\n        /* \"#utility.yul\":4107:4140   */\n      tag_279\n        /* \"#utility.yul\":4134:4139   */\n      dup2\n        /* \"#utility.yul\":4107:4140   */\n      tag_211\n      jump\t// in\n    tag_279:\n        /* \"#utility.yul\":4007:4146   */\n      swap3\n      swap2\n      pop\n      pop\n      jump\t// out\n        /* \"#utility.yul\":4169:4879   */\n    tag_213:\n        /* \"#utility.yul\":4265:4270   */\n      0x00\n        /* \"#utility.yul\":4290:4371   */\n      tag_281\n        /* \"#utility.yul\":4306:4370   */\n      tag_282\n        /* \"#utility.yul\":4363:4369   */\n      dup5\n        /* \"#utility.yul\":4306:4370   */\n      tag_209\n      jump\t// in\n    tag_282:\n        /* \"#utility.yul\":4290:4371   */\n      tag_208\n      jump\t// in\n    tag_281:\n        /* \"#utility.yul\":4281:4371   */\n      swap1\n      pop\n        /* \"#utility.yul\":4391:4396   */\n      dup1\n        /* \"#utility.yul\":4420:4426   */\n      dup4\n        /* \"#utility.yul\":4413:4418   */\n      dup3\n        /* \"#utility.yul\":4406:4427   */\n      mstore\n        /* \"#utility.yul\":4454:4458   */\n      0x20\n        /* \"#utility.yul\":4447:4452   */\n      dup3\n        /* \"#utility.yul\":4443:4459   */\n      add\n        /* \"#utility.yul\":4436:4459   */\n      swap1\n      pop\n        /* \"#utility.yul\":4507:4511   */\n      0x20\n        /* \"#utility.yul\":4499:4505   */\n      dup5\n        /* \"#utility.yul\":4495:4512   */\n      mul\n        /* \"#utility.yul\":4487:4493   */\n      dup4\n        /* \"#utility.yul\":4483:4513   */\n      add\n        /* \"#utility.yul\":4536:4539   */\n      dup6\n        /* \"#utility.yul\":4528:4534   */\n      dup2\n        /* \"#utility.yul\":4525:4540   */\n      gt\n        /* \"#utility.yul\":4522:4644   */\n      iszero\n      tag_283\n      jumpi\n        /* \"#utility.yul\":4555:4634   */\n      tag_284\n      tag_210\n      jump\t// in\n    tag_284:\n        /* \"#utility.yul\":4522:4644   */\n    tag_283:\n        /* \"#utility.yul\":4670:4676   */\n      dup4\n        /* \"#utility.yul\":4653:4873   */\n    tag_285:\n        /* \"#utility.yul\":4687:4693   */\n      dup2\n        /* \"#utility.yul\":4682:4685   */\n      dup2\n        /* \"#utility.yul\":4679:4694   */\n      lt\n        /* \"#utility.yul\":4653:4873   */\n      iszero\n      tag_287\n      jumpi\n        /* \"#utility.yul\":4762:4765   */\n      dup1\n        /* \"#utility.yul\":4791:4828   */\n      tag_288\n        /* \"#utility.yul\":4824:4827   */\n      dup9\n        /* \"#utility.yul\":4812:4822   */\n      dup3\n        /* \"#utility.yul\":4791:4828   */\n      tag_212\n      jump\t// in\n    tag_288:\n        /* \"#utility.yul\":4786:4789   */\n      dup5\n        /* \"#utility.yul\":4779:4829   */\n      mstore\n        /* \"#utility.yul\":4858:4862   */\n      0x20\n        /* \"#utility.yul\":4853:4856   */\n      dup5\n        /* \"#utility.yul\":4849:4863   */\n      add\n        /* \"#utility.yul\":4842:4863   */\n      swap4\n      pop\n        /* \"#utility.yul\":4729:4873   */\n      pop\n        /* \"#utility.yul\":4713:4717   */\n      0x20\n        /* \"#utility.yul\":4708:4711   */\n      dup2\n        /* \"#utility.yul\":4704:4718   */\n      add\n        /* \"#utility.yul\":4697:4718   */\n      swap1\n      pop\n        /* \"#utility.yul\":4653:4873   */\n      jump(tag_285)\n    tag_287:\n        /* \"#utility.yul\":4657:4678   */\n      pop\n        /* \"#utility.yul\":4271:4879   */\n      pop\n      pop\n        /* \"#utility.yul\":4169:4879   */\n      swap4\n      swap3\n      pop\n      pop\n      pop\n      jump\t// out\n        /* \"#utility.yul\":4902:5272   */\n    tag_214:\n        /* \"#utility.yul\":4973:4978   */\n      0x00\n        /* \"#utility.yul\":5022:5025   */\n      dup3\n        /* \"#utility.yul\":5015:5019   */\n      0x1f\n        /* \"#utility.yul\":5007:5013   */\n      dup4\n        /* \"#utility.yul\":5003:5020   */\n      add\n        /* \"#utility.yul\":4999:5026   */\n      slt\n        /* \"#utility.yul\":4989:5111   */\n      tag_290\n      jumpi\n        /* \"#utility.yul\":5030:5109   */\n      tag_291\n      tag_205\n      jump\t// in\n    tag_291:\n        /* \"#utility.yul\":4989:5111   */\n    tag_290:\n        /* \"#utility.yul\":5147:5153   */\n      dup2\n        /* \"#utility.yul\":5134:5154   */\n      calldataload\n        /* \"#utility.yul\":5172:5266   */\n      tag_292\n        /* \"#utility.yul\":5262:5265   */\n      dup5\n        /* \"#utility.yul\":5254:5260   */\n      dup3\n        /* \"#utility.yul\":5247:5251   */\n      0x20\n        /* \"#utility.yul\":5239:5245   */\n      dup7\n        /* \"#utility.yul\":5235:5252   */\n      add\n        /* \"#utility.yul\":5172:5266   */\n      tag_213\n      jump\t// in\n    tag_292:\n        /* \"#utility.yul\":5163:5266   */\n      swap2\n      pop\n        /* \"#utility.yul\":4979:5272   */\n      pop\n        /* \"#utility.yul\":4902:5272   */\n      swap3\n      swap2\n      pop\n      pop\n      jump\t// out\n        /* \"#utility.yul\":5278:5962   */\n    tag_22:\n        /* \"#utility.yul\":5371:5377   */\n      0x00\n        /* \"#utility.yul\":5379:5385   */\n      0x00\n        /* \"#utility.yul\":5428:5430   */\n      0x40\n        /* \"#utility.yul\":5416:5425   */\n      dup4\n        /* \"#utility.yul\":5407:5414   */\n      dup6\n        /* \"#utility.yul\":5403:5426   */\n      sub\n        /* \"#utility.yul\":5399:5431   */\n      slt\n        /* \"#utility.yul\":5396:5515   */\n      iszero\n      tag_294\n      jumpi\n        /* \"#utility.yul\":5434:5513   */\n      tag_295\n      tag_203\n      jump\t// in\n    tag_295:\n        /* \"#utility.yul\":5396:5515   */\n    tag_294:\n        /* \"#utility.yul\":5582:5583   */\n      0x00\n        /* \"#utility.yul\":5571:5580   */\n      dup4\n        /* \"#utility.yul\":5567:5584   */\n      add\n        /* \"#utility.yul\":5554:5585   */\n      calldataload\n        /* \"#utility.yul\":5612:5630   */\n      0xffffffffffffffff\n        /* \"#utility.yul\":5604:5610   */\n      dup2\n        /* \"#utility.yul\":5601:5631   */\n      gt\n        /* \"#utility.yul\":5598:5715   */\n      iszero\n      tag_296\n      jumpi\n        /* \"#utility.yul\":5634:5713   */\n      tag_297\n      tag_204\n      jump\t// in\n    tag_297:\n        /* \"#utility.yul\":5598:5715   */\n    tag_296:\n        /* \"#utility.yul\":5739:5817   */\n      tag_298\n        /* \"#utility.yul\":5809:5816   */\n      dup6\n        /* \"#utility.yul\":5800:5806   */\n      dup3\n        /* \"#utility.yul\":5789:5798   */\n      dup7\n        /* \"#utility.yul\":5785:5807   */\n      add\n        /* \"#utility.yul\":5739:5817   */\n      tag_214\n      jump\t// in\n    tag_298:\n        /* \"#utility.yul\":5729:5817   */\n      swap3\n      pop\n        /* \"#utility.yul\":5525:5827   */\n      pop\n        /* \"#utility.yul\":5866:5868   */\n      0x20\n        /* \"#utility.yul\":5892:5945   */\n      tag_299\n        /* \"#utility.yul\":5937:5944   */\n      dup6\n        /* \"#utility.yul\":5928:5934   */\n      dup3\n        /* \"#utility.yul\":5917:5926   */\n      dup7\n        /* \"#utility.yul\":5913:5935   */\n      add\n        /* \"#utility.yul\":5892:5945   */\n      tag_212\n      jump\t// in\n    tag_299:\n        /* \"#utility.yul\":5882:5945   */\n      swap2\n      pop\n        /* \"#utility.yul\":5837:5955   */\n      pop\n        /* \"#utility.yul\":5278:5962   */\n      swap3\n      pop\n      swap3\n      swap1\n      pop\n      jump\t// out\n        /* \"#utility.yul\":5968:6072   */\n    tag_215:\n        /* \"#utility.yul\":6033:6039   */\n      0x00\n        /* \"#utility.yul\":6061:6065   */\n      0x04\n        /* \"#utility.yul\":6051:6065   */\n      swap1\n      pop\n        /* \"#utility.yul\":5968:6072   */\n      swap2\n      swap1\n      pop\n      jump\t// out\n        /* \"#utility.yul\":6078:6221   */\n    tag_216:\n        /* \"#utility.yul\":6175:6186   */\n      0x00\n        /* \"#utility.yul\":6212:6215   */\n      dup2\n        /* \"#utility.yul\":6197:6215   */\n      swap1\n      pop\n        /* \"#utility.yul\":6078:6221   */\n      swap3\n      swap2\n      pop\n      pop\n      jump\t// out\n        /* \"#utility.yul\":6227:6325   */\n    tag_217:\n        /* \"#utility.yul\":6292:6296   */\n      0x00\n        /* \"#utility.yul\":6315:6318   */\n      dup2\n        /* \"#utility.yul\":6307:6318   */\n      swap1\n      pop\n        /* \"#utility.yul\":6227:6325   */\n      swap2\n      swap1\n      pop\n      jump\t// out\n        /* \"#utility.yul\":6331:6442   */\n    tag_218:\n        /* \"#utility.yul\":6399:6403   */\n      0x00\n        /* \"#utility.yul\":6431:6435   */\n      0x20\n        /* \"#utility.yul\":6426:6429   */\n      dup3\n        /* \"#utility.yul\":6422:6436   */\n      add\n        /* \"#utility.yul\":6414:6436   */\n      swap1\n      pop\n        /* \"#utility.yul\":6331:6442   */\n      swap2\n      swap1\n      pop\n      jump\t// out\n        /* \"#utility.yul\":6480:7174   */\n    tag_219:\n        /* \"#utility.yul\":6616:6668   */\n      tag_305\n        /* \"#utility.yul\":6662:6667   */\n      dup2\n        /* \"#utility.yul\":6616:6668   */\n      tag_215\n      jump\t// in\n    tag_305:\n        /* \"#utility.yul\":6684:6768   */\n      tag_306\n        /* \"#utility.yul\":6761:6767   */\n      dup2\n        /* \"#utility.yul\":6756:6759   */\n      dup5\n        /* \"#utility.yul\":6684:6768   */\n      tag_216\n      jump\t// in\n    tag_306:\n        /* \"#utility.yul\":6677:6768   */\n      swap3\n      pop\n        /* \"#utility.yul\":6792:6846   */\n      tag_307\n        /* \"#utility.yul\":6840:6845   */\n      dup3\n        /* \"#utility.yul\":6792:6846   */\n      tag_217\n      jump\t// in\n    tag_307:\n        /* \"#utility.yul\":6869:6876   */\n      dup1\n        /* \"#utility.yul\":6900:6901   */\n      0x00\n        /* \"#utility.yul\":6885:7167   */\n    tag_308:\n        /* \"#utility.yul\":6910:6916   */\n      dup4\n        /* \"#utility.yul\":6907:6908   */\n      dup2\n        /* \"#utility.yul\":6904:6917   */\n      lt\n        /* \"#utility.yul\":6885:7167   */\n      iszero\n      tag_310\n      jumpi\n        /* \"#utility.yul\":6986:6992   */\n      dup2\n        /* \"#utility.yul\":6980:6993   */\n      mload\n        /* \"#utility.yul\":7013:7076   */\n      tag_311\n        /* \"#utility.yul\":7072:7075   */\n      dup8\n        /* \"#utility.yul\":7057:7070   */\n      dup3\n        /* \"#utility.yul\":7013:7076   */\n      tag_199\n      jump\t// in\n    tag_311:\n        /* \"#utility.yul\":7006:7076   */\n      swap7\n      pop\n        /* \"#utility.yul\":7099:7157   */\n      tag_312\n        /* \"#utility.yul\":7150:7156   */\n      dup4\n        /* \"#utility.yul\":7099:7157   */\n      tag_218\n      jump\t// in\n    tag_312:\n        /* \"#utility.yul\":7089:7157   */\n      swap3\n      pop\n        /* \"#utility.yul\":6945:7167   */\n      pop\n        /* \"#utility.yul\":6932:6933   */\n      0x01\n        /* \"#utility.yul\":6929:6930   */\n      dup2\n        /* \"#utility.yul\":6925:6934   */\n      add\n        /* \"#utility.yul\":6920:6934   */\n      swap1\n      pop\n        /* \"#utility.yul\":6885:7167   */\n      jump(tag_308)\n    tag_310:\n        /* \"#utility.yul\":6889:6903   */\n      pop\n        /* \"#utility.yul\":6592:7174   */\n      pop\n      pop\n      pop\n        /* \"#utility.yul\":6480:7174   */\n      pop\n      pop\n      jump\t// out\n        /* \"#utility.yul\":7180:7495   */\n    tag_28:\n        /* \"#utility.yul\":7319:7323   */\n      0x00\n        /* \"#utility.yul\":7357:7360   */\n      0x80\n        /* \"#utility.yul\":7346:7355   */\n      dup3\n        /* \"#utility.yul\":7342:7361   */\n      add\n        /* \"#utility.yul\":7334:7361   */\n      swap1\n      pop\n        /* \"#utility.yul\":7371:7488   */\n      tag_314\n        /* \"#utility.yul\":7485:7486   */\n      0x00\n        /* \"#utility.yul\":7474:7483   */\n      dup4\n        /* \"#utility.yul\":7470:7487   */\n      add\n        /* \"#utility.yul\":7461:7467   */\n      dup5\n        /* \"#utility.yul\":7371:7488   */\n      tag_219\n      jump\t// in\n    tag_314:\n        /* \"#utility.yul\":7180:7495   */\n      swap3\n      swap2\n      pop\n      pop\n      jump\t// out\n        /* \"#utility.yul\":7501:7605   */\n    tag_220:\n        /* \"#utility.yul\":7566:7572   */\n      0x00\n        /* \"#utility.yul\":7594:7598   */\n      0x02\n        /* \"#utility.yul\":7584:7598   */\n      swap1\n      pop\n        /* \"#utility.yul\":7501:7605   */\n      swap2\n      swap1\n      pop\n      jump\t// out\n        /* \"#utility.yul\":7611:7754   */\n    tag_221:\n        /* \"#utility.yul\":7708:7719   */\n      0x00\n        /* \"#utility.yul\":7745:7748   */\n      dup2\n        /* \"#utility.yul\":7730:7748   */\n      swap1\n      pop\n        /* \"#utility.yul\":7611:7754   */\n      swap3\n      swap2\n      pop\n      pop\n      jump\t// out\n        /* \"#utility.yul\":7760:7858   */\n    tag_222:\n        /* \"#utility.yul\":7825:7829   */\n      0x00\n        /* \"#utility.yul\":7848:7851   */\n      dup2\n        /* \"#utility.yul\":7840:7851   */\n      swap1\n      pop\n        /* \"#utility.yul\":7760:7858   */\n      swap2\n      swap1\n      pop\n      jump\t// out\n        /* \"#utility.yul\":7864:7975   */\n    tag_223:\n        /* \"#utility.yul\":7932:7936   */\n      0x00\n        /* \"#utility.yul\":7964:7968   */\n      0x20\n        /* \"#utility.yul\":7959:7962   */\n      dup3\n        /* \"#utility.yul\":7955:7969   */\n      add\n        /* \"#utility.yul\":7947:7969   */\n      swap1\n      pop\n        /* \"#utility.yul\":7864:7975   */\n      swap2\n      swap1\n      pop\n      jump\t// out\n        /* \"#utility.yul\":8013:8707   */\n    tag_224:\n        /* \"#utility.yul\":8149:8201   */\n      tag_320\n        /* \"#utility.yul\":8195:8200   */\n      dup2\n        /* \"#utility.yul\":8149:8201   */\n      tag_220\n      jump\t// in\n    tag_320:\n        /* \"#utility.yul\":8217:8301   */\n      tag_321\n        /* \"#utility.yul\":8294:8300   */\n      dup2\n        /* \"#utility.yul\":8289:8292   */\n      dup5\n        /* \"#utility.yul\":8217:8301   */\n      tag_221\n      jump\t// in\n    tag_321:\n        /* \"#utility.yul\":8210:8301   */\n      swap3\n      pop\n        /* \"#utility.yul\":8325:8379   */\n      tag_322\n        /* \"#utility.yul\":8373:8378   */\n      dup3\n        /* \"#utility.yul\":8325:8379   */\n      tag_222\n      jump\t// in\n    tag_322:\n        /* \"#utility.yul\":8402:8409   */\n      dup1\n        /* \"#utility.yul\":8433:8434   */\n      0x00\n        /* \"#utility.yul\":8418:8700   */\n    tag_323:\n        /* \"#utility.yul\":8443:8449   */\n      dup4\n        /* \"#utility.yul\":8440:8441   */\n      dup2\n        /* \"#utility.yul\":8437:8450   */\n      lt\n        /* \"#utility.yul\":8418:8700   */\n      iszero\n      tag_325\n      jumpi\n        /* \"#utility.yul\":8519:8525   */\n      dup2\n        /* \"#utility.yul\":8513:8526   */\n      mload\n        /* \"#utility.yul\":8546:8609   */\n      tag_326\n        /* \"#utility.yul\":8605:8608   */\n      dup8\n        /* \"#utility.yul\":8590:8603   */\n      dup3\n        /* \"#utility.yul\":8546:8609   */\n      tag_199\n      jump\t// in\n    tag_326:\n        /* \"#utility.yul\":8539:8609   */\n      swap7\n      pop\n        /* \"#utility.yul\":8632:8690   */\n      tag_327\n        /* \"#utility.yul\":8683:8689   */\n      dup4\n        /* \"#utility.yul\":8632:8690   */\n      tag_223\n      jump\t// in\n    tag_327:\n        /* \"#utility.yul\":8622:8690   */\n      swap3\n      pop\n        /* \"#utility.yul\":8478:8700   */\n      pop\n        /* \"#utility.yul\":8465:8466   */\n      0x01\n        /* \"#utility.yul\":8462:8463   */\n      dup2\n        /* \"#utility.yul\":8458:8467   */\n      add\n        /* \"#utility.yul\":8453:8467   */\n      swap1\n      pop\n        /* \"#utility.yul\":8418:8700   */\n      jump(tag_323)\n    tag_325:\n        /* \"#utility.yul\":8422:8436   */\n      pop\n        /* \"#utility.yul\":8125:8707   */\n      pop\n      pop\n      pop\n        /* \"#utility.yul\":8013:8707   */\n      pop\n      pop\n      jump\t// out\n        /* \"#utility.yul\":8713:9027   */\n    tag_32:\n        /* \"#utility.yul\":8852:8856   */\n      0x00\n        /* \"#utility.yul\":8890:8892   */\n      0x40\n        /* \"#utility.yul\":8879:8888   */\n      dup3\n        /* \"#utility.yul\":8875:8893   */\n      add\n        /* \"#utility.yul\":8867:8893   */\n      swap1\n      pop\n        /* \"#utility.yul\":8903:9020   */\n      tag_329\n        /* \"#utility.yul\":9017:9018   */\n      0x00\n        /* \"#utility.yul\":9006:9015   */\n      dup4\n        /* \"#utility.yul\":9002:9019   */\n      add\n        /* \"#utility.yul\":8993:8999   */\n      dup5\n        /* \"#utility.yul\":8903:9020   */\n      tag_224\n      jump\t// in\n    tag_329:\n        /* \"#utility.yul\":8713:9027   */\n      swap3\n      swap2\n      pop\n      pop\n      jump\t// out\n        /* \"#utility.yul\":9033:9362   */\n    tag_35:\n        /* \"#utility.yul\":9092:9098   */\n      0x00\n        /* \"#utility.yul\":9141:9143   */\n      0x20\n        /* \"#utility.yul\":9129:9138   */\n      dup3\n        /* \"#utility.yul\":9120:9127   */\n      dup5\n        /* \"#utility.yul\":9116:9139   */\n      sub\n        /* \"#utility.yul\":9112:9144   */\n      slt\n        /* \"#utility.yul\":9109:9228   */\n      iszero\n      tag_331\n      jumpi\n        /* \"#utility.yul\":9147:9226   */\n      tag_332\n      tag_203\n      jump\t// in\n    tag_332:\n        /* \"#utility.yul\":9109:9228   */\n    tag_331:\n        /* \"#utility.yul\":9267:9268   */\n      0x00\n        /* \"#utility.yul\":9292:9345   */\n      tag_333\n        /* \"#utility.yul\":9337:9344   */\n      dup5\n        /* \"#utility.yul\":9328:9334   */\n      dup3\n        /* \"#utility.yul\":9317:9326   */\n      dup6\n        /* \"#utility.yul\":9313:9335   */\n      add\n        /* \"#utility.yul\":9292:9345   */\n      tag_212\n      jump\t// in\n    tag_333:\n        /* \"#utility.yul\":9282:9345   */\n      swap2\n      pop\n        /* \"#utility.yul\":9238:9355   */\n      pop\n        /* \"#utility.yul\":9033:9362   */\n      swap3\n      swap2\n      pop\n      pop\n      jump\t// out\n        /* \"#utility.yul\":9368:9458   */\n    tag_225:\n        /* \"#utility.yul\":9402:9409   */\n      0x00\n        /* \"#utility.yul\":9445:9450   */\n      dup2\n        /* \"#utility.yul\":9438:9451   */\n      iszero\n        /* \"#utility.yul\":9431:9452   */\n      iszero\n        /* \"#utility.yul\":9420:9452   */\n      swap1\n      pop\n        /* \"#utility.yul\":9368:9458   */\n      swap2\n      swap1\n      pop\n      jump\t// out\n        /* \"#utility.yul\":9464:9573   */\n    tag_226:\n        /* \"#utility.yul\":9545:9566   */\n      tag_336\n        /* \"#utility.yul\":9560:9565   */\n      dup2\n        /* \"#utility.yul\":9545:9566   */\n      tag_225\n      jump\t// in\n    tag_336:\n        /* \"#utility.yul\":9540:9543   */\n      dup3\n        /* \"#utility.yul\":9533:9567   */\n      mstore\n        /* \"#utility.yul\":9464:9573   */\n      pop\n      pop\n      jump\t// out\n        /* \"#utility.yul\":9579:9789   */\n    tag_38:\n        /* \"#utility.yul\":9666:9670   */\n      0x00\n        /* \"#utility.yul\":9704:9706   */\n      0x20\n        /* \"#utility.yul\":9693:9702   */\n      dup3\n        /* \"#utility.yul\":9689:9707   */\n      add\n        /* \"#utility.yul\":9681:9707   */\n      swap1\n      pop\n        /* \"#utility.yul\":9717:9782   */\n      tag_338\n        /* \"#utility.yul\":9779:9780   */\n      0x00\n        /* \"#utility.yul\":9768:9777   */\n      dup4\n        /* \"#utility.yul\":9764:9781   */\n      add\n        /* \"#utility.yul\":9755:9761   */\n      dup5\n        /* \"#utility.yul\":9717:9782   */\n      tag_226\n      jump\t// in\n    tag_338:\n        /* \"#utility.yul\":9579:9789   */\n      swap3\n      swap2\n      pop\n      pop\n      jump\t// out\n        /* \"#utility.yul\":9795:9894   */\n    tag_227:\n        /* \"#utility.yul\":9847:9853   */\n      0x00\n        /* \"#utility.yul\":9881:9886   */\n      dup2\n        /* \"#utility.yul\":9875:9887   */\n      mload\n        /* \"#utility.yul\":9865:9887   */\n      swap1\n      pop\n        /* \"#utility.yul\":9795:9894   */\n      swap2\n      swap1\n      pop\n      jump\t// out\n        /* \"#utility.yul\":9900:10069   */\n    tag_228:\n        /* \"#utility.yul\":9984:9995   */\n      0x00\n        /* \"#utility.yul\":10018:10024   */\n      dup3\n        /* \"#utility.yul\":10013:10016   */\n      dup3\n        /* \"#utility.yul\":10006:10025   */\n      mstore\n        /* \"#utility.yul\":10058:10062   */\n      0x20\n        /* \"#utility.yul\":10053:10056   */\n      dup3\n        /* \"#utility.yul\":10049:10063   */\n      add\n        /* \"#utility.yul\":10034:10063   */\n      swap1\n      pop\n        /* \"#utility.yul\":9900:10069   */\n      swap3\n      swap2\n      pop\n      pop\n      jump\t// out\n        /* \"#utility.yul\":10075:10214   */\n    tag_229:\n        /* \"#utility.yul\":10164:10170   */\n      dup3\n        /* \"#utility.yul\":10159:10162   */\n      dup2\n        /* \"#utility.yul\":10154:10157   */\n      dup4\n        /* \"#utility.yul\":10148:10171   */\n      mcopy\n        /* \"#utility.yul\":10205:10206   */\n      0x00\n        /* \"#utility.yul\":10196:10202   */\n      dup4\n        /* \"#utility.yul\":10191:10194   */\n      dup4\n        /* \"#utility.yul\":10187:10203   */\n      add\n        /* \"#utility.yul\":10180:10207   */\n      mstore\n        /* \"#utility.yul\":10075:10214   */\n      pop\n      pop\n      pop\n      jump\t// out\n        /* \"#utility.yul\":10220:10597   */\n    tag_230:\n        /* \"#utility.yul\":10308:10311   */\n      0x00\n        /* \"#utility.yul\":10336:10375   */\n      tag_343\n        /* \"#utility.yul\":10369:10374   */\n      dup3\n        /* \"#utility.yul\":10336:10375   */\n      tag_227\n      jump\t// in\n    tag_343:\n        /* \"#utility.yul\":10391:10462   */\n      tag_344\n        /* \"#utility.yul\":10455:10461   */\n      dup2\n        /* \"#utility.yul\":10450:10453   */\n      dup6\n        /* \"#utility.yul\":10391:10462   */\n      tag_228\n      jump\t// in\n    tag_344:\n        /* \"#utility.yul\":10384:10462   */\n      swap4\n      pop\n        /* \"#utility.yul\":10471:10536   */\n      tag_345\n        /* \"#utility.yul\":10529:10535   */\n      dup2\n        /* \"#utility.yul\":10524:10527   */\n      dup6\n        /* \"#utility.yul\":10517:10521   */\n      0x20\n        /* \"#utility.yul\":10510:10515   */\n      dup7\n        /* \"#utility.yul\":10506:10522   */\n      add\n        /* \"#utility.yul\":10471:10536   */\n      tag_229\n      jump\t// in\n    tag_345:\n        /* \"#utility.yul\":10561:10590   */\n      tag_346\n        /* \"#utility.yul\":10583:10589   */\n      dup2\n        /* \"#utility.yul\":10561:10590   */\n      tag_206\n      jump\t// in\n    tag_346:\n        /* \"#utility.yul\":10556:10559   */\n      dup5\n        /* \"#utility.yul\":10552:10591   */\n      add\n        /* \"#utility.yul\":10545:10591   */\n      swap2\n      pop\n        /* \"#utility.yul\":10312:10597   */\n      pop\n        /* \"#utility.yul\":10220:10597   */\n      swap3\n      swap2\n      pop\n      pop\n      jump\t// out\n        /* \"#utility.yul\":10603:10916   */\n    tag_45:\n        /* \"#utility.yul\":10716:10720   */\n      0x00\n        /* \"#utility.yul\":10754:10756   */\n      0x20\n        /* \"#utility.yul\":10743:10752   */\n      dup3\n        /* \"#utility.yul\":10739:10757   */\n      add\n        /* \"#utility.yul\":10731:10757   */\n      swap1\n      pop\n        /* \"#utility.yul\":10803:10812   */\n      dup2\n        /* \"#utility.yul\":10797:10801   */\n      dup2\n        /* \"#utility.yul\":10793:10813   */\n      sub\n        /* \"#utility.yul\":10789:10790   */\n      0x00\n        /* \"#utility.yul\":10778:10787   */\n      dup4\n        /* \"#utility.yul\":10774:10791   */\n      add\n        /* \"#utility.yul\":10767:10814   */\n      mstore\n        /* \"#utility.yul\":10831:10909   */\n      tag_348\n        /* \"#utility.yul\":10904:10908   */\n      dup2\n        /* \"#utility.yul\":10895:10901   */\n      dup5\n        /* \"#utility.yul\":10831:10909   */\n      tag_230\n      jump\t// in\n    tag_348:\n        /* \"#utility.yul\":10823:10909   */\n      swap1\n      pop\n        /* \"#utility.yul\":10603:10916   */\n      swap3\n      swap2\n      pop\n      pop\n      jump\t// out\n        /* \"#utility.yul\":10922:11102   */\n    tag_56:\n        /* \"#utility.yul\":10970:11047   */\n      0x4e487b7100000000000000000000000000000000000000000000000000000000\n        /* \"#utility.yul\":10967:10968   */\n      0x00\n        /* \"#utility.yul\":10960:11048   */\n      mstore\n        /* \"#utility.yul\":11067:11071   */\n      0x32\n        /* \"#utility.yul\":11064:11065   */\n      0x04\n        /* \"#utility.yul\":11057:11072   */\n      mstore\n        /* \"#utility.yul\":11091:11095   */\n      0x24\n        /* \"#utility.yul\":11088:11089   */\n      0x00\n        /* \"#utility.yul\":11081:11096   */\n      revert\n        /* \"#utility.yul\":11108:11288   */\n    tag_231:\n        /* \"#utility.yul\":11156:11233   */\n      0x4e487b7100000000000000000000000000000000000000000000000000000000\n        /* \"#utility.yul\":11153:11154   */\n      0x00\n        /* \"#utility.yul\":11146:11234   */\n      mstore\n        /* \"#utility.yul\":11253:11257   */\n      0x11\n        /* \"#utility.yul\":11250:11251   */\n      0x04\n        /* \"#utility.yul\":11243:11258   */\n      mstore\n        /* \"#utility.yul\":11277:11281   */\n      0x24\n        /* \"#utility.yul\":11274:11275   */\n      0x00\n        /* \"#utility.yul\":11267:11282   */\n      revert\n        /* \"#utility.yul\":11294:11488   */\n    tag_83:\n        /* \"#utility.yul\":11334:11338   */\n      0x00\n        /* \"#utility.yul\":11354:11374   */\n      tag_352\n        /* \"#utility.yul\":11372:11373   */\n      dup3\n        /* \"#utility.yul\":11354:11374   */\n      tag_193\n      jump\t// in\n    tag_352:\n        /* \"#utility.yul\":11349:11374   */\n      swap2\n      pop\n        /* \"#utility.yul\":11388:11408   */\n      tag_353\n        /* \"#utility.yul\":11406:11407   */\n      dup4\n        /* \"#utility.yul\":11388:11408   */\n      tag_193\n      jump\t// in\n    tag_353:\n        /* \"#utility.yul\":11383:11408   */\n      swap3\n      pop\n        /* \"#utility.yul\":11432:11433   */\n      dup3\n        /* \"#utility.yul\":11429:11430   */\n      dup3\n        /* \"#utility.yul\":11425:11434   */\n      sub\n        /* \"#utility.yul\":11417:11434   */\n      swap1\n      pop\n        /* \"#utility.yul\":11456:11457   */\n      dup2\n        /* \"#utility.yul\":11450:11454   */\n      dup2\n        /* \"#utility.yul\":11447:11458   */\n      gt\n        /* \"#utility.yul\":11444:11481   */\n      iszero\n      tag_354\n      jumpi\n        /* \"#utility.yul\":11461:11479   */\n      tag_355\n      tag_231\n      jump\t// in\n    tag_355:\n        /* \"#utility.yul\":11444:11481   */\n    tag_354:\n        /* \"#utility.yul\":11294:11488   */\n      swap3\n      swap2\n      pop\n      pop\n      jump\t// out\n        /* \"#utility.yul\":11494:11674   */\n    tag_232:\n        /* \"#utility.yul\":11542:11619   */\n      0x4e487b7100000000000000000000000000000000000000000000000000000000\n        /* \"#utility.yul\":11539:11540   */\n      0x00\n        /* \"#utility.yul\":11532:11620   */\n      mstore\n        /* \"#utility.yul\":11639:11643   */\n      0x12\n        /* \"#utility.yul\":11636:11637   */\n      0x04\n        /* \"#utility.yul\":11629:11644   */\n      mstore\n        /* \"#utility.yul\":11663:11667   */\n      0x24\n        /* \"#utility.yul\":11660:11661   */\n      0x00\n        /* \"#utility.yul\":11653:11668   */\n      revert\n        /* \"#utility.yul\":11680:11865   */\n    tag_88:\n        /* \"#utility.yul\":11720:11721   */\n      0x00\n        /* \"#utility.yul\":11737:11757   */\n      tag_358\n        /* \"#utility.yul\":11755:11756   */\n      dup3\n        /* \"#utility.yul\":11737:11757   */\n      tag_193\n      jump\t// in\n    tag_358:\n        /* \"#utility.yul\":11732:11757   */\n      swap2\n      pop\n        /* \"#utility.yul\":11771:11791   */\n      tag_359\n        /* \"#utility.yul\":11789:11790   */\n      dup4\n        /* \"#utility.yul\":11771:11791   */\n      tag_193\n      jump\t// in\n    tag_359:\n        /* \"#utility.yul\":11766:11791   */\n      swap3\n      pop\n        /* \"#utility.yul\":11810:11811   */\n      dup3\n        /* \"#utility.yul\":11800:11835   */\n      tag_360\n      jumpi\n        /* \"#utility.yul\":11815:11833   */\n      tag_361\n      tag_232\n      jump\t// in\n    tag_361:\n        /* \"#utility.yul\":11800:11835   */\n    tag_360:\n        /* \"#utility.yul\":11857:11858   */\n      dup3\n        /* \"#utility.yul\":11854:11855   */\n      dup3\n        /* \"#utility.yul\":11850:11859   */\n      div\n        /* \"#utility.yul\":11845:11859   */\n      swap1\n      pop\n        /* \"#utility.yul\":11680:11865   */\n      swap3\n      swap2\n      pop\n      pop\n      jump\t// out\n        /* \"#utility.yul\":11871:12062   */\n    tag_90:\n        /* \"#utility.yul\":11911:11914   */\n      0x00\n        /* \"#utility.yul\":11930:11950   */\n      tag_363\n        /* \"#utility.yul\":11948:11949   */\n      dup3\n        /* \"#utility.yul\":11930:11950   */\n      tag_193\n      jump\t// in\n    tag_363:\n        /* \"#utility.yul\":11925:11950   */\n      swap2\n      pop\n        /* \"#utility.yul\":11964:11984   */\n      tag_364\n        /* \"#utility.yul\":11982:11983   */\n      dup4\n        /* \"#utility.yul\":11964:11984   */\n      tag_193\n      jump\t// in\n    tag_364:\n        /* \"#utility.yul\":11959:11984   */\n      swap3\n      pop\n        /* \"#utility.yul\":12007:12008   */\n      dup3\n        /* \"#utility.yul\":12004:12005   */\n      dup3\n        /* \"#utility.yul\":12000:12009   */\n      add\n        /* \"#utility.yul\":11993:12009   */\n      swap1\n      pop\n        /* \"#utility.yul\":12028:12031   */\n      dup1\n        /* \"#utility.yul\":12025:12026   */\n      dup3\n        /* \"#utility.yul\":12022:12032   */\n      gt\n        /* \"#utility.yul\":12019:12055   */\n      iszero\n      tag_365\n      jumpi\n        /* \"#utility.yul\":12035:12053   */\n      tag_366\n      tag_231\n      jump\t// in\n    tag_366:\n        /* \"#utility.yul\":12019:12055   */\n    tag_365:\n        /* \"#utility.yul\":11871:12062   */\n      swap3\n      swap2\n      pop\n      pop\n      jump\t// out\n    stop\n    data_f3c728dc92f1a6923793fc1bd307373b1bf77a6307d6ed351cfbde9553e967a2 e6b58be8af95e9809ae8bf87efbc81e4ba8ce58886e69fa5e689bee6ada3e5b8b8e5b7a5e4bd9c\n\n    auxdata: 0xa2646970667358221220408dd108d5e7149d2b0c066099567ff4071d5f917a96783b813624f8a024584064736f6c634300081e0033\n}\n",
				"bytecode": {
					"linkReferences": {},
					"object": "6080604052348015600e575f5ffd5b5061118b8061001c5f395ff3fe608060405234801561000f575f5ffd5b5060043610610086575f3560e01c8063cfdd605d11610059578063cfdd605d14610114578063d9f1ad2d14610132578063e23e74c214610162578063f7392e1f1461018057610086565b80630be7705e1461008a57806333034c2c146100a8578063b12601da146100c6578063b3d0343e146100f6575b5f5ffd5b61009261019e565b60405161009f9190610b47565b60405180910390f35b6100b06101c5565b6040516100bd9190610c05565b60405180910390f35b6100e060048036038101906100db9190610da9565b6103a4565b6040516100ed9190610b47565b60405180910390f35b6100fe6104bc565b60405161010b9190610e82565b60405180910390f35b61011c61067f565b6040516101299190610f1a565b60405180910390f35b61014c60048036038101906101479190610f33565b6107f2565b6040516101599190610f78565b60405180910390f35b61016a61081e565b6040516101779190610c05565b60405180910390f35b61018861092f565b6040516101959190610ff1565b60405180910390f35b5f7fffffffffffffffffffffffffffffffffffffffffffffffffffffffffffffffff905090565b6101cd610ac9565b5f600867ffffffffffffffff8111156101e9576101e8610c43565b5b6040519080825280602002602001820160405280156102175781602001602082028036833780820191505090505b5090506001815f8151811061022f5761022e611011565b5b60200260200101818152505060038160018151811061025157610250611011565b5b60200260200101818152505060058160028151811061027357610272611011565b5b60200260200101818152505060078160038151811061029557610294611011565b5b6020026020010181815250506009816004815181106102b7576102b6611011565b5b602002602001018181525050600b816005815181106102d9576102d8611011565b5b602002602001018181525050600d816006815181106102fb576102fa611011565b5b602002602001018181525050600f8160078151811061031d5761031c611011565b5b6020026020010181815250506103348160016103a4565b825f6003811061034757610346611011565b5b60200201818152505061035b8160096103a4565b8260016003811061036f5761036e611011565b5b60200201818152505061038381600f6103a4565b8260026003811061039757610396611011565b5b6020020181815250505090565b5f5f8351036103d5577fffffffffffffffffffffffffffffffffffffffffffffffffffffffffffffffff90506104b6565b5f5f90505f600185516103e8919061106b565b90505b808211610490575f60028383610401919061106b565b61040b91906110cb565b8361041691906110fb565b90508486828151811061042c5761042b611011565b5b602002602001015103610444578093505050506104b6565b8486828151811061045857610457611011565b5b6020026020010151101561047a5760018161047391906110fb565b925061048a565b600181610487919061106b565b91505b506103eb565b7fffffffffffffffffffffffffffffffffffffffffffffffffffffffffffffffff925050505b92915050565b6104c4610aeb565b5f600667ffffffffffffffff8111156104e0576104df610c43565b5b60405190808252806020026020018201604052801561050e5781602001602082028036833780820191505090505b509050600a815f8151811061052657610525611011565b5b60200260200101818152505060148160018151811061054857610547611011565b5b602002602001018181525050601e8160028151811061056a57610569611011565b5b60200260200101818152505060288160038151811061058c5761058b611011565b5b6020026020010181815250506032816004815181106105ae576105ad611011565b5b602002602001018181525050603c816005815181106105d0576105cf611011565b5b6020026020010181815250506105e781600a6103a4565b825f600481106105fa576105f9611011565b5b60200201818152505061060e81601e6103a4565b8260016004811061062257610621611011565b5b60200201818152505061063681603c6103a4565b8260026004811061064a57610649611011565b5b60200201818152505061065e8160636103a4565b8260036004811061067257610671611011565b5b6020020181815250505090565b610687610b0d565b5f600667ffffffffffffffff8111156106a3576106a2610c43565b5b6040519080825280602002602001820160405280156106d15781602001602082028036833780820191505090505b5090506001815f815181106106e9576106e8611011565b5b60200260200101818152505060028160018151811061070b5761070a611011565b5b60200260200101818152505060028160028151811061072d5761072c611011565b5b60200260200101818152505060028160038151811061074f5761074e611011565b5b60200260200101818152505060038160048151811061077157610770611011565b5b60200260200101818152505060048160058151811061079357610792611011565b5b6020026020010181815250506107aa8160026103a4565b825f600281106107bd576107bc611011565b5b6020020181815250506107d18160056103a4565b826001600281106107e5576107e4611011565b5b6020020181815250505090565b5f7fffffffffffffffffffffffffffffffffffffffffffffffffffffffffffffffff8214159050919050565b610826610ac9565b5f600167ffffffffffffffff81111561084257610841610c43565b5b6040519080825280602002602001820160405280156108705781602001602082028036833780820191505090505b5090506005815f8151811061088857610887611011565b5b60200260200101818152505061089f8160056103a4565b825f600381106108b2576108b1611011565b5b60200201818152505061090e5f67ffffffffffffffff8111156108d8576108d7610c43565b5b6040519080825280602002602001820160405280156109065781602001602082028036833780820191505090505b5060056103a4565b8260026003811061092257610921611011565b5b6020020181815250505090565b60605f600567ffffffffffffffff81111561094d5761094c610c43565b5b60405190808252806020026020018201604052801561097b5781602001602082028036833780820191505090505b5090506064815f8151811061099357610992611011565b5b60200260200101818152505060c8816001815181106109b5576109b4611011565b5b60200260200101818152505061012c816002815181106109d8576109d7611011565b5b602002602001018181525050610190816003815181106109fb576109fa611011565b5b6020026020010181815250506101f481600481518110610a1e57610a1d611011565b5b6020026020010181815250505f610a378261012c6103a4565b90505f610a458360fa6103a4565b9050610a50826107f2565b8015610a625750610a60816107f2565b155b15610a8a5760405180606001604052806027815260200161112f602791399350505050610ac6565b6040518060400160405280600f81526020017fe6b58be8af95e5a4b1e8b4a5efbc81000000000000000000000000000000000081525093505050505b90565b6040518060600160405280600390602082028036833780820191505090505090565b6040518060800160405280600490602082028036833780820191505090505090565b6040518060400160405280600290602082028036833780820191505090505090565b5f819050919050565b610b4181610b2f565b82525050565b5f602082019050610b5a5f830184610b38565b92915050565b5f60039050919050565b5f81905092915050565b5f819050919050565b610b8681610b2f565b82525050565b5f610b978383610b7d565b60208301905092915050565b5f602082019050919050565b610bb881610b60565b610bc28184610b6a565b9250610bcd82610b74565b805f5b83811015610bfd578151610be48782610b8c565b9650610bef83610ba3565b925050600181019050610bd0565b505050505050565b5f606082019050610c185f830184610baf565b92915050565b5f604051905090565b5f5ffd5b5f5ffd5b5f5ffd5b5f601f19601f8301169050919050565b7f4e487b71000000000000000000000000000000000000000000000000000000005f52604160045260245ffd5b610c7982610c33565b810181811067ffffffffffffffff82111715610c9857610c97610c43565b5b80604052505050565b5f610caa610c1e565b9050610cb68282610c70565b919050565b5f67ffffffffffffffff821115610cd557610cd4610c43565b5b602082029050602081019050919050565b5f5ffd5b610cf381610b2f565b8114610cfd575f5ffd5b50565b5f81359050610d0e81610cea565b92915050565b5f610d26610d2184610cbb565b610ca1565b90508083825260208201905060208402830185811115610d4957610d48610ce6565b5b835b81811015610d725780610d5e8882610d00565b845260208401935050602081019050610d4b565b5050509392505050565b5f82601f830112610d9057610d8f610c2f565b5b8135610da0848260208601610d14565b91505092915050565b5f5f60408385031215610dbf57610dbe610c27565b5b5f83013567ffffffffffffffff811115610ddc57610ddb610c2b565b5b610de885828601610d7c565b9250506020610df985828601610d00565b9150509250929050565b5f60049050919050565b5f81905092915050565b5f819050919050565b5f602082019050919050565b610e3581610e03565b610e3f8184610e0d565b9250610e4a82610e17565b805f5b83811015610e7a578151610e618782610b8c565b9650610e6c83610e20565b925050600181019050610e4d565b505050505050565b5f608082019050610e955f830184610e2c565b92915050565b5f60029050919050565b5f81905092915050565b5f819050919050565b5f602082019050919050565b610ecd81610e9b565b610ed78184610ea5565b9250610ee282610eaf565b805f5b83811015610f12578151610ef98782610b8c565b9650610f0483610eb8565b925050600181019050610ee5565b505050505050565b5f604082019050610f2d5f830184610ec4565b92915050565b5f60208284031215610f4857610f47610c27565b5b5f610f5584828501610d00565b91505092915050565b5f8115159050919050565b610f7281610f5e565b82525050565b5f602082019050610f8b5f830184610f69565b92915050565b5f81519050919050565b5f82825260208201905092915050565b8281835e5f83830152505050565b5f610fc382610f91565b610fcd8185610f9b565b9350610fdd818560208601610fab565b610fe681610c33565b840191505092915050565b5f6020820190508181035f8301526110098184610fb9565b905092915050565b7f4e487b71000000000000000000000000000000000000000000000000000000005f52603260045260245ffd5b7f4e487b71000000000000000000000000000000000000000000000000000000005f52601160045260245ffd5b5f61107582610b2f565b915061108083610b2f565b92508282039050818111156110985761109761103e565b5b92915050565b7f4e487b71000000000000000000000000000000000000000000000000000000005f52601260045260245ffd5b5f6110d582610b2f565b91506110e083610b2f565b9250826110f0576110ef61109e565b5b828204905092915050565b5f61110582610b2f565b915061111083610b2f565b92508282019050808211156111285761112761103e565b5b9291505056fee6b58be8af95e9809ae8bf87efbc81e4ba8ce58886e69fa5e689bee6ada3e5b8b8e5b7a5e4bd9ca2646970667358221220408dd108d5e7149d2b0c066099567ff4071d5f917a96783b813624f8a024584064736f6c634300081e0033",
					"opcodes": "PUSH1 0x80 PUSH1 0x40 MSTORE CALLVALUE DUP1 ISZERO PUSH1 0xE JUMPI PUSH0 PUSH0 REVERT JUMPDEST POP PUSH2 0x118B DUP1 PUSH2 0x1C PUSH0 CODECOPY PUSH0 RETURN INVALID PUSH1 0x80 PUSH1 0x40 MSTORE CALLVALUE DUP1 ISZERO PUSH2 0xF JUMPI PUSH0 PUSH0 REVERT JUMPDEST POP PUSH1 0x4 CALLDATASIZE LT PUSH2 0x86 JUMPI PUSH0 CALLDATALOAD PUSH1 0xE0 SHR DUP1 PUSH4 0xCFDD605D GT PUSH2 0x59 JUMPI DUP1 PUSH4 0xCFDD605D EQ PUSH2 0x114 JUMPI DUP1 PUSH4 0xD9F1AD2D EQ PUSH2 0x132 JUMPI DUP1 PUSH4 0xE23E74C2 EQ PUSH2 0x162 JUMPI DUP1 PUSH4 0xF7392E1F EQ PUSH2 0x180 JUMPI PUSH2 0x86 JUMP JUMPDEST DUP1 PUSH4 0xBE7705E EQ PUSH2 0x8A JUMPI DUP1 PUSH4 0x33034C2C EQ PUSH2 0xA8 JUMPI DUP1 PUSH4 0xB12601DA EQ PUSH2 0xC6 JUMPI DUP1 PUSH4 0xB3D0343E EQ PUSH2 0xF6 JUMPI JUMPDEST PUSH0 PUSH0 REVERT JUMPDEST PUSH2 0x92 PUSH2 0x19E JUMP JUMPDEST PUSH1 0x40 MLOAD PUSH2 0x9F SWAP2 SWAP1 PUSH2 0xB47 JUMP JUMPDEST PUSH1 0x40 MLOAD DUP1 SWAP2 SUB SWAP1 RETURN JUMPDEST PUSH2 0xB0 PUSH2 0x1C5 JUMP JUMPDEST PUSH1 0x40 MLOAD PUSH2 0xBD SWAP2 SWAP1 PUSH2 0xC05 JUMP JUMPDEST PUSH1 0x40 MLOAD DUP1 SWAP2 SUB SWAP1 RETURN JUMPDEST PUSH2 0xE0 PUSH1 0x4 DUP1 CALLDATASIZE SUB DUP2 ADD SWAP1 PUSH2 0xDB SWAP2 SWAP1 PUSH2 0xDA9 JUMP JUMPDEST PUSH2 0x3A4 JUMP JUMPDEST PUSH1 0x40 MLOAD PUSH2 0xED SWAP2 SWAP1 PUSH2 0xB47 JUMP JUMPDEST PUSH1 0x40 MLOAD DUP1 SWAP2 SUB SWAP1 RETURN JUMPDEST PUSH2 0xFE PUSH2 0x4BC JUMP JUMPDEST PUSH1 0x40 MLOAD PUSH2 0x10B SWAP2 SWAP1 PUSH2 0xE82 JUMP JUMPDEST PUSH1 0x40 MLOAD DUP1 SWAP2 SUB SWAP1 RETURN JUMPDEST PUSH2 0x11C PUSH2 0x67F JUMP JUMPDEST PUSH1 0x40 MLOAD PUSH2 0x129 SWAP2 SWAP1 PUSH2 0xF1A JUMP JUMPDEST PUSH1 0x40 MLOAD DUP1 SWAP2 SUB SWAP1 RETURN JUMPDEST PUSH2 0x14C PUSH1 0x4 DUP1 CALLDATASIZE SUB DUP2 ADD SWAP1 PUSH2 0x147 SWAP2 SWAP1 PUSH2 0xF33 JUMP JUMPDEST PUSH2 0x7F2 JUMP JUMPDEST PUSH1 0x40 MLOAD PUSH2 0x159 SWAP2 SWAP1 PUSH2 0xF78 JUMP JUMPDEST PUSH1 0x40 MLOAD DUP1 SWAP2 SUB SWAP1 RETURN JUMPDEST PUSH2 0x16A PUSH2 0x81E JUMP JUMPDEST PUSH1 0x40 MLOAD PUSH2 0x177 SWAP2 SWAP1 PUSH2 0xC05 JUMP JUMPDEST PUSH1 0x40 MLOAD DUP1 SWAP2 SUB SWAP1 RETURN JUMPDEST PUSH2 0x188 PUSH2 0x92F JUMP JUMPDEST PUSH1 0x40 MLOAD PUSH2 0x195 SWAP2 SWAP1 PUSH2 0xFF1 JUMP JUMPDEST PUSH1 0x40 MLOAD DUP1 SWAP2 SUB SWAP1 RETURN JUMPDEST PUSH0 PUSH32 0xFFFFFFFFFFFFFFFFFFFFFFFFFFFFFFFFFFFFFFFFFFFFFFFFFFFFFFFFFFFFFFFF SWAP1 POP SWAP1 JUMP JUMPDEST PUSH2 0x1CD PUSH2 0xAC9 JUMP JUMPDEST PUSH0 PUSH1 0x8 PUSH8 0xFFFFFFFFFFFFFFFF DUP2 GT ISZERO PUSH2 0x1E9 JUMPI PUSH2 0x1E8 PUSH2 0xC43 JUMP JUMPDEST JUMPDEST PUSH1 0x40 MLOAD SWAP1 DUP1 DUP3 MSTORE DUP1 PUSH1 0x20 MUL PUSH1 0x20 ADD DUP3 ADD PUSH1 0x40 MSTORE DUP1 ISZERO PUSH2 0x217 JUMPI DUP2 PUSH1 0x20 ADD PUSH1 0x20 DUP3 MUL DUP1 CALLDATASIZE DUP4 CALLDATACOPY DUP1 DUP3 ADD SWAP2 POP POP SWAP1 POP JUMPDEST POP SWAP1 POP PUSH1 0x1 DUP2 PUSH0 DUP2 MLOAD DUP2 LT PUSH2 0x22F JUMPI PUSH2 0x22E PUSH2 0x1011 JUMP JUMPDEST JUMPDEST PUSH1 0x20 MUL PUSH1 0x20 ADD ADD DUP2 DUP2 MSTORE POP POP PUSH1 0x3 DUP2 PUSH1 0x1 DUP2 MLOAD DUP2 LT PUSH2 0x251 JUMPI PUSH2 0x250 PUSH2 0x1011 JUMP JUMPDEST JUMPDEST PUSH1 0x20 MUL PUSH1 0x20 ADD ADD DUP2 DUP2 MSTORE POP POP PUSH1 0x5 DUP2 PUSH1 0x2 DUP2 MLOAD DUP2 LT PUSH2 0x273 JUMPI PUSH2 0x272 PUSH2 0x1011 JUMP JUMPDEST JUMPDEST PUSH1 0x20 MUL PUSH1 0x20 ADD ADD DUP2 DUP2 MSTORE POP POP PUSH1 0x7 DUP2 PUSH1 0x3 DUP2 MLOAD DUP2 LT PUSH2 0x295 JUMPI PUSH2 0x294 PUSH2 0x1011 JUMP JUMPDEST JUMPDEST PUSH1 0x20 MUL PUSH1 0x20 ADD ADD DUP2 DUP2 MSTORE POP POP PUSH1 0x9 DUP2 PUSH1 0x4 DUP2 MLOAD DUP2 LT PUSH2 0x2B7 JUMPI PUSH2 0x2B6 PUSH2 0x1011 JUMP JUMPDEST JUMPDEST PUSH1 0x20 MUL PUSH1 0x20 ADD ADD DUP2 DUP2 MSTORE POP POP PUSH1 0xB DUP2 PUSH1 0x5 DUP2 MLOAD DUP2 LT PUSH2 0x2D9 JUMPI PUSH2 0x2D8 PUSH2 0x1011 JUMP JUMPDEST JUMPDEST PUSH1 0x20 MUL PUSH1 0x20 ADD ADD DUP2 DUP2 MSTORE POP POP PUSH1 0xD DUP2 PUSH1 0x6 DUP2 MLOAD DUP2 LT PUSH2 0x2FB JUMPI PUSH2 0x2FA PUSH2 0x1011 JUMP JUMPDEST JUMPDEST PUSH1 0x20 MUL PUSH1 0x20 ADD ADD DUP2 DUP2 MSTORE POP POP PUSH1 0xF DUP2 PUSH1 0x7 DUP2 MLOAD DUP2 LT PUSH2 0x31D JUMPI PUSH2 0x31C PUSH2 0x1011 JUMP JUMPDEST JUMPDEST PUSH1 0x20 MUL PUSH1 0x20 ADD ADD DUP2 DUP2 MSTORE POP POP PUSH2 0x334 DUP2 PUSH1 0x1 PUSH2 0x3A4 JUMP JUMPDEST DUP3 PUSH0 PUSH1 0x3 DUP2 LT PUSH2 0x347 JUMPI PUSH2 0x346 PUSH2 0x1011 JUMP JUMPDEST JUMPDEST PUSH1 0x20 MUL ADD DUP2 DUP2 MSTORE POP POP PUSH2 0x35B DUP2 PUSH1 0x9 PUSH2 0x3A4 JUMP JUMPDEST DUP3 PUSH1 0x1 PUSH1 0x3 DUP2 LT PUSH2 0x36F JUMPI PUSH2 0x36E PUSH2 0x1011 JUMP JUMPDEST JUMPDEST PUSH1 0x20 MUL ADD DUP2 DUP2 MSTORE POP POP PUSH2 0x383 DUP2 PUSH1 0xF PUSH2 0x3A4 JUMP JUMPDEST DUP3 PUSH1 0x2 PUSH1 0x3 DUP2 LT PUSH2 0x397 JUMPI PUSH2 0x396 PUSH2 0x1011 JUMP JUMPDEST JUMPDEST PUSH1 0x20 MUL ADD DUP2 DUP2 MSTORE POP POP POP SWAP1 JUMP JUMPDEST PUSH0 PUSH0 DUP4 MLOAD SUB PUSH2 0x3D5 JUMPI PUSH32 0xFFFFFFFFFFFFFFFFFFFFFFFFFFFFFFFFFFFFFFFFFFFFFFFFFFFFFFFFFFFFFFFF SWAP1 POP PUSH2 0x4B6 JUMP JUMPDEST PUSH0 PUSH0 SWAP1 POP PUSH0 PUSH1 0x1 DUP6 MLOAD PUSH2 0x3E8 SWAP2 SWAP1 PUSH2 0x106B JUMP JUMPDEST SWAP1 POP JUMPDEST DUP1 DUP3 GT PUSH2 0x490 JUMPI PUSH0 PUSH1 0x2 DUP4 DUP4 PUSH2 0x401 SWAP2 SWAP1 PUSH2 0x106B JUMP JUMPDEST PUSH2 0x40B SWAP2 SWAP1 PUSH2 0x10CB JUMP JUMPDEST DUP4 PUSH2 0x416 SWAP2 SWAP1 PUSH2 0x10FB JUMP JUMPDEST SWAP1 POP DUP5 DUP7 DUP3 DUP2 MLOAD DUP2 LT PUSH2 0x42C JUMPI PUSH2 0x42B PUSH2 0x1011 JUMP JUMPDEST JUMPDEST PUSH1 0x20 MUL PUSH1 0x20 ADD ADD MLOAD SUB PUSH2 0x444 JUMPI DUP1 SWAP4 POP POP POP POP PUSH2 0x4B6 JUMP JUMPDEST DUP5 DUP7 DUP3 DUP2 MLOAD DUP2 LT PUSH2 0x458 JUMPI PUSH2 0x457 PUSH2 0x1011 JUMP JUMPDEST JUMPDEST PUSH1 0x20 MUL PUSH1 0x20 ADD ADD MLOAD LT ISZERO PUSH2 0x47A JUMPI PUSH1 0x1 DUP2 PUSH2 0x473 SWAP2 SWAP1 PUSH2 0x10FB JUMP JUMPDEST SWAP3 POP PUSH2 0x48A JUMP JUMPDEST PUSH1 0x1 DUP2 PUSH2 0x487 SWAP2 SWAP1 PUSH2 0x106B JUMP JUMPDEST SWAP2 POP JUMPDEST POP PUSH2 0x3EB JUMP JUMPDEST PUSH32 0xFFFFFFFFFFFFFFFFFFFFFFFFFFFFFFFFFFFFFFFFFFFFFFFFFFFFFFFFFFFFFFFF SWAP3 POP POP POP JUMPDEST SWAP3 SWAP2 POP POP JUMP JUMPDEST PUSH2 0x4C4 PUSH2 0xAEB JUMP JUMPDEST PUSH0 PUSH1 0x6 PUSH8 0xFFFFFFFFFFFFFFFF DUP2 GT ISZERO PUSH2 0x4E0 JUMPI PUSH2 0x4DF PUSH2 0xC43 JUMP JUMPDEST JUMPDEST PUSH1 0x40 MLOAD SWAP1 DUP1 DUP3 MSTORE DUP1 PUSH1 0x20 MUL PUSH1 0x20 ADD DUP3 ADD PUSH1 0x40 MSTORE DUP1 ISZERO PUSH2 0x50E JUMPI DUP2 PUSH1 0x20 ADD PUSH1 0x20 DUP3 MUL DUP1 CALLDATASIZE DUP4 CALLDATACOPY DUP1 DUP3 ADD SWAP2 POP POP SWAP1 POP JUMPDEST POP SWAP1 POP PUSH1 0xA DUP2 PUSH0 DUP2 MLOAD DUP2 LT PUSH2 0x526 JUMPI PUSH2 0x525 PUSH2 0x1011 JUMP JUMPDEST JUMPDEST PUSH1 0x20 MUL PUSH1 0x20 ADD ADD DUP2 DUP2 MSTORE POP POP PUSH1 0x14 DUP2 PUSH1 0x1 DUP2 MLOAD DUP2 LT PUSH2 0x548 JUMPI PUSH2 0x547 PUSH2 0x1011 JUMP JUMPDEST JUMPDEST PUSH1 0x20 MUL PUSH1 0x20 ADD ADD DUP2 DUP2 MSTORE POP POP PUSH1 0x1E DUP2 PUSH1 0x2 DUP2 MLOAD DUP2 LT PUSH2 0x56A JUMPI PUSH2 0x569 PUSH2 0x1011 JUMP JUMPDEST JUMPDEST PUSH1 0x20 MUL PUSH1 0x20 ADD ADD DUP2 DUP2 MSTORE POP POP PUSH1 0x28 DUP2 PUSH1 0x3 DUP2 MLOAD DUP2 LT PUSH2 0x58C JUMPI PUSH2 0x58B PUSH2 0x1011 JUMP JUMPDEST JUMPDEST PUSH1 0x20 MUL PUSH1 0x20 ADD ADD DUP2 DUP2 MSTORE POP POP PUSH1 0x32 DUP2 PUSH1 0x4 DUP2 MLOAD DUP2 LT PUSH2 0x5AE JUMPI PUSH2 0x5AD PUSH2 0x1011 JUMP JUMPDEST JUMPDEST PUSH1 0x20 MUL PUSH1 0x20 ADD ADD DUP2 DUP2 MSTORE POP POP PUSH1 0x3C DUP2 PUSH1 0x5 DUP2 MLOAD DUP2 LT PUSH2 0x5D0 JUMPI PUSH2 0x5CF PUSH2 0x1011 JUMP JUMPDEST JUMPDEST PUSH1 0x20 MUL PUSH1 0x20 ADD ADD DUP2 DUP2 MSTORE POP POP PUSH2 0x5E7 DUP2 PUSH1 0xA PUSH2 0x3A4 JUMP JUMPDEST DUP3 PUSH0 PUSH1 0x4 DUP2 LT PUSH2 0x5FA JUMPI PUSH2 0x5F9 PUSH2 0x1011 JUMP JUMPDEST JUMPDEST PUSH1 0x20 MUL ADD DUP2 DUP2 MSTORE POP POP PUSH2 0x60E DUP2 PUSH1 0x1E PUSH2 0x3A4 JUMP JUMPDEST DUP3 PUSH1 0x1 PUSH1 0x4 DUP2 LT PUSH2 0x622 JUMPI PUSH2 0x621 PUSH2 0x1011 JUMP JUMPDEST JUMPDEST PUSH1 0x20 MUL ADD DUP2 DUP2 MSTORE POP POP PUSH2 0x636 DUP2 PUSH1 0x3C PUSH2 0x3A4 JUMP JUMPDEST DUP3 PUSH1 0x2 PUSH1 0x4 DUP2 LT PUSH2 0x64A JUMPI PUSH2 0x649 PUSH2 0x1011 JUMP JUMPDEST JUMPDEST PUSH1 0x20 MUL ADD DUP2 DUP2 MSTORE POP POP PUSH2 0x65E DUP2 PUSH1 0x63 PUSH2 0x3A4 JUMP JUMPDEST DUP3 PUSH1 0x3 PUSH1 0x4 DUP2 LT PUSH2 0x672 JUMPI PUSH2 0x671 PUSH2 0x1011 JUMP JUMPDEST JUMPDEST PUSH1 0x20 MUL ADD DUP2 DUP2 MSTORE POP POP POP SWAP1 JUMP JUMPDEST PUSH2 0x687 PUSH2 0xB0D JUMP JUMPDEST PUSH0 PUSH1 0x6 PUSH8 0xFFFFFFFFFFFFFFFF DUP2 GT ISZERO PUSH2 0x6A3 JUMPI PUSH2 0x6A2 PUSH2 0xC43 JUMP JUMPDEST JUMPDEST PUSH1 0x40 MLOAD SWAP1 DUP1 DUP3 MSTORE DUP1 PUSH1 0x20 MUL PUSH1 0x20 ADD DUP3 ADD PUSH1 0x40 MSTORE DUP1 ISZERO PUSH2 0x6D1 JUMPI DUP2 PUSH1 0x20 ADD PUSH1 0x20 DUP3 MUL DUP1 CALLDATASIZE DUP4 CALLDATACOPY DUP1 DUP3 ADD SWAP2 POP POP SWAP1 POP JUMPDEST POP SWAP1 POP PUSH1 0x1 DUP2 PUSH0 DUP2 MLOAD DUP2 LT PUSH2 0x6E9 JUMPI PUSH2 0x6E8 PUSH2 0x1011 JUMP JUMPDEST JUMPDEST PUSH1 0x20 MUL PUSH1 0x20 ADD ADD DUP2 DUP2 MSTORE POP POP PUSH1 0x2 DUP2 PUSH1 0x1 DUP2 MLOAD DUP2 LT PUSH2 0x70B JUMPI PUSH2 0x70A PUSH2 0x1011 JUMP JUMPDEST JUMPDEST PUSH1 0x20 MUL PUSH1 0x20 ADD ADD DUP2 DUP2 MSTORE POP POP PUSH1 0x2 DUP2 PUSH1 0x2 DUP2 MLOAD DUP2 LT PUSH2 0x72D JUMPI PUSH2 0x72C PUSH2 0x1011 JUMP JUMPDEST JUMPDEST PUSH1 0x20 MUL PUSH1 0x20 ADD ADD DUP2 DUP2 MSTORE POP POP PUSH1 0x2 DUP2 PUSH1 0x3 DUP2 MLOAD DUP2 LT PUSH2 0x74F JUMPI PUSH2 0x74E PUSH2 0x1011 JUMP JUMPDEST JUMPDEST PUSH1 0x20 MUL PUSH1 0x20 ADD ADD DUP2 DUP2 MSTORE POP POP PUSH1 0x3 DUP2 PUSH1 0x4 DUP2 MLOAD DUP2 LT PUSH2 0x771 JUMPI PUSH2 0x770 PUSH2 0x1011 JUMP JUMPDEST JUMPDEST PUSH1 0x20 MUL PUSH1 0x20 ADD ADD DUP2 DUP2 MSTORE POP POP PUSH1 0x4 DUP2 PUSH1 0x5 DUP2 MLOAD DUP2 LT PUSH2 0x793 JUMPI PUSH2 0x792 PUSH2 0x1011 JUMP JUMPDEST JUMPDEST PUSH1 0x20 MUL PUSH1 0x20 ADD ADD DUP2 DUP2 MSTORE POP POP PUSH2 0x7AA DUP2 PUSH1 0x2 PUSH2 0x3A4 JUMP JUMPDEST DUP3 PUSH0 PUSH1 0x2 DUP2 LT PUSH2 0x7BD JUMPI PUSH2 0x7BC PUSH2 0x1011 JUMP JUMPDEST JUMPDEST PUSH1 0x20 MUL ADD DUP2 DUP2 MSTORE POP POP PUSH2 0x7D1 DUP2 PUSH1 0x5 PUSH2 0x3A4 JUMP JUMPDEST DUP3 PUSH1 0x1 PUSH1 0x2 DUP2 LT PUSH2 0x7E5 JUMPI PUSH2 0x7E4 PUSH2 0x1011 JUMP JUMPDEST JUMPDEST PUSH1 0x20 MUL ADD DUP2 DUP2 MSTORE POP POP POP SWAP1 JUMP JUMPDEST PUSH0 PUSH32 0xFFFFFFFFFFFFFFFFFFFFFFFFFFFFFFFFFFFFFFFFFFFFFFFFFFFFFFFFFFFFFFFF DUP3 EQ ISZERO SWAP1 POP SWAP2 SWAP1 POP JUMP JUMPDEST PUSH2 0x826 PUSH2 0xAC9 JUMP JUMPDEST PUSH0 PUSH1 0x1 PUSH8 0xFFFFFFFFFFFFFFFF DUP2 GT ISZERO PUSH2 0x842 JUMPI PUSH2 0x841 PUSH2 0xC43 JUMP JUMPDEST JUMPDEST PUSH1 0x40 MLOAD SWAP1 DUP1 DUP3 MSTORE DUP1 PUSH1 0x20 MUL PUSH1 0x20 ADD DUP3 ADD PUSH1 0x40 MSTORE DUP1 ISZERO PUSH2 0x870 JUMPI DUP2 PUSH1 0x20 ADD PUSH1 0x20 DUP3 MUL DUP1 CALLDATASIZE DUP4 CALLDATACOPY DUP1 DUP3 ADD SWAP2 POP POP SWAP1 POP JUMPDEST POP SWAP1 POP PUSH1 0x5 DUP2 PUSH0 DUP2 MLOAD DUP2 LT PUSH2 0x888 JUMPI PUSH2 0x887 PUSH2 0x1011 JUMP JUMPDEST JUMPDEST PUSH1 0x20 MUL PUSH1 0x20 ADD ADD DUP2 DUP2 MSTORE POP POP PUSH2 0x89F DUP2 PUSH1 0x5 PUSH2 0x3A4 JUMP JUMPDEST DUP3 PUSH0 PUSH1 0x3 DUP2 LT PUSH2 0x8B2 JUMPI PUSH2 0x8B1 PUSH2 0x1011 JUMP JUMPDEST JUMPDEST PUSH1 0x20 MUL ADD DUP2 DUP2 MSTORE POP POP PUSH2 0x90E PUSH0 PUSH8 0xFFFFFFFFFFFFFFFF DUP2 GT ISZERO PUSH2 0x8D8 JUMPI PUSH2 0x8D7 PUSH2 0xC43 JUMP JUMPDEST JUMPDEST PUSH1 0x40 MLOAD SWAP1 DUP1 DUP3 MSTORE DUP1 PUSH1 0x20 MUL PUSH1 0x20 ADD DUP3 ADD PUSH1 0x40 MSTORE DUP1 ISZERO PUSH2 0x906 JUMPI DUP2 PUSH1 0x20 ADD PUSH1 0x20 DUP3 MUL DUP1 CALLDATASIZE DUP4 CALLDATACOPY DUP1 DUP3 ADD SWAP2 POP POP SWAP1 POP JUMPDEST POP PUSH1 0x5 PUSH2 0x3A4 JUMP JUMPDEST DUP3 PUSH1 0x2 PUSH1 0x3 DUP2 LT PUSH2 0x922 JUMPI PUSH2 0x921 PUSH2 0x1011 JUMP JUMPDEST JUMPDEST PUSH1 0x20 MUL ADD DUP2 DUP2 MSTORE POP POP POP SWAP1 JUMP JUMPDEST PUSH1 0x60 PUSH0 PUSH1 0x5 PUSH8 0xFFFFFFFFFFFFFFFF DUP2 GT ISZERO PUSH2 0x94D JUMPI PUSH2 0x94C PUSH2 0xC43 JUMP JUMPDEST JUMPDEST PUSH1 0x40 MLOAD SWAP1 DUP1 DUP3 MSTORE DUP1 PUSH1 0x20 MUL PUSH1 0x20 ADD DUP3 ADD PUSH1 0x40 MSTORE DUP1 ISZERO PUSH2 0x97B JUMPI DUP2 PUSH1 0x20 ADD PUSH1 0x20 DUP3 MUL DUP1 CALLDATASIZE DUP4 CALLDATACOPY DUP1 DUP3 ADD SWAP2 POP POP SWAP1 POP JUMPDEST POP SWAP1 POP PUSH1 0x64 DUP2 PUSH0 DUP2 MLOAD DUP2 LT PUSH2 0x993 JUMPI PUSH2 0x992 PUSH2 0x1011 JUMP JUMPDEST JUMPDEST PUSH1 0x20 MUL PUSH1 0x20 ADD ADD DUP2 DUP2 MSTORE POP POP PUSH1 0xC8 DUP2 PUSH1 0x1 DUP2 MLOAD DUP2 LT PUSH2 0x9B5 JUMPI PUSH2 0x9B4 PUSH2 0x1011 JUMP JUMPDEST JUMPDEST PUSH1 0x20 MUL PUSH1 0x20 ADD ADD DUP2 DUP2 MSTORE POP POP PUSH2 0x12C DUP2 PUSH1 0x2 DUP2 MLOAD DUP2 LT PUSH2 0x9D8 JUMPI PUSH2 0x9D7 PUSH2 0x1011 JUMP JUMPDEST JUMPDEST PUSH1 0x20 MUL PUSH1 0x20 ADD ADD DUP2 DUP2 MSTORE POP POP PUSH2 0x190 DUP2 PUSH1 0x3 DUP2 MLOAD DUP2 LT PUSH2 0x9FB JUMPI PUSH2 0x9FA PUSH2 0x1011 JUMP JUMPDEST JUMPDEST PUSH1 0x20 MUL PUSH1 0x20 ADD ADD DUP2 DUP2 MSTORE POP POP PUSH2 0x1F4 DUP2 PUSH1 0x4 DUP2 MLOAD DUP2 LT PUSH2 0xA1E JUMPI PUSH2 0xA1D PUSH2 0x1011 JUMP JUMPDEST JUMPDEST PUSH1 0x20 MUL PUSH1 0x20 ADD ADD DUP2 DUP2 MSTORE POP POP PUSH0 PUSH2 0xA37 DUP3 PUSH2 0x12C PUSH2 0x3A4 JUMP JUMPDEST SWAP1 POP PUSH0 PUSH2 0xA45 DUP4 PUSH1 0xFA PUSH2 0x3A4 JUMP JUMPDEST SWAP1 POP PUSH2 0xA50 DUP3 PUSH2 0x7F2 JUMP JUMPDEST DUP1 ISZERO PUSH2 0xA62 JUMPI POP PUSH2 0xA60 DUP2 PUSH2 0x7F2 JUMP JUMPDEST ISZERO JUMPDEST ISZERO PUSH2 0xA8A JUMPI PUSH1 0x40 MLOAD DUP1 PUSH1 0x60 ADD PUSH1 0x40 MSTORE DUP1 PUSH1 0x27 DUP2 MSTORE PUSH1 0x20 ADD PUSH2 0x112F PUSH1 0x27 SWAP2 CODECOPY SWAP4 POP POP POP POP PUSH2 0xAC6 JUMP JUMPDEST PUSH1 0x40 MLOAD DUP1 PUSH1 0x40 ADD PUSH1 0x40 MSTORE DUP1 PUSH1 0xF DUP2 MSTORE PUSH1 0x20 ADD PUSH32 0xE6B58BE8AF95E5A4B1E8B4A5EFBC810000000000000000000000000000000000 DUP2 MSTORE POP SWAP4 POP POP POP POP JUMPDEST SWAP1 JUMP JUMPDEST PUSH1 0x40 MLOAD DUP1 PUSH1 0x60 ADD PUSH1 0x40 MSTORE DUP1 PUSH1 0x3 SWAP1 PUSH1 0x20 DUP3 MUL DUP1 CALLDATASIZE DUP4 CALLDATACOPY DUP1 DUP3 ADD SWAP2 POP POP SWAP1 POP POP SWAP1 JUMP JUMPDEST PUSH1 0x40 MLOAD DUP1 PUSH1 0x80 ADD PUSH1 0x40 MSTORE DUP1 PUSH1 0x4 SWAP1 PUSH1 0x20 DUP3 MUL DUP1 CALLDATASIZE DUP4 CALLDATACOPY DUP1 DUP3 ADD SWAP2 POP POP SWAP1 POP POP SWAP1 JUMP JUMPDEST PUSH1 0x40 MLOAD DUP1 PUSH1 0x40 ADD PUSH1 0x40 MSTORE DUP1 PUSH1 0x2 SWAP1 PUSH1 0x20 DUP3 MUL DUP1 CALLDATASIZE DUP4 CALLDATACOPY DUP1 DUP3 ADD SWAP2 POP POP SWAP1 POP POP SWAP1 JUMP JUMPDEST PUSH0 DUP2 SWAP1 POP SWAP2 SWAP1 POP JUMP JUMPDEST PUSH2 0xB41 DUP2 PUSH2 0xB2F JUMP JUMPDEST DUP3 MSTORE POP POP JUMP JUMPDEST PUSH0 PUSH1 0x20 DUP3 ADD SWAP1 POP PUSH2 0xB5A PUSH0 DUP4 ADD DUP5 PUSH2 0xB38 JUMP JUMPDEST SWAP3 SWAP2 POP POP JUMP JUMPDEST PUSH0 PUSH1 0x3 SWAP1 POP SWAP2 SWAP1 POP JUMP JUMPDEST PUSH0 DUP2 SWAP1 POP SWAP3 SWAP2 POP POP JUMP JUMPDEST PUSH0 DUP2 SWAP1 POP SWAP2 SWAP1 POP JUMP JUMPDEST PUSH2 0xB86 DUP2 PUSH2 0xB2F JUMP JUMPDEST DUP3 MSTORE POP POP JUMP JUMPDEST PUSH0 PUSH2 0xB97 DUP4 DUP4 PUSH2 0xB7D JUMP JUMPDEST PUSH1 0x20 DUP4 ADD SWAP1 POP SWAP3 SWAP2 POP POP JUMP JUMPDEST PUSH0 PUSH1 0x20 DUP3 ADD SWAP1 POP SWAP2 SWAP1 POP JUMP JUMPDEST PUSH2 0xBB8 DUP2 PUSH2 0xB60 JUMP JUMPDEST PUSH2 0xBC2 DUP2 DUP5 PUSH2 0xB6A JUMP JUMPDEST SWAP3 POP PUSH2 0xBCD DUP3 PUSH2 0xB74 JUMP JUMPDEST DUP1 PUSH0 JUMPDEST DUP4 DUP2 LT ISZERO PUSH2 0xBFD JUMPI DUP2 MLOAD PUSH2 0xBE4 DUP8 DUP3 PUSH2 0xB8C JUMP JUMPDEST SWAP7 POP PUSH2 0xBEF DUP4 PUSH2 0xBA3 JUMP JUMPDEST SWAP3 POP POP PUSH1 0x1 DUP2 ADD SWAP1 POP PUSH2 0xBD0 JUMP JUMPDEST POP POP POP POP POP POP JUMP JUMPDEST PUSH0 PUSH1 0x60 DUP3 ADD SWAP1 POP PUSH2 0xC18 PUSH0 DUP4 ADD DUP5 PUSH2 0xBAF JUMP JUMPDEST SWAP3 SWAP2 POP POP JUMP JUMPDEST PUSH0 PUSH1 0x40 MLOAD SWAP1 POP SWAP1 JUMP JUMPDEST PUSH0 PUSH0 REVERT JUMPDEST PUSH0 PUSH0 REVERT JUMPDEST PUSH0 PUSH0 REVERT JUMPDEST PUSH0 PUSH1 0x1F NOT PUSH1 0x1F DUP4 ADD AND SWAP1 POP SWAP2 SWAP1 POP JUMP JUMPDEST PUSH32 0x4E487B7100000000000000000000000000000000000000000000000000000000 PUSH0 MSTORE PUSH1 0x41 PUSH1 0x4 MSTORE PUSH1 0x24 PUSH0 REVERT JUMPDEST PUSH2 0xC79 DUP3 PUSH2 0xC33 JUMP JUMPDEST DUP2 ADD DUP2 DUP2 LT PUSH8 0xFFFFFFFFFFFFFFFF DUP3 GT OR ISZERO PUSH2 0xC98 JUMPI PUSH2 0xC97 PUSH2 0xC43 JUMP JUMPDEST JUMPDEST DUP1 PUSH1 0x40 MSTORE POP POP POP JUMP JUMPDEST PUSH0 PUSH2 0xCAA PUSH2 0xC1E JUMP JUMPDEST SWAP1 POP PUSH2 0xCB6 DUP3 DUP3 PUSH2 0xC70 JUMP JUMPDEST SWAP2 SWAP1 POP JUMP JUMPDEST PUSH0 PUSH8 0xFFFFFFFFFFFFFFFF DUP3 GT ISZERO PUSH2 0xCD5 JUMPI PUSH2 0xCD4 PUSH2 0xC43 JUMP JUMPDEST JUMPDEST PUSH1 0x20 DUP3 MUL SWAP1 POP PUSH1 0x20 DUP2 ADD SWAP1 POP SWAP2 SWAP1 POP JUMP JUMPDEST PUSH0 PUSH0 REVERT JUMPDEST PUSH2 0xCF3 DUP2 PUSH2 0xB2F JUMP JUMPDEST DUP2 EQ PUSH2 0xCFD JUMPI PUSH0 PUSH0 REVERT JUMPDEST POP JUMP JUMPDEST PUSH0 DUP2 CALLDATALOAD SWAP1 POP PUSH2 0xD0E DUP2 PUSH2 0xCEA JUMP JUMPDEST SWAP3 SWAP2 POP POP JUMP JUMPDEST PUSH0 PUSH2 0xD26 PUSH2 0xD21 DUP5 PUSH2 0xCBB JUMP JUMPDEST PUSH2 0xCA1 JUMP JUMPDEST SWAP1 POP DUP1 DUP4 DUP3 MSTORE PUSH1 0x20 DUP3 ADD SWAP1 POP PUSH1 0x20 DUP5 MUL DUP4 ADD DUP6 DUP2 GT ISZERO PUSH2 0xD49 JUMPI PUSH2 0xD48 PUSH2 0xCE6 JUMP JUMPDEST JUMPDEST DUP4 JUMPDEST DUP2 DUP2 LT ISZERO PUSH2 0xD72 JUMPI DUP1 PUSH2 0xD5E DUP9 DUP3 PUSH2 0xD00 JUMP JUMPDEST DUP5 MSTORE PUSH1 0x20 DUP5 ADD SWAP4 POP POP PUSH1 0x20 DUP2 ADD SWAP1 POP PUSH2 0xD4B JUMP JUMPDEST POP POP POP SWAP4 SWAP3 POP POP POP JUMP JUMPDEST PUSH0 DUP3 PUSH1 0x1F DUP4 ADD SLT PUSH2 0xD90 JUMPI PUSH2 0xD8F PUSH2 0xC2F JUMP JUMPDEST JUMPDEST DUP2 CALLDATALOAD PUSH2 0xDA0 DUP5 DUP3 PUSH1 0x20 DUP7 ADD PUSH2 0xD14 JUMP JUMPDEST SWAP2 POP POP SWAP3 SWAP2 POP POP JUMP JUMPDEST PUSH0 PUSH0 PUSH1 0x40 DUP4 DUP6 SUB SLT ISZERO PUSH2 0xDBF JUMPI PUSH2 0xDBE PUSH2 0xC27 JUMP JUMPDEST JUMPDEST PUSH0 DUP4 ADD CALLDATALOAD PUSH8 0xFFFFFFFFFFFFFFFF DUP2 GT ISZERO PUSH2 0xDDC JUMPI PUSH2 0xDDB PUSH2 0xC2B JUMP JUMPDEST JUMPDEST PUSH2 0xDE8 DUP6 DUP3 DUP7 ADD PUSH2 0xD7C JUMP JUMPDEST SWAP3 POP POP PUSH1 0x20 PUSH2 0xDF9 DUP6 DUP3 DUP7 ADD PUSH2 0xD00 JUMP JUMPDEST SWAP2 POP POP SWAP3 POP SWAP3 SWAP1 POP JUMP JUMPDEST PUSH0 PUSH1 0x4 SWAP1 POP SWAP2 SWAP1 POP JUMP JUMPDEST PUSH0 DUP2 SWAP1 POP SWAP3 SWAP2 POP POP JUMP JUMPDEST PUSH0 DUP2 SWAP1 POP SWAP2 SWAP1 POP JUMP JUMPDEST PUSH0 PUSH1 0x20 DUP3 ADD SWAP1 POP SWAP2 SWAP1 POP JUMP JUMPDEST PUSH2 0xE35 DUP2 PUSH2 0xE03 JUMP JUMPDEST PUSH2 0xE3F DUP2 DUP5 PUSH2 0xE0D JUMP JUMPDEST SWAP3 POP PUSH2 0xE4A DUP3 PUSH2 0xE17 JUMP JUMPDEST DUP1 PUSH0 JUMPDEST DUP4 DUP2 LT ISZERO PUSH2 0xE7A JUMPI DUP2 MLOAD PUSH2 0xE61 DUP8 DUP3 PUSH2 0xB8C JUMP JUMPDEST SWAP7 POP PUSH2 0xE6C DUP4 PUSH2 0xE20 JUMP JUMPDEST SWAP3 POP POP PUSH1 0x1 DUP2 ADD SWAP1 POP PUSH2 0xE4D JUMP JUMPDEST POP POP POP POP POP POP JUMP JUMPDEST PUSH0 PUSH1 0x80 DUP3 ADD SWAP1 POP PUSH2 0xE95 PUSH0 DUP4 ADD DUP5 PUSH2 0xE2C JUMP JUMPDEST SWAP3 SWAP2 POP POP JUMP JUMPDEST PUSH0 PUSH1 0x2 SWAP1 POP SWAP2 SWAP1 POP JUMP JUMPDEST PUSH0 DUP2 SWAP1 POP SWAP3 SWAP2 POP POP JUMP JUMPDEST PUSH0 DUP2 SWAP1 POP SWAP2 SWAP1 POP JUMP JUMPDEST PUSH0 PUSH1 0x20 DUP3 ADD SWAP1 POP SWAP2 SWAP1 POP JUMP JUMPDEST PUSH2 0xECD DUP2 PUSH2 0xE9B JUMP JUMPDEST PUSH2 0xED7 DUP2 DUP5 PUSH2 0xEA5 JUMP JUMPDEST SWAP3 POP PUSH2 0xEE2 DUP3 PUSH2 0xEAF JUMP JUMPDEST DUP1 PUSH0 JUMPDEST DUP4 DUP2 LT ISZERO PUSH2 0xF12 JUMPI DUP2 MLOAD PUSH2 0xEF9 DUP8 DUP3 PUSH2 0xB8C JUMP JUMPDEST SWAP7 POP PUSH2 0xF04 DUP4 PUSH2 0xEB8 JUMP JUMPDEST SWAP3 POP POP PUSH1 0x1 DUP2 ADD SWAP1 POP PUSH2 0xEE5 JUMP JUMPDEST POP POP POP POP POP POP JUMP JUMPDEST PUSH0 PUSH1 0x40 DUP3 ADD SWAP1 POP PUSH2 0xF2D PUSH0 DUP4 ADD DUP5 PUSH2 0xEC4 JUMP JUMPDEST SWAP3 SWAP2 POP POP JUMP JUMPDEST PUSH0 PUSH1 0x20 DUP3 DUP5 SUB SLT ISZERO PUSH2 0xF48 JUMPI PUSH2 0xF47 PUSH2 0xC27 JUMP JUMPDEST JUMPDEST PUSH0 PUSH2 0xF55 DUP5 DUP3 DUP6 ADD PUSH2 0xD00 JUMP JUMPDEST SWAP2 POP POP SWAP3 SWAP2 POP POP JUMP JUMPDEST PUSH0 DUP2 ISZERO ISZERO SWAP1 POP SWAP2 SWAP1 POP JUMP JUMPDEST PUSH2 0xF72 DUP2 PUSH2 0xF5E JUMP JUMPDEST DUP3 MSTORE POP POP JUMP JUMPDEST PUSH0 PUSH1 0x20 DUP3 ADD SWAP1 POP PUSH2 0xF8B PUSH0 DUP4 ADD DUP5 PUSH2 0xF69 JUMP JUMPDEST SWAP3 SWAP2 POP POP JUMP JUMPDEST PUSH0 DUP2 MLOAD SWAP1 POP SWAP2 SWAP1 POP JUMP JUMPDEST PUSH0 DUP3 DUP3 MSTORE PUSH1 0x20 DUP3 ADD SWAP1 POP SWAP3 SWAP2 POP POP JUMP JUMPDEST DUP3 DUP2 DUP4 MCOPY PUSH0 DUP4 DUP4 ADD MSTORE POP POP POP JUMP JUMPDEST PUSH0 PUSH2 0xFC3 DUP3 PUSH2 0xF91 JUMP JUMPDEST PUSH2 0xFCD DUP2 DUP6 PUSH2 0xF9B JUMP JUMPDEST SWAP4 POP PUSH2 0xFDD DUP2 DUP6 PUSH1 0x20 DUP7 ADD PUSH2 0xFAB JUMP JUMPDEST PUSH2 0xFE6 DUP2 PUSH2 0xC33 JUMP JUMPDEST DUP5 ADD SWAP2 POP POP SWAP3 SWAP2 POP POP JUMP JUMPDEST PUSH0 PUSH1 0x20 DUP3 ADD SWAP1 POP DUP2 DUP2 SUB PUSH0 DUP4 ADD MSTORE PUSH2 0x1009 DUP2 DUP5 PUSH2 0xFB9 JUMP JUMPDEST SWAP1 POP SWAP3 SWAP2 POP POP JUMP JUMPDEST PUSH32 0x4E487B7100000000000000000000000000000000000000000000000000000000 PUSH0 MSTORE PUSH1 0x32 PUSH1 0x4 MSTORE PUSH1 0x24 PUSH0 REVERT JUMPDEST PUSH32 0x4E487B7100000000000000000000000000000000000000000000000000000000 PUSH0 MSTORE PUSH1 0x11 PUSH1 0x4 MSTORE PUSH1 0x24 PUSH0 REVERT JUMPDEST PUSH0 PUSH2 0x1075 DUP3 PUSH2 0xB2F JUMP JUMPDEST SWAP2 POP PUSH2 0x1080 DUP4 PUSH2 0xB2F JUMP JUMPDEST SWAP3 POP DUP3 DUP3 SUB SWAP1 POP DUP2 DUP2 GT ISZERO PUSH2 0x1098 JUMPI PUSH2 0x1097 PUSH2 0x103E JUMP JUMPDEST JUMPDEST SWAP3 SWAP2 POP POP JUMP JUMPDEST PUSH32 0x4E487B7100000000000000000000000000000000000000000000000000000000 PUSH0 MSTORE PUSH1 0x12 PUSH1 0x4 MSTORE PUSH1 0x24 PUSH0 REVERT JUMPDEST PUSH0 PUSH2 0x10D5 DUP3 PUSH2 0xB2F JUMP JUMPDEST SWAP2 POP PUSH2 0x10E0 DUP4 PUSH2 0xB2F JUMP JUMPDEST SWAP3 POP DUP3 PUSH2 0x10F0 JUMPI PUSH2 0x10EF PUSH2 0x109E JUMP JUMPDEST JUMPDEST DUP3 DUP3 DIV SWAP1 POP SWAP3 SWAP2 POP POP JUMP JUMPDEST PUSH0 PUSH2 0x1105 DUP3 PUSH2 0xB2F JUMP JUMPDEST SWAP2 POP PUSH2 0x1110 DUP4 PUSH2 0xB2F JUMP JUMPDEST SWAP3 POP DUP3 DUP3 ADD SWAP1 POP DUP1 DUP3 GT ISZERO PUSH2 0x1128 JUMPI PUSH2 0x1127 PUSH2 0x103E JUMP JUMPDEST JUMPDEST SWAP3 SWAP2 POP POP JUMP INVALID DUPN 0xB5 DUP12 0xE8 0xAF SWAP6 0xE9 DUP1 SWAP11 0xE8 0xBF DUP8 0xEF 0xBC DUP2 RETF 0xBA DUP13 JUMPF 0x8886 DUPN 0x9F 0xA5 DUPN 0x89 0xBE DUPN 0xAD LOG3 JUMPF 0xB8B8 JUMPF 0xB7A5 RETF 0xBD SWAP13 LOG2 PUSH5 0x6970667358 0x22 SLT KECCAK256 BLOCKHASH DUP14 DATALOADN 0x8D5 SWAPN 0x14 SWAP14 0x2B 0xC MOD PUSH1 0x99 JUMP PUSH32 0xF4071D5F917A96783B813624F8A024584064736F6C634300081E003300000000 "
				},
				"gasEstimates": {
					"creation": {
						"codeDepositCost": "898200",
						"executionCost": "933",
						"totalCost": "899133"
					},
					"external": {
						"binarySearch(uint256[],uint256)": "infinite",
						"comprehensiveTest()": "infinite",
						"getNotFoundValue()": "333",
						"isFound(uint256)": "630",
						"testDuplicateElements()": "infinite",
						"testEdgeCases()": "infinite",
						"testLargeArray()": "infinite",
						"testNormalSearch()": "infinite"
					}
				},
				"methodIdentifiers": {
					"binarySearch(uint256[],uint256)": "b12601da",
					"comprehensiveTest()": "f7392e1f",
					"getNotFoundValue()": "0be7705e",
					"isFound(uint256)": "d9f1ad2d",
					"testDuplicateElements()": "cfdd605d",
					"testEdgeCases()": "e23e74c2",
					"testLargeArray()": "33034c2c",
					"testNormalSearch()": "b3d0343e"
				}
			},
			"storageLayout": {
				"storage": [],
				"types": null
			},
			"userdoc": {
				"kind": "user",
				"methods": {
					"comprehensiveTest()": {
						"notice": "综合测试示例"
					},
					"getNotFoundValue()": {
						"notice": "实用函数：获取\"未找到\"的标志值"
					},
					"isFound(uint256)": {
						"notice": "实用函数：检查值是否找到"
					},
					"testDuplicateElements()": {
						"notice": "测试例子4：重复元素（返回任意一个匹配的索引）"
					},
					"testEdgeCases()": {
						"notice": "测试例子2：边界情况"
					},
					"testLargeArray()": {
						"notice": "测试例子3：较大数组"
					}
				},
				"version": 1
			}
		}
	}
}