{
	"Voting.sol": {
		"Voting": {
			"abi": [
				{
					"anonymous": false,
					"inputs": [
						{
							"indexed": false,
							"internalType": "string",
							"name": "candidate",
							"type": "string"
						}
					],
					"name": "CandidateAdd",
					"type": "event"
				},
				{
					"anonymous": false,
					"inputs": [
						{
							"indexed": true,
							"internalType": "address",
							"name": "voter",
							"type": "address"
						},
						{
							"indexed": false,
							"internalType": "string",
							"name": "candidate",
							"type": "string"
						},
						{
							"indexed": false,
							"internalType": "uint256",
							"name": "voteNum",
							"type": "uint256"
						}
					],
					"name": "VoteEvent",
					"type": "event"
				},
				{
					"anonymous": false,
					"inputs": [],
					"name": "votesReset",
					"type": "event"
				},
				{
					"inputs": [
						{
							"internalType": "string",
							"name": "candidate",
							"type": "string"
						}
					],
					"name": "getVotes",
					"outputs": [
						{
							"internalType": "uint256",
							"name": "",
							"type": "uint256"
						}
					],
					"stateMutability": "view",
					"type": "function"
				},
				{
					"inputs": [],
					"name": "resetVotes",
					"outputs": [],
					"stateMutability": "nonpayable",
					"type": "function"
				},
				{
					"inputs": [
						{
							"internalType": "string",
							"name": "candidate",
							"type": "string"
						}
					],
					"name": "vote",
					"outputs": [],
					"stateMutability": "nonpayable",
					"type": "function"
				}
			],
			"devdoc": {
				"kind": "dev",
				"methods": {},
				"version": 1
			},
			"evm": {
				"assembly": "    /* \"Voting.sol\":353:1774  contract Voting {... */\n  mstore(0x40, 0x80)\n  callvalue\n  dup1\n  iszero\n  tag_1\n  jumpi\n  revert(0x00, 0x00)\ntag_1:\n  pop\n  dataSize(sub_0)\n  dup1\n  dataOffset(sub_0)\n  0x00\n  codecopy\n  0x00\n  return\nstop\n\nsub_0: assembly {\n        /* \"Voting.sol\":353:1774  contract Voting {... */\n      mstore(0x40, 0x80)\n      callvalue\n      dup1\n      iszero\n      tag_1\n      jumpi\n      revert(0x00, 0x00)\n    tag_1:\n      pop\n      jumpi(tag_2, lt(calldatasize, 0x04))\n      shr(0xe0, calldataload(0x00))\n      dup1\n      0x805265e5\n      eq\n      tag_3\n      jumpi\n      dup1\n      0xb9830ff1\n      eq\n      tag_4\n      jumpi\n      dup1\n      0xfc36e15b\n      eq\n      tag_5\n      jumpi\n    tag_2:\n      revert(0x00, 0x00)\n        /* \"Voting.sol\":1350:1466  function getVotes(string calldata candidate) public view returns (uint) {... */\n    tag_3:\n      tag_6\n      0x04\n      dup1\n      calldatasize\n      sub\n      dup2\n      add\n      swap1\n      tag_7\n      swap2\n      swap1\n      tag_8\n      jump\t// in\n    tag_7:\n      tag_9\n      jump\t// in\n    tag_6:\n      mload(0x40)\n      tag_10\n      swap2\n      swap1\n      tag_11\n      jump\t// in\n    tag_10:\n      mload(0x40)\n      dup1\n      swap2\n      sub\n      swap1\n      return\n        /* \"Voting.sol\":1515:1762  function resetVotes() public {... */\n    tag_4:\n      tag_12\n      tag_13\n      jump\t// in\n    tag_12:\n      stop\n        /* \"Voting.sol\":953:1301  function vote(string calldata candidate) public {... */\n    tag_5:\n      tag_14\n      0x04\n      dup1\n      calldatasize\n      sub\n      dup2\n      add\n      swap1\n      tag_15\n      swap2\n      swap1\n      tag_8\n      jump\t// in\n    tag_15:\n      tag_16\n      jump\t// in\n    tag_14:\n      stop\n        /* \"Voting.sol\":1350:1466  function getVotes(string calldata candidate) public view returns (uint) {... */\n    tag_9:\n        /* \"Voting.sol\":1416:1420  uint */\n      0x00\n        /* \"Voting.sol\":1440:1447  voteMap */\n      0x00\n        /* \"Voting.sol\":1448:1457  candidate */\n      dup4\n      dup4\n        /* \"Voting.sol\":1440:1458  voteMap[candidate] */\n      mload(0x40)\n      tag_18\n      swap3\n      swap2\n      swap1\n      tag_19\n      jump\t// in\n    tag_18:\n      swap1\n      dup2\n      mstore\n      0x20\n      add\n      mload(0x40)\n      dup1\n      swap2\n      sub\n      swap1\n      keccak256\n      sload\n        /* \"Voting.sol\":1433:1458  return voteMap[candidate] */\n      swap1\n      pop\n        /* \"Voting.sol\":1350:1466  function getVotes(string calldata candidate) public view returns (uint) {... */\n      swap3\n      swap2\n      pop\n      pop\n      jump\t// out\n        /* \"Voting.sol\":1515:1762  function resetVotes() public {... */\n    tag_13:\n        /* \"Voting.sol\":1555:1566  uint length */\n      0x00\n        /* \"Voting.sol\":1569:1582  allCandidates */\n      0x01\n        /* \"Voting.sol\":1569:1589  allCandidates.length */\n      dup1\n      sload\n      swap1\n      pop\n        /* \"Voting.sol\":1555:1589  uint length = allCandidates.length */\n      swap1\n      pop\n        /* \"Voting.sol\":1605:1611  uint i */\n      0x00\n        /* \"Voting.sol\":1612:1613  0 */\n      0x00\n        /* \"Voting.sol\":1605:1613  uint i=0 */\n      swap1\n      pop\n        /* \"Voting.sol\":1600:1696  for (uint i=0; i<length; i++) ... */\n    tag_21:\n        /* \"Voting.sol\":1617:1623  length */\n      dup2\n        /* \"Voting.sol\":1615:1616  i */\n      dup2\n        /* \"Voting.sol\":1615:1623  i<length */\n      lt\n        /* \"Voting.sol\":1600:1696  for (uint i=0; i<length; i++) ... */\n      iszero\n      tag_22\n      jumpi\n        /* \"Voting.sol\":1683:1684  0 */\n      0x00\n        /* \"Voting.sol\":1655:1662  voteMap */\n      0x00\n        /* \"Voting.sol\":1663:1676  allCandidates */\n      0x01\n        /* \"Voting.sol\":1677:1678  i */\n      dup4\n        /* \"Voting.sol\":1663:1679  allCandidates[i] */\n      dup2\n      sload\n      dup2\n      lt\n      tag_24\n      jumpi\n      tag_25\n      tag_26\n      jump\t// in\n    tag_25:\n    tag_24:\n      swap1\n      0x00\n      mstore\n      keccak256(0x00, 0x20)\n      add\n        /* \"Voting.sol\":1655:1680  voteMap[allCandidates[i]] */\n      mload(0x40)\n      tag_28\n      swap2\n      swap1\n      tag_29\n      jump\t// in\n    tag_28:\n      swap1\n      dup2\n      mstore\n      0x20\n      add\n      mload(0x40)\n      dup1\n      swap2\n      sub\n      swap1\n      keccak256\n        /* \"Voting.sol\":1655:1684  voteMap[allCandidates[i]] = 0 */\n      dup2\n      swap1\n      sstore\n      pop\n        /* \"Voting.sol\":1625:1628  i++ */\n      dup1\n      dup1\n      0x01\n      add\n      swap2\n      pop\n      pop\n        /* \"Voting.sol\":1600:1696  for (uint i=0; i<length; i++) ... */\n      jump(tag_21)\n    tag_22:\n      pop\n        /* \"Voting.sol\":1713:1726  allCandidates */\n      0x01\n      0x00\n        /* \"Voting.sol\":1706:1726  delete allCandidates */\n      tag_30\n      swap2\n      swap1\n      tag_31\n      jump\t// in\n    tag_30:\n        /* \"Voting.sol\":1742:1754  votesReset() */\n      0x5dafb66bab4be4107043e78a252f6827f39b9cd53e5dd94160605c871a889a65\n      mload(0x40)\n      mload(0x40)\n      dup1\n      swap2\n      sub\n      swap1\n      log1\n        /* \"Voting.sol\":1544:1762  {... */\n      pop\n        /* \"Voting.sol\":1515:1762  function resetVotes() public {... */\n      jump\t// out\n        /* \"Voting.sol\":953:1301  function vote(string calldata candidate) public {... */\n    tag_16:\n        /* \"Voting.sol\":1017:1032  candidateExists */\n      0x02\n        /* \"Voting.sol\":1033:1042  candidate */\n      dup3\n      dup3\n        /* \"Voting.sol\":1017:1043  candidateExists[candidate] */\n      mload(0x40)\n      tag_33\n      swap3\n      swap2\n      swap1\n      tag_19\n      jump\t// in\n    tag_33:\n      swap1\n      dup2\n      mstore\n      0x20\n      add\n      mload(0x40)\n      dup1\n      swap2\n      sub\n      swap1\n      keccak256\n      0x00\n      swap1\n      sload\n      swap1\n      0x0100\n      exp\n      swap1\n      div\n      0xff\n      and\n        /* \"Voting.sol\":1012:1192  if (!candidateExists[candidate]) {... */\n      tag_34\n      jumpi\n        /* \"Voting.sol\":1060:1073  allCandidates */\n      0x01\n        /* \"Voting.sol\":1079:1088  candidate */\n      dup3\n      dup3\n        /* \"Voting.sol\":1060:1089  allCandidates.push(candidate) */\n      swap1\n      swap2\n      dup1\n      0x01\n      dup2\n      sload\n      add\n      dup1\n      dup3\n      sstore\n      dup1\n      swap2\n      pop\n      pop\n      0x01\n      swap1\n      sub\n      swap1\n      0x00\n      mstore\n      keccak256(0x00, 0x20)\n      add\n      0x00\n      swap1\n      swap2\n      swap3\n      swap1\n      swap2\n      swap3\n      swap1\n      swap2\n      swap3\n      swap1\n      swap2\n      swap3\n      pop\n      swap2\n      dup3\n      tag_36\n      swap3\n      swap2\n      swap1\n      tag_37\n      jump\t// in\n    tag_36:\n      pop\n        /* \"Voting.sol\":1133:1137  true */\n      0x01\n        /* \"Voting.sol\":1104:1119  candidateExists */\n      0x02\n        /* \"Voting.sol\":1120:1129  candidate */\n      dup4\n      dup4\n        /* \"Voting.sol\":1104:1130  candidateExists[candidate] */\n      mload(0x40)\n      tag_38\n      swap3\n      swap2\n      swap1\n      tag_19\n      jump\t// in\n    tag_38:\n      swap1\n      dup2\n      mstore\n      0x20\n      add\n      mload(0x40)\n      dup1\n      swap2\n      sub\n      swap1\n      keccak256\n      0x00\n        /* \"Voting.sol\":1104:1137  candidateExists[candidate] = true */\n      0x0100\n      exp\n      dup2\n      sload\n      dup2\n      0xff\n      mul\n      not\n      and\n      swap1\n      dup4\n      iszero\n      iszero\n      mul\n      or\n      swap1\n      sstore\n      pop\n        /* \"Voting.sol\":1157:1180  CandidateAdd(candidate) */\n      0xd1da06948b04e65cb2a7dd4dace64f0c6bf6a3583d2e2a4b90320e26caa2a586\n        /* \"Voting.sol\":1170:1179  candidate */\n      dup3\n      dup3\n        /* \"Voting.sol\":1157:1180  CandidateAdd(candidate) */\n      mload(0x40)\n      tag_39\n      swap3\n      swap2\n      swap1\n      tag_40\n      jump\t// in\n    tag_39:\n      mload(0x40)\n      dup1\n      swap2\n      sub\n      swap1\n      log1\n        /* \"Voting.sol\":1012:1192  if (!candidateExists[candidate]) {... */\n    tag_34:\n        /* \"Voting.sol\":1224:1225  1 */\n      0x01\n        /* \"Voting.sol\":1202:1209  voteMap */\n      0x00\n        /* \"Voting.sol\":1210:1219  candidate */\n      dup4\n      dup4\n        /* \"Voting.sol\":1202:1220  voteMap[candidate] */\n      mload(0x40)\n      tag_41\n      swap3\n      swap2\n      swap1\n      tag_19\n      jump\t// in\n    tag_41:\n      swap1\n      dup2\n      mstore\n      0x20\n      add\n      mload(0x40)\n      dup1\n      swap2\n      sub\n      swap1\n      keccak256\n      0x00\n        /* \"Voting.sol\":1202:1225  voteMap[candidate] += 1 */\n      dup3\n      dup3\n      sload\n      tag_42\n      swap2\n      swap1\n      tag_43\n      jump\t// in\n    tag_42:\n      swap3\n      pop\n      pop\n      dup2\n      swap1\n      sstore\n      pop\n        /* \"Voting.sol\":1251:1261  msg.sender */\n      caller\n        /* \"Voting.sol\":1241:1293  VoteEvent(msg.sender, candidate, voteMap[candidate]) */\n      0xffffffffffffffffffffffffffffffffffffffff\n      and\n      0xa68eef2ca70818b26b1f56b70e498c91041a8e3864930ae02e4f5cbd8c7c5f8c\n        /* \"Voting.sol\":1263:1272  candidate */\n      dup4\n      dup4\n        /* \"Voting.sol\":1274:1281  voteMap */\n      0x00\n        /* \"Voting.sol\":1282:1291  candidate */\n      dup7\n      dup7\n        /* \"Voting.sol\":1274:1292  voteMap[candidate] */\n      mload(0x40)\n      tag_44\n      swap3\n      swap2\n      swap1\n      tag_19\n      jump\t// in\n    tag_44:\n      swap1\n      dup2\n      mstore\n      0x20\n      add\n      mload(0x40)\n      dup1\n      swap2\n      sub\n      swap1\n      keccak256\n      sload\n        /* \"Voting.sol\":1241:1293  VoteEvent(msg.sender, candidate, voteMap[candidate]) */\n      mload(0x40)\n      tag_45\n      swap4\n      swap3\n      swap2\n      swap1\n      tag_46\n      jump\t// in\n    tag_45:\n      mload(0x40)\n      dup1\n      swap2\n      sub\n      swap1\n      log2\n        /* \"Voting.sol\":953:1301  function vote(string calldata candidate) public {... */\n      pop\n      pop\n      jump\t// out\n    tag_31:\n      pop\n      dup1\n      sload\n      0x00\n      dup3\n      sstore\n      swap1\n      0x00\n      mstore\n      keccak256(0x00, 0x20)\n      swap1\n      dup2\n      add\n      swap1\n      tag_48\n      swap2\n      swap1\n      tag_49\n      jump\t// in\n    tag_48:\n      pop\n      jump\t// out\n    tag_49:\n    tag_50:\n      dup1\n      dup3\n      gt\n      iszero\n      tag_51\n      jumpi\n      0x00\n      dup2\n      dup2\n      tag_52\n      swap2\n      swap1\n      tag_53\n      jump\t// in\n    tag_52:\n      pop\n      0x01\n      add\n      jump(tag_50)\n    tag_51:\n      pop\n      swap1\n      jump\t// out\n    tag_53:\n      pop\n      dup1\n      sload\n      tag_54\n      swap1\n      tag_55\n      jump\t// in\n    tag_54:\n      0x00\n      dup3\n      sstore\n      dup1\n      0x1f\n      lt\n      tag_57\n      jumpi\n      pop\n      jump(tag_56)\n    tag_57:\n      0x1f\n      add\n      0x20\n      swap1\n      div\n      swap1\n      0x00\n      mstore\n      keccak256(0x00, 0x20)\n      swap1\n      dup2\n      add\n      swap1\n      tag_58\n      swap2\n      swap1\n      tag_59\n      jump\t// in\n    tag_58:\n    tag_56:\n      pop\n      jump\t// out\n    tag_59:\n    tag_60:\n      dup1\n      dup3\n      gt\n      iszero\n      tag_61\n      jumpi\n      0x00\n      dup2\n      0x00\n      swap1\n      sstore\n      pop\n      0x01\n      add\n      jump(tag_60)\n    tag_61:\n      pop\n      swap1\n      jump\t// out\n        /* \"#utility.yul\":88:205   */\n    tag_63:\n        /* \"#utility.yul\":197:198   */\n      0x00\n        /* \"#utility.yul\":194:195   */\n      0x00\n        /* \"#utility.yul\":187:199   */\n      revert\n        /* \"#utility.yul\":211:328   */\n    tag_64:\n        /* \"#utility.yul\":320:321   */\n      0x00\n        /* \"#utility.yul\":317:318   */\n      0x00\n        /* \"#utility.yul\":310:322   */\n      revert\n        /* \"#utility.yul\":334:451   */\n    tag_65:\n        /* \"#utility.yul\":443:444   */\n      0x00\n        /* \"#utility.yul\":440:441   */\n      0x00\n        /* \"#utility.yul\":433:445   */\n      revert\n        /* \"#utility.yul\":457:574   */\n    tag_66:\n        /* \"#utility.yul\":566:567   */\n      0x00\n        /* \"#utility.yul\":563:564   */\n      0x00\n        /* \"#utility.yul\":556:568   */\n      revert\n        /* \"#utility.yul\":580:697   */\n    tag_67:\n        /* \"#utility.yul\":689:690   */\n      0x00\n        /* \"#utility.yul\":686:687   */\n      0x00\n        /* \"#utility.yul\":679:691   */\n      revert\n        /* \"#utility.yul\":717:1270   */\n    tag_68:\n        /* \"#utility.yul\":775:783   */\n      0x00\n        /* \"#utility.yul\":785:791   */\n      0x00\n        /* \"#utility.yul\":835:838   */\n      dup4\n        /* \"#utility.yul\":828:832   */\n      0x1f\n        /* \"#utility.yul\":820:826   */\n      dup5\n        /* \"#utility.yul\":816:833   */\n      add\n        /* \"#utility.yul\":812:839   */\n      slt\n        /* \"#utility.yul\":802:924   */\n      tag_105\n      jumpi\n        /* \"#utility.yul\":843:922   */\n      tag_106\n      tag_65\n      jump\t// in\n    tag_106:\n        /* \"#utility.yul\":802:924   */\n    tag_105:\n        /* \"#utility.yul\":956:962   */\n      dup3\n        /* \"#utility.yul\":943:963   */\n      calldataload\n        /* \"#utility.yul\":933:963   */\n      swap1\n      pop\n        /* \"#utility.yul\":986:1004   */\n      0xffffffffffffffff\n        /* \"#utility.yul\":978:984   */\n      dup2\n        /* \"#utility.yul\":975:1005   */\n      gt\n        /* \"#utility.yul\":972:1089   */\n      iszero\n      tag_107\n      jumpi\n        /* \"#utility.yul\":1008:1087   */\n      tag_108\n      tag_66\n      jump\t// in\n    tag_108:\n        /* \"#utility.yul\":972:1089   */\n    tag_107:\n        /* \"#utility.yul\":1122:1126   */\n      0x20\n        /* \"#utility.yul\":1114:1120   */\n      dup4\n        /* \"#utility.yul\":1110:1127   */\n      add\n        /* \"#utility.yul\":1098:1127   */\n      swap2\n      pop\n        /* \"#utility.yul\":1176:1179   */\n      dup4\n        /* \"#utility.yul\":1168:1172   */\n      0x01\n        /* \"#utility.yul\":1160:1166   */\n      dup3\n        /* \"#utility.yul\":1156:1173   */\n      mul\n        /* \"#utility.yul\":1146:1154   */\n      dup4\n        /* \"#utility.yul\":1142:1174   */\n      add\n        /* \"#utility.yul\":1139:1180   */\n      gt\n        /* \"#utility.yul\":1136:1264   */\n      iszero\n      tag_109\n      jumpi\n        /* \"#utility.yul\":1183:1262   */\n      tag_110\n      tag_67\n      jump\t// in\n    tag_110:\n        /* \"#utility.yul\":1136:1264   */\n    tag_109:\n        /* \"#utility.yul\":717:1270   */\n      swap3\n      pop\n      swap3\n      swap1\n      pop\n      jump\t// out\n        /* \"#utility.yul\":1276:1805   */\n    tag_8:\n        /* \"#utility.yul\":1347:1353   */\n      0x00\n        /* \"#utility.yul\":1355:1361   */\n      0x00\n        /* \"#utility.yul\":1404:1406   */\n      0x20\n        /* \"#utility.yul\":1392:1401   */\n      dup4\n        /* \"#utility.yul\":1383:1390   */\n      dup6\n        /* \"#utility.yul\":1379:1402   */\n      sub\n        /* \"#utility.yul\":1375:1407   */\n      slt\n        /* \"#utility.yul\":1372:1491   */\n      iszero\n      tag_112\n      jumpi\n        /* \"#utility.yul\":1410:1489   */\n      tag_113\n      tag_63\n      jump\t// in\n    tag_113:\n        /* \"#utility.yul\":1372:1491   */\n    tag_112:\n        /* \"#utility.yul\":1558:1559   */\n      0x00\n        /* \"#utility.yul\":1547:1556   */\n      dup4\n        /* \"#utility.yul\":1543:1560   */\n      add\n        /* \"#utility.yul\":1530:1561   */\n      calldataload\n        /* \"#utility.yul\":1588:1606   */\n      0xffffffffffffffff\n        /* \"#utility.yul\":1580:1586   */\n      dup2\n        /* \"#utility.yul\":1577:1607   */\n      gt\n        /* \"#utility.yul\":1574:1691   */\n      iszero\n      tag_114\n      jumpi\n        /* \"#utility.yul\":1610:1689   */\n      tag_115\n      tag_64\n      jump\t// in\n    tag_115:\n        /* \"#utility.yul\":1574:1691   */\n    tag_114:\n        /* \"#utility.yul\":1723:1788   */\n      tag_116\n        /* \"#utility.yul\":1780:1787   */\n      dup6\n        /* \"#utility.yul\":1771:1777   */\n      dup3\n        /* \"#utility.yul\":1760:1769   */\n      dup7\n        /* \"#utility.yul\":1756:1778   */\n      add\n        /* \"#utility.yul\":1723:1788   */\n      tag_68\n      jump\t// in\n    tag_116:\n        /* \"#utility.yul\":1705:1788   */\n      swap3\n      pop\n      swap3\n      pop\n        /* \"#utility.yul\":1501:1798   */\n      pop\n        /* \"#utility.yul\":1276:1805   */\n      swap3\n      pop\n      swap3\n      swap1\n      pop\n      jump\t// out\n        /* \"#utility.yul\":1811:1888   */\n    tag_69:\n        /* \"#utility.yul\":1848:1855   */\n      0x00\n        /* \"#utility.yul\":1877:1882   */\n      dup2\n        /* \"#utility.yul\":1866:1882   */\n      swap1\n      pop\n        /* \"#utility.yul\":1811:1888   */\n      swap2\n      swap1\n      pop\n      jump\t// out\n        /* \"#utility.yul\":1894:2012   */\n    tag_70:\n        /* \"#utility.yul\":1981:2005   */\n      tag_119\n        /* \"#utility.yul\":1999:2004   */\n      dup2\n        /* \"#utility.yul\":1981:2005   */\n      tag_69\n      jump\t// in\n    tag_119:\n        /* \"#utility.yul\":1976:1979   */\n      dup3\n        /* \"#utility.yul\":1969:2006   */\n      mstore\n        /* \"#utility.yul\":1894:2012   */\n      pop\n      pop\n      jump\t// out\n        /* \"#utility.yul\":2018:2240   */\n    tag_11:\n        /* \"#utility.yul\":2111:2115   */\n      0x00\n        /* \"#utility.yul\":2149:2151   */\n      0x20\n        /* \"#utility.yul\":2138:2147   */\n      dup3\n        /* \"#utility.yul\":2134:2152   */\n      add\n        /* \"#utility.yul\":2126:2152   */\n      swap1\n      pop\n        /* \"#utility.yul\":2162:2233   */\n      tag_121\n        /* \"#utility.yul\":2230:2231   */\n      0x00\n        /* \"#utility.yul\":2219:2228   */\n      dup4\n        /* \"#utility.yul\":2215:2232   */\n      add\n        /* \"#utility.yul\":2206:2212   */\n      dup5\n        /* \"#utility.yul\":2162:2233   */\n      tag_70\n      jump\t// in\n    tag_121:\n        /* \"#utility.yul\":2018:2240   */\n      swap3\n      swap2\n      pop\n      pop\n      jump\t// out\n        /* \"#utility.yul\":2246:2394   */\n    tag_71:\n        /* \"#utility.yul\":2348:2359   */\n      0x00\n        /* \"#utility.yul\":2385:2388   */\n      dup2\n        /* \"#utility.yul\":2370:2388   */\n      swap1\n      pop\n        /* \"#utility.yul\":2246:2394   */\n      swap3\n      swap2\n      pop\n      pop\n      jump\t// out\n        /* \"#utility.yul\":2400:2548   */\n    tag_72:\n        /* \"#utility.yul\":2498:2504   */\n      dup3\n        /* \"#utility.yul\":2493:2496   */\n      dup2\n        /* \"#utility.yul\":2488:2491   */\n      dup4\n        /* \"#utility.yul\":2475:2505   */\n      calldatacopy\n        /* \"#utility.yul\":2539:2540   */\n      0x00\n        /* \"#utility.yul\":2530:2536   */\n      dup4\n        /* \"#utility.yul\":2525:2528   */\n      dup4\n        /* \"#utility.yul\":2521:2537   */\n      add\n        /* \"#utility.yul\":2514:2541   */\n      mstore\n        /* \"#utility.yul\":2400:2548   */\n      pop\n      pop\n      pop\n      jump\t// out\n        /* \"#utility.yul\":2578:2908   */\n    tag_73:\n        /* \"#utility.yul\":2694:2697   */\n      0x00\n        /* \"#utility.yul\":2715:2804   */\n      tag_125\n        /* \"#utility.yul\":2797:2803   */\n      dup4\n        /* \"#utility.yul\":2792:2795   */\n      dup6\n        /* \"#utility.yul\":2715:2804   */\n      tag_71\n      jump\t// in\n    tag_125:\n        /* \"#utility.yul\":2708:2804   */\n      swap4\n      pop\n        /* \"#utility.yul\":2814:2870   */\n      tag_126\n        /* \"#utility.yul\":2863:2869   */\n      dup4\n        /* \"#utility.yul\":2858:2861   */\n      dup6\n        /* \"#utility.yul\":2851:2856   */\n      dup5\n        /* \"#utility.yul\":2814:2870   */\n      tag_72\n      jump\t// in\n    tag_126:\n        /* \"#utility.yul\":2895:2901   */\n      dup3\n        /* \"#utility.yul\":2890:2893   */\n      dup5\n        /* \"#utility.yul\":2886:2902   */\n      add\n        /* \"#utility.yul\":2879:2902   */\n      swap1\n      pop\n        /* \"#utility.yul\":2578:2908   */\n      swap4\n      swap3\n      pop\n      pop\n      pop\n      jump\t// out\n        /* \"#utility.yul\":2914:3209   */\n    tag_19:\n        /* \"#utility.yul\":3056:3059   */\n      0x00\n        /* \"#utility.yul\":3078:3183   */\n      tag_128\n        /* \"#utility.yul\":3179:3182   */\n      dup3\n        /* \"#utility.yul\":3170:3176   */\n      dup5\n        /* \"#utility.yul\":3162:3168   */\n      dup7\n        /* \"#utility.yul\":3078:3183   */\n      tag_73\n      jump\t// in\n    tag_128:\n        /* \"#utility.yul\":3071:3183   */\n      swap2\n      pop\n        /* \"#utility.yul\":3200:3203   */\n      dup2\n        /* \"#utility.yul\":3193:3203   */\n      swap1\n      pop\n        /* \"#utility.yul\":2914:3209   */\n      swap4\n      swap3\n      pop\n      pop\n      pop\n      jump\t// out\n        /* \"#utility.yul\":3215:3395   */\n    tag_26:\n        /* \"#utility.yul\":3263:3340   */\n      0x4e487b7100000000000000000000000000000000000000000000000000000000\n        /* \"#utility.yul\":3260:3261   */\n      0x00\n        /* \"#utility.yul\":3253:3341   */\n      mstore\n        /* \"#utility.yul\":3360:3364   */\n      0x32\n        /* \"#utility.yul\":3357:3358   */\n      0x04\n        /* \"#utility.yul\":3350:3365   */\n      mstore\n        /* \"#utility.yul\":3384:3388   */\n      0x24\n        /* \"#utility.yul\":3381:3382   */\n      0x00\n        /* \"#utility.yul\":3374:3389   */\n      revert\n        /* \"#utility.yul\":3401:3581   */\n    tag_74:\n        /* \"#utility.yul\":3449:3526   */\n      0x4e487b7100000000000000000000000000000000000000000000000000000000\n        /* \"#utility.yul\":3446:3447   */\n      0x00\n        /* \"#utility.yul\":3439:3527   */\n      mstore\n        /* \"#utility.yul\":3546:3550   */\n      0x22\n        /* \"#utility.yul\":3543:3544   */\n      0x04\n        /* \"#utility.yul\":3536:3551   */\n      mstore\n        /* \"#utility.yul\":3570:3574   */\n      0x24\n        /* \"#utility.yul\":3567:3568   */\n      0x00\n        /* \"#utility.yul\":3560:3575   */\n      revert\n        /* \"#utility.yul\":3587:3907   */\n    tag_55:\n        /* \"#utility.yul\":3631:3637   */\n      0x00\n        /* \"#utility.yul\":3668:3669   */\n      0x02\n        /* \"#utility.yul\":3662:3666   */\n      dup3\n        /* \"#utility.yul\":3658:3670   */\n      div\n        /* \"#utility.yul\":3648:3670   */\n      swap1\n      pop\n        /* \"#utility.yul\":3715:3716   */\n      0x01\n        /* \"#utility.yul\":3709:3713   */\n      dup3\n        /* \"#utility.yul\":3705:3717   */\n      and\n        /* \"#utility.yul\":3736:3754   */\n      dup1\n        /* \"#utility.yul\":3726:3807   */\n      tag_132\n      jumpi\n        /* \"#utility.yul\":3792:3796   */\n      0x7f\n        /* \"#utility.yul\":3784:3790   */\n      dup3\n        /* \"#utility.yul\":3780:3797   */\n      and\n        /* \"#utility.yul\":3770:3797   */\n      swap2\n      pop\n        /* \"#utility.yul\":3726:3807   */\n    tag_132:\n        /* \"#utility.yul\":3854:3856   */\n      0x20\n        /* \"#utility.yul\":3846:3852   */\n      dup3\n        /* \"#utility.yul\":3843:3857   */\n      lt\n        /* \"#utility.yul\":3823:3841   */\n      dup2\n        /* \"#utility.yul\":3820:3858   */\n      sub\n        /* \"#utility.yul\":3817:3901   */\n      tag_133\n      jumpi\n        /* \"#utility.yul\":3873:3891   */\n      tag_134\n      tag_74\n      jump\t// in\n    tag_134:\n        /* \"#utility.yul\":3817:3901   */\n    tag_133:\n        /* \"#utility.yul\":3638:3907   */\n      pop\n        /* \"#utility.yul\":3587:3907   */\n      swap2\n      swap1\n      pop\n      jump\t// out\n        /* \"#utility.yul\":3913:4054   */\n    tag_75:\n        /* \"#utility.yul\":3962:3966   */\n      0x00\n        /* \"#utility.yul\":3985:3988   */\n      dup2\n        /* \"#utility.yul\":3977:3988   */\n      swap1\n      pop\n        /* \"#utility.yul\":4008:4011   */\n      dup2\n        /* \"#utility.yul\":4005:4006   */\n      0x00\n        /* \"#utility.yul\":3998:4012   */\n      mstore\n        /* \"#utility.yul\":4042:4046   */\n      0x20\n        /* \"#utility.yul\":4039:4040   */\n      0x00\n        /* \"#utility.yul\":4029:4047   */\n      keccak256\n        /* \"#utility.yul\":4021:4047   */\n      swap1\n      pop\n        /* \"#utility.yul\":3913:4054   */\n      swap2\n      swap1\n      pop\n      jump\t// out\n        /* \"#utility.yul\":4084:4958   */\n    tag_76:\n        /* \"#utility.yul\":4187:4190   */\n      0x00\n        /* \"#utility.yul\":4224:4229   */\n      dup2\n        /* \"#utility.yul\":4218:4230   */\n      sload\n        /* \"#utility.yul\":4253:4289   */\n      tag_137\n        /* \"#utility.yul\":4279:4288   */\n      dup2\n        /* \"#utility.yul\":4253:4289   */\n      tag_55\n      jump\t// in\n    tag_137:\n        /* \"#utility.yul\":4305:4394   */\n      tag_138\n        /* \"#utility.yul\":4387:4393   */\n      dup2\n        /* \"#utility.yul\":4382:4385   */\n      dup7\n        /* \"#utility.yul\":4305:4394   */\n      tag_71\n      jump\t// in\n    tag_138:\n        /* \"#utility.yul\":4298:4394   */\n      swap5\n      pop\n        /* \"#utility.yul\":4425:4426   */\n      0x01\n        /* \"#utility.yul\":4414:4423   */\n      dup3\n        /* \"#utility.yul\":4410:4427   */\n      and\n        /* \"#utility.yul\":4441:4442   */\n      0x00\n        /* \"#utility.yul\":4436:4602   */\n      dup2\n      eq\n      tag_140\n      jumpi\n        /* \"#utility.yul\":4616:4617   */\n      0x01\n        /* \"#utility.yul\":4611:4952   */\n      dup2\n      eq\n      tag_141\n      jumpi\n        /* \"#utility.yul\":4403:4952   */\n      jump(tag_139)\n        /* \"#utility.yul\":4436:4602   */\n    tag_140:\n        /* \"#utility.yul\":4520:4524   */\n      0xff\n        /* \"#utility.yul\":4516:4525   */\n      not\n        /* \"#utility.yul\":4505:4514   */\n      dup4\n        /* \"#utility.yul\":4501:4526   */\n      and\n        /* \"#utility.yul\":4496:4499   */\n      dup7\n        /* \"#utility.yul\":4489:4527   */\n      mstore\n        /* \"#utility.yul\":4582:4588   */\n      dup2\n        /* \"#utility.yul\":4575:4589   */\n      iszero\n        /* \"#utility.yul\":4568:4590   */\n      iszero\n        /* \"#utility.yul\":4560:4566   */\n      dup3\n        /* \"#utility.yul\":4556:4591   */\n      mul\n        /* \"#utility.yul\":4551:4554   */\n      dup7\n        /* \"#utility.yul\":4547:4592   */\n      add\n        /* \"#utility.yul\":4540:4592   */\n      swap4\n      pop\n        /* \"#utility.yul\":4436:4602   */\n      jump(tag_139)\n        /* \"#utility.yul\":4611:4952   */\n    tag_141:\n        /* \"#utility.yul\":4678:4716   */\n      tag_142\n        /* \"#utility.yul\":4710:4715   */\n      dup6\n        /* \"#utility.yul\":4678:4716   */\n      tag_75\n      jump\t// in\n    tag_142:\n        /* \"#utility.yul\":4738:4739   */\n      0x00\n        /* \"#utility.yul\":4752:4906   */\n    tag_143:\n        /* \"#utility.yul\":4766:4772   */\n      dup4\n        /* \"#utility.yul\":4763:4764   */\n      dup2\n        /* \"#utility.yul\":4760:4773   */\n      lt\n        /* \"#utility.yul\":4752:4906   */\n      iszero\n      tag_145\n      jumpi\n        /* \"#utility.yul\":4840:4847   */\n      dup2\n        /* \"#utility.yul\":4834:4848   */\n      sload\n        /* \"#utility.yul\":4830:4831   */\n      dup2\n        /* \"#utility.yul\":4825:4828   */\n      dup10\n        /* \"#utility.yul\":4821:4832   */\n      add\n        /* \"#utility.yul\":4814:4849   */\n      mstore\n        /* \"#utility.yul\":4890:4891   */\n      0x01\n        /* \"#utility.yul\":4881:4888   */\n      dup3\n        /* \"#utility.yul\":4877:4892   */\n      add\n        /* \"#utility.yul\":4866:4892   */\n      swap2\n      pop\n        /* \"#utility.yul\":4788:4792   */\n      0x20\n        /* \"#utility.yul\":4785:4786   */\n      dup2\n        /* \"#utility.yul\":4781:4793   */\n      add\n        /* \"#utility.yul\":4776:4793   */\n      swap1\n      pop\n        /* \"#utility.yul\":4752:4906   */\n      jump(tag_143)\n    tag_145:\n        /* \"#utility.yul\":4935:4941   */\n      dup4\n        /* \"#utility.yul\":4930:4933   */\n      dup9\n        /* \"#utility.yul\":4926:4942   */\n      add\n        /* \"#utility.yul\":4919:4942   */\n      swap6\n      pop\n        /* \"#utility.yul\":4618:4952   */\n      pop\n      pop\n        /* \"#utility.yul\":4403:4952   */\n    tag_139:\n      pop\n        /* \"#utility.yul\":4191:4958   */\n      pop\n      pop\n        /* \"#utility.yul\":4084:4958   */\n      swap3\n      swap2\n      pop\n      pop\n      jump\t// out\n        /* \"#utility.yul\":4964:5233   */\n    tag_29:\n        /* \"#utility.yul\":5093:5096   */\n      0x00\n        /* \"#utility.yul\":5115:5207   */\n      tag_147\n        /* \"#utility.yul\":5203:5206   */\n      dup3\n        /* \"#utility.yul\":5194:5200   */\n      dup5\n        /* \"#utility.yul\":5115:5207   */\n      tag_76\n      jump\t// in\n    tag_147:\n        /* \"#utility.yul\":5108:5207   */\n      swap2\n      pop\n        /* \"#utility.yul\":5224:5227   */\n      dup2\n        /* \"#utility.yul\":5217:5227   */\n      swap1\n      pop\n        /* \"#utility.yul\":4964:5233   */\n      swap3\n      swap2\n      pop\n      pop\n      jump\t// out\n        /* \"#utility.yul\":5239:5336   */\n    tag_77:\n        /* \"#utility.yul\":5298:5304   */\n      0x00\n        /* \"#utility.yul\":5326:5329   */\n      dup3\n        /* \"#utility.yul\":5316:5329   */\n      swap1\n      pop\n        /* \"#utility.yul\":5239:5336   */\n      swap3\n      swap2\n      pop\n      pop\n      jump\t// out\n        /* \"#utility.yul\":5342:5522   */\n    tag_78:\n        /* \"#utility.yul\":5390:5467   */\n      0x4e487b7100000000000000000000000000000000000000000000000000000000\n        /* \"#utility.yul\":5387:5388   */\n      0x00\n        /* \"#utility.yul\":5380:5468   */\n      mstore\n        /* \"#utility.yul\":5487:5491   */\n      0x41\n        /* \"#utility.yul\":5484:5485   */\n      0x04\n        /* \"#utility.yul\":5477:5492   */\n      mstore\n        /* \"#utility.yul\":5511:5515   */\n      0x24\n        /* \"#utility.yul\":5508:5509   */\n      0x00\n        /* \"#utility.yul\":5501:5516   */\n      revert\n        /* \"#utility.yul\":5528:5621   */\n    tag_79:\n        /* \"#utility.yul\":5565:5571   */\n      0x00\n        /* \"#utility.yul\":5612:5614   */\n      0x20\n        /* \"#utility.yul\":5607:5609   */\n      0x1f\n        /* \"#utility.yul\":5600:5605   */\n      dup4\n        /* \"#utility.yul\":5596:5610   */\n      add\n        /* \"#utility.yul\":5592:5615   */\n      div\n        /* \"#utility.yul\":5582:5615   */\n      swap1\n      pop\n        /* \"#utility.yul\":5528:5621   */\n      swap2\n      swap1\n      pop\n      jump\t// out\n        /* \"#utility.yul\":5627:5734   */\n    tag_80:\n        /* \"#utility.yul\":5671:5679   */\n      0x00\n        /* \"#utility.yul\":5721:5726   */\n      dup3\n        /* \"#utility.yul\":5715:5719   */\n      dup3\n        /* \"#utility.yul\":5711:5727   */\n      shl\n        /* \"#utility.yul\":5690:5727   */\n      swap1\n      pop\n        /* \"#utility.yul\":5627:5734   */\n      swap3\n      swap2\n      pop\n      pop\n      jump\t// out\n        /* \"#utility.yul\":5740:6133   */\n    tag_81:\n        /* \"#utility.yul\":5809:5815   */\n      0x00\n        /* \"#utility.yul\":5859:5860   */\n      0x08\n        /* \"#utility.yul\":5847:5857   */\n      dup4\n        /* \"#utility.yul\":5843:5861   */\n      mul\n        /* \"#utility.yul\":5882:5979   */\n      tag_153\n        /* \"#utility.yul\":5912:5978   */\n      0xffffffffffffffffffffffffffffffffffffffffffffffffffffffffffffffff\n        /* \"#utility.yul\":5901:5910   */\n      dup3\n        /* \"#utility.yul\":5882:5979   */\n      tag_80\n      jump\t// in\n    tag_153:\n        /* \"#utility.yul\":6000:6039   */\n      tag_154\n        /* \"#utility.yul\":6030:6038   */\n      dup7\n        /* \"#utility.yul\":6019:6028   */\n      dup4\n        /* \"#utility.yul\":6000:6039   */\n      tag_80\n      jump\t// in\n    tag_154:\n        /* \"#utility.yul\":5988:6039   */\n      swap6\n      pop\n        /* \"#utility.yul\":6072:6076   */\n      dup1\n        /* \"#utility.yul\":6068:6077   */\n      not\n        /* \"#utility.yul\":6061:6066   */\n      dup5\n        /* \"#utility.yul\":6057:6078   */\n      and\n        /* \"#utility.yul\":6048:6078   */\n      swap4\n      pop\n        /* \"#utility.yul\":6121:6125   */\n      dup1\n        /* \"#utility.yul\":6111:6119   */\n      dup7\n        /* \"#utility.yul\":6107:6126   */\n      and\n        /* \"#utility.yul\":6100:6105   */\n      dup5\n        /* \"#utility.yul\":6097:6127   */\n      or\n        /* \"#utility.yul\":6087:6127   */\n      swap3\n      pop\n        /* \"#utility.yul\":5816:6133   */\n      pop\n      pop\n        /* \"#utility.yul\":5740:6133   */\n      swap4\n      swap3\n      pop\n      pop\n      pop\n      jump\t// out\n        /* \"#utility.yul\":6139:6199   */\n    tag_82:\n        /* \"#utility.yul\":6167:6170   */\n      0x00\n        /* \"#utility.yul\":6188:6193   */\n      dup2\n        /* \"#utility.yul\":6181:6193   */\n      swap1\n      pop\n        /* \"#utility.yul\":6139:6199   */\n      swap2\n      swap1\n      pop\n      jump\t// out\n        /* \"#utility.yul\":6205:6347   */\n    tag_83:\n        /* \"#utility.yul\":6255:6264   */\n      0x00\n        /* \"#utility.yul\":6288:6341   */\n      tag_157\n        /* \"#utility.yul\":6306:6340   */\n      tag_158\n        /* \"#utility.yul\":6315:6339   */\n      tag_159\n        /* \"#utility.yul\":6333:6338   */\n      dup5\n        /* \"#utility.yul\":6315:6339   */\n      tag_69\n      jump\t// in\n    tag_159:\n        /* \"#utility.yul\":6306:6340   */\n      tag_82\n      jump\t// in\n    tag_158:\n        /* \"#utility.yul\":6288:6341   */\n      tag_69\n      jump\t// in\n    tag_157:\n        /* \"#utility.yul\":6275:6341   */\n      swap1\n      pop\n        /* \"#utility.yul\":6205:6347   */\n      swap2\n      swap1\n      pop\n      jump\t// out\n        /* \"#utility.yul\":6353:6428   */\n    tag_84:\n        /* \"#utility.yul\":6396:6399   */\n      0x00\n        /* \"#utility.yul\":6417:6422   */\n      dup2\n        /* \"#utility.yul\":6410:6422   */\n      swap1\n      pop\n        /* \"#utility.yul\":6353:6428   */\n      swap2\n      swap1\n      pop\n      jump\t// out\n        /* \"#utility.yul\":6434:6703   */\n    tag_85:\n        /* \"#utility.yul\":6544:6583   */\n      tag_162\n        /* \"#utility.yul\":6575:6582   */\n      dup4\n        /* \"#utility.yul\":6544:6583   */\n      tag_83\n      jump\t// in\n    tag_162:\n        /* \"#utility.yul\":6605:6696   */\n      tag_163\n        /* \"#utility.yul\":6654:6695   */\n      tag_164\n        /* \"#utility.yul\":6678:6694   */\n      dup3\n        /* \"#utility.yul\":6654:6695   */\n      tag_84\n      jump\t// in\n    tag_164:\n        /* \"#utility.yul\":6646:6652   */\n      dup5\n        /* \"#utility.yul\":6639:6643   */\n      dup5\n        /* \"#utility.yul\":6633:6644   */\n      sload\n        /* \"#utility.yul\":6605:6696   */\n      tag_81\n      jump\t// in\n    tag_163:\n        /* \"#utility.yul\":6599:6603   */\n      dup3\n        /* \"#utility.yul\":6592:6697   */\n      sstore\n        /* \"#utility.yul\":6510:6703   */\n      pop\n        /* \"#utility.yul\":6434:6703   */\n      pop\n      pop\n      pop\n      jump\t// out\n        /* \"#utility.yul\":6709:6782   */\n    tag_86:\n        /* \"#utility.yul\":6754:6757   */\n      0x00\n        /* \"#utility.yul\":6775:6776   */\n      0x00\n        /* \"#utility.yul\":6768:6776   */\n      swap1\n      pop\n        /* \"#utility.yul\":6709:6782   */\n      swap1\n      jump\t// out\n        /* \"#utility.yul\":6788:6977   */\n    tag_87:\n        /* \"#utility.yul\":6865:6897   */\n      tag_167\n      tag_86\n      jump\t// in\n    tag_167:\n        /* \"#utility.yul\":6906:6971   */\n      tag_168\n        /* \"#utility.yul\":6964:6970   */\n      dup2\n        /* \"#utility.yul\":6956:6962   */\n      dup5\n        /* \"#utility.yul\":6950:6954   */\n      dup5\n        /* \"#utility.yul\":6906:6971   */\n      tag_85\n      jump\t// in\n    tag_168:\n        /* \"#utility.yul\":6841:6977   */\n      pop\n        /* \"#utility.yul\":6788:6977   */\n      pop\n      pop\n      jump\t// out\n        /* \"#utility.yul\":6983:7169   */\n    tag_88:\n        /* \"#utility.yul\":7043:7163   */\n    tag_170:\n        /* \"#utility.yul\":7060:7063   */\n      dup2\n        /* \"#utility.yul\":7053:7058   */\n      dup2\n        /* \"#utility.yul\":7050:7064   */\n      lt\n        /* \"#utility.yul\":7043:7163   */\n      iszero\n      tag_172\n      jumpi\n        /* \"#utility.yul\":7114:7153   */\n      tag_173\n        /* \"#utility.yul\":7151:7152   */\n      0x00\n        /* \"#utility.yul\":7144:7149   */\n      dup3\n        /* \"#utility.yul\":7114:7153   */\n      tag_87\n      jump\t// in\n    tag_173:\n        /* \"#utility.yul\":7087:7088   */\n      0x01\n        /* \"#utility.yul\":7080:7085   */\n      dup2\n        /* \"#utility.yul\":7076:7089   */\n      add\n        /* \"#utility.yul\":7067:7089   */\n      swap1\n      pop\n        /* \"#utility.yul\":7043:7163   */\n      jump(tag_170)\n    tag_172:\n        /* \"#utility.yul\":6983:7169   */\n      pop\n      pop\n      jump\t// out\n        /* \"#utility.yul\":7175:7718   */\n    tag_89:\n        /* \"#utility.yul\":7276:7278   */\n      0x1f\n        /* \"#utility.yul\":7271:7274   */\n      dup3\n        /* \"#utility.yul\":7268:7279   */\n      gt\n        /* \"#utility.yul\":7265:7711   */\n      iszero\n      tag_175\n      jumpi\n        /* \"#utility.yul\":7310:7348   */\n      tag_176\n        /* \"#utility.yul\":7342:7347   */\n      dup2\n        /* \"#utility.yul\":7310:7348   */\n      tag_75\n      jump\t// in\n    tag_176:\n        /* \"#utility.yul\":7394:7423   */\n      tag_177\n        /* \"#utility.yul\":7412:7422   */\n      dup5\n        /* \"#utility.yul\":7394:7423   */\n      tag_79\n      jump\t// in\n    tag_177:\n        /* \"#utility.yul\":7384:7392   */\n      dup2\n        /* \"#utility.yul\":7380:7424   */\n      add\n        /* \"#utility.yul\":7577:7579   */\n      0x20\n        /* \"#utility.yul\":7565:7575   */\n      dup6\n        /* \"#utility.yul\":7562:7580   */\n      lt\n        /* \"#utility.yul\":7559:7608   */\n      iszero\n      tag_178\n      jumpi\n        /* \"#utility.yul\":7598:7606   */\n      dup2\n        /* \"#utility.yul\":7583:7606   */\n      swap1\n      pop\n        /* \"#utility.yul\":7559:7608   */\n    tag_178:\n        /* \"#utility.yul\":7621:7701   */\n      tag_179\n        /* \"#utility.yul\":7677:7699   */\n      tag_180\n        /* \"#utility.yul\":7695:7698   */\n      dup6\n        /* \"#utility.yul\":7677:7699   */\n      tag_79\n      jump\t// in\n    tag_180:\n        /* \"#utility.yul\":7667:7675   */\n      dup4\n        /* \"#utility.yul\":7663:7700   */\n      add\n        /* \"#utility.yul\":7650:7661   */\n      dup3\n        /* \"#utility.yul\":7621:7701   */\n      tag_88\n      jump\t// in\n    tag_179:\n        /* \"#utility.yul\":7280:7711   */\n      pop\n      pop\n        /* \"#utility.yul\":7265:7711   */\n    tag_175:\n        /* \"#utility.yul\":7175:7718   */\n      pop\n      pop\n      pop\n      jump\t// out\n        /* \"#utility.yul\":7724:7841   */\n    tag_90:\n        /* \"#utility.yul\":7778:7786   */\n      0x00\n        /* \"#utility.yul\":7828:7833   */\n      dup3\n        /* \"#utility.yul\":7822:7826   */\n      dup3\n        /* \"#utility.yul\":7818:7834   */\n      shr\n        /* \"#utility.yul\":7797:7834   */\n      swap1\n      pop\n        /* \"#utility.yul\":7724:7841   */\n      swap3\n      swap2\n      pop\n      pop\n      jump\t// out\n        /* \"#utility.yul\":7847:8016   */\n    tag_91:\n        /* \"#utility.yul\":7891:7897   */\n      0x00\n        /* \"#utility.yul\":7924:7975   */\n      tag_183\n        /* \"#utility.yul\":7972:7973   */\n      0x00\n        /* \"#utility.yul\":7968:7974   */\n      not\n        /* \"#utility.yul\":7960:7965   */\n      dup5\n        /* \"#utility.yul\":7957:7958   */\n      0x08\n        /* \"#utility.yul\":7953:7966   */\n      mul\n        /* \"#utility.yul\":7924:7975   */\n      tag_90\n      jump\t// in\n    tag_183:\n        /* \"#utility.yul\":7920:7976   */\n      not\n        /* \"#utility.yul\":8005:8009   */\n      dup1\n        /* \"#utility.yul\":7999:8003   */\n      dup4\n        /* \"#utility.yul\":7995:8010   */\n      and\n        /* \"#utility.yul\":7985:8010   */\n      swap2\n      pop\n        /* \"#utility.yul\":7898:8016   */\n      pop\n        /* \"#utility.yul\":7847:8016   */\n      swap3\n      swap2\n      pop\n      pop\n      jump\t// out\n        /* \"#utility.yul\":8021:8316   */\n    tag_92:\n        /* \"#utility.yul\":8097:8101   */\n      0x00\n        /* \"#utility.yul\":8243:8272   */\n      tag_185\n        /* \"#utility.yul\":8268:8271   */\n      dup4\n        /* \"#utility.yul\":8262:8266   */\n      dup4\n        /* \"#utility.yul\":8243:8272   */\n      tag_91\n      jump\t// in\n    tag_185:\n        /* \"#utility.yul\":8235:8272   */\n      swap2\n      pop\n        /* \"#utility.yul\":8305:8308   */\n      dup3\n        /* \"#utility.yul\":8302:8303   */\n      0x02\n        /* \"#utility.yul\":8298:8309   */\n      mul\n        /* \"#utility.yul\":8292:8296   */\n      dup3\n        /* \"#utility.yul\":8289:8310   */\n      or\n        /* \"#utility.yul\":8281:8310   */\n      swap1\n      pop\n        /* \"#utility.yul\":8021:8316   */\n      swap3\n      swap2\n      pop\n      pop\n      jump\t// out\n        /* \"#utility.yul\":8321:9724   */\n    tag_37:\n        /* \"#utility.yul\":8445:8489   */\n      tag_187\n        /* \"#utility.yul\":8485:8488   */\n      dup4\n        /* \"#utility.yul\":8480:8483   */\n      dup4\n        /* \"#utility.yul\":8445:8489   */\n      tag_77\n      jump\t// in\n    tag_187:\n        /* \"#utility.yul\":8554:8572   */\n      0xffffffffffffffff\n        /* \"#utility.yul\":8546:8552   */\n      dup2\n        /* \"#utility.yul\":8543:8573   */\n      gt\n        /* \"#utility.yul\":8540:8596   */\n      iszero\n      tag_188\n      jumpi\n        /* \"#utility.yul\":8576:8594   */\n      tag_189\n      tag_78\n      jump\t// in\n    tag_189:\n        /* \"#utility.yul\":8540:8596   */\n    tag_188:\n        /* \"#utility.yul\":8620:8658   */\n      tag_190\n        /* \"#utility.yul\":8652:8656   */\n      dup3\n        /* \"#utility.yul\":8646:8657   */\n      sload\n        /* \"#utility.yul\":8620:8658   */\n      tag_55\n      jump\t// in\n    tag_190:\n        /* \"#utility.yul\":8705:8772   */\n      tag_191\n        /* \"#utility.yul\":8765:8771   */\n      dup3\n        /* \"#utility.yul\":8757:8763   */\n      dup3\n        /* \"#utility.yul\":8751:8755   */\n      dup6\n        /* \"#utility.yul\":8705:8772   */\n      tag_89\n      jump\t// in\n    tag_191:\n        /* \"#utility.yul\":8799:8800   */\n      0x00\n        /* \"#utility.yul\":8828:8830   */\n      0x1f\n        /* \"#utility.yul\":8820:8826   */\n      dup4\n        /* \"#utility.yul\":8817:8831   */\n      gt\n        /* \"#utility.yul\":8845:8846   */\n      0x01\n        /* \"#utility.yul\":8840:9472   */\n      dup2\n      eq\n      tag_193\n      jumpi\n        /* \"#utility.yul\":9516:9517   */\n      0x00\n        /* \"#utility.yul\":9533:9539   */\n      dup5\n        /* \"#utility.yul\":9530:9614   */\n      iszero\n      tag_194\n      jumpi\n        /* \"#utility.yul\":9589:9598   */\n      dup3\n        /* \"#utility.yul\":9584:9587   */\n      dup8\n        /* \"#utility.yul\":9580:9599   */\n      add\n        /* \"#utility.yul\":9567:9600   */\n      calldataload\n        /* \"#utility.yul\":9558:9600   */\n      swap1\n      pop\n        /* \"#utility.yul\":9530:9614   */\n    tag_194:\n        /* \"#utility.yul\":9640:9707   */\n      tag_195\n        /* \"#utility.yul\":9700:9706   */\n      dup6\n        /* \"#utility.yul\":9693:9698   */\n      dup3\n        /* \"#utility.yul\":9640:9707   */\n      tag_92\n      jump\t// in\n    tag_195:\n        /* \"#utility.yul\":9634:9638   */\n      dup7\n        /* \"#utility.yul\":9627:9708   */\n      sstore\n        /* \"#utility.yul\":9489:9718   */\n      pop\n        /* \"#utility.yul\":8810:9718   */\n      jump(tag_192)\n        /* \"#utility.yul\":8840:9472   */\n    tag_193:\n        /* \"#utility.yul\":8892:8896   */\n      0x1f\n        /* \"#utility.yul\":8888:8897   */\n      not\n        /* \"#utility.yul\":8880:8886   */\n      dup5\n        /* \"#utility.yul\":8876:8898   */\n      and\n        /* \"#utility.yul\":8926:8963   */\n      tag_196\n        /* \"#utility.yul\":8958:8962   */\n      dup7\n        /* \"#utility.yul\":8926:8963   */\n      tag_75\n      jump\t// in\n    tag_196:\n        /* \"#utility.yul\":8985:8986   */\n      0x00\n        /* \"#utility.yul\":8999:9214   */\n    tag_197:\n        /* \"#utility.yul\":9013:9020   */\n      dup3\n        /* \"#utility.yul\":9010:9011   */\n      dup2\n        /* \"#utility.yul\":9007:9021   */\n      lt\n        /* \"#utility.yul\":8999:9214   */\n      iszero\n      tag_199\n      jumpi\n        /* \"#utility.yul\":9099:9108   */\n      dup5\n        /* \"#utility.yul\":9094:9097   */\n      dup10\n        /* \"#utility.yul\":9090:9109   */\n      add\n        /* \"#utility.yul\":9077:9110   */\n      calldataload\n        /* \"#utility.yul\":9069:9075   */\n      dup3\n        /* \"#utility.yul\":9062:9111   */\n      sstore\n        /* \"#utility.yul\":9150:9151   */\n      0x01\n        /* \"#utility.yul\":9142:9148   */\n      dup3\n        /* \"#utility.yul\":9138:9152   */\n      add\n        /* \"#utility.yul\":9128:9152   */\n      swap2\n      pop\n        /* \"#utility.yul\":9197:9199   */\n      0x20\n        /* \"#utility.yul\":9186:9195   */\n      dup6\n        /* \"#utility.yul\":9182:9200   */\n      add\n        /* \"#utility.yul\":9169:9200   */\n      swap5\n      pop\n        /* \"#utility.yul\":9036:9040   */\n      0x20\n        /* \"#utility.yul\":9033:9034   */\n      dup2\n        /* \"#utility.yul\":9029:9041   */\n      add\n        /* \"#utility.yul\":9024:9041   */\n      swap1\n      pop\n        /* \"#utility.yul\":8999:9214   */\n      jump(tag_197)\n    tag_199:\n        /* \"#utility.yul\":9242:9248   */\n      dup7\n        /* \"#utility.yul\":9233:9240   */\n      dup4\n        /* \"#utility.yul\":9230:9249   */\n      lt\n        /* \"#utility.yul\":9227:9413   */\n      iszero\n      tag_200\n      jumpi\n        /* \"#utility.yul\":9307:9316   */\n      dup5\n        /* \"#utility.yul\":9302:9305   */\n      dup10\n        /* \"#utility.yul\":9298:9317   */\n      add\n        /* \"#utility.yul\":9285:9318   */\n      calldataload\n        /* \"#utility.yul\":9350:9398   */\n      tag_201\n        /* \"#utility.yul\":9392:9396   */\n      0x1f\n        /* \"#utility.yul\":9384:9390   */\n      dup10\n        /* \"#utility.yul\":9380:9397   */\n      and\n        /* \"#utility.yul\":9369:9378   */\n      dup3\n        /* \"#utility.yul\":9350:9398   */\n      tag_91\n      jump\t// in\n    tag_201:\n        /* \"#utility.yul\":9342:9348   */\n      dup4\n        /* \"#utility.yul\":9335:9399   */\n      sstore\n        /* \"#utility.yul\":9250:9413   */\n      pop\n        /* \"#utility.yul\":9227:9413   */\n    tag_200:\n        /* \"#utility.yul\":9459:9460   */\n      0x01\n        /* \"#utility.yul\":9455:9456   */\n      0x02\n        /* \"#utility.yul\":9447:9453   */\n      dup9\n        /* \"#utility.yul\":9443:9457   */\n      mul\n        /* \"#utility.yul\":9439:9461   */\n      add\n        /* \"#utility.yul\":9433:9437   */\n      dup9\n        /* \"#utility.yul\":9426:9462   */\n      sstore\n        /* \"#utility.yul\":8847:9472   */\n      pop\n      pop\n      pop\n        /* \"#utility.yul\":8810:9718   */\n    tag_192:\n      pop\n        /* \"#utility.yul\":8420:9724   */\n      pop\n      pop\n      pop\n        /* \"#utility.yul\":8321:9724   */\n      pop\n      pop\n      pop\n      jump\t// out\n        /* \"#utility.yul\":9730:9899   */\n    tag_93:\n        /* \"#utility.yul\":9814:9825   */\n      0x00\n        /* \"#utility.yul\":9848:9854   */\n      dup3\n        /* \"#utility.yul\":9843:9846   */\n      dup3\n        /* \"#utility.yul\":9836:9855   */\n      mstore\n        /* \"#utility.yul\":9888:9892   */\n      0x20\n        /* \"#utility.yul\":9883:9886   */\n      dup3\n        /* \"#utility.yul\":9879:9893   */\n      add\n        /* \"#utility.yul\":9864:9893   */\n      swap1\n      pop\n        /* \"#utility.yul\":9730:9899   */\n      swap3\n      swap2\n      pop\n      pop\n      jump\t// out\n        /* \"#utility.yul\":9905:10007   */\n    tag_94:\n        /* \"#utility.yul\":9946:9952   */\n      0x00\n        /* \"#utility.yul\":9997:9999   */\n      0x1f\n        /* \"#utility.yul\":9993:10000   */\n      not\n        /* \"#utility.yul\":9988:9990   */\n      0x1f\n        /* \"#utility.yul\":9981:9986   */\n      dup4\n        /* \"#utility.yul\":9977:9991   */\n      add\n        /* \"#utility.yul\":9973:10001   */\n      and\n        /* \"#utility.yul\":9963:10001   */\n      swap1\n      pop\n        /* \"#utility.yul\":9905:10007   */\n      swap2\n      swap1\n      pop\n      jump\t// out\n        /* \"#utility.yul\":10037:10354   */\n    tag_95:\n        /* \"#utility.yul\":10135:10138   */\n      0x00\n        /* \"#utility.yul\":10156:10227   */\n      tag_205\n        /* \"#utility.yul\":10220:10226   */\n      dup4\n        /* \"#utility.yul\":10215:10218   */\n      dup6\n        /* \"#utility.yul\":10156:10227   */\n      tag_93\n      jump\t// in\n    tag_205:\n        /* \"#utility.yul\":10149:10227   */\n      swap4\n      pop\n        /* \"#utility.yul\":10237:10293   */\n      tag_206\n        /* \"#utility.yul\":10286:10292   */\n      dup4\n        /* \"#utility.yul\":10281:10284   */\n      dup6\n        /* \"#utility.yul\":10274:10279   */\n      dup5\n        /* \"#utility.yul\":10237:10293   */\n      tag_72\n      jump\t// in\n    tag_206:\n        /* \"#utility.yul\":10318:10347   */\n      tag_207\n        /* \"#utility.yul\":10340:10346   */\n      dup4\n        /* \"#utility.yul\":10318:10347   */\n      tag_94\n      jump\t// in\n    tag_207:\n        /* \"#utility.yul\":10313:10316   */\n      dup5\n        /* \"#utility.yul\":10309:10348   */\n      add\n        /* \"#utility.yul\":10302:10348   */\n      swap1\n      pop\n        /* \"#utility.yul\":10037:10354   */\n      swap4\n      swap3\n      pop\n      pop\n      pop\n      jump\t// out\n        /* \"#utility.yul\":10360:10693   */\n    tag_40:\n        /* \"#utility.yul\":10483:10487   */\n      0x00\n        /* \"#utility.yul\":10521:10523   */\n      0x20\n        /* \"#utility.yul\":10510:10519   */\n      dup3\n        /* \"#utility.yul\":10506:10524   */\n      add\n        /* \"#utility.yul\":10498:10524   */\n      swap1\n      pop\n        /* \"#utility.yul\":10570:10579   */\n      dup2\n        /* \"#utility.yul\":10564:10568   */\n      dup2\n        /* \"#utility.yul\":10560:10580   */\n      sub\n        /* \"#utility.yul\":10556:10557   */\n      0x00\n        /* \"#utility.yul\":10545:10554   */\n      dup4\n        /* \"#utility.yul\":10541:10558   */\n      add\n        /* \"#utility.yul\":10534:10581   */\n      mstore\n        /* \"#utility.yul\":10598:10686   */\n      tag_209\n        /* \"#utility.yul\":10681:10685   */\n      dup2\n        /* \"#utility.yul\":10672:10678   */\n      dup5\n        /* \"#utility.yul\":10664:10670   */\n      dup7\n        /* \"#utility.yul\":10598:10686   */\n      tag_95\n      jump\t// in\n    tag_209:\n        /* \"#utility.yul\":10590:10686   */\n      swap1\n      pop\n        /* \"#utility.yul\":10360:10693   */\n      swap4\n      swap3\n      pop\n      pop\n      pop\n      jump\t// out\n        /* \"#utility.yul\":10699:10879   */\n    tag_96:\n        /* \"#utility.yul\":10747:10824   */\n      0x4e487b7100000000000000000000000000000000000000000000000000000000\n        /* \"#utility.yul\":10744:10745   */\n      0x00\n        /* \"#utility.yul\":10737:10825   */\n      mstore\n        /* \"#utility.yul\":10844:10848   */\n      0x11\n        /* \"#utility.yul\":10841:10842   */\n      0x04\n        /* \"#utility.yul\":10834:10849   */\n      mstore\n        /* \"#utility.yul\":10868:10872   */\n      0x24\n        /* \"#utility.yul\":10865:10866   */\n      0x00\n        /* \"#utility.yul\":10858:10873   */\n      revert\n        /* \"#utility.yul\":10885:11076   */\n    tag_43:\n        /* \"#utility.yul\":10925:10928   */\n      0x00\n        /* \"#utility.yul\":10944:10964   */\n      tag_212\n        /* \"#utility.yul\":10962:10963   */\n      dup3\n        /* \"#utility.yul\":10944:10964   */\n      tag_69\n      jump\t// in\n    tag_212:\n        /* \"#utility.yul\":10939:10964   */\n      swap2\n      pop\n        /* \"#utility.yul\":10978:10998   */\n      tag_213\n        /* \"#utility.yul\":10996:10997   */\n      dup4\n        /* \"#utility.yul\":10978:10998   */\n      tag_69\n      jump\t// in\n    tag_213:\n        /* \"#utility.yul\":10973:10998   */\n      swap3\n      pop\n        /* \"#utility.yul\":11021:11022   */\n      dup3\n        /* \"#utility.yul\":11018:11019   */\n      dup3\n        /* \"#utility.yul\":11014:11023   */\n      add\n        /* \"#utility.yul\":11007:11023   */\n      swap1\n      pop\n        /* \"#utility.yul\":11042:11045   */\n      dup1\n        /* \"#utility.yul\":11039:11040   */\n      dup3\n        /* \"#utility.yul\":11036:11046   */\n      gt\n        /* \"#utility.yul\":11033:11069   */\n      iszero\n      tag_214\n      jumpi\n        /* \"#utility.yul\":11049:11067   */\n      tag_215\n      tag_96\n      jump\t// in\n    tag_215:\n        /* \"#utility.yul\":11033:11069   */\n    tag_214:\n        /* \"#utility.yul\":10885:11076   */\n      swap3\n      swap2\n      pop\n      pop\n      jump\t// out\n        /* \"#utility.yul\":11082:11525   */\n    tag_46:\n        /* \"#utility.yul\":11233:11237   */\n      0x00\n        /* \"#utility.yul\":11271:11273   */\n      0x40\n        /* \"#utility.yul\":11260:11269   */\n      dup3\n        /* \"#utility.yul\":11256:11274   */\n      add\n        /* \"#utility.yul\":11248:11274   */\n      swap1\n      pop\n        /* \"#utility.yul\":11320:11329   */\n      dup2\n        /* \"#utility.yul\":11314:11318   */\n      dup2\n        /* \"#utility.yul\":11310:11330   */\n      sub\n        /* \"#utility.yul\":11306:11307   */\n      0x00\n        /* \"#utility.yul\":11295:11304   */\n      dup4\n        /* \"#utility.yul\":11291:11308   */\n      add\n        /* \"#utility.yul\":11284:11331   */\n      mstore\n        /* \"#utility.yul\":11348:11436   */\n      tag_217\n        /* \"#utility.yul\":11431:11435   */\n      dup2\n        /* \"#utility.yul\":11422:11428   */\n      dup6\n        /* \"#utility.yul\":11414:11420   */\n      dup8\n        /* \"#utility.yul\":11348:11436   */\n      tag_95\n      jump\t// in\n    tag_217:\n        /* \"#utility.yul\":11340:11436   */\n      swap1\n      pop\n        /* \"#utility.yul\":11446:11518   */\n      tag_218\n        /* \"#utility.yul\":11514:11516   */\n      0x20\n        /* \"#utility.yul\":11503:11512   */\n      dup4\n        /* \"#utility.yul\":11499:11517   */\n      add\n        /* \"#utility.yul\":11490:11496   */\n      dup5\n        /* \"#utility.yul\":11446:11518   */\n      tag_70\n      jump\t// in\n    tag_218:\n        /* \"#utility.yul\":11082:11525   */\n      swap5\n      swap4\n      pop\n      pop\n      pop\n      pop\n      jump\t// out\n\n    auxdata: 0xa2646970667358221220ce5786d669de3f62536bb6bc6d8808792f7598f3f1d12c6ba1d342f87be63ca664736f6c634300081e0033\n}\n",
				"bytecode": {
					"linkReferences": {},
					"object": "6080604052348015600e575f5ffd5b506109b28061001c5f395ff3fe608060405234801561000f575f5ffd5b506004361061003f575f3560e01c8063805265e514610043578063b9830ff114610073578063fc36e15b1461007d575b5f5ffd5b61005d600480360381019061005891906103ea565b610099565b60405161006a919061044d565b60405180910390f35b61007b6100c2565b005b610097600480360381019061009291906103ea565b61015f565b005b5f5f83836040516100ab9291906104a2565b908152602001604051809103902054905092915050565b5f60018054905090505f5f90505b81811015610122575f5f600183815481106100ee576100ed6104ba565b5b905f5260205f200160405161010391906105d6565b90815260200160405180910390208190555080806001019150506100d0565b5060015f61013091906102e8565b7f5dafb66bab4be4107043e78a252f6827f39b9cd53e5dd94160605c871a889a6560405160405180910390a150565b600282826040516101719291906104a2565b90815260200160405180910390205f9054906101000a900460ff1661023d576001828290918060018154018082558091505060019003905f5260205f20015f9091929091929091929091925091826101ca9291906107b1565b506001600283836040516101df9291906104a2565b90815260200160405180910390205f6101000a81548160ff0219169083151502179055507fd1da06948b04e65cb2a7dd4dace64f0c6bf6a3583d2e2a4b90320e26caa2a58682826040516102349291906108ca565b60405180910390a15b60015f83836040516102509291906104a2565b90815260200160405180910390205f82825461026c9190610919565b925050819055503373ffffffffffffffffffffffffffffffffffffffff167fa68eef2ca70818b26b1f56b70e498c91041a8e3864930ae02e4f5cbd8c7c5f8c83835f86866040516102be9291906104a2565b9081526020016040518091039020546040516102dc9392919061094c565b60405180910390a25050565b5080545f8255905f5260205f20908101906103039190610306565b50565b5b80821115610325575f818161031c9190610329565b50600101610307565b5090565b50805461033590610514565b5f825580601f106103465750610363565b601f0160209004905f5260205f20908101906103629190610366565b5b50565b5b8082111561037d575f815f905550600101610367565b5090565b5f5ffd5b5f5ffd5b5f5ffd5b5f5ffd5b5f5ffd5b5f5f83601f8401126103aa576103a9610389565b5b8235905067ffffffffffffffff8111156103c7576103c661038d565b5b6020830191508360018202830111156103e3576103e2610391565b5b9250929050565b5f5f60208385031215610400576103ff610381565b5b5f83013567ffffffffffffffff81111561041d5761041c610385565b5b61042985828601610395565b92509250509250929050565b5f819050919050565b61044781610435565b82525050565b5f6020820190506104605f83018461043e565b92915050565b5f81905092915050565b828183375f83830152505050565b5f6104898385610466565b9350610496838584610470565b82840190509392505050565b5f6104ae82848661047e565b91508190509392505050565b7f4e487b71000000000000000000000000000000000000000000000000000000005f52603260045260245ffd5b7f4e487b71000000000000000000000000000000000000000000000000000000005f52602260045260245ffd5b5f600282049050600182168061052b57607f821691505b60208210810361053e5761053d6104e7565b5b50919050565b5f819050815f5260205f209050919050565b5f815461056281610514565b61056c8186610466565b9450600182165f8114610586576001811461059b576105cd565b60ff19831686528115158202860193506105cd565b6105a485610544565b5f5b838110156105c5578154818901526001820191506020810190506105a6565b838801955050505b50505092915050565b5f6105e18284610556565b915081905092915050565b5f82905092915050565b7f4e487b71000000000000000000000000000000000000000000000000000000005f52604160045260245ffd5b5f6020601f8301049050919050565b5f82821b905092915050565b5f6008830261066d7fffffffffffffffffffffffffffffffffffffffffffffffffffffffffffffffff82610632565b6106778683610632565b95508019841693508086168417925050509392505050565b5f819050919050565b5f6106b26106ad6106a884610435565b61068f565b610435565b9050919050565b5f819050919050565b6106cb83610698565b6106df6106d7826106b9565b84845461063e565b825550505050565b5f5f905090565b6106f66106e7565b6107018184846106c2565b505050565b5b81811015610724576107195f826106ee565b600181019050610707565b5050565b601f8211156107695761073a81610544565b61074384610623565b81016020851015610752578190505b61076661075e85610623565b830182610706565b50505b505050565b5f82821c905092915050565b5f6107895f198460080261076e565b1980831691505092915050565b5f6107a1838361077a565b9150826002028217905092915050565b6107bb83836105ec565b67ffffffffffffffff8111156107d4576107d36105f6565b5b6107de8254610514565b6107e9828285610728565b5f601f831160018114610816575f8415610804578287013590505b61080e8582610796565b865550610875565b601f19841661082486610544565b5f5b8281101561084b57848901358255600182019150602085019450602081019050610826565b868310156108685784890135610864601f89168261077a565b8355505b6001600288020188555050505b50505050505050565b5f82825260208201905092915050565b5f601f19601f8301169050919050565b5f6108a9838561087e565b93506108b6838584610470565b6108bf8361088e565b840190509392505050565b5f6020820190508181035f8301526108e381848661089e565b90509392505050565b7f4e487b71000000000000000000000000000000000000000000000000000000005f52601160045260245ffd5b5f61092382610435565b915061092e83610435565b9250828201905080821115610946576109456108ec565b5b92915050565b5f6040820190508181035f83015261096581858761089e565b9050610974602083018461043e565b94935050505056fea2646970667358221220ce5786d669de3f62536bb6bc6d8808792f7598f3f1d12c6ba1d342f87be63ca664736f6c634300081e0033",
					"opcodes": "PUSH1 0x80 PUSH1 0x40 MSTORE CALLVALUE DUP1 ISZERO PUSH1 0xE JUMPI PUSH0 PUSH0 REVERT JUMPDEST POP PUSH2 0x9B2 DUP1 PUSH2 0x1C PUSH0 CODECOPY PUSH0 RETURN INVALID PUSH1 0x80 PUSH1 0x40 MSTORE CALLVALUE DUP1 ISZERO PUSH2 0xF JUMPI PUSH0 PUSH0 REVERT JUMPDEST POP PUSH1 0x4 CALLDATASIZE LT PUSH2 0x3F JUMPI PUSH0 CALLDATALOAD PUSH1 0xE0 SHR DUP1 PUSH4 0x805265E5 EQ PUSH2 0x43 JUMPI DUP1 PUSH4 0xB9830FF1 EQ PUSH2 0x73 JUMPI DUP1 PUSH4 0xFC36E15B EQ PUSH2 0x7D JUMPI JUMPDEST PUSH0 PUSH0 REVERT JUMPDEST PUSH2 0x5D PUSH1 0x4 DUP1 CALLDATASIZE SUB DUP2 ADD SWAP1 PUSH2 0x58 SWAP2 SWAP1 PUSH2 0x3EA JUMP JUMPDEST PUSH2 0x99 JUMP JUMPDEST PUSH1 0x40 MLOAD PUSH2 0x6A SWAP2 SWAP1 PUSH2 0x44D JUMP JUMPDEST PUSH1 0x40 MLOAD DUP1 SWAP2 SUB SWAP1 RETURN JUMPDEST PUSH2 0x7B PUSH2 0xC2 JUMP JUMPDEST STOP JUMPDEST PUSH2 0x97 PUSH1 0x4 DUP1 CALLDATASIZE SUB DUP2 ADD SWAP1 PUSH2 0x92 SWAP2 SWAP1 PUSH2 0x3EA JUMP JUMPDEST PUSH2 0x15F JUMP JUMPDEST STOP JUMPDEST PUSH0 PUSH0 DUP4 DUP4 PUSH1 0x40 MLOAD PUSH2 0xAB SWAP3 SWAP2 SWAP1 PUSH2 0x4A2 JUMP JUMPDEST SWAP1 DUP2 MSTORE PUSH1 0x20 ADD PUSH1 0x40 MLOAD DUP1 SWAP2 SUB SWAP1 KECCAK256 SLOAD SWAP1 POP SWAP3 SWAP2 POP POP JUMP JUMPDEST PUSH0 PUSH1 0x1 DUP1 SLOAD SWAP1 POP SWAP1 POP PUSH0 PUSH0 SWAP1 POP JUMPDEST DUP2 DUP2 LT ISZERO PUSH2 0x122 JUMPI PUSH0 PUSH0 PUSH1 0x1 DUP4 DUP2 SLOAD DUP2 LT PUSH2 0xEE JUMPI PUSH2 0xED PUSH2 0x4BA JUMP JUMPDEST JUMPDEST SWAP1 PUSH0 MSTORE PUSH1 0x20 PUSH0 KECCAK256 ADD PUSH1 0x40 MLOAD PUSH2 0x103 SWAP2 SWAP1 PUSH2 0x5D6 JUMP JUMPDEST SWAP1 DUP2 MSTORE PUSH1 0x20 ADD PUSH1 0x40 MLOAD DUP1 SWAP2 SUB SWAP1 KECCAK256 DUP2 SWAP1 SSTORE POP DUP1 DUP1 PUSH1 0x1 ADD SWAP2 POP POP PUSH2 0xD0 JUMP JUMPDEST POP PUSH1 0x1 PUSH0 PUSH2 0x130 SWAP2 SWAP1 PUSH2 0x2E8 JUMP JUMPDEST PUSH32 0x5DAFB66BAB4BE4107043E78A252F6827F39B9CD53E5DD94160605C871A889A65 PUSH1 0x40 MLOAD PUSH1 0x40 MLOAD DUP1 SWAP2 SUB SWAP1 LOG1 POP JUMP JUMPDEST PUSH1 0x2 DUP3 DUP3 PUSH1 0x40 MLOAD PUSH2 0x171 SWAP3 SWAP2 SWAP1 PUSH2 0x4A2 JUMP JUMPDEST SWAP1 DUP2 MSTORE PUSH1 0x20 ADD PUSH1 0x40 MLOAD DUP1 SWAP2 SUB SWAP1 KECCAK256 PUSH0 SWAP1 SLOAD SWAP1 PUSH2 0x100 EXP SWAP1 DIV PUSH1 0xFF AND PUSH2 0x23D JUMPI PUSH1 0x1 DUP3 DUP3 SWAP1 SWAP2 DUP1 PUSH1 0x1 DUP2 SLOAD ADD DUP1 DUP3 SSTORE DUP1 SWAP2 POP POP PUSH1 0x1 SWAP1 SUB SWAP1 PUSH0 MSTORE PUSH1 0x20 PUSH0 KECCAK256 ADD PUSH0 SWAP1 SWAP2 SWAP3 SWAP1 SWAP2 SWAP3 SWAP1 SWAP2 SWAP3 SWAP1 SWAP2 SWAP3 POP SWAP2 DUP3 PUSH2 0x1CA SWAP3 SWAP2 SWAP1 PUSH2 0x7B1 JUMP JUMPDEST POP PUSH1 0x1 PUSH1 0x2 DUP4 DUP4 PUSH1 0x40 MLOAD PUSH2 0x1DF SWAP3 SWAP2 SWAP1 PUSH2 0x4A2 JUMP JUMPDEST SWAP1 DUP2 MSTORE PUSH1 0x20 ADD PUSH1 0x40 MLOAD DUP1 SWAP2 SUB SWAP1 KECCAK256 PUSH0 PUSH2 0x100 EXP DUP2 SLOAD DUP2 PUSH1 0xFF MUL NOT AND SWAP1 DUP4 ISZERO ISZERO MUL OR SWAP1 SSTORE POP PUSH32 0xD1DA06948B04E65CB2A7DD4DACE64F0C6BF6A3583D2E2A4B90320E26CAA2A586 DUP3 DUP3 PUSH1 0x40 MLOAD PUSH2 0x234 SWAP3 SWAP2 SWAP1 PUSH2 0x8CA JUMP JUMPDEST PUSH1 0x40 MLOAD DUP1 SWAP2 SUB SWAP1 LOG1 JUMPDEST PUSH1 0x1 PUSH0 DUP4 DUP4 PUSH1 0x40 MLOAD PUSH2 0x250 SWAP3 SWAP2 SWAP1 PUSH2 0x4A2 JUMP JUMPDEST SWAP1 DUP2 MSTORE PUSH1 0x20 ADD PUSH1 0x40 MLOAD DUP1 SWAP2 SUB SWAP1 KECCAK256 PUSH0 DUP3 DUP3 SLOAD PUSH2 0x26C SWAP2 SWAP1 PUSH2 0x919 JUMP JUMPDEST SWAP3 POP POP DUP2 SWAP1 SSTORE POP CALLER PUSH20 0xFFFFFFFFFFFFFFFFFFFFFFFFFFFFFFFFFFFFFFFF AND PUSH32 0xA68EEF2CA70818B26B1F56B70E498C91041A8E3864930AE02E4F5CBD8C7C5F8C DUP4 DUP4 PUSH0 DUP7 DUP7 PUSH1 0x40 MLOAD PUSH2 0x2BE SWAP3 SWAP2 SWAP1 PUSH2 0x4A2 JUMP JUMPDEST SWAP1 DUP2 MSTORE PUSH1 0x20 ADD PUSH1 0x40 MLOAD DUP1 SWAP2 SUB SWAP1 KECCAK256 SLOAD PUSH1 0x40 MLOAD PUSH2 0x2DC SWAP4 SWAP3 SWAP2 SWAP1 PUSH2 0x94C JUMP JUMPDEST PUSH1 0x40 MLOAD DUP1 SWAP2 SUB SWAP1 LOG2 POP POP JUMP JUMPDEST POP DUP1 SLOAD PUSH0 DUP3 SSTORE SWAP1 PUSH0 MSTORE PUSH1 0x20 PUSH0 KECCAK256 SWAP1 DUP2 ADD SWAP1 PUSH2 0x303 SWAP2 SWAP1 PUSH2 0x306 JUMP JUMPDEST POP JUMP JUMPDEST JUMPDEST DUP1 DUP3 GT ISZERO PUSH2 0x325 JUMPI PUSH0 DUP2 DUP2 PUSH2 0x31C SWAP2 SWAP1 PUSH2 0x329 JUMP JUMPDEST POP PUSH1 0x1 ADD PUSH2 0x307 JUMP JUMPDEST POP SWAP1 JUMP JUMPDEST POP DUP1 SLOAD PUSH2 0x335 SWAP1 PUSH2 0x514 JUMP JUMPDEST PUSH0 DUP3 SSTORE DUP1 PUSH1 0x1F LT PUSH2 0x346 JUMPI POP PUSH2 0x363 JUMP JUMPDEST PUSH1 0x1F ADD PUSH1 0x20 SWAP1 DIV SWAP1 PUSH0 MSTORE PUSH1 0x20 PUSH0 KECCAK256 SWAP1 DUP2 ADD SWAP1 PUSH2 0x362 SWAP2 SWAP1 PUSH2 0x366 JUMP JUMPDEST JUMPDEST POP JUMP JUMPDEST JUMPDEST DUP1 DUP3 GT ISZERO PUSH2 0x37D JUMPI PUSH0 DUP2 PUSH0 SWAP1 SSTORE POP PUSH1 0x1 ADD PUSH2 0x367 JUMP JUMPDEST POP SWAP1 JUMP JUMPDEST PUSH0 PUSH0 REVERT JUMPDEST PUSH0 PUSH0 REVERT JUMPDEST PUSH0 PUSH0 REVERT JUMPDEST PUSH0 PUSH0 REVERT JUMPDEST PUSH0 PUSH0 REVERT JUMPDEST PUSH0 PUSH0 DUP4 PUSH1 0x1F DUP5 ADD SLT PUSH2 0x3AA JUMPI PUSH2 0x3A9 PUSH2 0x389 JUMP JUMPDEST JUMPDEST DUP3 CALLDATALOAD SWAP1 POP PUSH8 0xFFFFFFFFFFFFFFFF DUP2 GT ISZERO PUSH2 0x3C7 JUMPI PUSH2 0x3C6 PUSH2 0x38D JUMP JUMPDEST JUMPDEST PUSH1 0x20 DUP4 ADD SWAP2 POP DUP4 PUSH1 0x1 DUP3 MUL DUP4 ADD GT ISZERO PUSH2 0x3E3 JUMPI PUSH2 0x3E2 PUSH2 0x391 JUMP JUMPDEST JUMPDEST SWAP3 POP SWAP3 SWAP1 POP JUMP JUMPDEST PUSH0 PUSH0 PUSH1 0x20 DUP4 DUP6 SUB SLT ISZERO PUSH2 0x400 JUMPI PUSH2 0x3FF PUSH2 0x381 JUMP JUMPDEST JUMPDEST PUSH0 DUP4 ADD CALLDATALOAD PUSH8 0xFFFFFFFFFFFFFFFF DUP2 GT ISZERO PUSH2 0x41D JUMPI PUSH2 0x41C PUSH2 0x385 JUMP JUMPDEST JUMPDEST PUSH2 0x429 DUP6 DUP3 DUP7 ADD PUSH2 0x395 JUMP JUMPDEST SWAP3 POP SWAP3 POP POP SWAP3 POP SWAP3 SWAP1 POP JUMP JUMPDEST PUSH0 DUP2 SWAP1 POP SWAP2 SWAP1 POP JUMP JUMPDEST PUSH2 0x447 DUP2 PUSH2 0x435 JUMP JUMPDEST DUP3 MSTORE POP POP JUMP JUMPDEST PUSH0 PUSH1 0x20 DUP3 ADD SWAP1 POP PUSH2 0x460 PUSH0 DUP4 ADD DUP5 PUSH2 0x43E JUMP JUMPDEST SWAP3 SWAP2 POP POP JUMP JUMPDEST PUSH0 DUP2 SWAP1 POP SWAP3 SWAP2 POP POP JUMP JUMPDEST DUP3 DUP2 DUP4 CALLDATACOPY PUSH0 DUP4 DUP4 ADD MSTORE POP POP POP JUMP JUMPDEST PUSH0 PUSH2 0x489 DUP4 DUP6 PUSH2 0x466 JUMP JUMPDEST SWAP4 POP PUSH2 0x496 DUP4 DUP6 DUP5 PUSH2 0x470 JUMP JUMPDEST DUP3 DUP5 ADD SWAP1 POP SWAP4 SWAP3 POP POP POP JUMP JUMPDEST PUSH0 PUSH2 0x4AE DUP3 DUP5 DUP7 PUSH2 0x47E JUMP JUMPDEST SWAP2 POP DUP2 SWAP1 POP SWAP4 SWAP3 POP POP POP JUMP JUMPDEST PUSH32 0x4E487B7100000000000000000000000000000000000000000000000000000000 PUSH0 MSTORE PUSH1 0x32 PUSH1 0x4 MSTORE PUSH1 0x24 PUSH0 REVERT JUMPDEST PUSH32 0x4E487B7100000000000000000000000000000000000000000000000000000000 PUSH0 MSTORE PUSH1 0x22 PUSH1 0x4 MSTORE PUSH1 0x24 PUSH0 REVERT JUMPDEST PUSH0 PUSH1 0x2 DUP3 DIV SWAP1 POP PUSH1 0x1 DUP3 AND DUP1 PUSH2 0x52B JUMPI PUSH1 0x7F DUP3 AND SWAP2 POP JUMPDEST PUSH1 0x20 DUP3 LT DUP2 SUB PUSH2 0x53E JUMPI PUSH2 0x53D PUSH2 0x4E7 JUMP JUMPDEST JUMPDEST POP SWAP2 SWAP1 POP JUMP JUMPDEST PUSH0 DUP2 SWAP1 POP DUP2 PUSH0 MSTORE PUSH1 0x20 PUSH0 KECCAK256 SWAP1 POP SWAP2 SWAP1 POP JUMP JUMPDEST PUSH0 DUP2 SLOAD PUSH2 0x562 DUP2 PUSH2 0x514 JUMP JUMPDEST PUSH2 0x56C DUP2 DUP7 PUSH2 0x466 JUMP JUMPDEST SWAP5 POP PUSH1 0x1 DUP3 AND PUSH0 DUP2 EQ PUSH2 0x586 JUMPI PUSH1 0x1 DUP2 EQ PUSH2 0x59B JUMPI PUSH2 0x5CD JUMP JUMPDEST PUSH1 0xFF NOT DUP4 AND DUP7 MSTORE DUP2 ISZERO ISZERO DUP3 MUL DUP7 ADD SWAP4 POP PUSH2 0x5CD JUMP JUMPDEST PUSH2 0x5A4 DUP6 PUSH2 0x544 JUMP JUMPDEST PUSH0 JUMPDEST DUP4 DUP2 LT ISZERO PUSH2 0x5C5 JUMPI DUP2 SLOAD DUP2 DUP10 ADD MSTORE PUSH1 0x1 DUP3 ADD SWAP2 POP PUSH1 0x20 DUP2 ADD SWAP1 POP PUSH2 0x5A6 JUMP JUMPDEST DUP4 DUP9 ADD SWAP6 POP POP POP JUMPDEST POP POP POP SWAP3 SWAP2 POP POP JUMP JUMPDEST PUSH0 PUSH2 0x5E1 DUP3 DUP5 PUSH2 0x556 JUMP JUMPDEST SWAP2 POP DUP2 SWAP1 POP SWAP3 SWAP2 POP POP JUMP JUMPDEST PUSH0 DUP3 SWAP1 POP SWAP3 SWAP2 POP POP JUMP JUMPDEST PUSH32 0x4E487B7100000000000000000000000000000000000000000000000000000000 PUSH0 MSTORE PUSH1 0x41 PUSH1 0x4 MSTORE PUSH1 0x24 PUSH0 REVERT JUMPDEST PUSH0 PUSH1 0x20 PUSH1 0x1F DUP4 ADD DIV SWAP1 POP SWAP2 SWAP1 POP JUMP JUMPDEST PUSH0 DUP3 DUP3 SHL SWAP1 POP SWAP3 SWAP2 POP POP JUMP JUMPDEST PUSH0 PUSH1 0x8 DUP4 MUL PUSH2 0x66D PUSH32 0xFFFFFFFFFFFFFFFFFFFFFFFFFFFFFFFFFFFFFFFFFFFFFFFFFFFFFFFFFFFFFFFF DUP3 PUSH2 0x632 JUMP JUMPDEST PUSH2 0x677 DUP7 DUP4 PUSH2 0x632 JUMP JUMPDEST SWAP6 POP DUP1 NOT DUP5 AND SWAP4 POP DUP1 DUP7 AND DUP5 OR SWAP3 POP POP POP SWAP4 SWAP3 POP POP POP JUMP JUMPDEST PUSH0 DUP2 SWAP1 POP SWAP2 SWAP1 POP JUMP JUMPDEST PUSH0 PUSH2 0x6B2 PUSH2 0x6AD PUSH2 0x6A8 DUP5 PUSH2 0x435 JUMP JUMPDEST PUSH2 0x68F JUMP JUMPDEST PUSH2 0x435 JUMP JUMPDEST SWAP1 POP SWAP2 SWAP1 POP JUMP JUMPDEST PUSH0 DUP2 SWAP1 POP SWAP2 SWAP1 POP JUMP JUMPDEST PUSH2 0x6CB DUP4 PUSH2 0x698 JUMP JUMPDEST PUSH2 0x6DF PUSH2 0x6D7 DUP3 PUSH2 0x6B9 JUMP JUMPDEST DUP5 DUP5 SLOAD PUSH2 0x63E JUMP JUMPDEST DUP3 SSTORE POP POP POP POP JUMP JUMPDEST PUSH0 PUSH0 SWAP1 POP SWAP1 JUMP JUMPDEST PUSH2 0x6F6 PUSH2 0x6E7 JUMP JUMPDEST PUSH2 0x701 DUP2 DUP5 DUP5 PUSH2 0x6C2 JUMP JUMPDEST POP POP POP JUMP JUMPDEST JUMPDEST DUP2 DUP2 LT ISZERO PUSH2 0x724 JUMPI PUSH2 0x719 PUSH0 DUP3 PUSH2 0x6EE JUMP JUMPDEST PUSH1 0x1 DUP2 ADD SWAP1 POP PUSH2 0x707 JUMP JUMPDEST POP POP JUMP JUMPDEST PUSH1 0x1F DUP3 GT ISZERO PUSH2 0x769 JUMPI PUSH2 0x73A DUP2 PUSH2 0x544 JUMP JUMPDEST PUSH2 0x743 DUP5 PUSH2 0x623 JUMP JUMPDEST DUP2 ADD PUSH1 0x20 DUP6 LT ISZERO PUSH2 0x752 JUMPI DUP2 SWAP1 POP JUMPDEST PUSH2 0x766 PUSH2 0x75E DUP6 PUSH2 0x623 JUMP JUMPDEST DUP4 ADD DUP3 PUSH2 0x706 JUMP JUMPDEST POP POP JUMPDEST POP POP POP JUMP JUMPDEST PUSH0 DUP3 DUP3 SHR SWAP1 POP SWAP3 SWAP2 POP POP JUMP JUMPDEST PUSH0 PUSH2 0x789 PUSH0 NOT DUP5 PUSH1 0x8 MUL PUSH2 0x76E JUMP JUMPDEST NOT DUP1 DUP4 AND SWAP2 POP POP SWAP3 SWAP2 POP POP JUMP JUMPDEST PUSH0 PUSH2 0x7A1 DUP4 DUP4 PUSH2 0x77A JUMP JUMPDEST SWAP2 POP DUP3 PUSH1 0x2 MUL DUP3 OR SWAP1 POP SWAP3 SWAP2 POP POP JUMP JUMPDEST PUSH2 0x7BB DUP4 DUP4 PUSH2 0x5EC JUMP JUMPDEST PUSH8 0xFFFFFFFFFFFFFFFF DUP2 GT ISZERO PUSH2 0x7D4 JUMPI PUSH2 0x7D3 PUSH2 0x5F6 JUMP JUMPDEST JUMPDEST PUSH2 0x7DE DUP3 SLOAD PUSH2 0x514 JUMP JUMPDEST PUSH2 0x7E9 DUP3 DUP3 DUP6 PUSH2 0x728 JUMP JUMPDEST PUSH0 PUSH1 0x1F DUP4 GT PUSH1 0x1 DUP2 EQ PUSH2 0x816 JUMPI PUSH0 DUP5 ISZERO PUSH2 0x804 JUMPI DUP3 DUP8 ADD CALLDATALOAD SWAP1 POP JUMPDEST PUSH2 0x80E DUP6 DUP3 PUSH2 0x796 JUMP JUMPDEST DUP7 SSTORE POP PUSH2 0x875 JUMP JUMPDEST PUSH1 0x1F NOT DUP5 AND PUSH2 0x824 DUP7 PUSH2 0x544 JUMP JUMPDEST PUSH0 JUMPDEST DUP3 DUP2 LT ISZERO PUSH2 0x84B JUMPI DUP5 DUP10 ADD CALLDATALOAD DUP3 SSTORE PUSH1 0x1 DUP3 ADD SWAP2 POP PUSH1 0x20 DUP6 ADD SWAP5 POP PUSH1 0x20 DUP2 ADD SWAP1 POP PUSH2 0x826 JUMP JUMPDEST DUP7 DUP4 LT ISZERO PUSH2 0x868 JUMPI DUP5 DUP10 ADD CALLDATALOAD PUSH2 0x864 PUSH1 0x1F DUP10 AND DUP3 PUSH2 0x77A JUMP JUMPDEST DUP4 SSTORE POP JUMPDEST PUSH1 0x1 PUSH1 0x2 DUP9 MUL ADD DUP9 SSTORE POP POP POP JUMPDEST POP POP POP POP POP POP POP JUMP JUMPDEST PUSH0 DUP3 DUP3 MSTORE PUSH1 0x20 DUP3 ADD SWAP1 POP SWAP3 SWAP2 POP POP JUMP JUMPDEST PUSH0 PUSH1 0x1F NOT PUSH1 0x1F DUP4 ADD AND SWAP1 POP SWAP2 SWAP1 POP JUMP JUMPDEST PUSH0 PUSH2 0x8A9 DUP4 DUP6 PUSH2 0x87E JUMP JUMPDEST SWAP4 POP PUSH2 0x8B6 DUP4 DUP6 DUP5 PUSH2 0x470 JUMP JUMPDEST PUSH2 0x8BF DUP4 PUSH2 0x88E JUMP JUMPDEST DUP5 ADD SWAP1 POP SWAP4 SWAP3 POP POP POP JUMP JUMPDEST PUSH0 PUSH1 0x20 DUP3 ADD SWAP1 POP DUP2 DUP2 SUB PUSH0 DUP4 ADD MSTORE PUSH2 0x8E3 DUP2 DUP5 DUP7 PUSH2 0x89E JUMP JUMPDEST SWAP1 POP SWAP4 SWAP3 POP POP POP JUMP JUMPDEST PUSH32 0x4E487B7100000000000000000000000000000000000000000000000000000000 PUSH0 MSTORE PUSH1 0x11 PUSH1 0x4 MSTORE PUSH1 0x24 PUSH0 REVERT JUMPDEST PUSH0 PUSH2 0x923 DUP3 PUSH2 0x435 JUMP JUMPDEST SWAP2 POP PUSH2 0x92E DUP4 PUSH2 0x435 JUMP JUMPDEST SWAP3 POP DUP3 DUP3 ADD SWAP1 POP DUP1 DUP3 GT ISZERO PUSH2 0x946 JUMPI PUSH2 0x945 PUSH2 0x8EC JUMP JUMPDEST JUMPDEST SWAP3 SWAP2 POP POP JUMP JUMPDEST PUSH0 PUSH1 0x40 DUP3 ADD SWAP1 POP DUP2 DUP2 SUB PUSH0 DUP4 ADD MSTORE PUSH2 0x965 DUP2 DUP6 DUP8 PUSH2 0x89E JUMP JUMPDEST SWAP1 POP PUSH2 0x974 PUSH1 0x20 DUP4 ADD DUP5 PUSH2 0x43E JUMP JUMPDEST SWAP5 SWAP4 POP POP POP POP JUMP INVALID LOG2 PUSH5 0x6970667358 0x22 SLT KECCAK256 0xCE JUMPI DUP7 0xD6 PUSH10 0xDE3F62536BB6BC6D8808 PUSH26 0x2F7598F3F1D12C6BA1D342F87BE63CA664736F6C634300081E00 CALLER "
				},
				"gasEstimates": {
					"creation": {
						"codeDepositCost": "496400",
						"executionCost": "528",
						"totalCost": "496928"
					},
					"external": {
						"getVotes(string)": "infinite",
						"resetVotes()": "infinite",
						"vote(string)": "infinite"
					}
				},
				"methodIdentifiers": {
					"getVotes(string)": "805265e5",
					"resetVotes()": "b9830ff1",
					"vote(string)": "fc36e15b"
				}
			},
			"storageLayout": {
				"storage": [
					{
						"astId": 5,
						"contract": "Voting.sol:Voting",
						"label": "voteMap",
						"offset": 0,
						"slot": "0",
						"type": "t_mapping(t_string_memory_ptr,t_uint256)"
					},
					{
						"astId": 8,
						"contract": "Voting.sol:Voting",
						"label": "allCandidates",
						"offset": 0,
						"slot": "1",
						"type": "t_array(t_string_storage)dyn_storage"
					},
					{
						"astId": 12,
						"contract": "Voting.sol:Voting",
						"label": "candidateExists",
						"offset": 0,
						"slot": "2",
						"type": "t_mapping(t_string_memory_ptr,t_bool)"
					}
				],
				"types": {
					"t_array(t_string_storage)dyn_storage": {
						"base": "t_string_storage",
						"encoding": "dynamic_array",
						"label": "string[]",
						"numberOfBytes": "32"
					},
					"t_bool": {
						"encoding": "inplace",
						"label": "bool",
						"numberOfBytes": "1"
					},
					"t_mapping(t_string_memory_ptr,t_bool)": {
						"encoding": "mapping",
						"key": "t_string_memory_ptr",
						"label": "mapping(string => bool)",
						"numberOfBytes": "32",
						"value": "t_bool"
					},
					"t_mapping(t_string_memory_ptr,t_uint256)": {
						"encoding": "mapping",
						"key": "t_string_memory_ptr",
						"label": "mapping(string => uint256)",
						"numberOfBytes": "32",
						"value": "t_uint256"
					},
					"t_string_memory_ptr": {
						"encoding": "bytes",
						"label": "string",
						"numberOfBytes": "32"
					},
					"t_string_storage": {
						"encoding": "bytes",
						"label": "string",
						"numberOfBytes": "32"
					},
					"t_uint256": {
						"encoding": "inplace",
						"label": "uint256",
						"numberOfBytes": "32"
					}
				}
			},
			"userdoc": {
				"kind": "user",
				"methods": {},
				"version": 1
			}
		}
	}
}