{
	"MergeSortedArray.sol": {
		"MergeSortedArray": {
			"abi": [
				{
					"inputs": [
						{
							"internalType": "uint256[]",
							"name": "customArr1",
							"type": "uint256[]"
						},
						{
							"internalType": "uint256[]",
							"name": "customArr2",
							"type": "uint256[]"
						}
					],
					"name": "customTest",
					"outputs": [
						{
							"internalType": "uint256[]",
							"name": "",
							"type": "uint256[]"
						}
					],
					"stateMutability": "pure",
					"type": "function"
				},
				{
					"inputs": [
						{
							"internalType": "uint256[]",
							"name": "a",
							"type": "uint256[]"
						},
						{
							"internalType": "uint256[]",
							"name": "b",
							"type": "uint256[]"
						}
					],
					"name": "merge",
					"outputs": [
						{
							"internalType": "uint256[]",
							"name": "",
							"type": "uint256[]"
						}
					],
					"stateMutability": "pure",
					"type": "function"
				},
				{
					"inputs": [],
					"name": "testExample1",
					"outputs": [
						{
							"internalType": "uint256[]",
							"name": "",
							"type": "uint256[]"
						}
					],
					"stateMutability": "pure",
					"type": "function"
				},
				{
					"inputs": [],
					"name": "testExample2",
					"outputs": [
						{
							"internalType": "uint256[]",
							"name": "",
							"type": "uint256[]"
						}
					],
					"stateMutability": "pure",
					"type": "function"
				},
				{
					"inputs": [],
					"name": "testExample3",
					"outputs": [
						{
							"internalType": "uint256[]",
							"name": "",
							"type": "uint256[]"
						}
					],
					"stateMutability": "pure",
					"type": "function"
				},
				{
					"inputs": [],
					"name": "testExample4",
					"outputs": [
						{
							"internalType": "uint256[]",
							"name": "",
							"type": "uint256[]"
						}
					],
					"stateMutability": "pure",
					"type": "function"
				},
				{
					"inputs": [],
					"name": "testExample5",
					"outputs": [
						{
							"internalType": "uint256[]",
							"name": "",
							"type": "uint256[]"
						}
					],
					"stateMutability": "pure",
					"type": "function"
				}
			],
			"devdoc": {
				"kind": "dev",
				"methods": {
					"customTest(uint256[],uint256[])": {
						"details": "自定义测试：你可以修改这个函数来测试自己的数组"
					},
					"testExample1()": {
						"details": "测试示例1：正常情况"
					},
					"testExample2()": {
						"details": "测试示例2：数组长度不同"
					},
					"testExample3()": {
						"details": "测试示例3：包含重复元素"
					},
					"testExample4()": {
						"details": "测试示例4：一个数组为空"
					},
					"testExample5()": {
						"details": "测试示例5：两个数组都为空"
					}
				},
				"version": 1
			},
			"evm": {
				"assembly": "    /* \"MergeSortedArray.sol\":60:3905  contract MergeSortedArray{... */\n  mstore(0x40, 0x80)\n  callvalue\n  dup1\n  iszero\n  tag_1\n  jumpi\n  revert(0x00, 0x00)\ntag_1:\n  pop\n  dataSize(sub_0)\n  dup1\n  dataOffset(sub_0)\n  0x00\n  codecopy\n  0x00\n  return\nstop\n\nsub_0: assembly {\n        /* \"MergeSortedArray.sol\":60:3905  contract MergeSortedArray{... */\n      mstore(0x40, 0x80)\n      callvalue\n      dup1\n      iszero\n      tag_1\n      jumpi\n      revert(0x00, 0x00)\n    tag_1:\n      pop\n      jumpi(tag_2, lt(calldatasize, 0x04))\n      shr(0xe0, calldataload(0x00))\n      dup1\n      0x26dc088b\n      gt\n      tag_10\n      jumpi\n      dup1\n      0x26dc088b\n      eq\n      tag_6\n      jumpi\n      dup1\n      0x2ff19faf\n      eq\n      tag_7\n      jumpi\n      dup1\n      0x3feffd8c\n      eq\n      tag_8\n      jumpi\n      dup1\n      0x5a9f9ac6\n      eq\n      tag_9\n      jumpi\n      jump(tag_2)\n    tag_10:\n      dup1\n      0x088b9bf6\n      eq\n      tag_3\n      jumpi\n      dup1\n      0x18356329\n      eq\n      tag_4\n      jumpi\n      dup1\n      0x1d549610\n      eq\n      tag_5\n      jumpi\n    tag_2:\n      revert(0x00, 0x00)\n        /* \"MergeSortedArray.sol\":372:1495  function merge(uint[] memory a,uint[] memory b) public pure returns (uint[] memory){... */\n    tag_3:\n      tag_11\n      0x04\n      dup1\n      calldatasize\n      sub\n      dup2\n      add\n      swap1\n      tag_12\n      swap2\n      swap1\n      tag_13\n      jump\t// in\n    tag_12:\n      tag_14\n      jump\t// in\n    tag_11:\n      mload(0x40)\n      tag_15\n      swap2\n      swap1\n      tag_16\n      jump\t// in\n    tag_15:\n      mload(0x40)\n      dup1\n      swap2\n      sub\n      swap1\n      return\n        /* \"MergeSortedArray.sol\":2509:2899  function testExample3() public pure returns (uint[] memory) {... */\n    tag_4:\n      tag_17\n      tag_18\n      jump\t// in\n    tag_17:\n      mload(0x40)\n      tag_19\n      swap2\n      swap1\n      tag_16\n      jump\t// in\n    tag_19:\n      mload(0x40)\n      dup1\n      swap2\n      sub\n      swap1\n      return\n        /* \"MergeSortedArray.sol\":3739:3902  function customTest(uint[] memory customArr1, uint[] memory customArr2) public pure returns (uint[] memory) {... */\n    tag_5:\n      tag_20\n      0x04\n      dup1\n      calldatasize\n      sub\n      dup2\n      add\n      swap1\n      tag_21\n      swap2\n      swap1\n      tag_13\n      jump\t// in\n    tag_21:\n      tag_22\n      jump\t// in\n    tag_20:\n      mload(0x40)\n      tag_23\n      swap2\n      swap1\n      tag_16\n      jump\t// in\n    tag_23:\n      mload(0x40)\n      dup1\n      swap2\n      sub\n      swap1\n      return\n        /* \"MergeSortedArray.sol\":2041:2431  function testExample2() public pure returns (uint[] memory) {... */\n    tag_6:\n      tag_24\n      tag_25\n      jump\t// in\n    tag_24:\n      mload(0x40)\n      tag_26\n      swap2\n      swap1\n      tag_16\n      jump\t// in\n    tag_26:\n      mload(0x40)\n      dup1\n      swap2\n      sub\n      swap1\n      return\n        /* \"MergeSortedArray.sol\":3387:3626  function testExample5() public pure returns (uint[] memory) {... */\n    tag_7:\n      tag_27\n      tag_28\n      jump\t// in\n    tag_27:\n      mload(0x40)\n      tag_29\n      swap2\n      swap1\n      tag_16\n      jump\t// in\n    tag_29:\n      mload(0x40)\n      dup1\n      swap2\n      sub\n      swap1\n      return\n        /* \"MergeSortedArray.sol\":2977:3306  function testExample4() public pure returns (uint[] memory) {... */\n    tag_8:\n      tag_30\n      tag_31\n      jump\t// in\n    tag_30:\n      mload(0x40)\n      tag_32\n      swap2\n      swap1\n      tag_16\n      jump\t// in\n    tag_32:\n      mload(0x40)\n      dup1\n      swap2\n      sub\n      swap1\n      return\n        /* \"MergeSortedArray.sol\":1573:1963  function testExample1() public pure returns (uint[] memory) {... */\n    tag_9:\n      tag_33\n      tag_34\n      jump\t// in\n    tag_33:\n      mload(0x40)\n      tag_35\n      swap2\n      swap1\n      tag_16\n      jump\t// in\n    tag_35:\n      mload(0x40)\n      dup1\n      swap2\n      sub\n      swap1\n      return\n        /* \"MergeSortedArray.sol\":372:1495  function merge(uint[] memory a,uint[] memory b) public pure returns (uint[] memory){... */\n    tag_14:\n        /* \"MergeSortedArray.sol\":441:454  uint[] memory */\n      0x60\n        /* \"MergeSortedArray.sol\":532:552  uint[] memory result */\n      0x00\n        /* \"MergeSortedArray.sol\":575:576  b */\n      dup3\n        /* \"MergeSortedArray.sol\":575:583  b.length */\n      mload\n        /* \"MergeSortedArray.sol\":566:567  a */\n      dup5\n        /* \"MergeSortedArray.sol\":566:574  a.length */\n      mload\n        /* \"MergeSortedArray.sol\":566:583  a.length+b.length */\n      tag_37\n      swap2\n      swap1\n      tag_38\n      jump\t// in\n    tag_37:\n        /* \"MergeSortedArray.sol\":555:584  new uint[](a.length+b.length) */\n      0xffffffffffffffff\n      dup2\n      gt\n      iszero\n      tag_39\n      jumpi\n      tag_40\n      tag_41\n      jump\t// in\n    tag_40:\n    tag_39:\n      mload(0x40)\n      swap1\n      dup1\n      dup3\n      mstore\n      dup1\n      0x20\n      mul\n      0x20\n      add\n      dup3\n      add\n      0x40\n      mstore\n      dup1\n      iszero\n      tag_42\n      jumpi\n      dup2\n      0x20\n      add\n      0x20\n      dup3\n      mul\n      dup1\n      calldatasize\n      dup4\n      calldatacopy\n      dup1\n      dup3\n      add\n      swap2\n      pop\n      pop\n      swap1\n      pop\n    tag_42:\n      pop\n        /* \"MergeSortedArray.sol\":532:584  uint[] memory result = new uint[](a.length+b.length) */\n      swap1\n      pop\n        /* \"MergeSortedArray.sol\":628:634  uint i */\n      0x00\n        /* \"MergeSortedArray.sol\":637:638  0 */\n      0x00\n        /* \"MergeSortedArray.sol\":628:638  uint i = 0 */\n      swap1\n      pop\n        /* \"MergeSortedArray.sol\":681:687  uint j */\n      0x00\n        /* \"MergeSortedArray.sol\":690:691  0 */\n      0x00\n        /* \"MergeSortedArray.sol\":681:691  uint j = 0 */\n      swap1\n      pop\n        /* \"MergeSortedArray.sol\":734:740  uint k */\n      0x00\n        /* \"MergeSortedArray.sol\":743:744  0 */\n      0x00\n        /* \"MergeSortedArray.sol\":734:744  uint k = 0 */\n      swap1\n      pop\n        /* \"MergeSortedArray.sol\":864:1103  while(i<a.length&&j<b.length){... */\n    tag_43:\n        /* \"MergeSortedArray.sol\":872:873  a */\n      dup7\n        /* \"MergeSortedArray.sol\":872:880  a.length */\n      mload\n        /* \"MergeSortedArray.sol\":870:871  i */\n      dup4\n        /* \"MergeSortedArray.sol\":870:880  i<a.length */\n      lt\n        /* \"MergeSortedArray.sol\":870:892  i<a.length&&j<b.length */\n      dup1\n      iszero\n      tag_45\n      jumpi\n      pop\n        /* \"MergeSortedArray.sol\":884:885  b */\n      dup6\n        /* \"MergeSortedArray.sol\":884:892  b.length */\n      mload\n        /* \"MergeSortedArray.sol\":882:883  j */\n      dup3\n        /* \"MergeSortedArray.sol\":882:892  j<b.length */\n      lt\n        /* \"MergeSortedArray.sol\":870:892  i<a.length&&j<b.length */\n    tag_45:\n        /* \"MergeSortedArray.sol\":864:1103  while(i<a.length&&j<b.length){... */\n      iszero\n      tag_44\n      jumpi\n        /* \"MergeSortedArray.sol\":918:919  b */\n      dup6\n        /* \"MergeSortedArray.sol\":920:921  j */\n      dup3\n        /* \"MergeSortedArray.sol\":918:922  b[j] */\n      dup2\n      mload\n      dup2\n      lt\n      tag_46\n      jumpi\n      tag_47\n      tag_48\n      jump\t// in\n    tag_47:\n    tag_46:\n      0x20\n      mul\n      0x20\n      add\n      add\n      mload\n        /* \"MergeSortedArray.sol\":911:912  a */\n      dup8\n        /* \"MergeSortedArray.sol\":913:914  i */\n      dup5\n        /* \"MergeSortedArray.sol\":911:915  a[i] */\n      dup2\n      mload\n      dup2\n      lt\n      tag_49\n      jumpi\n      tag_50\n      tag_48\n      jump\t// in\n    tag_50:\n    tag_49:\n      0x20\n      mul\n      0x20\n      add\n      add\n      mload\n        /* \"MergeSortedArray.sol\":911:922  a[i]<= b[j] */\n      gt\n        /* \"MergeSortedArray.sol\":908:1074  if(a[i]<= b[j]){... */\n      tag_51\n      jumpi\n        /* \"MergeSortedArray.sol\":954:955  a */\n      dup7\n        /* \"MergeSortedArray.sol\":956:957  i */\n      dup4\n        /* \"MergeSortedArray.sol\":954:958  a[i] */\n      dup2\n      mload\n      dup2\n      lt\n      tag_52\n      jumpi\n      tag_53\n      tag_48\n      jump\t// in\n    tag_53:\n    tag_52:\n      0x20\n      mul\n      0x20\n      add\n      add\n      mload\n        /* \"MergeSortedArray.sol\":942:948  result */\n      dup5\n        /* \"MergeSortedArray.sol\":949:950  k */\n      dup3\n        /* \"MergeSortedArray.sol\":942:951  result[k] */\n      dup2\n      mload\n      dup2\n      lt\n      tag_54\n      jumpi\n      tag_55\n      tag_48\n      jump\t// in\n    tag_55:\n    tag_54:\n      0x20\n      mul\n      0x20\n      add\n      add\n        /* \"MergeSortedArray.sol\":942:958  result[k] = a[i] */\n      dup2\n      dup2\n      mstore\n      pop\n      pop\n        /* \"MergeSortedArray.sol\":977:980  i++ */\n      dup3\n      dup1\n      tag_56\n      swap1\n      tag_57\n      jump\t// in\n    tag_56:\n      swap4\n      pop\n      pop\n        /* \"MergeSortedArray.sol\":908:1074  if(a[i]<= b[j]){... */\n      jump(tag_58)\n    tag_51:\n        /* \"MergeSortedArray.sol\":1032:1033  b */\n      dup6\n        /* \"MergeSortedArray.sol\":1034:1035  j */\n      dup3\n        /* \"MergeSortedArray.sol\":1032:1036  b[j] */\n      dup2\n      mload\n      dup2\n      lt\n      tag_59\n      jumpi\n      tag_60\n      tag_48\n      jump\t// in\n    tag_60:\n    tag_59:\n      0x20\n      mul\n      0x20\n      add\n      add\n      mload\n        /* \"MergeSortedArray.sol\":1020:1026  result */\n      dup5\n        /* \"MergeSortedArray.sol\":1027:1028  k */\n      dup3\n        /* \"MergeSortedArray.sol\":1020:1029  result[k] */\n      dup2\n      mload\n      dup2\n      lt\n      tag_61\n      jumpi\n      tag_62\n      tag_48\n      jump\t// in\n    tag_62:\n    tag_61:\n      0x20\n      mul\n      0x20\n      add\n      add\n        /* \"MergeSortedArray.sol\":1020:1036  result[k] = b[j] */\n      dup2\n      dup2\n      mstore\n      pop\n      pop\n        /* \"MergeSortedArray.sol\":1055:1058  j++ */\n      dup2\n      dup1\n      tag_63\n      swap1\n      tag_57\n      jump\t// in\n    tag_63:\n      swap3\n      pop\n      pop\n        /* \"MergeSortedArray.sol\":908:1074  if(a[i]<= b[j]){... */\n    tag_58:\n        /* \"MergeSortedArray.sol\":1088:1091  k++ */\n      dup1\n      dup1\n      tag_64\n      swap1\n      tag_57\n      jump\t// in\n    tag_64:\n      swap2\n      pop\n      pop\n        /* \"MergeSortedArray.sol\":864:1103  while(i<a.length&&j<b.length){... */\n      jump(tag_43)\n    tag_44:\n        /* \"MergeSortedArray.sol\":1187:1283  while(i<a.length){... */\n    tag_65:\n        /* \"MergeSortedArray.sol\":1195:1196  a */\n      dup7\n        /* \"MergeSortedArray.sol\":1195:1203  a.length */\n      mload\n        /* \"MergeSortedArray.sol\":1193:1194  i */\n      dup4\n        /* \"MergeSortedArray.sol\":1193:1203  i<a.length */\n      lt\n        /* \"MergeSortedArray.sol\":1187:1283  while(i<a.length){... */\n      iszero\n      tag_66\n      jumpi\n        /* \"MergeSortedArray.sol\":1231:1232  a */\n      dup7\n        /* \"MergeSortedArray.sol\":1233:1234  i */\n      dup4\n        /* \"MergeSortedArray.sol\":1231:1235  a[i] */\n      dup2\n      mload\n      dup2\n      lt\n      tag_67\n      jumpi\n      tag_68\n      tag_48\n      jump\t// in\n    tag_68:\n    tag_67:\n      0x20\n      mul\n      0x20\n      add\n      add\n      mload\n        /* \"MergeSortedArray.sol\":1219:1225  result */\n      dup5\n        /* \"MergeSortedArray.sol\":1226:1227  k */\n      dup3\n        /* \"MergeSortedArray.sol\":1219:1228  result[k] */\n      dup2\n      mload\n      dup2\n      lt\n      tag_69\n      jumpi\n      tag_70\n      tag_48\n      jump\t// in\n    tag_70:\n    tag_69:\n      0x20\n      mul\n      0x20\n      add\n      add\n        /* \"MergeSortedArray.sol\":1219:1235  result[k] = a[i] */\n      dup2\n      dup2\n      mstore\n      pop\n      pop\n        /* \"MergeSortedArray.sol\":1250:1253  i++ */\n      dup3\n      dup1\n      tag_71\n      swap1\n      tag_57\n      jump\t// in\n    tag_71:\n      swap4\n      pop\n      pop\n        /* \"MergeSortedArray.sol\":1268:1271  k++ */\n      dup1\n      dup1\n      tag_72\n      swap1\n      tag_57\n      jump\t// in\n    tag_72:\n      swap2\n      pop\n      pop\n        /* \"MergeSortedArray.sol\":1187:1283  while(i<a.length){... */\n      jump(tag_65)\n    tag_66:\n        /* \"MergeSortedArray.sol\":1369:1465  while(j<b.length){... */\n    tag_73:\n        /* \"MergeSortedArray.sol\":1377:1378  b */\n      dup6\n        /* \"MergeSortedArray.sol\":1377:1385  b.length */\n      mload\n        /* \"MergeSortedArray.sol\":1375:1376  j */\n      dup3\n        /* \"MergeSortedArray.sol\":1375:1385  j<b.length */\n      lt\n        /* \"MergeSortedArray.sol\":1369:1465  while(j<b.length){... */\n      iszero\n      tag_74\n      jumpi\n        /* \"MergeSortedArray.sol\":1413:1414  b */\n      dup6\n        /* \"MergeSortedArray.sol\":1415:1416  j */\n      dup3\n        /* \"MergeSortedArray.sol\":1413:1417  b[j] */\n      dup2\n      mload\n      dup2\n      lt\n      tag_75\n      jumpi\n      tag_76\n      tag_48\n      jump\t// in\n    tag_76:\n    tag_75:\n      0x20\n      mul\n      0x20\n      add\n      add\n      mload\n        /* \"MergeSortedArray.sol\":1401:1407  result */\n      dup5\n        /* \"MergeSortedArray.sol\":1408:1409  k */\n      dup3\n        /* \"MergeSortedArray.sol\":1401:1410  result[k] */\n      dup2\n      mload\n      dup2\n      lt\n      tag_77\n      jumpi\n      tag_78\n      tag_48\n      jump\t// in\n    tag_78:\n    tag_77:\n      0x20\n      mul\n      0x20\n      add\n      add\n        /* \"MergeSortedArray.sol\":1401:1417  result[k] = b[j] */\n      dup2\n      dup2\n      mstore\n      pop\n      pop\n        /* \"MergeSortedArray.sol\":1432:1435  j++ */\n      dup2\n      dup1\n      tag_79\n      swap1\n      tag_57\n      jump\t// in\n    tag_79:\n      swap3\n      pop\n      pop\n        /* \"MergeSortedArray.sol\":1450:1453  k++ */\n      dup1\n      dup1\n      tag_80\n      swap1\n      tag_57\n      jump\t// in\n    tag_80:\n      swap2\n      pop\n      pop\n        /* \"MergeSortedArray.sol\":1369:1465  while(j<b.length){... */\n      jump(tag_73)\n    tag_74:\n        /* \"MergeSortedArray.sol\":1481:1487  result */\n      dup4\n        /* \"MergeSortedArray.sol\":1474:1487  return result */\n      swap5\n      pop\n      pop\n      pop\n      pop\n      pop\n        /* \"MergeSortedArray.sol\":372:1495  function merge(uint[] memory a,uint[] memory b) public pure returns (uint[] memory){... */\n      swap3\n      swap2\n      pop\n      pop\n      jump\t// out\n        /* \"MergeSortedArray.sol\":2509:2899  function testExample3() public pure returns (uint[] memory) {... */\n    tag_18:\n        /* \"MergeSortedArray.sol\":2554:2567  uint[] memory */\n      0x60\n        /* \"MergeSortedArray.sol\":2580:2598  uint[] memory arr1 */\n      0x00\n        /* \"MergeSortedArray.sol\":2612:2613  3 */\n      0x03\n        /* \"MergeSortedArray.sol\":2601:2614  new uint[](3) */\n      0xffffffffffffffff\n      dup2\n      gt\n      iszero\n      tag_82\n      jumpi\n      tag_83\n      tag_41\n      jump\t// in\n    tag_83:\n    tag_82:\n      mload(0x40)\n      swap1\n      dup1\n      dup3\n      mstore\n      dup1\n      0x20\n      mul\n      0x20\n      add\n      dup3\n      add\n      0x40\n      mstore\n      dup1\n      iszero\n      tag_84\n      jumpi\n      dup2\n      0x20\n      add\n      0x20\n      dup3\n      mul\n      dup1\n      calldatasize\n      dup4\n      calldatacopy\n      dup1\n      dup3\n      add\n      swap2\n      pop\n      pop\n      swap1\n      pop\n    tag_84:\n      pop\n        /* \"MergeSortedArray.sol\":2580:2614  uint[] memory arr1 = new uint[](3) */\n      swap1\n      pop\n        /* \"MergeSortedArray.sol\":2635:2636  1 */\n      0x01\n        /* \"MergeSortedArray.sol\":2625:2629  arr1 */\n      dup2\n        /* \"MergeSortedArray.sol\":2630:2631  0 */\n      0x00\n        /* \"MergeSortedArray.sol\":2625:2632  arr1[0] */\n      dup2\n      mload\n      dup2\n      lt\n      tag_85\n      jumpi\n      tag_86\n      tag_48\n      jump\t// in\n    tag_86:\n    tag_85:\n      0x20\n      mul\n      0x20\n      add\n      add\n        /* \"MergeSortedArray.sol\":2625:2636  arr1[0] = 1 */\n      dup2\n      dup2\n      mstore\n      pop\n      pop\n        /* \"MergeSortedArray.sol\":2657:2658  2 */\n      0x02\n        /* \"MergeSortedArray.sol\":2647:2651  arr1 */\n      dup2\n        /* \"MergeSortedArray.sol\":2652:2653  1 */\n      0x01\n        /* \"MergeSortedArray.sol\":2647:2654  arr1[1] */\n      dup2\n      mload\n      dup2\n      lt\n      tag_87\n      jumpi\n      tag_88\n      tag_48\n      jump\t// in\n    tag_88:\n    tag_87:\n      0x20\n      mul\n      0x20\n      add\n      add\n        /* \"MergeSortedArray.sol\":2647:2658  arr1[1] = 2 */\n      dup2\n      dup2\n      mstore\n      pop\n      pop\n        /* \"MergeSortedArray.sol\":2679:2680  2 */\n      0x02\n        /* \"MergeSortedArray.sol\":2669:2673  arr1 */\n      dup2\n        /* \"MergeSortedArray.sol\":2674:2675  2 */\n      0x02\n        /* \"MergeSortedArray.sol\":2669:2676  arr1[2] */\n      dup2\n      mload\n      dup2\n      lt\n      tag_89\n      jumpi\n      tag_90\n      tag_48\n      jump\t// in\n    tag_90:\n    tag_89:\n      0x20\n      mul\n      0x20\n      add\n      add\n        /* \"MergeSortedArray.sol\":2669:2680  arr1[2] = 2 */\n      dup2\n      dup2\n      mstore\n      pop\n      pop\n        /* \"MergeSortedArray.sol\":2701:2719  uint[] memory arr2 */\n      0x00\n        /* \"MergeSortedArray.sol\":2733:2734  3 */\n      0x03\n        /* \"MergeSortedArray.sol\":2722:2735  new uint[](3) */\n      0xffffffffffffffff\n      dup2\n      gt\n      iszero\n      tag_91\n      jumpi\n      tag_92\n      tag_41\n      jump\t// in\n    tag_92:\n    tag_91:\n      mload(0x40)\n      swap1\n      dup1\n      dup3\n      mstore\n      dup1\n      0x20\n      mul\n      0x20\n      add\n      dup3\n      add\n      0x40\n      mstore\n      dup1\n      iszero\n      tag_93\n      jumpi\n      dup2\n      0x20\n      add\n      0x20\n      dup3\n      mul\n      dup1\n      calldatasize\n      dup4\n      calldatacopy\n      dup1\n      dup3\n      add\n      swap2\n      pop\n      pop\n      swap1\n      pop\n    tag_93:\n      pop\n        /* \"MergeSortedArray.sol\":2701:2735  uint[] memory arr2 = new uint[](3) */\n      swap1\n      pop\n        /* \"MergeSortedArray.sol\":2756:2757  2 */\n      0x02\n        /* \"MergeSortedArray.sol\":2746:2750  arr2 */\n      dup2\n        /* \"MergeSortedArray.sol\":2751:2752  0 */\n      0x00\n        /* \"MergeSortedArray.sol\":2746:2753  arr2[0] */\n      dup2\n      mload\n      dup2\n      lt\n      tag_94\n      jumpi\n      tag_95\n      tag_48\n      jump\t// in\n    tag_95:\n    tag_94:\n      0x20\n      mul\n      0x20\n      add\n      add\n        /* \"MergeSortedArray.sol\":2746:2757  arr2[0] = 2 */\n      dup2\n      dup2\n      mstore\n      pop\n      pop\n        /* \"MergeSortedArray.sol\":2778:2779  3 */\n      0x03\n        /* \"MergeSortedArray.sol\":2768:2772  arr2 */\n      dup2\n        /* \"MergeSortedArray.sol\":2773:2774  1 */\n      0x01\n        /* \"MergeSortedArray.sol\":2768:2775  arr2[1] */\n      dup2\n      mload\n      dup2\n      lt\n      tag_96\n      jumpi\n      tag_97\n      tag_48\n      jump\t// in\n    tag_97:\n    tag_96:\n      0x20\n      mul\n      0x20\n      add\n      add\n        /* \"MergeSortedArray.sol\":2768:2779  arr2[1] = 3 */\n      dup2\n      dup2\n      mstore\n      pop\n      pop\n        /* \"MergeSortedArray.sol\":2800:2801  4 */\n      0x04\n        /* \"MergeSortedArray.sol\":2790:2794  arr2 */\n      dup2\n        /* \"MergeSortedArray.sol\":2795:2796  2 */\n      0x02\n        /* \"MergeSortedArray.sol\":2790:2797  arr2[2] */\n      dup2\n      mload\n      dup2\n      lt\n      tag_98\n      jumpi\n      tag_99\n      tag_48\n      jump\t// in\n    tag_99:\n    tag_98:\n      0x20\n      mul\n      0x20\n      add\n      add\n        /* \"MergeSortedArray.sol\":2790:2801  arr2[2] = 4 */\n      dup2\n      dup2\n      mstore\n      pop\n      pop\n        /* \"MergeSortedArray.sol\":2829:2846  merge(arr1, arr2) */\n      tag_100\n        /* \"MergeSortedArray.sol\":2835:2839  arr1 */\n      dup3\n        /* \"MergeSortedArray.sol\":2841:2845  arr2 */\n      dup3\n        /* \"MergeSortedArray.sol\":2829:2834  merge */\n      tag_14\n        /* \"MergeSortedArray.sol\":2829:2846  merge(arr1, arr2) */\n      jump\t// in\n    tag_100:\n        /* \"MergeSortedArray.sol\":2822:2846  return merge(arr1, arr2) */\n      swap3\n      pop\n      pop\n      pop\n        /* \"MergeSortedArray.sol\":2509:2899  function testExample3() public pure returns (uint[] memory) {... */\n      swap1\n      jump\t// out\n        /* \"MergeSortedArray.sol\":3739:3902  function customTest(uint[] memory customArr1, uint[] memory customArr2) public pure returns (uint[] memory) {... */\n    tag_22:\n        /* \"MergeSortedArray.sol\":3832:3845  uint[] memory */\n      0x60\n        /* \"MergeSortedArray.sol\":3865:3894  merge(customArr1, customArr2) */\n      tag_102\n        /* \"MergeSortedArray.sol\":3871:3881  customArr1 */\n      dup4\n        /* \"MergeSortedArray.sol\":3883:3893  customArr2 */\n      dup4\n        /* \"MergeSortedArray.sol\":3865:3870  merge */\n      tag_14\n        /* \"MergeSortedArray.sol\":3865:3894  merge(customArr1, customArr2) */\n      jump\t// in\n    tag_102:\n        /* \"MergeSortedArray.sol\":3858:3894  return merge(customArr1, customArr2) */\n      swap1\n      pop\n        /* \"MergeSortedArray.sol\":3739:3902  function customTest(uint[] memory customArr1, uint[] memory customArr2) public pure returns (uint[] memory) {... */\n      swap3\n      swap2\n      pop\n      pop\n      jump\t// out\n        /* \"MergeSortedArray.sol\":2041:2431  function testExample2() public pure returns (uint[] memory) {... */\n    tag_25:\n        /* \"MergeSortedArray.sol\":2086:2099  uint[] memory */\n      0x60\n        /* \"MergeSortedArray.sol\":2112:2130  uint[] memory arr1 */\n      0x00\n        /* \"MergeSortedArray.sol\":2144:2145  2 */\n      0x02\n        /* \"MergeSortedArray.sol\":2133:2146  new uint[](2) */\n      0xffffffffffffffff\n      dup2\n      gt\n      iszero\n      tag_104\n      jumpi\n      tag_105\n      tag_41\n      jump\t// in\n    tag_105:\n    tag_104:\n      mload(0x40)\n      swap1\n      dup1\n      dup3\n      mstore\n      dup1\n      0x20\n      mul\n      0x20\n      add\n      dup3\n      add\n      0x40\n      mstore\n      dup1\n      iszero\n      tag_106\n      jumpi\n      dup2\n      0x20\n      add\n      0x20\n      dup3\n      mul\n      dup1\n      calldatasize\n      dup4\n      calldatacopy\n      dup1\n      dup3\n      add\n      swap2\n      pop\n      pop\n      swap1\n      pop\n    tag_106:\n      pop\n        /* \"MergeSortedArray.sol\":2112:2146  uint[] memory arr1 = new uint[](2) */\n      swap1\n      pop\n        /* \"MergeSortedArray.sol\":2167:2168  1 */\n      0x01\n        /* \"MergeSortedArray.sol\":2157:2161  arr1 */\n      dup2\n        /* \"MergeSortedArray.sol\":2162:2163  0 */\n      0x00\n        /* \"MergeSortedArray.sol\":2157:2164  arr1[0] */\n      dup2\n      mload\n      dup2\n      lt\n      tag_107\n      jumpi\n      tag_108\n      tag_48\n      jump\t// in\n    tag_108:\n    tag_107:\n      0x20\n      mul\n      0x20\n      add\n      add\n        /* \"MergeSortedArray.sol\":2157:2168  arr1[0] = 1 */\n      dup2\n      dup2\n      mstore\n      pop\n      pop\n        /* \"MergeSortedArray.sol\":2189:2190  2 */\n      0x02\n        /* \"MergeSortedArray.sol\":2179:2183  arr1 */\n      dup2\n        /* \"MergeSortedArray.sol\":2184:2185  1 */\n      0x01\n        /* \"MergeSortedArray.sol\":2179:2186  arr1[1] */\n      dup2\n      mload\n      dup2\n      lt\n      tag_109\n      jumpi\n      tag_110\n      tag_48\n      jump\t// in\n    tag_110:\n    tag_109:\n      0x20\n      mul\n      0x20\n      add\n      add\n        /* \"MergeSortedArray.sol\":2179:2190  arr1[1] = 2 */\n      dup2\n      dup2\n      mstore\n      pop\n      pop\n        /* \"MergeSortedArray.sol\":2211:2229  uint[] memory arr2 */\n      0x00\n        /* \"MergeSortedArray.sol\":2243:2244  4 */\n      0x04\n        /* \"MergeSortedArray.sol\":2232:2245  new uint[](4) */\n      0xffffffffffffffff\n      dup2\n      gt\n      iszero\n      tag_111\n      jumpi\n      tag_112\n      tag_41\n      jump\t// in\n    tag_112:\n    tag_111:\n      mload(0x40)\n      swap1\n      dup1\n      dup3\n      mstore\n      dup1\n      0x20\n      mul\n      0x20\n      add\n      dup3\n      add\n      0x40\n      mstore\n      dup1\n      iszero\n      tag_113\n      jumpi\n      dup2\n      0x20\n      add\n      0x20\n      dup3\n      mul\n      dup1\n      calldatasize\n      dup4\n      calldatacopy\n      dup1\n      dup3\n      add\n      swap2\n      pop\n      pop\n      swap1\n      pop\n    tag_113:\n      pop\n        /* \"MergeSortedArray.sol\":2211:2245  uint[] memory arr2 = new uint[](4) */\n      swap1\n      pop\n        /* \"MergeSortedArray.sol\":2266:2267  3 */\n      0x03\n        /* \"MergeSortedArray.sol\":2256:2260  arr2 */\n      dup2\n        /* \"MergeSortedArray.sol\":2261:2262  0 */\n      0x00\n        /* \"MergeSortedArray.sol\":2256:2263  arr2[0] */\n      dup2\n      mload\n      dup2\n      lt\n      tag_114\n      jumpi\n      tag_115\n      tag_48\n      jump\t// in\n    tag_115:\n    tag_114:\n      0x20\n      mul\n      0x20\n      add\n      add\n        /* \"MergeSortedArray.sol\":2256:2267  arr2[0] = 3 */\n      dup2\n      dup2\n      mstore\n      pop\n      pop\n        /* \"MergeSortedArray.sol\":2288:2289  4 */\n      0x04\n        /* \"MergeSortedArray.sol\":2278:2282  arr2 */\n      dup2\n        /* \"MergeSortedArray.sol\":2283:2284  1 */\n      0x01\n        /* \"MergeSortedArray.sol\":2278:2285  arr2[1] */\n      dup2\n      mload\n      dup2\n      lt\n      tag_116\n      jumpi\n      tag_117\n      tag_48\n      jump\t// in\n    tag_117:\n    tag_116:\n      0x20\n      mul\n      0x20\n      add\n      add\n        /* \"MergeSortedArray.sol\":2278:2289  arr2[1] = 4 */\n      dup2\n      dup2\n      mstore\n      pop\n      pop\n        /* \"MergeSortedArray.sol\":2310:2311  5 */\n      0x05\n        /* \"MergeSortedArray.sol\":2300:2304  arr2 */\n      dup2\n        /* \"MergeSortedArray.sol\":2305:2306  2 */\n      0x02\n        /* \"MergeSortedArray.sol\":2300:2307  arr2[2] */\n      dup2\n      mload\n      dup2\n      lt\n      tag_118\n      jumpi\n      tag_119\n      tag_48\n      jump\t// in\n    tag_119:\n    tag_118:\n      0x20\n      mul\n      0x20\n      add\n      add\n        /* \"MergeSortedArray.sol\":2300:2311  arr2[2] = 5 */\n      dup2\n      dup2\n      mstore\n      pop\n      pop\n        /* \"MergeSortedArray.sol\":2332:2333  6 */\n      0x06\n        /* \"MergeSortedArray.sol\":2322:2326  arr2 */\n      dup2\n        /* \"MergeSortedArray.sol\":2327:2328  3 */\n      0x03\n        /* \"MergeSortedArray.sol\":2322:2329  arr2[3] */\n      dup2\n      mload\n      dup2\n      lt\n      tag_120\n      jumpi\n      tag_121\n      tag_48\n      jump\t// in\n    tag_121:\n    tag_120:\n      0x20\n      mul\n      0x20\n      add\n      add\n        /* \"MergeSortedArray.sol\":2322:2333  arr2[3] = 6 */\n      dup2\n      dup2\n      mstore\n      pop\n      pop\n        /* \"MergeSortedArray.sol\":2361:2378  merge(arr1, arr2) */\n      tag_122\n        /* \"MergeSortedArray.sol\":2367:2371  arr1 */\n      dup3\n        /* \"MergeSortedArray.sol\":2373:2377  arr2 */\n      dup3\n        /* \"MergeSortedArray.sol\":2361:2366  merge */\n      tag_14\n        /* \"MergeSortedArray.sol\":2361:2378  merge(arr1, arr2) */\n      jump\t// in\n    tag_122:\n        /* \"MergeSortedArray.sol\":2354:2378  return merge(arr1, arr2) */\n      swap3\n      pop\n      pop\n      pop\n        /* \"MergeSortedArray.sol\":2041:2431  function testExample2() public pure returns (uint[] memory) {... */\n      swap1\n      jump\t// out\n        /* \"MergeSortedArray.sol\":3387:3626  function testExample5() public pure returns (uint[] memory) {... */\n    tag_28:\n        /* \"MergeSortedArray.sol\":3432:3445  uint[] memory */\n      0x60\n        /* \"MergeSortedArray.sol\":3458:3476  uint[] memory arr1 */\n      0x00\n        /* \"MergeSortedArray.sol\":3490:3491  0 */\n      0x00\n        /* \"MergeSortedArray.sol\":3479:3492  new uint[](0) */\n      0xffffffffffffffff\n      dup2\n      gt\n      iszero\n      tag_124\n      jumpi\n      tag_125\n      tag_41\n      jump\t// in\n    tag_125:\n    tag_124:\n      mload(0x40)\n      swap1\n      dup1\n      dup3\n      mstore\n      dup1\n      0x20\n      mul\n      0x20\n      add\n      dup3\n      add\n      0x40\n      mstore\n      dup1\n      iszero\n      tag_126\n      jumpi\n      dup2\n      0x20\n      add\n      0x20\n      dup3\n      mul\n      dup1\n      calldatasize\n      dup4\n      calldatacopy\n      dup1\n      dup3\n      add\n      swap2\n      pop\n      pop\n      swap1\n      pop\n    tag_126:\n      pop\n        /* \"MergeSortedArray.sol\":3458:3492  uint[] memory arr1 = new uint[](0) */\n      swap1\n      pop\n        /* \"MergeSortedArray.sol\":3503:3521  uint[] memory arr2 */\n      0x00\n        /* \"MergeSortedArray.sol\":3535:3536  0 */\n      0x00\n        /* \"MergeSortedArray.sol\":3524:3537  new uint[](0) */\n      0xffffffffffffffff\n      dup2\n      gt\n      iszero\n      tag_127\n      jumpi\n      tag_128\n      tag_41\n      jump\t// in\n    tag_128:\n    tag_127:\n      mload(0x40)\n      swap1\n      dup1\n      dup3\n      mstore\n      dup1\n      0x20\n      mul\n      0x20\n      add\n      dup3\n      add\n      0x40\n      mstore\n      dup1\n      iszero\n      tag_129\n      jumpi\n      dup2\n      0x20\n      add\n      0x20\n      dup3\n      mul\n      dup1\n      calldatasize\n      dup4\n      calldatacopy\n      dup1\n      dup3\n      add\n      swap2\n      pop\n      pop\n      swap1\n      pop\n    tag_129:\n      pop\n        /* \"MergeSortedArray.sol\":3503:3537  uint[] memory arr2 = new uint[](0) */\n      swap1\n      pop\n        /* \"MergeSortedArray.sol\":3565:3582  merge(arr1, arr2) */\n      tag_130\n        /* \"MergeSortedArray.sol\":3571:3575  arr1 */\n      dup3\n        /* \"MergeSortedArray.sol\":3577:3581  arr2 */\n      dup3\n        /* \"MergeSortedArray.sol\":3565:3570  merge */\n      tag_14\n        /* \"MergeSortedArray.sol\":3565:3582  merge(arr1, arr2) */\n      jump\t// in\n    tag_130:\n        /* \"MergeSortedArray.sol\":3558:3582  return merge(arr1, arr2) */\n      swap3\n      pop\n      pop\n      pop\n        /* \"MergeSortedArray.sol\":3387:3626  function testExample5() public pure returns (uint[] memory) {... */\n      swap1\n      jump\t// out\n        /* \"MergeSortedArray.sol\":2977:3306  function testExample4() public pure returns (uint[] memory) {... */\n    tag_31:\n        /* \"MergeSortedArray.sol\":3022:3035  uint[] memory */\n      0x60\n        /* \"MergeSortedArray.sol\":3048:3066  uint[] memory arr1 */\n      0x00\n        /* \"MergeSortedArray.sol\":3080:3081  0 */\n      0x00\n        /* \"MergeSortedArray.sol\":3069:3082  new uint[](0) */\n      0xffffffffffffffff\n      dup2\n      gt\n      iszero\n      tag_132\n      jumpi\n      tag_133\n      tag_41\n      jump\t// in\n    tag_133:\n    tag_132:\n      mload(0x40)\n      swap1\n      dup1\n      dup3\n      mstore\n      dup1\n      0x20\n      mul\n      0x20\n      add\n      dup3\n      add\n      0x40\n      mstore\n      dup1\n      iszero\n      tag_134\n      jumpi\n      dup2\n      0x20\n      add\n      0x20\n      dup3\n      mul\n      dup1\n      calldatasize\n      dup4\n      calldatacopy\n      dup1\n      dup3\n      add\n      swap2\n      pop\n      pop\n      swap1\n      pop\n    tag_134:\n      pop\n        /* \"MergeSortedArray.sol\":3048:3082  uint[] memory arr1 = new uint[](0) */\n      swap1\n      pop\n        /* \"MergeSortedArray.sol\":3117:3135  uint[] memory arr2 */\n      0x00\n        /* \"MergeSortedArray.sol\":3149:3150  3 */\n      0x03\n        /* \"MergeSortedArray.sol\":3138:3151  new uint[](3) */\n      0xffffffffffffffff\n      dup2\n      gt\n      iszero\n      tag_135\n      jumpi\n      tag_136\n      tag_41\n      jump\t// in\n    tag_136:\n    tag_135:\n      mload(0x40)\n      swap1\n      dup1\n      dup3\n      mstore\n      dup1\n      0x20\n      mul\n      0x20\n      add\n      dup3\n      add\n      0x40\n      mstore\n      dup1\n      iszero\n      tag_137\n      jumpi\n      dup2\n      0x20\n      add\n      0x20\n      dup3\n      mul\n      dup1\n      calldatasize\n      dup4\n      calldatacopy\n      dup1\n      dup3\n      add\n      swap2\n      pop\n      pop\n      swap1\n      pop\n    tag_137:\n      pop\n        /* \"MergeSortedArray.sol\":3117:3151  uint[] memory arr2 = new uint[](3) */\n      swap1\n      pop\n        /* \"MergeSortedArray.sol\":3172:3173  1 */\n      0x01\n        /* \"MergeSortedArray.sol\":3162:3166  arr2 */\n      dup2\n        /* \"MergeSortedArray.sol\":3167:3168  0 */\n      0x00\n        /* \"MergeSortedArray.sol\":3162:3169  arr2[0] */\n      dup2\n      mload\n      dup2\n      lt\n      tag_138\n      jumpi\n      tag_139\n      tag_48\n      jump\t// in\n    tag_139:\n    tag_138:\n      0x20\n      mul\n      0x20\n      add\n      add\n        /* \"MergeSortedArray.sol\":3162:3173  arr2[0] = 1 */\n      dup2\n      dup2\n      mstore\n      pop\n      pop\n        /* \"MergeSortedArray.sol\":3194:3195  2 */\n      0x02\n        /* \"MergeSortedArray.sol\":3184:3188  arr2 */\n      dup2\n        /* \"MergeSortedArray.sol\":3189:3190  1 */\n      0x01\n        /* \"MergeSortedArray.sol\":3184:3191  arr2[1] */\n      dup2\n      mload\n      dup2\n      lt\n      tag_140\n      jumpi\n      tag_141\n      tag_48\n      jump\t// in\n    tag_141:\n    tag_140:\n      0x20\n      mul\n      0x20\n      add\n      add\n        /* \"MergeSortedArray.sol\":3184:3195  arr2[1] = 2 */\n      dup2\n      dup2\n      mstore\n      pop\n      pop\n        /* \"MergeSortedArray.sol\":3216:3217  3 */\n      0x03\n        /* \"MergeSortedArray.sol\":3206:3210  arr2 */\n      dup2\n        /* \"MergeSortedArray.sol\":3211:3212  2 */\n      0x02\n        /* \"MergeSortedArray.sol\":3206:3213  arr2[2] */\n      dup2\n      mload\n      dup2\n      lt\n      tag_142\n      jumpi\n      tag_143\n      tag_48\n      jump\t// in\n    tag_143:\n    tag_142:\n      0x20\n      mul\n      0x20\n      add\n      add\n        /* \"MergeSortedArray.sol\":3206:3217  arr2[2] = 3 */\n      dup2\n      dup2\n      mstore\n      pop\n      pop\n        /* \"MergeSortedArray.sol\":3245:3262  merge(arr1, arr2) */\n      tag_144\n        /* \"MergeSortedArray.sol\":3251:3255  arr1 */\n      dup3\n        /* \"MergeSortedArray.sol\":3257:3261  arr2 */\n      dup3\n        /* \"MergeSortedArray.sol\":3245:3250  merge */\n      tag_14\n        /* \"MergeSortedArray.sol\":3245:3262  merge(arr1, arr2) */\n      jump\t// in\n    tag_144:\n        /* \"MergeSortedArray.sol\":3238:3262  return merge(arr1, arr2) */\n      swap3\n      pop\n      pop\n      pop\n        /* \"MergeSortedArray.sol\":2977:3306  function testExample4() public pure returns (uint[] memory) {... */\n      swap1\n      jump\t// out\n        /* \"MergeSortedArray.sol\":1573:1963  function testExample1() public pure returns (uint[] memory) {... */\n    tag_34:\n        /* \"MergeSortedArray.sol\":1618:1631  uint[] memory */\n      0x60\n        /* \"MergeSortedArray.sol\":1644:1662  uint[] memory arr1 */\n      0x00\n        /* \"MergeSortedArray.sol\":1676:1677  3 */\n      0x03\n        /* \"MergeSortedArray.sol\":1665:1678  new uint[](3) */\n      0xffffffffffffffff\n      dup2\n      gt\n      iszero\n      tag_146\n      jumpi\n      tag_147\n      tag_41\n      jump\t// in\n    tag_147:\n    tag_146:\n      mload(0x40)\n      swap1\n      dup1\n      dup3\n      mstore\n      dup1\n      0x20\n      mul\n      0x20\n      add\n      dup3\n      add\n      0x40\n      mstore\n      dup1\n      iszero\n      tag_148\n      jumpi\n      dup2\n      0x20\n      add\n      0x20\n      dup3\n      mul\n      dup1\n      calldatasize\n      dup4\n      calldatacopy\n      dup1\n      dup3\n      add\n      swap2\n      pop\n      pop\n      swap1\n      pop\n    tag_148:\n      pop\n        /* \"MergeSortedArray.sol\":1644:1678  uint[] memory arr1 = new uint[](3) */\n      swap1\n      pop\n        /* \"MergeSortedArray.sol\":1699:1700  1 */\n      0x01\n        /* \"MergeSortedArray.sol\":1689:1693  arr1 */\n      dup2\n        /* \"MergeSortedArray.sol\":1694:1695  0 */\n      0x00\n        /* \"MergeSortedArray.sol\":1689:1696  arr1[0] */\n      dup2\n      mload\n      dup2\n      lt\n      tag_149\n      jumpi\n      tag_150\n      tag_48\n      jump\t// in\n    tag_150:\n    tag_149:\n      0x20\n      mul\n      0x20\n      add\n      add\n        /* \"MergeSortedArray.sol\":1689:1700  arr1[0] = 1 */\n      dup2\n      dup2\n      mstore\n      pop\n      pop\n        /* \"MergeSortedArray.sol\":1721:1722  3 */\n      0x03\n        /* \"MergeSortedArray.sol\":1711:1715  arr1 */\n      dup2\n        /* \"MergeSortedArray.sol\":1716:1717  1 */\n      0x01\n        /* \"MergeSortedArray.sol\":1711:1718  arr1[1] */\n      dup2\n      mload\n      dup2\n      lt\n      tag_151\n      jumpi\n      tag_152\n      tag_48\n      jump\t// in\n    tag_152:\n    tag_151:\n      0x20\n      mul\n      0x20\n      add\n      add\n        /* \"MergeSortedArray.sol\":1711:1722  arr1[1] = 3 */\n      dup2\n      dup2\n      mstore\n      pop\n      pop\n        /* \"MergeSortedArray.sol\":1743:1744  5 */\n      0x05\n        /* \"MergeSortedArray.sol\":1733:1737  arr1 */\n      dup2\n        /* \"MergeSortedArray.sol\":1738:1739  2 */\n      0x02\n        /* \"MergeSortedArray.sol\":1733:1740  arr1[2] */\n      dup2\n      mload\n      dup2\n      lt\n      tag_153\n      jumpi\n      tag_154\n      tag_48\n      jump\t// in\n    tag_154:\n    tag_153:\n      0x20\n      mul\n      0x20\n      add\n      add\n        /* \"MergeSortedArray.sol\":1733:1744  arr1[2] = 5 */\n      dup2\n      dup2\n      mstore\n      pop\n      pop\n        /* \"MergeSortedArray.sol\":1765:1783  uint[] memory arr2 */\n      0x00\n        /* \"MergeSortedArray.sol\":1797:1798  3 */\n      0x03\n        /* \"MergeSortedArray.sol\":1786:1799  new uint[](3) */\n      0xffffffffffffffff\n      dup2\n      gt\n      iszero\n      tag_155\n      jumpi\n      tag_156\n      tag_41\n      jump\t// in\n    tag_156:\n    tag_155:\n      mload(0x40)\n      swap1\n      dup1\n      dup3\n      mstore\n      dup1\n      0x20\n      mul\n      0x20\n      add\n      dup3\n      add\n      0x40\n      mstore\n      dup1\n      iszero\n      tag_157\n      jumpi\n      dup2\n      0x20\n      add\n      0x20\n      dup3\n      mul\n      dup1\n      calldatasize\n      dup4\n      calldatacopy\n      dup1\n      dup3\n      add\n      swap2\n      pop\n      pop\n      swap1\n      pop\n    tag_157:\n      pop\n        /* \"MergeSortedArray.sol\":1765:1799  uint[] memory arr2 = new uint[](3) */\n      swap1\n      pop\n        /* \"MergeSortedArray.sol\":1820:1821  2 */\n      0x02\n        /* \"MergeSortedArray.sol\":1810:1814  arr2 */\n      dup2\n        /* \"MergeSortedArray.sol\":1815:1816  0 */\n      0x00\n        /* \"MergeSortedArray.sol\":1810:1817  arr2[0] */\n      dup2\n      mload\n      dup2\n      lt\n      tag_158\n      jumpi\n      tag_159\n      tag_48\n      jump\t// in\n    tag_159:\n    tag_158:\n      0x20\n      mul\n      0x20\n      add\n      add\n        /* \"MergeSortedArray.sol\":1810:1821  arr2[0] = 2 */\n      dup2\n      dup2\n      mstore\n      pop\n      pop\n        /* \"MergeSortedArray.sol\":1842:1843  4 */\n      0x04\n        /* \"MergeSortedArray.sol\":1832:1836  arr2 */\n      dup2\n        /* \"MergeSortedArray.sol\":1837:1838  1 */\n      0x01\n        /* \"MergeSortedArray.sol\":1832:1839  arr2[1] */\n      dup2\n      mload\n      dup2\n      lt\n      tag_160\n      jumpi\n      tag_161\n      tag_48\n      jump\t// in\n    tag_161:\n    tag_160:\n      0x20\n      mul\n      0x20\n      add\n      add\n        /* \"MergeSortedArray.sol\":1832:1843  arr2[1] = 4 */\n      dup2\n      dup2\n      mstore\n      pop\n      pop\n        /* \"MergeSortedArray.sol\":1864:1865  6 */\n      0x06\n        /* \"MergeSortedArray.sol\":1854:1858  arr2 */\n      dup2\n        /* \"MergeSortedArray.sol\":1859:1860  2 */\n      0x02\n        /* \"MergeSortedArray.sol\":1854:1861  arr2[2] */\n      dup2\n      mload\n      dup2\n      lt\n      tag_162\n      jumpi\n      tag_163\n      tag_48\n      jump\t// in\n    tag_163:\n    tag_162:\n      0x20\n      mul\n      0x20\n      add\n      add\n        /* \"MergeSortedArray.sol\":1854:1865  arr2[2] = 6 */\n      dup2\n      dup2\n      mstore\n      pop\n      pop\n        /* \"MergeSortedArray.sol\":1893:1910  merge(arr1, arr2) */\n      tag_164\n        /* \"MergeSortedArray.sol\":1899:1903  arr1 */\n      dup3\n        /* \"MergeSortedArray.sol\":1905:1909  arr2 */\n      dup3\n        /* \"MergeSortedArray.sol\":1893:1898  merge */\n      tag_14\n        /* \"MergeSortedArray.sol\":1893:1910  merge(arr1, arr2) */\n      jump\t// in\n    tag_164:\n        /* \"MergeSortedArray.sol\":1886:1910  return merge(arr1, arr2) */\n      swap3\n      pop\n      pop\n      pop\n        /* \"MergeSortedArray.sol\":1573:1963  function testExample1() public pure returns (uint[] memory) {... */\n      swap1\n      jump\t// out\n        /* \"#utility.yul\":7:82   */\n    tag_165:\n        /* \"#utility.yul\":40:46   */\n      0x00\n        /* \"#utility.yul\":73:75   */\n      0x40\n        /* \"#utility.yul\":67:76   */\n      mload\n        /* \"#utility.yul\":57:76   */\n      swap1\n      pop\n        /* \"#utility.yul\":7:82   */\n      swap1\n      jump\t// out\n        /* \"#utility.yul\":88:205   */\n    tag_166:\n        /* \"#utility.yul\":197:198   */\n      0x00\n        /* \"#utility.yul\":194:195   */\n      0x00\n        /* \"#utility.yul\":187:199   */\n      revert\n        /* \"#utility.yul\":211:328   */\n    tag_167:\n        /* \"#utility.yul\":320:321   */\n      0x00\n        /* \"#utility.yul\":317:318   */\n      0x00\n        /* \"#utility.yul\":310:322   */\n      revert\n        /* \"#utility.yul\":334:451   */\n    tag_168:\n        /* \"#utility.yul\":443:444   */\n      0x00\n        /* \"#utility.yul\":440:441   */\n      0x00\n        /* \"#utility.yul\":433:445   */\n      revert\n        /* \"#utility.yul\":457:559   */\n    tag_169:\n        /* \"#utility.yul\":498:504   */\n      0x00\n        /* \"#utility.yul\":549:551   */\n      0x1f\n        /* \"#utility.yul\":545:552   */\n      not\n        /* \"#utility.yul\":540:542   */\n      0x1f\n        /* \"#utility.yul\":533:538   */\n      dup4\n        /* \"#utility.yul\":529:543   */\n      add\n        /* \"#utility.yul\":525:553   */\n      and\n        /* \"#utility.yul\":515:553   */\n      swap1\n      pop\n        /* \"#utility.yul\":457:559   */\n      swap2\n      swap1\n      pop\n      jump\t// out\n        /* \"#utility.yul\":565:745   */\n    tag_41:\n        /* \"#utility.yul\":613:690   */\n      0x4e487b7100000000000000000000000000000000000000000000000000000000\n        /* \"#utility.yul\":610:611   */\n      0x00\n        /* \"#utility.yul\":603:691   */\n      mstore\n        /* \"#utility.yul\":710:714   */\n      0x41\n        /* \"#utility.yul\":707:708   */\n      0x04\n        /* \"#utility.yul\":700:715   */\n      mstore\n        /* \"#utility.yul\":734:738   */\n      0x24\n        /* \"#utility.yul\":731:732   */\n      0x00\n        /* \"#utility.yul\":724:739   */\n      revert\n        /* \"#utility.yul\":751:1032   */\n    tag_170:\n        /* \"#utility.yul\":834:861   */\n      tag_195\n        /* \"#utility.yul\":856:860   */\n      dup3\n        /* \"#utility.yul\":834:861   */\n      tag_169\n      jump\t// in\n    tag_195:\n        /* \"#utility.yul\":826:832   */\n      dup2\n        /* \"#utility.yul\":822:862   */\n      add\n        /* \"#utility.yul\":964:970   */\n      dup2\n        /* \"#utility.yul\":952:962   */\n      dup2\n        /* \"#utility.yul\":949:971   */\n      lt\n        /* \"#utility.yul\":928:946   */\n      0xffffffffffffffff\n        /* \"#utility.yul\":916:926   */\n      dup3\n        /* \"#utility.yul\":913:947   */\n      gt\n        /* \"#utility.yul\":910:972   */\n      or\n        /* \"#utility.yul\":907:995   */\n      iszero\n      tag_196\n      jumpi\n        /* \"#utility.yul\":975:993   */\n      tag_197\n      tag_41\n      jump\t// in\n    tag_197:\n        /* \"#utility.yul\":907:995   */\n    tag_196:\n        /* \"#utility.yul\":1015:1025   */\n      dup1\n        /* \"#utility.yul\":1011:1013   */\n      0x40\n        /* \"#utility.yul\":1004:1026   */\n      mstore\n        /* \"#utility.yul\":794:1032   */\n      pop\n        /* \"#utility.yul\":751:1032   */\n      pop\n      pop\n      jump\t// out\n        /* \"#utility.yul\":1038:1167   */\n    tag_171:\n        /* \"#utility.yul\":1072:1078   */\n      0x00\n        /* \"#utility.yul\":1099:1119   */\n      tag_199\n      tag_165\n      jump\t// in\n    tag_199:\n        /* \"#utility.yul\":1089:1119   */\n      swap1\n      pop\n        /* \"#utility.yul\":1128:1161   */\n      tag_200\n        /* \"#utility.yul\":1156:1160   */\n      dup3\n        /* \"#utility.yul\":1148:1154   */\n      dup3\n        /* \"#utility.yul\":1128:1161   */\n      tag_170\n      jump\t// in\n    tag_200:\n        /* \"#utility.yul\":1038:1167   */\n      swap2\n      swap1\n      pop\n      jump\t// out\n        /* \"#utility.yul\":1173:1484   */\n    tag_172:\n        /* \"#utility.yul\":1250:1254   */\n      0x00\n        /* \"#utility.yul\":1340:1358   */\n      0xffffffffffffffff\n        /* \"#utility.yul\":1332:1338   */\n      dup3\n        /* \"#utility.yul\":1329:1359   */\n      gt\n        /* \"#utility.yul\":1326:1382   */\n      iszero\n      tag_202\n      jumpi\n        /* \"#utility.yul\":1362:1380   */\n      tag_203\n      tag_41\n      jump\t// in\n    tag_203:\n        /* \"#utility.yul\":1326:1382   */\n    tag_202:\n        /* \"#utility.yul\":1412:1416   */\n      0x20\n        /* \"#utility.yul\":1404:1410   */\n      dup3\n        /* \"#utility.yul\":1400:1417   */\n      mul\n        /* \"#utility.yul\":1392:1417   */\n      swap1\n      pop\n        /* \"#utility.yul\":1472:1476   */\n      0x20\n        /* \"#utility.yul\":1466:1470   */\n      dup2\n        /* \"#utility.yul\":1462:1477   */\n      add\n        /* \"#utility.yul\":1454:1477   */\n      swap1\n      pop\n        /* \"#utility.yul\":1173:1484   */\n      swap2\n      swap1\n      pop\n      jump\t// out\n        /* \"#utility.yul\":1490:1607   */\n    tag_173:\n        /* \"#utility.yul\":1599:1600   */\n      0x00\n        /* \"#utility.yul\":1596:1597   */\n      0x00\n        /* \"#utility.yul\":1589:1601   */\n      revert\n        /* \"#utility.yul\":1613:1690   */\n    tag_174:\n        /* \"#utility.yul\":1650:1657   */\n      0x00\n        /* \"#utility.yul\":1679:1684   */\n      dup2\n        /* \"#utility.yul\":1668:1684   */\n      swap1\n      pop\n        /* \"#utility.yul\":1613:1690   */\n      swap2\n      swap1\n      pop\n      jump\t// out\n        /* \"#utility.yul\":1696:1818   */\n    tag_175:\n        /* \"#utility.yul\":1769:1793   */\n      tag_207\n        /* \"#utility.yul\":1787:1792   */\n      dup2\n        /* \"#utility.yul\":1769:1793   */\n      tag_174\n      jump\t// in\n    tag_207:\n        /* \"#utility.yul\":1762:1767   */\n      dup2\n        /* \"#utility.yul\":1759:1794   */\n      eq\n        /* \"#utility.yul\":1749:1812   */\n      tag_208\n      jumpi\n        /* \"#utility.yul\":1808:1809   */\n      0x00\n        /* \"#utility.yul\":1805:1806   */\n      0x00\n        /* \"#utility.yul\":1798:1810   */\n      revert\n        /* \"#utility.yul\":1749:1812   */\n    tag_208:\n        /* \"#utility.yul\":1696:1818   */\n      pop\n      jump\t// out\n        /* \"#utility.yul\":1824:1963   */\n    tag_176:\n        /* \"#utility.yul\":1870:1875   */\n      0x00\n        /* \"#utility.yul\":1908:1914   */\n      dup2\n        /* \"#utility.yul\":1895:1915   */\n      calldataload\n        /* \"#utility.yul\":1886:1915   */\n      swap1\n      pop\n        /* \"#utility.yul\":1924:1957   */\n      tag_210\n        /* \"#utility.yul\":1951:1956   */\n      dup2\n        /* \"#utility.yul\":1924:1957   */\n      tag_175\n      jump\t// in\n    tag_210:\n        /* \"#utility.yul\":1824:1963   */\n      swap3\n      swap2\n      pop\n      pop\n      jump\t// out\n        /* \"#utility.yul\":1986:2696   */\n    tag_177:\n        /* \"#utility.yul\":2082:2087   */\n      0x00\n        /* \"#utility.yul\":2107:2188   */\n      tag_212\n        /* \"#utility.yul\":2123:2187   */\n      tag_213\n        /* \"#utility.yul\":2180:2186   */\n      dup5\n        /* \"#utility.yul\":2123:2187   */\n      tag_172\n      jump\t// in\n    tag_213:\n        /* \"#utility.yul\":2107:2188   */\n      tag_171\n      jump\t// in\n    tag_212:\n        /* \"#utility.yul\":2098:2188   */\n      swap1\n      pop\n        /* \"#utility.yul\":2208:2213   */\n      dup1\n        /* \"#utility.yul\":2237:2243   */\n      dup4\n        /* \"#utility.yul\":2230:2235   */\n      dup3\n        /* \"#utility.yul\":2223:2244   */\n      mstore\n        /* \"#utility.yul\":2271:2275   */\n      0x20\n        /* \"#utility.yul\":2264:2269   */\n      dup3\n        /* \"#utility.yul\":2260:2276   */\n      add\n        /* \"#utility.yul\":2253:2276   */\n      swap1\n      pop\n        /* \"#utility.yul\":2324:2328   */\n      0x20\n        /* \"#utility.yul\":2316:2322   */\n      dup5\n        /* \"#utility.yul\":2312:2329   */\n      mul\n        /* \"#utility.yul\":2304:2310   */\n      dup4\n        /* \"#utility.yul\":2300:2330   */\n      add\n        /* \"#utility.yul\":2353:2356   */\n      dup6\n        /* \"#utility.yul\":2345:2351   */\n      dup2\n        /* \"#utility.yul\":2342:2357   */\n      gt\n        /* \"#utility.yul\":2339:2461   */\n      iszero\n      tag_214\n      jumpi\n        /* \"#utility.yul\":2372:2451   */\n      tag_215\n      tag_173\n      jump\t// in\n    tag_215:\n        /* \"#utility.yul\":2339:2461   */\n    tag_214:\n        /* \"#utility.yul\":2487:2493   */\n      dup4\n        /* \"#utility.yul\":2470:2690   */\n    tag_216:\n        /* \"#utility.yul\":2504:2510   */\n      dup2\n        /* \"#utility.yul\":2499:2502   */\n      dup2\n        /* \"#utility.yul\":2496:2511   */\n      lt\n        /* \"#utility.yul\":2470:2690   */\n      iszero\n      tag_218\n      jumpi\n        /* \"#utility.yul\":2579:2582   */\n      dup1\n        /* \"#utility.yul\":2608:2645   */\n      tag_219\n        /* \"#utility.yul\":2641:2644   */\n      dup9\n        /* \"#utility.yul\":2629:2639   */\n      dup3\n        /* \"#utility.yul\":2608:2645   */\n      tag_176\n      jump\t// in\n    tag_219:\n        /* \"#utility.yul\":2603:2606   */\n      dup5\n        /* \"#utility.yul\":2596:2646   */\n      mstore\n        /* \"#utility.yul\":2675:2679   */\n      0x20\n        /* \"#utility.yul\":2670:2673   */\n      dup5\n        /* \"#utility.yul\":2666:2680   */\n      add\n        /* \"#utility.yul\":2659:2680   */\n      swap4\n      pop\n        /* \"#utility.yul\":2546:2690   */\n      pop\n        /* \"#utility.yul\":2530:2534   */\n      0x20\n        /* \"#utility.yul\":2525:2528   */\n      dup2\n        /* \"#utility.yul\":2521:2535   */\n      add\n        /* \"#utility.yul\":2514:2535   */\n      swap1\n      pop\n        /* \"#utility.yul\":2470:2690   */\n      jump(tag_216)\n    tag_218:\n        /* \"#utility.yul\":2474:2495   */\n      pop\n        /* \"#utility.yul\":2088:2696   */\n      pop\n      pop\n        /* \"#utility.yul\":1986:2696   */\n      swap4\n      swap3\n      pop\n      pop\n      pop\n      jump\t// out\n        /* \"#utility.yul\":2719:3089   */\n    tag_178:\n        /* \"#utility.yul\":2790:2795   */\n      0x00\n        /* \"#utility.yul\":2839:2842   */\n      dup3\n        /* \"#utility.yul\":2832:2836   */\n      0x1f\n        /* \"#utility.yul\":2824:2830   */\n      dup4\n        /* \"#utility.yul\":2820:2837   */\n      add\n        /* \"#utility.yul\":2816:2843   */\n      slt\n        /* \"#utility.yul\":2806:2928   */\n      tag_221\n      jumpi\n        /* \"#utility.yul\":2847:2926   */\n      tag_222\n      tag_168\n      jump\t// in\n    tag_222:\n        /* \"#utility.yul\":2806:2928   */\n    tag_221:\n        /* \"#utility.yul\":2964:2970   */\n      dup2\n        /* \"#utility.yul\":2951:2971   */\n      calldataload\n        /* \"#utility.yul\":2989:3083   */\n      tag_223\n        /* \"#utility.yul\":3079:3082   */\n      dup5\n        /* \"#utility.yul\":3071:3077   */\n      dup3\n        /* \"#utility.yul\":3064:3068   */\n      0x20\n        /* \"#utility.yul\":3056:3062   */\n      dup7\n        /* \"#utility.yul\":3052:3069   */\n      add\n        /* \"#utility.yul\":2989:3083   */\n      tag_177\n      jump\t// in\n    tag_223:\n        /* \"#utility.yul\":2980:3083   */\n      swap2\n      pop\n        /* \"#utility.yul\":2796:3089   */\n      pop\n        /* \"#utility.yul\":2719:3089   */\n      swap3\n      swap2\n      pop\n      pop\n      jump\t// out\n        /* \"#utility.yul\":3095:3989   */\n    tag_13:\n        /* \"#utility.yul\":3213:3219   */\n      0x00\n        /* \"#utility.yul\":3221:3227   */\n      0x00\n        /* \"#utility.yul\":3270:3272   */\n      0x40\n        /* \"#utility.yul\":3258:3267   */\n      dup4\n        /* \"#utility.yul\":3249:3256   */\n      dup6\n        /* \"#utility.yul\":3245:3268   */\n      sub\n        /* \"#utility.yul\":3241:3273   */\n      slt\n        /* \"#utility.yul\":3238:3357   */\n      iszero\n      tag_225\n      jumpi\n        /* \"#utility.yul\":3276:3355   */\n      tag_226\n      tag_166\n      jump\t// in\n    tag_226:\n        /* \"#utility.yul\":3238:3357   */\n    tag_225:\n        /* \"#utility.yul\":3424:3425   */\n      0x00\n        /* \"#utility.yul\":3413:3422   */\n      dup4\n        /* \"#utility.yul\":3409:3426   */\n      add\n        /* \"#utility.yul\":3396:3427   */\n      calldataload\n        /* \"#utility.yul\":3454:3472   */\n      0xffffffffffffffff\n        /* \"#utility.yul\":3446:3452   */\n      dup2\n        /* \"#utility.yul\":3443:3473   */\n      gt\n        /* \"#utility.yul\":3440:3557   */\n      iszero\n      tag_227\n      jumpi\n        /* \"#utility.yul\":3476:3555   */\n      tag_228\n      tag_167\n      jump\t// in\n    tag_228:\n        /* \"#utility.yul\":3440:3557   */\n    tag_227:\n        /* \"#utility.yul\":3581:3659   */\n      tag_229\n        /* \"#utility.yul\":3651:3658   */\n      dup6\n        /* \"#utility.yul\":3642:3648   */\n      dup3\n        /* \"#utility.yul\":3631:3640   */\n      dup7\n        /* \"#utility.yul\":3627:3649   */\n      add\n        /* \"#utility.yul\":3581:3659   */\n      tag_178\n      jump\t// in\n    tag_229:\n        /* \"#utility.yul\":3571:3659   */\n      swap3\n      pop\n        /* \"#utility.yul\":3367:3669   */\n      pop\n        /* \"#utility.yul\":3736:3738   */\n      0x20\n        /* \"#utility.yul\":3725:3734   */\n      dup4\n        /* \"#utility.yul\":3721:3739   */\n      add\n        /* \"#utility.yul\":3708:3740   */\n      calldataload\n        /* \"#utility.yul\":3767:3785   */\n      0xffffffffffffffff\n        /* \"#utility.yul\":3759:3765   */\n      dup2\n        /* \"#utility.yul\":3756:3786   */\n      gt\n        /* \"#utility.yul\":3753:3870   */\n      iszero\n      tag_230\n      jumpi\n        /* \"#utility.yul\":3789:3868   */\n      tag_231\n      tag_167\n      jump\t// in\n    tag_231:\n        /* \"#utility.yul\":3753:3870   */\n    tag_230:\n        /* \"#utility.yul\":3894:3972   */\n      tag_232\n        /* \"#utility.yul\":3964:3971   */\n      dup6\n        /* \"#utility.yul\":3955:3961   */\n      dup3\n        /* \"#utility.yul\":3944:3953   */\n      dup7\n        /* \"#utility.yul\":3940:3962   */\n      add\n        /* \"#utility.yul\":3894:3972   */\n      tag_178\n      jump\t// in\n    tag_232:\n        /* \"#utility.yul\":3884:3972   */\n      swap2\n      pop\n        /* \"#utility.yul\":3679:3982   */\n      pop\n        /* \"#utility.yul\":3095:3989   */\n      swap3\n      pop\n      swap3\n      swap1\n      pop\n      jump\t// out\n        /* \"#utility.yul\":3995:4109   */\n    tag_179:\n        /* \"#utility.yul\":4062:4068   */\n      0x00\n        /* \"#utility.yul\":4096:4101   */\n      dup2\n        /* \"#utility.yul\":4090:4102   */\n      mload\n        /* \"#utility.yul\":4080:4102   */\n      swap1\n      pop\n        /* \"#utility.yul\":3995:4109   */\n      swap2\n      swap1\n      pop\n      jump\t// out\n        /* \"#utility.yul\":4115:4299   */\n    tag_180:\n        /* \"#utility.yul\":4214:4225   */\n      0x00\n        /* \"#utility.yul\":4248:4254   */\n      dup3\n        /* \"#utility.yul\":4243:4246   */\n      dup3\n        /* \"#utility.yul\":4236:4255   */\n      mstore\n        /* \"#utility.yul\":4288:4292   */\n      0x20\n        /* \"#utility.yul\":4283:4286   */\n      dup3\n        /* \"#utility.yul\":4279:4293   */\n      add\n        /* \"#utility.yul\":4264:4293   */\n      swap1\n      pop\n        /* \"#utility.yul\":4115:4299   */\n      swap3\n      swap2\n      pop\n      pop\n      jump\t// out\n        /* \"#utility.yul\":4305:4437   */\n    tag_181:\n        /* \"#utility.yul\":4372:4376   */\n      0x00\n        /* \"#utility.yul\":4395:4398   */\n      dup2\n        /* \"#utility.yul\":4387:4398   */\n      swap1\n      pop\n        /* \"#utility.yul\":4425:4429   */\n      0x20\n        /* \"#utility.yul\":4420:4423   */\n      dup3\n        /* \"#utility.yul\":4416:4430   */\n      add\n        /* \"#utility.yul\":4408:4430   */\n      swap1\n      pop\n        /* \"#utility.yul\":4305:4437   */\n      swap2\n      swap1\n      pop\n      jump\t// out\n        /* \"#utility.yul\":4443:4551   */\n    tag_182:\n        /* \"#utility.yul\":4520:4544   */\n      tag_237\n        /* \"#utility.yul\":4538:4543   */\n      dup2\n        /* \"#utility.yul\":4520:4544   */\n      tag_174\n      jump\t// in\n    tag_237:\n        /* \"#utility.yul\":4515:4518   */\n      dup3\n        /* \"#utility.yul\":4508:4545   */\n      mstore\n        /* \"#utility.yul\":4443:4551   */\n      pop\n      pop\n      jump\t// out\n        /* \"#utility.yul\":4557:4736   */\n    tag_183:\n        /* \"#utility.yul\":4626:4636   */\n      0x00\n        /* \"#utility.yul\":4647:4693   */\n      tag_239\n        /* \"#utility.yul\":4689:4692   */\n      dup4\n        /* \"#utility.yul\":4681:4687   */\n      dup4\n        /* \"#utility.yul\":4647:4693   */\n      tag_182\n      jump\t// in\n    tag_239:\n        /* \"#utility.yul\":4725:4729   */\n      0x20\n        /* \"#utility.yul\":4720:4723   */\n      dup4\n        /* \"#utility.yul\":4716:4730   */\n      add\n        /* \"#utility.yul\":4702:4730   */\n      swap1\n      pop\n        /* \"#utility.yul\":4557:4736   */\n      swap3\n      swap2\n      pop\n      pop\n      jump\t// out\n        /* \"#utility.yul\":4742:4855   */\n    tag_184:\n        /* \"#utility.yul\":4812:4816   */\n      0x00\n        /* \"#utility.yul\":4844:4848   */\n      0x20\n        /* \"#utility.yul\":4839:4842   */\n      dup3\n        /* \"#utility.yul\":4835:4849   */\n      add\n        /* \"#utility.yul\":4827:4849   */\n      swap1\n      pop\n        /* \"#utility.yul\":4742:4855   */\n      swap2\n      swap1\n      pop\n      jump\t// out\n        /* \"#utility.yul\":4891:5623   */\n    tag_185:\n        /* \"#utility.yul\":5010:5013   */\n      0x00\n        /* \"#utility.yul\":5039:5093   */\n      tag_242\n        /* \"#utility.yul\":5087:5092   */\n      dup3\n        /* \"#utility.yul\":5039:5093   */\n      tag_179\n      jump\t// in\n    tag_242:\n        /* \"#utility.yul\":5109:5195   */\n      tag_243\n        /* \"#utility.yul\":5188:5194   */\n      dup2\n        /* \"#utility.yul\":5183:5186   */\n      dup6\n        /* \"#utility.yul\":5109:5195   */\n      tag_180\n      jump\t// in\n    tag_243:\n        /* \"#utility.yul\":5102:5195   */\n      swap4\n      pop\n        /* \"#utility.yul\":5219:5275   */\n      tag_244\n        /* \"#utility.yul\":5269:5274   */\n      dup4\n        /* \"#utility.yul\":5219:5275   */\n      tag_181\n      jump\t// in\n    tag_244:\n        /* \"#utility.yul\":5298:5305   */\n      dup1\n        /* \"#utility.yul\":5329:5330   */\n      0x00\n        /* \"#utility.yul\":5314:5598   */\n    tag_245:\n        /* \"#utility.yul\":5339:5345   */\n      dup4\n        /* \"#utility.yul\":5336:5337   */\n      dup2\n        /* \"#utility.yul\":5333:5346   */\n      lt\n        /* \"#utility.yul\":5314:5598   */\n      iszero\n      tag_247\n      jumpi\n        /* \"#utility.yul\":5415:5421   */\n      dup2\n        /* \"#utility.yul\":5409:5422   */\n      mload\n        /* \"#utility.yul\":5442:5505   */\n      tag_248\n        /* \"#utility.yul\":5501:5504   */\n      dup9\n        /* \"#utility.yul\":5486:5499   */\n      dup3\n        /* \"#utility.yul\":5442:5505   */\n      tag_183\n      jump\t// in\n    tag_248:\n        /* \"#utility.yul\":5435:5505   */\n      swap8\n      pop\n        /* \"#utility.yul\":5528:5588   */\n      tag_249\n        /* \"#utility.yul\":5581:5587   */\n      dup4\n        /* \"#utility.yul\":5528:5588   */\n      tag_184\n      jump\t// in\n    tag_249:\n        /* \"#utility.yul\":5518:5588   */\n      swap3\n      pop\n        /* \"#utility.yul\":5374:5598   */\n      pop\n        /* \"#utility.yul\":5361:5362   */\n      0x01\n        /* \"#utility.yul\":5358:5359   */\n      dup2\n        /* \"#utility.yul\":5354:5363   */\n      add\n        /* \"#utility.yul\":5349:5363   */\n      swap1\n      pop\n        /* \"#utility.yul\":5314:5598   */\n      jump(tag_245)\n    tag_247:\n        /* \"#utility.yul\":5318:5332   */\n      pop\n        /* \"#utility.yul\":5614:5617   */\n      dup6\n        /* \"#utility.yul\":5607:5617   */\n      swap4\n      pop\n        /* \"#utility.yul\":5015:5623   */\n      pop\n      pop\n      pop\n        /* \"#utility.yul\":4891:5623   */\n      swap3\n      swap2\n      pop\n      pop\n      jump\t// out\n        /* \"#utility.yul\":5629:6002   */\n    tag_16:\n        /* \"#utility.yul\":5772:5776   */\n      0x00\n        /* \"#utility.yul\":5810:5812   */\n      0x20\n        /* \"#utility.yul\":5799:5808   */\n      dup3\n        /* \"#utility.yul\":5795:5813   */\n      add\n        /* \"#utility.yul\":5787:5813   */\n      swap1\n      pop\n        /* \"#utility.yul\":5859:5868   */\n      dup2\n        /* \"#utility.yul\":5853:5857   */\n      dup2\n        /* \"#utility.yul\":5849:5869   */\n      sub\n        /* \"#utility.yul\":5845:5846   */\n      0x00\n        /* \"#utility.yul\":5834:5843   */\n      dup4\n        /* \"#utility.yul\":5830:5847   */\n      add\n        /* \"#utility.yul\":5823:5870   */\n      mstore\n        /* \"#utility.yul\":5887:5995   */\n      tag_251\n        /* \"#utility.yul\":5990:5994   */\n      dup2\n        /* \"#utility.yul\":5981:5987   */\n      dup5\n        /* \"#utility.yul\":5887:5995   */\n      tag_185\n      jump\t// in\n    tag_251:\n        /* \"#utility.yul\":5879:5995   */\n      swap1\n      pop\n        /* \"#utility.yul\":5629:6002   */\n      swap3\n      swap2\n      pop\n      pop\n      jump\t// out\n        /* \"#utility.yul\":6008:6188   */\n    tag_186:\n        /* \"#utility.yul\":6056:6133   */\n      0x4e487b7100000000000000000000000000000000000000000000000000000000\n        /* \"#utility.yul\":6053:6054   */\n      0x00\n        /* \"#utility.yul\":6046:6134   */\n      mstore\n        /* \"#utility.yul\":6153:6157   */\n      0x11\n        /* \"#utility.yul\":6150:6151   */\n      0x04\n        /* \"#utility.yul\":6143:6158   */\n      mstore\n        /* \"#utility.yul\":6177:6181   */\n      0x24\n        /* \"#utility.yul\":6174:6175   */\n      0x00\n        /* \"#utility.yul\":6167:6182   */\n      revert\n        /* \"#utility.yul\":6194:6385   */\n    tag_38:\n        /* \"#utility.yul\":6234:6237   */\n      0x00\n        /* \"#utility.yul\":6253:6273   */\n      tag_254\n        /* \"#utility.yul\":6271:6272   */\n      dup3\n        /* \"#utility.yul\":6253:6273   */\n      tag_174\n      jump\t// in\n    tag_254:\n        /* \"#utility.yul\":6248:6273   */\n      swap2\n      pop\n        /* \"#utility.yul\":6287:6307   */\n      tag_255\n        /* \"#utility.yul\":6305:6306   */\n      dup4\n        /* \"#utility.yul\":6287:6307   */\n      tag_174\n      jump\t// in\n    tag_255:\n        /* \"#utility.yul\":6282:6307   */\n      swap3\n      pop\n        /* \"#utility.yul\":6330:6331   */\n      dup3\n        /* \"#utility.yul\":6327:6328   */\n      dup3\n        /* \"#utility.yul\":6323:6332   */\n      add\n        /* \"#utility.yul\":6316:6332   */\n      swap1\n      pop\n        /* \"#utility.yul\":6351:6354   */\n      dup1\n        /* \"#utility.yul\":6348:6349   */\n      dup3\n        /* \"#utility.yul\":6345:6355   */\n      gt\n        /* \"#utility.yul\":6342:6378   */\n      iszero\n      tag_256\n      jumpi\n        /* \"#utility.yul\":6358:6376   */\n      tag_257\n      tag_186\n      jump\t// in\n    tag_257:\n        /* \"#utility.yul\":6342:6378   */\n    tag_256:\n        /* \"#utility.yul\":6194:6385   */\n      swap3\n      swap2\n      pop\n      pop\n      jump\t// out\n        /* \"#utility.yul\":6391:6571   */\n    tag_48:\n        /* \"#utility.yul\":6439:6516   */\n      0x4e487b7100000000000000000000000000000000000000000000000000000000\n        /* \"#utility.yul\":6436:6437   */\n      0x00\n        /* \"#utility.yul\":6429:6517   */\n      mstore\n        /* \"#utility.yul\":6536:6540   */\n      0x32\n        /* \"#utility.yul\":6533:6534   */\n      0x04\n        /* \"#utility.yul\":6526:6541   */\n      mstore\n        /* \"#utility.yul\":6560:6564   */\n      0x24\n        /* \"#utility.yul\":6557:6558   */\n      0x00\n        /* \"#utility.yul\":6550:6565   */\n      revert\n        /* \"#utility.yul\":6577:6810   */\n    tag_57:\n        /* \"#utility.yul\":6616:6619   */\n      0x00\n        /* \"#utility.yul\":6639:6663   */\n      tag_260\n        /* \"#utility.yul\":6657:6662   */\n      dup3\n        /* \"#utility.yul\":6639:6663   */\n      tag_174\n      jump\t// in\n    tag_260:\n        /* \"#utility.yul\":6630:6663   */\n      swap2\n      pop\n        /* \"#utility.yul\":6685:6751   */\n      0xffffffffffffffffffffffffffffffffffffffffffffffffffffffffffffffff\n        /* \"#utility.yul\":6678:6683   */\n      dup3\n        /* \"#utility.yul\":6675:6752   */\n      sub\n        /* \"#utility.yul\":6672:6775   */\n      tag_261\n      jumpi\n        /* \"#utility.yul\":6755:6773   */\n      tag_262\n      tag_186\n      jump\t// in\n    tag_262:\n        /* \"#utility.yul\":6672:6775   */\n    tag_261:\n        /* \"#utility.yul\":6802:6803   */\n      0x01\n        /* \"#utility.yul\":6795:6800   */\n      dup3\n        /* \"#utility.yul\":6791:6804   */\n      add\n        /* \"#utility.yul\":6784:6804   */\n      swap1\n      pop\n        /* \"#utility.yul\":6577:6810   */\n      swap2\n      swap1\n      pop\n      jump\t// out\n\n    auxdata: 0xa2646970667358221220b16b39ca7f3e17cd7f5ed97ce336403ff9ca5356297ac1aa9e323342aa305ad064736f6c634300081e0033\n}\n",
				"bytecode": {
					"linkReferences": {},
					"object": "6080604052348015600e575f5ffd5b50610dcd8061001c5f395ff3fe608060405234801561000f575f5ffd5b506004361061007b575f3560e01c806326dc088b1161005957806326dc088b146100fd5780632ff19faf1461011b5780633feffd8c146101395780635a9f9ac6146101575761007b565b8063088b9bf61461007f57806318356329146100af5780631d549610146100cd575b5f5ffd5b61009960048036038101906100949190610b76565b610175565b6040516100a69190610ca3565b60405180910390f35b6100b76103ad565b6040516100c49190610ca3565b60405180910390f35b6100e760048036038101906100e29190610b76565b610524565b6040516100f49190610ca3565b60405180910390f35b610105610538565b6040516101129190610ca3565b60405180910390f35b6101236106af565b6040516101309190610ca3565b60405180910390f35b61014161075a565b60405161014e9190610ca3565b60405180910390f35b61015f61086b565b60405161016c9190610ca3565b60405180910390f35b60605f825184516101869190610cf0565b67ffffffffffffffff81111561019f5761019e610a07565b5b6040519080825280602002602001820160405280156101cd5781602001602082028036833780820191505090505b5090505f5f90505f5f90505f5f90505b8651831080156101ed5750855182105b156102d65785828151811061020557610204610d23565b5b60200260200101518784815181106102205761021f610d23565b5b60200260200101511161027a578683815181106102405761023f610d23565b5b602002602001015184828151811061025b5761025a610d23565b5b602002602001018181525050828061027290610d50565b9350506102c3565b85828151811061028d5761028c610d23565b5b60200260200101518482815181106102a8576102a7610d23565b5b60200260200101818152505081806102bf90610d50565b9250505b80806102ce90610d50565b9150506101dd565b5b865183101561033b578683815181106102f3576102f2610d23565b5b602002602001015184828151811061030e5761030d610d23565b5b602002602001018181525050828061032590610d50565b935050808061033390610d50565b9150506102d7565b5b85518210156103a05785828151811061035857610357610d23565b5b602002602001015184828151811061037357610372610d23565b5b602002602001018181525050818061038a90610d50565b925050808061039890610d50565b91505061033c565b8394505050505092915050565b60605f600367ffffffffffffffff8111156103cb576103ca610a07565b5b6040519080825280602002602001820160405280156103f95781602001602082028036833780820191505090505b5090506001815f8151811061041157610410610d23565b5b60200260200101818152505060028160018151811061043357610432610d23565b5b60200260200101818152505060028160028151811061045557610454610d23565b5b6020026020010181815250505f600367ffffffffffffffff81111561047d5761047c610a07565b5b6040519080825280602002602001820160405280156104ab5781602001602082028036833780820191505090505b5090506002815f815181106104c3576104c2610d23565b5b6020026020010181815250506003816001815181106104e5576104e4610d23565b5b60200260200101818152505060048160028151811061050757610506610d23565b5b60200260200101818152505061051d8282610175565b9250505090565b60606105308383610175565b905092915050565b60605f600267ffffffffffffffff81111561055657610555610a07565b5b6040519080825280602002602001820160405280156105845781602001602082028036833780820191505090505b5090506001815f8151811061059c5761059b610d23565b5b6020026020010181815250506002816001815181106105be576105bd610d23565b5b6020026020010181815250505f600467ffffffffffffffff8111156105e6576105e5610a07565b5b6040519080825280602002602001820160405280156106145781602001602082028036833780820191505090505b5090506003815f8151811061062c5761062b610d23565b5b60200260200101818152505060048160018151811061064e5761064d610d23565b5b6020026020010181815250506005816002815181106106705761066f610d23565b5b60200260200101818152505060068160038151811061069257610691610d23565b5b6020026020010181815250506106a88282610175565b9250505090565b60605f5f67ffffffffffffffff8111156106cc576106cb610a07565b5b6040519080825280602002602001820160405280156106fa5781602001602082028036833780820191505090505b5090505f5f67ffffffffffffffff81111561071857610717610a07565b5b6040519080825280602002602001820160405280156107465781602001602082028036833780820191505090505b5090506107538282610175565b9250505090565b60605f5f67ffffffffffffffff81111561077757610776610a07565b5b6040519080825280602002602001820160405280156107a55781602001602082028036833780820191505090505b5090505f600367ffffffffffffffff8111156107c4576107c3610a07565b5b6040519080825280602002602001820160405280156107f25781602001602082028036833780820191505090505b5090506001815f8151811061080a57610809610d23565b5b60200260200101818152505060028160018151811061082c5761082b610d23565b5b60200260200101818152505060038160028151811061084e5761084d610d23565b5b6020026020010181815250506108648282610175565b9250505090565b60605f600367ffffffffffffffff81111561088957610888610a07565b5b6040519080825280602002602001820160405280156108b75781602001602082028036833780820191505090505b5090506001815f815181106108cf576108ce610d23565b5b6020026020010181815250506003816001815181106108f1576108f0610d23565b5b60200260200101818152505060058160028151811061091357610912610d23565b5b6020026020010181815250505f600367ffffffffffffffff81111561093b5761093a610a07565b5b6040519080825280602002602001820160405280156109695781602001602082028036833780820191505090505b5090506002815f8151811061098157610980610d23565b5b6020026020010181815250506004816001815181106109a3576109a2610d23565b5b6020026020010181815250506006816002815181106109c5576109c4610d23565b5b6020026020010181815250506109db8282610175565b9250505090565b5f604051905090565b5f5ffd5b5f5ffd5b5f5ffd5b5f601f19601f8301169050919050565b7f4e487b71000000000000000000000000000000000000000000000000000000005f52604160045260245ffd5b610a3d826109f7565b810181811067ffffffffffffffff82111715610a5c57610a5b610a07565b5b80604052505050565b5f610a6e6109e2565b9050610a7a8282610a34565b919050565b5f67ffffffffffffffff821115610a9957610a98610a07565b5b602082029050602081019050919050565b5f5ffd5b5f819050919050565b610ac081610aae565b8114610aca575f5ffd5b50565b5f81359050610adb81610ab7565b92915050565b5f610af3610aee84610a7f565b610a65565b90508083825260208201905060208402830185811115610b1657610b15610aaa565b5b835b81811015610b3f5780610b2b8882610acd565b845260208401935050602081019050610b18565b5050509392505050565b5f82601f830112610b5d57610b5c6109f3565b5b8135610b6d848260208601610ae1565b91505092915050565b5f5f60408385031215610b8c57610b8b6109eb565b5b5f83013567ffffffffffffffff811115610ba957610ba86109ef565b5b610bb585828601610b49565b925050602083013567ffffffffffffffff811115610bd657610bd56109ef565b5b610be285828601610b49565b9150509250929050565b5f81519050919050565b5f82825260208201905092915050565b5f819050602082019050919050565b610c1e81610aae565b82525050565b5f610c2f8383610c15565b60208301905092915050565b5f602082019050919050565b5f610c5182610bec565b610c5b8185610bf6565b9350610c6683610c06565b805f5b83811015610c96578151610c7d8882610c24565b9750610c8883610c3b565b925050600181019050610c69565b5085935050505092915050565b5f6020820190508181035f830152610cbb8184610c47565b905092915050565b7f4e487b71000000000000000000000000000000000000000000000000000000005f52601160045260245ffd5b5f610cfa82610aae565b9150610d0583610aae565b9250828201905080821115610d1d57610d1c610cc3565b5b92915050565b7f4e487b71000000000000000000000000000000000000000000000000000000005f52603260045260245ffd5b5f610d5a82610aae565b91507fffffffffffffffffffffffffffffffffffffffffffffffffffffffffffffffff8203610d8c57610d8b610cc3565b5b60018201905091905056fea2646970667358221220b16b39ca7f3e17cd7f5ed97ce336403ff9ca5356297ac1aa9e323342aa305ad064736f6c634300081e0033",
					"opcodes": "PUSH1 0x80 PUSH1 0x40 MSTORE CALLVALUE DUP1 ISZERO PUSH1 0xE JUMPI PUSH0 PUSH0 REVERT JUMPDEST POP PUSH2 0xDCD DUP1 PUSH2 0x1C PUSH0 CODECOPY PUSH0 RETURN INVALID PUSH1 0x80 PUSH1 0x40 MSTORE CALLVALUE DUP1 ISZERO PUSH2 0xF JUMPI PUSH0 PUSH0 REVERT JUMPDEST POP PUSH1 0x4 CALLDATASIZE LT PUSH2 0x7B JUMPI PUSH0 CALLDATALOAD PUSH1 0xE0 SHR DUP1 PUSH4 0x26DC088B GT PUSH2 0x59 JUMPI DUP1 PUSH4 0x26DC088B EQ PUSH2 0xFD JUMPI DUP1 PUSH4 0x2FF19FAF EQ PUSH2 0x11B JUMPI DUP1 PUSH4 0x3FEFFD8C EQ PUSH2 0x139 JUMPI DUP1 PUSH4 0x5A9F9AC6 EQ PUSH2 0x157 JUMPI PUSH2 0x7B JUMP JUMPDEST DUP1 PUSH4 0x88B9BF6 EQ PUSH2 0x7F JUMPI DUP1 PUSH4 0x18356329 EQ PUSH2 0xAF JUMPI DUP1 PUSH4 0x1D549610 EQ PUSH2 0xCD JUMPI JUMPDEST PUSH0 PUSH0 REVERT JUMPDEST PUSH2 0x99 PUSH1 0x4 DUP1 CALLDATASIZE SUB DUP2 ADD SWAP1 PUSH2 0x94 SWAP2 SWAP1 PUSH2 0xB76 JUMP JUMPDEST PUSH2 0x175 JUMP JUMPDEST PUSH1 0x40 MLOAD PUSH2 0xA6 SWAP2 SWAP1 PUSH2 0xCA3 JUMP JUMPDEST PUSH1 0x40 MLOAD DUP1 SWAP2 SUB SWAP1 RETURN JUMPDEST PUSH2 0xB7 PUSH2 0x3AD JUMP JUMPDEST PUSH1 0x40 MLOAD PUSH2 0xC4 SWAP2 SWAP1 PUSH2 0xCA3 JUMP JUMPDEST PUSH1 0x40 MLOAD DUP1 SWAP2 SUB SWAP1 RETURN JUMPDEST PUSH2 0xE7 PUSH1 0x4 DUP1 CALLDATASIZE SUB DUP2 ADD SWAP1 PUSH2 0xE2 SWAP2 SWAP1 PUSH2 0xB76 JUMP JUMPDEST PUSH2 0x524 JUMP JUMPDEST PUSH1 0x40 MLOAD PUSH2 0xF4 SWAP2 SWAP1 PUSH2 0xCA3 JUMP JUMPDEST PUSH1 0x40 MLOAD DUP1 SWAP2 SUB SWAP1 RETURN JUMPDEST PUSH2 0x105 PUSH2 0x538 JUMP JUMPDEST PUSH1 0x40 MLOAD PUSH2 0x112 SWAP2 SWAP1 PUSH2 0xCA3 JUMP JUMPDEST PUSH1 0x40 MLOAD DUP1 SWAP2 SUB SWAP1 RETURN JUMPDEST PUSH2 0x123 PUSH2 0x6AF JUMP JUMPDEST PUSH1 0x40 MLOAD PUSH2 0x130 SWAP2 SWAP1 PUSH2 0xCA3 JUMP JUMPDEST PUSH1 0x40 MLOAD DUP1 SWAP2 SUB SWAP1 RETURN JUMPDEST PUSH2 0x141 PUSH2 0x75A JUMP JUMPDEST PUSH1 0x40 MLOAD PUSH2 0x14E SWAP2 SWAP1 PUSH2 0xCA3 JUMP JUMPDEST PUSH1 0x40 MLOAD DUP1 SWAP2 SUB SWAP1 RETURN JUMPDEST PUSH2 0x15F PUSH2 0x86B JUMP JUMPDEST PUSH1 0x40 MLOAD PUSH2 0x16C SWAP2 SWAP1 PUSH2 0xCA3 JUMP JUMPDEST PUSH1 0x40 MLOAD DUP1 SWAP2 SUB SWAP1 RETURN JUMPDEST PUSH1 0x60 PUSH0 DUP3 MLOAD DUP5 MLOAD PUSH2 0x186 SWAP2 SWAP1 PUSH2 0xCF0 JUMP JUMPDEST PUSH8 0xFFFFFFFFFFFFFFFF DUP2 GT ISZERO PUSH2 0x19F JUMPI PUSH2 0x19E PUSH2 0xA07 JUMP JUMPDEST JUMPDEST PUSH1 0x40 MLOAD SWAP1 DUP1 DUP3 MSTORE DUP1 PUSH1 0x20 MUL PUSH1 0x20 ADD DUP3 ADD PUSH1 0x40 MSTORE DUP1 ISZERO PUSH2 0x1CD JUMPI DUP2 PUSH1 0x20 ADD PUSH1 0x20 DUP3 MUL DUP1 CALLDATASIZE DUP4 CALLDATACOPY DUP1 DUP3 ADD SWAP2 POP POP SWAP1 POP JUMPDEST POP SWAP1 POP PUSH0 PUSH0 SWAP1 POP PUSH0 PUSH0 SWAP1 POP PUSH0 PUSH0 SWAP1 POP JUMPDEST DUP7 MLOAD DUP4 LT DUP1 ISZERO PUSH2 0x1ED JUMPI POP DUP6 MLOAD DUP3 LT JUMPDEST ISZERO PUSH2 0x2D6 JUMPI DUP6 DUP3 DUP2 MLOAD DUP2 LT PUSH2 0x205 JUMPI PUSH2 0x204 PUSH2 0xD23 JUMP JUMPDEST JUMPDEST PUSH1 0x20 MUL PUSH1 0x20 ADD ADD MLOAD DUP8 DUP5 DUP2 MLOAD DUP2 LT PUSH2 0x220 JUMPI PUSH2 0x21F PUSH2 0xD23 JUMP JUMPDEST JUMPDEST PUSH1 0x20 MUL PUSH1 0x20 ADD ADD MLOAD GT PUSH2 0x27A JUMPI DUP7 DUP4 DUP2 MLOAD DUP2 LT PUSH2 0x240 JUMPI PUSH2 0x23F PUSH2 0xD23 JUMP JUMPDEST JUMPDEST PUSH1 0x20 MUL PUSH1 0x20 ADD ADD MLOAD DUP5 DUP3 DUP2 MLOAD DUP2 LT PUSH2 0x25B JUMPI PUSH2 0x25A PUSH2 0xD23 JUMP JUMPDEST JUMPDEST PUSH1 0x20 MUL PUSH1 0x20 ADD ADD DUP2 DUP2 MSTORE POP POP DUP3 DUP1 PUSH2 0x272 SWAP1 PUSH2 0xD50 JUMP JUMPDEST SWAP4 POP POP PUSH2 0x2C3 JUMP JUMPDEST DUP6 DUP3 DUP2 MLOAD DUP2 LT PUSH2 0x28D JUMPI PUSH2 0x28C PUSH2 0xD23 JUMP JUMPDEST JUMPDEST PUSH1 0x20 MUL PUSH1 0x20 ADD ADD MLOAD DUP5 DUP3 DUP2 MLOAD DUP2 LT PUSH2 0x2A8 JUMPI PUSH2 0x2A7 PUSH2 0xD23 JUMP JUMPDEST JUMPDEST PUSH1 0x20 MUL PUSH1 0x20 ADD ADD DUP2 DUP2 MSTORE POP POP DUP2 DUP1 PUSH2 0x2BF SWAP1 PUSH2 0xD50 JUMP JUMPDEST SWAP3 POP POP JUMPDEST DUP1 DUP1 PUSH2 0x2CE SWAP1 PUSH2 0xD50 JUMP JUMPDEST SWAP2 POP POP PUSH2 0x1DD JUMP JUMPDEST JUMPDEST DUP7 MLOAD DUP4 LT ISZERO PUSH2 0x33B JUMPI DUP7 DUP4 DUP2 MLOAD DUP2 LT PUSH2 0x2F3 JUMPI PUSH2 0x2F2 PUSH2 0xD23 JUMP JUMPDEST JUMPDEST PUSH1 0x20 MUL PUSH1 0x20 ADD ADD MLOAD DUP5 DUP3 DUP2 MLOAD DUP2 LT PUSH2 0x30E JUMPI PUSH2 0x30D PUSH2 0xD23 JUMP JUMPDEST JUMPDEST PUSH1 0x20 MUL PUSH1 0x20 ADD ADD DUP2 DUP2 MSTORE POP POP DUP3 DUP1 PUSH2 0x325 SWAP1 PUSH2 0xD50 JUMP JUMPDEST SWAP4 POP POP DUP1 DUP1 PUSH2 0x333 SWAP1 PUSH2 0xD50 JUMP JUMPDEST SWAP2 POP POP PUSH2 0x2D7 JUMP JUMPDEST JUMPDEST DUP6 MLOAD DUP3 LT ISZERO PUSH2 0x3A0 JUMPI DUP6 DUP3 DUP2 MLOAD DUP2 LT PUSH2 0x358 JUMPI PUSH2 0x357 PUSH2 0xD23 JUMP JUMPDEST JUMPDEST PUSH1 0x20 MUL PUSH1 0x20 ADD ADD MLOAD DUP5 DUP3 DUP2 MLOAD DUP2 LT PUSH2 0x373 JUMPI PUSH2 0x372 PUSH2 0xD23 JUMP JUMPDEST JUMPDEST PUSH1 0x20 MUL PUSH1 0x20 ADD ADD DUP2 DUP2 MSTORE POP POP DUP2 DUP1 PUSH2 0x38A SWAP1 PUSH2 0xD50 JUMP JUMPDEST SWAP3 POP POP DUP1 DUP1 PUSH2 0x398 SWAP1 PUSH2 0xD50 JUMP JUMPDEST SWAP2 POP POP PUSH2 0x33C JUMP JUMPDEST DUP4 SWAP5 POP POP POP POP POP SWAP3 SWAP2 POP POP JUMP JUMPDEST PUSH1 0x60 PUSH0 PUSH1 0x3 PUSH8 0xFFFFFFFFFFFFFFFF DUP2 GT ISZERO PUSH2 0x3CB JUMPI PUSH2 0x3CA PUSH2 0xA07 JUMP JUMPDEST JUMPDEST PUSH1 0x40 MLOAD SWAP1 DUP1 DUP3 MSTORE DUP1 PUSH1 0x20 MUL PUSH1 0x20 ADD DUP3 ADD PUSH1 0x40 MSTORE DUP1 ISZERO PUSH2 0x3F9 JUMPI DUP2 PUSH1 0x20 ADD PUSH1 0x20 DUP3 MUL DUP1 CALLDATASIZE DUP4 CALLDATACOPY DUP1 DUP3 ADD SWAP2 POP POP SWAP1 POP JUMPDEST POP SWAP1 POP PUSH1 0x1 DUP2 PUSH0 DUP2 MLOAD DUP2 LT PUSH2 0x411 JUMPI PUSH2 0x410 PUSH2 0xD23 JUMP JUMPDEST JUMPDEST PUSH1 0x20 MUL PUSH1 0x20 ADD ADD DUP2 DUP2 MSTORE POP POP PUSH1 0x2 DUP2 PUSH1 0x1 DUP2 MLOAD DUP2 LT PUSH2 0x433 JUMPI PUSH2 0x432 PUSH2 0xD23 JUMP JUMPDEST JUMPDEST PUSH1 0x20 MUL PUSH1 0x20 ADD ADD DUP2 DUP2 MSTORE POP POP PUSH1 0x2 DUP2 PUSH1 0x2 DUP2 MLOAD DUP2 LT PUSH2 0x455 JUMPI PUSH2 0x454 PUSH2 0xD23 JUMP JUMPDEST JUMPDEST PUSH1 0x20 MUL PUSH1 0x20 ADD ADD DUP2 DUP2 MSTORE POP POP PUSH0 PUSH1 0x3 PUSH8 0xFFFFFFFFFFFFFFFF DUP2 GT ISZERO PUSH2 0x47D JUMPI PUSH2 0x47C PUSH2 0xA07 JUMP JUMPDEST JUMPDEST PUSH1 0x40 MLOAD SWAP1 DUP1 DUP3 MSTORE DUP1 PUSH1 0x20 MUL PUSH1 0x20 ADD DUP3 ADD PUSH1 0x40 MSTORE DUP1 ISZERO PUSH2 0x4AB JUMPI DUP2 PUSH1 0x20 ADD PUSH1 0x20 DUP3 MUL DUP1 CALLDATASIZE DUP4 CALLDATACOPY DUP1 DUP3 ADD SWAP2 POP POP SWAP1 POP JUMPDEST POP SWAP1 POP PUSH1 0x2 DUP2 PUSH0 DUP2 MLOAD DUP2 LT PUSH2 0x4C3 JUMPI PUSH2 0x4C2 PUSH2 0xD23 JUMP JUMPDEST JUMPDEST PUSH1 0x20 MUL PUSH1 0x20 ADD ADD DUP2 DUP2 MSTORE POP POP PUSH1 0x3 DUP2 PUSH1 0x1 DUP2 MLOAD DUP2 LT PUSH2 0x4E5 JUMPI PUSH2 0x4E4 PUSH2 0xD23 JUMP JUMPDEST JUMPDEST PUSH1 0x20 MUL PUSH1 0x20 ADD ADD DUP2 DUP2 MSTORE POP POP PUSH1 0x4 DUP2 PUSH1 0x2 DUP2 MLOAD DUP2 LT PUSH2 0x507 JUMPI PUSH2 0x506 PUSH2 0xD23 JUMP JUMPDEST JUMPDEST PUSH1 0x20 MUL PUSH1 0x20 ADD ADD DUP2 DUP2 MSTORE POP POP PUSH2 0x51D DUP3 DUP3 PUSH2 0x175 JUMP JUMPDEST SWAP3 POP POP POP SWAP1 JUMP JUMPDEST PUSH1 0x60 PUSH2 0x530 DUP4 DUP4 PUSH2 0x175 JUMP JUMPDEST SWAP1 POP SWAP3 SWAP2 POP POP JUMP JUMPDEST PUSH1 0x60 PUSH0 PUSH1 0x2 PUSH8 0xFFFFFFFFFFFFFFFF DUP2 GT ISZERO PUSH2 0x556 JUMPI PUSH2 0x555 PUSH2 0xA07 JUMP JUMPDEST JUMPDEST PUSH1 0x40 MLOAD SWAP1 DUP1 DUP3 MSTORE DUP1 PUSH1 0x20 MUL PUSH1 0x20 ADD DUP3 ADD PUSH1 0x40 MSTORE DUP1 ISZERO PUSH2 0x584 JUMPI DUP2 PUSH1 0x20 ADD PUSH1 0x20 DUP3 MUL DUP1 CALLDATASIZE DUP4 CALLDATACOPY DUP1 DUP3 ADD SWAP2 POP POP SWAP1 POP JUMPDEST POP SWAP1 POP PUSH1 0x1 DUP2 PUSH0 DUP2 MLOAD DUP2 LT PUSH2 0x59C JUMPI PUSH2 0x59B PUSH2 0xD23 JUMP JUMPDEST JUMPDEST PUSH1 0x20 MUL PUSH1 0x20 ADD ADD DUP2 DUP2 MSTORE POP POP PUSH1 0x2 DUP2 PUSH1 0x1 DUP2 MLOAD DUP2 LT PUSH2 0x5BE JUMPI PUSH2 0x5BD PUSH2 0xD23 JUMP JUMPDEST JUMPDEST PUSH1 0x20 MUL PUSH1 0x20 ADD ADD DUP2 DUP2 MSTORE POP POP PUSH0 PUSH1 0x4 PUSH8 0xFFFFFFFFFFFFFFFF DUP2 GT ISZERO PUSH2 0x5E6 JUMPI PUSH2 0x5E5 PUSH2 0xA07 JUMP JUMPDEST JUMPDEST PUSH1 0x40 MLOAD SWAP1 DUP1 DUP3 MSTORE DUP1 PUSH1 0x20 MUL PUSH1 0x20 ADD DUP3 ADD PUSH1 0x40 MSTORE DUP1 ISZERO PUSH2 0x614 JUMPI DUP2 PUSH1 0x20 ADD PUSH1 0x20 DUP3 MUL DUP1 CALLDATASIZE DUP4 CALLDATACOPY DUP1 DUP3 ADD SWAP2 POP POP SWAP1 POP JUMPDEST POP SWAP1 POP PUSH1 0x3 DUP2 PUSH0 DUP2 MLOAD DUP2 LT PUSH2 0x62C JUMPI PUSH2 0x62B PUSH2 0xD23 JUMP JUMPDEST JUMPDEST PUSH1 0x20 MUL PUSH1 0x20 ADD ADD DUP2 DUP2 MSTORE POP POP PUSH1 0x4 DUP2 PUSH1 0x1 DUP2 MLOAD DUP2 LT PUSH2 0x64E JUMPI PUSH2 0x64D PUSH2 0xD23 JUMP JUMPDEST JUMPDEST PUSH1 0x20 MUL PUSH1 0x20 ADD ADD DUP2 DUP2 MSTORE POP POP PUSH1 0x5 DUP2 PUSH1 0x2 DUP2 MLOAD DUP2 LT PUSH2 0x670 JUMPI PUSH2 0x66F PUSH2 0xD23 JUMP JUMPDEST JUMPDEST PUSH1 0x20 MUL PUSH1 0x20 ADD ADD DUP2 DUP2 MSTORE POP POP PUSH1 0x6 DUP2 PUSH1 0x3 DUP2 MLOAD DUP2 LT PUSH2 0x692 JUMPI PUSH2 0x691 PUSH2 0xD23 JUMP JUMPDEST JUMPDEST PUSH1 0x20 MUL PUSH1 0x20 ADD ADD DUP2 DUP2 MSTORE POP POP PUSH2 0x6A8 DUP3 DUP3 PUSH2 0x175 JUMP JUMPDEST SWAP3 POP POP POP SWAP1 JUMP JUMPDEST PUSH1 0x60 PUSH0 PUSH0 PUSH8 0xFFFFFFFFFFFFFFFF DUP2 GT ISZERO PUSH2 0x6CC JUMPI PUSH2 0x6CB PUSH2 0xA07 JUMP JUMPDEST JUMPDEST PUSH1 0x40 MLOAD SWAP1 DUP1 DUP3 MSTORE DUP1 PUSH1 0x20 MUL PUSH1 0x20 ADD DUP3 ADD PUSH1 0x40 MSTORE DUP1 ISZERO PUSH2 0x6FA JUMPI DUP2 PUSH1 0x20 ADD PUSH1 0x20 DUP3 MUL DUP1 CALLDATASIZE DUP4 CALLDATACOPY DUP1 DUP3 ADD SWAP2 POP POP SWAP1 POP JUMPDEST POP SWAP1 POP PUSH0 PUSH0 PUSH8 0xFFFFFFFFFFFFFFFF DUP2 GT ISZERO PUSH2 0x718 JUMPI PUSH2 0x717 PUSH2 0xA07 JUMP JUMPDEST JUMPDEST PUSH1 0x40 MLOAD SWAP1 DUP1 DUP3 MSTORE DUP1 PUSH1 0x20 MUL PUSH1 0x20 ADD DUP3 ADD PUSH1 0x40 MSTORE DUP1 ISZERO PUSH2 0x746 JUMPI DUP2 PUSH1 0x20 ADD PUSH1 0x20 DUP3 MUL DUP1 CALLDATASIZE DUP4 CALLDATACOPY DUP1 DUP3 ADD SWAP2 POP POP SWAP1 POP JUMPDEST POP SWAP1 POP PUSH2 0x753 DUP3 DUP3 PUSH2 0x175 JUMP JUMPDEST SWAP3 POP POP POP SWAP1 JUMP JUMPDEST PUSH1 0x60 PUSH0 PUSH0 PUSH8 0xFFFFFFFFFFFFFFFF DUP2 GT ISZERO PUSH2 0x777 JUMPI PUSH2 0x776 PUSH2 0xA07 JUMP JUMPDEST JUMPDEST PUSH1 0x40 MLOAD SWAP1 DUP1 DUP3 MSTORE DUP1 PUSH1 0x20 MUL PUSH1 0x20 ADD DUP3 ADD PUSH1 0x40 MSTORE DUP1 ISZERO PUSH2 0x7A5 JUMPI DUP2 PUSH1 0x20 ADD PUSH1 0x20 DUP3 MUL DUP1 CALLDATASIZE DUP4 CALLDATACOPY DUP1 DUP3 ADD SWAP2 POP POP SWAP1 POP JUMPDEST POP SWAP1 POP PUSH0 PUSH1 0x3 PUSH8 0xFFFFFFFFFFFFFFFF DUP2 GT ISZERO PUSH2 0x7C4 JUMPI PUSH2 0x7C3 PUSH2 0xA07 JUMP JUMPDEST JUMPDEST PUSH1 0x40 MLOAD SWAP1 DUP1 DUP3 MSTORE DUP1 PUSH1 0x20 MUL PUSH1 0x20 ADD DUP3 ADD PUSH1 0x40 MSTORE DUP1 ISZERO PUSH2 0x7F2 JUMPI DUP2 PUSH1 0x20 ADD PUSH1 0x20 DUP3 MUL DUP1 CALLDATASIZE DUP4 CALLDATACOPY DUP1 DUP3 ADD SWAP2 POP POP SWAP1 POP JUMPDEST POP SWAP1 POP PUSH1 0x1 DUP2 PUSH0 DUP2 MLOAD DUP2 LT PUSH2 0x80A JUMPI PUSH2 0x809 PUSH2 0xD23 JUMP JUMPDEST JUMPDEST PUSH1 0x20 MUL PUSH1 0x20 ADD ADD DUP2 DUP2 MSTORE POP POP PUSH1 0x2 DUP2 PUSH1 0x1 DUP2 MLOAD DUP2 LT PUSH2 0x82C JUMPI PUSH2 0x82B PUSH2 0xD23 JUMP JUMPDEST JUMPDEST PUSH1 0x20 MUL PUSH1 0x20 ADD ADD DUP2 DUP2 MSTORE POP POP PUSH1 0x3 DUP2 PUSH1 0x2 DUP2 MLOAD DUP2 LT PUSH2 0x84E JUMPI PUSH2 0x84D PUSH2 0xD23 JUMP JUMPDEST JUMPDEST PUSH1 0x20 MUL PUSH1 0x20 ADD ADD DUP2 DUP2 MSTORE POP POP PUSH2 0x864 DUP3 DUP3 PUSH2 0x175 JUMP JUMPDEST SWAP3 POP POP POP SWAP1 JUMP JUMPDEST PUSH1 0x60 PUSH0 PUSH1 0x3 PUSH8 0xFFFFFFFFFFFFFFFF DUP2 GT ISZERO PUSH2 0x889 JUMPI PUSH2 0x888 PUSH2 0xA07 JUMP JUMPDEST JUMPDEST PUSH1 0x40 MLOAD SWAP1 DUP1 DUP3 MSTORE DUP1 PUSH1 0x20 MUL PUSH1 0x20 ADD DUP3 ADD PUSH1 0x40 MSTORE DUP1 ISZERO PUSH2 0x8B7 JUMPI DUP2 PUSH1 0x20 ADD PUSH1 0x20 DUP3 MUL DUP1 CALLDATASIZE DUP4 CALLDATACOPY DUP1 DUP3 ADD SWAP2 POP POP SWAP1 POP JUMPDEST POP SWAP1 POP PUSH1 0x1 DUP2 PUSH0 DUP2 MLOAD DUP2 LT PUSH2 0x8CF JUMPI PUSH2 0x8CE PUSH2 0xD23 JUMP JUMPDEST JUMPDEST PUSH1 0x20 MUL PUSH1 0x20 ADD ADD DUP2 DUP2 MSTORE POP POP PUSH1 0x3 DUP2 PUSH1 0x1 DUP2 MLOAD DUP2 LT PUSH2 0x8F1 JUMPI PUSH2 0x8F0 PUSH2 0xD23 JUMP JUMPDEST JUMPDEST PUSH1 0x20 MUL PUSH1 0x20 ADD ADD DUP2 DUP2 MSTORE POP POP PUSH1 0x5 DUP2 PUSH1 0x2 DUP2 MLOAD DUP2 LT PUSH2 0x913 JUMPI PUSH2 0x912 PUSH2 0xD23 JUMP JUMPDEST JUMPDEST PUSH1 0x20 MUL PUSH1 0x20 ADD ADD DUP2 DUP2 MSTORE POP POP PUSH0 PUSH1 0x3 PUSH8 0xFFFFFFFFFFFFFFFF DUP2 GT ISZERO PUSH2 0x93B JUMPI PUSH2 0x93A PUSH2 0xA07 JUMP JUMPDEST JUMPDEST PUSH1 0x40 MLOAD SWAP1 DUP1 DUP3 MSTORE DUP1 PUSH1 0x20 MUL PUSH1 0x20 ADD DUP3 ADD PUSH1 0x40 MSTORE DUP1 ISZERO PUSH2 0x969 JUMPI DUP2 PUSH1 0x20 ADD PUSH1 0x20 DUP3 MUL DUP1 CALLDATASIZE DUP4 CALLDATACOPY DUP1 DUP3 ADD SWAP2 POP POP SWAP1 POP JUMPDEST POP SWAP1 POP PUSH1 0x2 DUP2 PUSH0 DUP2 MLOAD DUP2 LT PUSH2 0x981 JUMPI PUSH2 0x980 PUSH2 0xD23 JUMP JUMPDEST JUMPDEST PUSH1 0x20 MUL PUSH1 0x20 ADD ADD DUP2 DUP2 MSTORE POP POP PUSH1 0x4 DUP2 PUSH1 0x1 DUP2 MLOAD DUP2 LT PUSH2 0x9A3 JUMPI PUSH2 0x9A2 PUSH2 0xD23 JUMP JUMPDEST JUMPDEST PUSH1 0x20 MUL PUSH1 0x20 ADD ADD DUP2 DUP2 MSTORE POP POP PUSH1 0x6 DUP2 PUSH1 0x2 DUP2 MLOAD DUP2 LT PUSH2 0x9C5 JUMPI PUSH2 0x9C4 PUSH2 0xD23 JUMP JUMPDEST JUMPDEST PUSH1 0x20 MUL PUSH1 0x20 ADD ADD DUP2 DUP2 MSTORE POP POP PUSH2 0x9DB DUP3 DUP3 PUSH2 0x175 JUMP JUMPDEST SWAP3 POP POP POP SWAP1 JUMP JUMPDEST PUSH0 PUSH1 0x40 MLOAD SWAP1 POP SWAP1 JUMP JUMPDEST PUSH0 PUSH0 REVERT JUMPDEST PUSH0 PUSH0 REVERT JUMPDEST PUSH0 PUSH0 REVERT JUMPDEST PUSH0 PUSH1 0x1F NOT PUSH1 0x1F DUP4 ADD AND SWAP1 POP SWAP2 SWAP1 POP JUMP JUMPDEST PUSH32 0x4E487B7100000000000000000000000000000000000000000000000000000000 PUSH0 MSTORE PUSH1 0x41 PUSH1 0x4 MSTORE PUSH1 0x24 PUSH0 REVERT JUMPDEST PUSH2 0xA3D DUP3 PUSH2 0x9F7 JUMP JUMPDEST DUP2 ADD DUP2 DUP2 LT PUSH8 0xFFFFFFFFFFFFFFFF DUP3 GT OR ISZERO PUSH2 0xA5C JUMPI PUSH2 0xA5B PUSH2 0xA07 JUMP JUMPDEST JUMPDEST DUP1 PUSH1 0x40 MSTORE POP POP POP JUMP JUMPDEST PUSH0 PUSH2 0xA6E PUSH2 0x9E2 JUMP JUMPDEST SWAP1 POP PUSH2 0xA7A DUP3 DUP3 PUSH2 0xA34 JUMP JUMPDEST SWAP2 SWAP1 POP JUMP JUMPDEST PUSH0 PUSH8 0xFFFFFFFFFFFFFFFF DUP3 GT ISZERO PUSH2 0xA99 JUMPI PUSH2 0xA98 PUSH2 0xA07 JUMP JUMPDEST JUMPDEST PUSH1 0x20 DUP3 MUL SWAP1 POP PUSH1 0x20 DUP2 ADD SWAP1 POP SWAP2 SWAP1 POP JUMP JUMPDEST PUSH0 PUSH0 REVERT JUMPDEST PUSH0 DUP2 SWAP1 POP SWAP2 SWAP1 POP JUMP JUMPDEST PUSH2 0xAC0 DUP2 PUSH2 0xAAE JUMP JUMPDEST DUP2 EQ PUSH2 0xACA JUMPI PUSH0 PUSH0 REVERT JUMPDEST POP JUMP JUMPDEST PUSH0 DUP2 CALLDATALOAD SWAP1 POP PUSH2 0xADB DUP2 PUSH2 0xAB7 JUMP JUMPDEST SWAP3 SWAP2 POP POP JUMP JUMPDEST PUSH0 PUSH2 0xAF3 PUSH2 0xAEE DUP5 PUSH2 0xA7F JUMP JUMPDEST PUSH2 0xA65 JUMP JUMPDEST SWAP1 POP DUP1 DUP4 DUP3 MSTORE PUSH1 0x20 DUP3 ADD SWAP1 POP PUSH1 0x20 DUP5 MUL DUP4 ADD DUP6 DUP2 GT ISZERO PUSH2 0xB16 JUMPI PUSH2 0xB15 PUSH2 0xAAA JUMP JUMPDEST JUMPDEST DUP4 JUMPDEST DUP2 DUP2 LT ISZERO PUSH2 0xB3F JUMPI DUP1 PUSH2 0xB2B DUP9 DUP3 PUSH2 0xACD JUMP JUMPDEST DUP5 MSTORE PUSH1 0x20 DUP5 ADD SWAP4 POP POP PUSH1 0x20 DUP2 ADD SWAP1 POP PUSH2 0xB18 JUMP JUMPDEST POP POP POP SWAP4 SWAP3 POP POP POP JUMP JUMPDEST PUSH0 DUP3 PUSH1 0x1F DUP4 ADD SLT PUSH2 0xB5D JUMPI PUSH2 0xB5C PUSH2 0x9F3 JUMP JUMPDEST JUMPDEST DUP2 CALLDATALOAD PUSH2 0xB6D DUP5 DUP3 PUSH1 0x20 DUP7 ADD PUSH2 0xAE1 JUMP JUMPDEST SWAP2 POP POP SWAP3 SWAP2 POP POP JUMP JUMPDEST PUSH0 PUSH0 PUSH1 0x40 DUP4 DUP6 SUB SLT ISZERO PUSH2 0xB8C JUMPI PUSH2 0xB8B PUSH2 0x9EB JUMP JUMPDEST JUMPDEST PUSH0 DUP4 ADD CALLDATALOAD PUSH8 0xFFFFFFFFFFFFFFFF DUP2 GT ISZERO PUSH2 0xBA9 JUMPI PUSH2 0xBA8 PUSH2 0x9EF JUMP JUMPDEST JUMPDEST PUSH2 0xBB5 DUP6 DUP3 DUP7 ADD PUSH2 0xB49 JUMP JUMPDEST SWAP3 POP POP PUSH1 0x20 DUP4 ADD CALLDATALOAD PUSH8 0xFFFFFFFFFFFFFFFF DUP2 GT ISZERO PUSH2 0xBD6 JUMPI PUSH2 0xBD5 PUSH2 0x9EF JUMP JUMPDEST JUMPDEST PUSH2 0xBE2 DUP6 DUP3 DUP7 ADD PUSH2 0xB49 JUMP JUMPDEST SWAP2 POP POP SWAP3 POP SWAP3 SWAP1 POP JUMP JUMPDEST PUSH0 DUP2 MLOAD SWAP1 POP SWAP2 SWAP1 POP JUMP JUMPDEST PUSH0 DUP3 DUP3 MSTORE PUSH1 0x20 DUP3 ADD SWAP1 POP SWAP3 SWAP2 POP POP JUMP JUMPDEST PUSH0 DUP2 SWAP1 POP PUSH1 0x20 DUP3 ADD SWAP1 POP SWAP2 SWAP1 POP JUMP JUMPDEST PUSH2 0xC1E DUP2 PUSH2 0xAAE JUMP JUMPDEST DUP3 MSTORE POP POP JUMP JUMPDEST PUSH0 PUSH2 0xC2F DUP4 DUP4 PUSH2 0xC15 JUMP JUMPDEST PUSH1 0x20 DUP4 ADD SWAP1 POP SWAP3 SWAP2 POP POP JUMP JUMPDEST PUSH0 PUSH1 0x20 DUP3 ADD SWAP1 POP SWAP2 SWAP1 POP JUMP JUMPDEST PUSH0 PUSH2 0xC51 DUP3 PUSH2 0xBEC JUMP JUMPDEST PUSH2 0xC5B DUP2 DUP6 PUSH2 0xBF6 JUMP JUMPDEST SWAP4 POP PUSH2 0xC66 DUP4 PUSH2 0xC06 JUMP JUMPDEST DUP1 PUSH0 JUMPDEST DUP4 DUP2 LT ISZERO PUSH2 0xC96 JUMPI DUP2 MLOAD PUSH2 0xC7D DUP9 DUP3 PUSH2 0xC24 JUMP JUMPDEST SWAP8 POP PUSH2 0xC88 DUP4 PUSH2 0xC3B JUMP JUMPDEST SWAP3 POP POP PUSH1 0x1 DUP2 ADD SWAP1 POP PUSH2 0xC69 JUMP JUMPDEST POP DUP6 SWAP4 POP POP POP POP SWAP3 SWAP2 POP POP JUMP JUMPDEST PUSH0 PUSH1 0x20 DUP3 ADD SWAP1 POP DUP2 DUP2 SUB PUSH0 DUP4 ADD MSTORE PUSH2 0xCBB DUP2 DUP5 PUSH2 0xC47 JUMP JUMPDEST SWAP1 POP SWAP3 SWAP2 POP POP JUMP JUMPDEST PUSH32 0x4E487B7100000000000000000000000000000000000000000000000000000000 PUSH0 MSTORE PUSH1 0x11 PUSH1 0x4 MSTORE PUSH1 0x24 PUSH0 REVERT JUMPDEST PUSH0 PUSH2 0xCFA DUP3 PUSH2 0xAAE JUMP JUMPDEST SWAP2 POP PUSH2 0xD05 DUP4 PUSH2 0xAAE JUMP JUMPDEST SWAP3 POP DUP3 DUP3 ADD SWAP1 POP DUP1 DUP3 GT ISZERO PUSH2 0xD1D JUMPI PUSH2 0xD1C PUSH2 0xCC3 JUMP JUMPDEST JUMPDEST SWAP3 SWAP2 POP POP JUMP JUMPDEST PUSH32 0x4E487B7100000000000000000000000000000000000000000000000000000000 PUSH0 MSTORE PUSH1 0x32 PUSH1 0x4 MSTORE PUSH1 0x24 PUSH0 REVERT JUMPDEST PUSH0 PUSH2 0xD5A DUP3 PUSH2 0xAAE JUMP JUMPDEST SWAP2 POP PUSH32 0xFFFFFFFFFFFFFFFFFFFFFFFFFFFFFFFFFFFFFFFFFFFFFFFFFFFFFFFFFFFFFFFF DUP3 SUB PUSH2 0xD8C JUMPI PUSH2 0xD8B PUSH2 0xCC3 JUMP JUMPDEST JUMPDEST PUSH1 0x1 DUP3 ADD SWAP1 POP SWAP2 SWAP1 POP JUMP INVALID LOG2 PUSH5 0x6970667358 0x22 SLT KECCAK256 0xB1 PUSH12 0x39CA7F3E17CD7F5ED97CE336 BLOCKHASH EXTCODEHASH EXTDELEGATECALL 0xCA MSTORE8 JUMP 0x29 PUSH27 0xC1AA9E323342AA305AD064736F6C634300081E0033000000000000 "
				},
				"gasEstimates": {
					"creation": {
						"codeDepositCost": "706600",
						"executionCost": "739",
						"totalCost": "707339"
					},
					"external": {
						"customTest(uint256[],uint256[])": "infinite",
						"merge(uint256[],uint256[])": "infinite",
						"testExample1()": "infinite",
						"testExample2()": "infinite",
						"testExample3()": "infinite",
						"testExample4()": "infinite",
						"testExample5()": "infinite"
					}
				},
				"methodIdentifiers": {
					"customTest(uint256[],uint256[])": "1d549610",
					"merge(uint256[],uint256[])": "088b9bf6",
					"testExample1()": "5a9f9ac6",
					"testExample2()": "26dc088b",
					"testExample3()": "18356329",
					"testExample4()": "3feffd8c",
					"testExample5()": "2ff19faf"
				}
			},
			"storageLayout": {
				"storage": [],
				"types": null
			},
			"userdoc": {
				"kind": "user",
				"methods": {},
				"version": 1
			}
		}
	}
}