{
	"IntegerToRoman.sol": {
		"IntegerToRoman": {
			"abi": [
				{
					"inputs": [
						{
							"internalType": "uint256",
							"name": "num",
							"type": "uint256"
						}
					],
					"name": "intToRoman",
					"outputs": [
						{
							"internalType": "string",
							"name": "",
							"type": "string"
						}
					],
					"stateMutability": "pure",
					"type": "function"
				},
				{
					"inputs": [],
					"name": "test",
					"outputs": [],
					"stateMutability": "pure",
					"type": "function"
				}
			],
			"devdoc": {
				"kind": "dev",
				"methods": {},
				"version": 1
			},
			"evm": {
				"assembly": "    /* \"IntegerToRoman.sol\":60:1980  contract IntegerToRoman{... */\n  mstore(0x40, 0x80)\n  callvalue\n  dup1\n  iszero\n  tag_1\n  jumpi\n  revert(0x00, 0x00)\ntag_1:\n  pop\n  dataSize(sub_0)\n  dup1\n  dataOffset(sub_0)\n  0x00\n  codecopy\n  0x00\n  return\nstop\n\nsub_0: assembly {\n        /* \"IntegerToRoman.sol\":60:1980  contract IntegerToRoman{... */\n      mstore(0x40, 0x80)\n      callvalue\n      dup1\n      iszero\n      tag_1\n      jumpi\n      revert(0x00, 0x00)\n    tag_1:\n      pop\n      jumpi(tag_2, lt(calldatasize, 0x04))\n      shr(0xe0, calldataload(0x00))\n      dup1\n      0x0cbc513a\n      eq\n      tag_3\n      jumpi\n      dup1\n      0xf8a8fd6d\n      eq\n      tag_4\n      jumpi\n    tag_2:\n      revert(0x00, 0x00)\n        /* \"IntegerToRoman.sol\":144:1240  function intToRoman(uint num) public pure returns (string memory){... */\n    tag_3:\n      tag_5\n      0x04\n      dup1\n      calldatasize\n      sub\n      dup2\n      add\n      swap1\n      tag_6\n      swap2\n      swap1\n      tag_7\n      jump\t// in\n    tag_6:\n      tag_8\n      jump\t// in\n    tag_5:\n      mload(0x40)\n      tag_9\n      swap2\n      swap1\n      tag_10\n      jump\t// in\n    tag_9:\n      mload(0x40)\n      dup1\n      swap2\n      sub\n      swap1\n      return\n        /* \"IntegerToRoman.sol\":1282:1741  function test() external pure {... */\n    tag_4:\n      tag_11\n      tag_12\n      jump\t// in\n    tag_11:\n      stop\n        /* \"IntegerToRoman.sol\":144:1240  function intToRoman(uint num) public pure returns (string memory){... */\n    tag_8:\n        /* \"IntegerToRoman.sol\":195:208  string memory */\n      0x60\n        /* \"IntegerToRoman.sol\":263:264  1 */\n      0x01\n        /* \"IntegerToRoman.sol\":258:261  num */\n      dup3\n        /* \"IntegerToRoman.sol\":258:264  num>=1 */\n      lt\n      iszero\n        /* \"IntegerToRoman.sol\":258:275  num>=1&&num<=3999 */\n      dup1\n      iszero\n      tag_14\n      jumpi\n      pop\n        /* \"IntegerToRoman.sol\":271:275  3999 */\n      0x0f9f\n        /* \"IntegerToRoman.sol\":266:269  num */\n      dup3\n        /* \"IntegerToRoman.sol\":266:275  num<=3999 */\n      gt\n      iszero\n        /* \"IntegerToRoman.sol\":258:275  num>=1&&num<=3999 */\n    tag_14:\n        /* \"IntegerToRoman.sol\":250:312  require(num>=1&&num<=3999,\"Number must be between 1 and 3999\") */\n      tag_15\n      jumpi\n      mload(0x40)\n      0x08c379a000000000000000000000000000000000000000000000000000000000\n      dup2\n      mstore\n      0x04\n      add\n      tag_16\n      swap1\n      tag_17\n      jump\t// in\n    tag_16:\n      mload(0x40)\n      dup1\n      swap2\n      sub\n      swap1\n      revert\n    tag_15:\n        /* \"IntegerToRoman.sol\":374:404  string[13] memory romanSymbols */\n      0x00\n        /* \"IntegerToRoman.sol\":374:466  string[13] memory romanSymbols = [\"M\",\"CM\",\"D\",\"CD\",\"C\",\"XC\",\"L\",\"XL\",\"X\",\"IX\",\"V\",\"IV\",\"I\"] */\n      mload(0x40)\n      dup1\n      0x01a0\n      add\n      0x40\n      mstore\n      dup1\n      mload(0x40)\n      dup1\n      0x40\n      add\n      0x40\n      mstore\n      dup1\n      0x01\n      dup2\n      mstore\n      0x20\n      add\n      0x4d00000000000000000000000000000000000000000000000000000000000000\n      dup2\n      mstore\n      pop\n      dup2\n      mstore\n      0x20\n      add\n      mload(0x40)\n      dup1\n      0x40\n      add\n      0x40\n      mstore\n      dup1\n      0x02\n      dup2\n      mstore\n      0x20\n      add\n      0x434d000000000000000000000000000000000000000000000000000000000000\n      dup2\n      mstore\n      pop\n      dup2\n      mstore\n      0x20\n      add\n      mload(0x40)\n      dup1\n      0x40\n      add\n      0x40\n      mstore\n      dup1\n      0x01\n      dup2\n      mstore\n      0x20\n      add\n      0x4400000000000000000000000000000000000000000000000000000000000000\n      dup2\n      mstore\n      pop\n      dup2\n      mstore\n      0x20\n      add\n      mload(0x40)\n      dup1\n      0x40\n      add\n      0x40\n      mstore\n      dup1\n      0x02\n      dup2\n      mstore\n      0x20\n      add\n      0x4344000000000000000000000000000000000000000000000000000000000000\n      dup2\n      mstore\n      pop\n      dup2\n      mstore\n      0x20\n      add\n      mload(0x40)\n      dup1\n      0x40\n      add\n      0x40\n      mstore\n      dup1\n      0x01\n      dup2\n      mstore\n      0x20\n      add\n      0x4300000000000000000000000000000000000000000000000000000000000000\n      dup2\n      mstore\n      pop\n      dup2\n      mstore\n      0x20\n      add\n      mload(0x40)\n      dup1\n      0x40\n      add\n      0x40\n      mstore\n      dup1\n      0x02\n      dup2\n      mstore\n      0x20\n      add\n      0x5843000000000000000000000000000000000000000000000000000000000000\n      dup2\n      mstore\n      pop\n      dup2\n      mstore\n      0x20\n      add\n      mload(0x40)\n      dup1\n      0x40\n      add\n      0x40\n      mstore\n      dup1\n      0x01\n      dup2\n      mstore\n      0x20\n      add\n      0x4c00000000000000000000000000000000000000000000000000000000000000\n      dup2\n      mstore\n      pop\n      dup2\n      mstore\n      0x20\n      add\n      mload(0x40)\n      dup1\n      0x40\n      add\n      0x40\n      mstore\n      dup1\n      0x02\n      dup2\n      mstore\n      0x20\n      add\n      0x584c000000000000000000000000000000000000000000000000000000000000\n      dup2\n      mstore\n      pop\n      dup2\n      mstore\n      0x20\n      add\n      mload(0x40)\n      dup1\n      0x40\n      add\n      0x40\n      mstore\n      dup1\n      0x01\n      dup2\n      mstore\n      0x20\n      add\n      0x5800000000000000000000000000000000000000000000000000000000000000\n      dup2\n      mstore\n      pop\n      dup2\n      mstore\n      0x20\n      add\n      mload(0x40)\n      dup1\n      0x40\n      add\n      0x40\n      mstore\n      dup1\n      0x02\n      dup2\n      mstore\n      0x20\n      add\n      0x4958000000000000000000000000000000000000000000000000000000000000\n      dup2\n      mstore\n      pop\n      dup2\n      mstore\n      0x20\n      add\n      mload(0x40)\n      dup1\n      0x40\n      add\n      0x40\n      mstore\n      dup1\n      0x01\n      dup2\n      mstore\n      0x20\n      add\n      0x5600000000000000000000000000000000000000000000000000000000000000\n      dup2\n      mstore\n      pop\n      dup2\n      mstore\n      0x20\n      add\n      mload(0x40)\n      dup1\n      0x40\n      add\n      0x40\n      mstore\n      dup1\n      0x02\n      dup2\n      mstore\n      0x20\n      add\n      0x4956000000000000000000000000000000000000000000000000000000000000\n      dup2\n      mstore\n      pop\n      dup2\n      mstore\n      0x20\n      add\n      mload(0x40)\n      dup1\n      0x40\n      add\n      0x40\n      mstore\n      dup1\n      0x01\n      dup2\n      mstore\n      0x20\n      add\n      0x4900000000000000000000000000000000000000000000000000000000000000\n      dup2\n      mstore\n      pop\n      dup2\n      mstore\n      pop\n      swap1\n      pop\n        /* \"IntegerToRoman.sol\":477:502  uint256[13] memory values */\n      0x00\n        /* \"IntegerToRoman.sol\":477:726  uint256[13] memory values = [... */\n      mload(0x40)\n      dup1\n      0x01a0\n      add\n      0x40\n      mstore\n      dup1\n        /* \"IntegerToRoman.sol\":528:532  1000 */\n      0x03e8\n        /* \"IntegerToRoman.sol\":477:726  uint256[13] memory values = [... */\n      dup2\n      mstore\n      0x20\n      add\n        /* \"IntegerToRoman.sol\":543:546  900 */\n      0x0384\n        /* \"IntegerToRoman.sol\":477:726  uint256[13] memory values = [... */\n      dup2\n      mstore\n      0x20\n      add\n        /* \"IntegerToRoman.sol\":557:560  500 */\n      0x01f4\n        /* \"IntegerToRoman.sol\":477:726  uint256[13] memory values = [... */\n      dup2\n      mstore\n      0x20\n      add\n        /* \"IntegerToRoman.sol\":571:574  400 */\n      0x0190\n        /* \"IntegerToRoman.sol\":477:726  uint256[13] memory values = [... */\n      dup2\n      mstore\n      0x20\n      add\n        /* \"IntegerToRoman.sol\":598:601  100 */\n      0x64\n        /* \"IntegerToRoman.sol\":477:726  uint256[13] memory values = [... */\n      dup2\n      mstore\n      0x20\n      add\n        /* \"IntegerToRoman.sol\":612:614  90 */\n      0x5a\n        /* \"IntegerToRoman.sol\":477:726  uint256[13] memory values = [... */\n      dup2\n      mstore\n      0x20\n      add\n        /* \"IntegerToRoman.sol\":625:627  50 */\n      0x32\n        /* \"IntegerToRoman.sol\":477:726  uint256[13] memory values = [... */\n      dup2\n      mstore\n      0x20\n      add\n        /* \"IntegerToRoman.sol\":638:640  40 */\n      0x28\n        /* \"IntegerToRoman.sol\":477:726  uint256[13] memory values = [... */\n      dup2\n      mstore\n      0x20\n      add\n        /* \"IntegerToRoman.sol\":664:666  10 */\n      0x0a\n        /* \"IntegerToRoman.sol\":477:726  uint256[13] memory values = [... */\n      dup2\n      mstore\n      0x20\n      add\n        /* \"IntegerToRoman.sol\":677:678  9 */\n      0x09\n        /* \"IntegerToRoman.sol\":477:726  uint256[13] memory values = [... */\n      dup2\n      mstore\n      0x20\n      add\n        /* \"IntegerToRoman.sol\":689:690  5 */\n      0x05\n        /* \"IntegerToRoman.sol\":477:726  uint256[13] memory values = [... */\n      dup2\n      mstore\n      0x20\n      add\n        /* \"IntegerToRoman.sol\":701:702  4 */\n      0x04\n        /* \"IntegerToRoman.sol\":477:726  uint256[13] memory values = [... */\n      dup2\n      mstore\n      0x20\n      add\n        /* \"IntegerToRoman.sol\":713:714  1 */\n      0x01\n        /* \"IntegerToRoman.sol\":477:726  uint256[13] memory values = [... */\n      dup2\n      mstore\n      pop\n      swap1\n      pop\n        /* \"IntegerToRoman.sol\":772:792  string memory result */\n      0x00\n        /* \"IntegerToRoman.sol\":772:797  string memory result = \"\" */\n      mload(0x40)\n      dup1\n      0x20\n      add\n      0x40\n      mstore\n      dup1\n      0x00\n      dup2\n      mstore\n      pop\n      swap1\n      pop\n        /* \"IntegerToRoman.sol\":854:860  uint i */\n      0x00\n        /* \"IntegerToRoman.sol\":863:864  0 */\n      0x00\n        /* \"IntegerToRoman.sol\":854:864  uint i = 0 */\n      swap1\n      pop\n        /* \"IntegerToRoman.sol\":850:1209  for(uint i = 0;i<romanSymbols.length;i++){... */\n    tag_18:\n        /* \"IntegerToRoman.sol\":867:886  romanSymbols.length */\n      0x0d\n        /* \"IntegerToRoman.sol\":865:866  i */\n      dup2\n        /* \"IntegerToRoman.sol\":865:886  i<romanSymbols.length */\n      lt\n        /* \"IntegerToRoman.sol\":850:1209  for(uint i = 0;i<romanSymbols.length;i++){... */\n      iszero\n      tag_19\n      jumpi\n        /* \"IntegerToRoman.sol\":961:1198  while (num>=values[i]){... */\n    tag_21:\n        /* \"IntegerToRoman.sol\":973:979  values */\n      dup3\n        /* \"IntegerToRoman.sol\":980:981  i */\n      dup2\n        /* \"IntegerToRoman.sol\":973:982  values[i] */\n      0x0d\n      dup2\n      lt\n      tag_23\n      jumpi\n      tag_24\n      tag_25\n      jump\t// in\n    tag_24:\n    tag_23:\n      0x20\n      mul\n      add\n      mload\n        /* \"IntegerToRoman.sol\":968:971  num */\n      dup7\n        /* \"IntegerToRoman.sol\":968:982  num>=values[i] */\n      lt\n        /* \"IntegerToRoman.sol\":961:1198  while (num>=values[i]){... */\n      tag_22\n      jumpi\n        /* \"IntegerToRoman.sol\":1082:1088  result */\n      dup2\n        /* \"IntegerToRoman.sol\":1089:1101  romanSymbols */\n      dup5\n        /* \"IntegerToRoman.sol\":1102:1103  i */\n      dup3\n        /* \"IntegerToRoman.sol\":1089:1104  romanSymbols[i] */\n      0x0d\n      dup2\n      lt\n      tag_26\n      jumpi\n      tag_27\n      tag_25\n      jump\t// in\n    tag_27:\n    tag_26:\n      0x20\n      mul\n      add\n      mload\n        /* \"IntegerToRoman.sol\":1065:1105  abi.encodePacked(result,romanSymbols[i]) */\n      add(0x20, mload(0x40))\n      tag_28\n      swap3\n      swap2\n      swap1\n      tag_29\n      jump\t// in\n    tag_28:\n      mload(0x40)\n      0x20\n      dup2\n      dup4\n      sub\n      sub\n      dup2\n      mstore\n      swap1\n      0x40\n      mstore\n        /* \"IntegerToRoman.sol\":1049:1106  result = string(abi.encodePacked(result,romanSymbols[i])) */\n      swap2\n      pop\n        /* \"IntegerToRoman.sol\":1173:1179  values */\n      dup3\n        /* \"IntegerToRoman.sol\":1180:1181  i */\n      dup2\n        /* \"IntegerToRoman.sol\":1173:1182  values[i] */\n      0x0d\n      dup2\n      lt\n      tag_30\n      jumpi\n      tag_31\n      tag_25\n      jump\t// in\n    tag_31:\n    tag_30:\n      0x20\n      mul\n      add\n      mload\n        /* \"IntegerToRoman.sol\":1166:1182  num -= values[i] */\n      dup7\n      tag_32\n      swap2\n      swap1\n      tag_33\n      jump\t// in\n    tag_32:\n      swap6\n      pop\n        /* \"IntegerToRoman.sol\":961:1198  while (num>=values[i]){... */\n      jump(tag_21)\n    tag_22:\n        /* \"IntegerToRoman.sol\":887:890  i++ */\n      dup1\n      dup1\n      0x01\n      add\n      swap2\n      pop\n      pop\n        /* \"IntegerToRoman.sol\":850:1209  for(uint i = 0;i<romanSymbols.length;i++){... */\n      jump(tag_18)\n    tag_19:\n      pop\n        /* \"IntegerToRoman.sol\":1226:1232  result */\n      dup1\n        /* \"IntegerToRoman.sol\":1219:1232  return result */\n      swap4\n      pop\n      pop\n      pop\n      pop\n        /* \"IntegerToRoman.sol\":144:1240  function intToRoman(uint num) public pure returns (string memory){... */\n      swap2\n      swap1\n      pop\n      jump\t// out\n        /* \"IntegerToRoman.sol\":1282:1741  function test() external pure {... */\n    tag_12:\n        /* \"IntegerToRoman.sol\":1355:1390  compareString(intToRoman(3),\"IIII\") */\n      tag_35\n        /* \"IntegerToRoman.sol\":1369:1382  intToRoman(3) */\n      tag_36\n        /* \"IntegerToRoman.sol\":1380:1381  3 */\n      0x03\n        /* \"IntegerToRoman.sol\":1369:1379  intToRoman */\n      tag_8\n        /* \"IntegerToRoman.sol\":1369:1382  intToRoman(3) */\n      jump\t// in\n    tag_36:\n        /* \"IntegerToRoman.sol\":1355:1390  compareString(intToRoman(3),\"IIII\") */\n      mload(0x40)\n      dup1\n      0x40\n      add\n      0x40\n      mstore\n      dup1\n      0x04\n      dup2\n      mstore\n      0x20\n      add\n      0x4949494900000000000000000000000000000000000000000000000000000000\n      dup2\n      mstore\n      pop\n        /* \"IntegerToRoman.sol\":1355:1368  compareString */\n      tag_37\n        /* \"IntegerToRoman.sol\":1355:1390  compareString(intToRoman(3),\"IIII\") */\n      jump\t// in\n    tag_35:\n        /* \"IntegerToRoman.sol\":1347:1413  require(compareString(intToRoman(3),\"IIII\"),\"Test failed for III\") */\n      tag_38\n      jumpi\n      mload(0x40)\n      0x08c379a000000000000000000000000000000000000000000000000000000000\n      dup2\n      mstore\n      0x04\n      add\n      tag_39\n      swap1\n      tag_40\n      jump\t// in\n    tag_39:\n      mload(0x40)\n      dup1\n      swap2\n      sub\n      swap1\n      revert\n    tag_38:\n        /* \"IntegerToRoman.sol\":1432:1466  compareString(intToRoman(4), \"IV\") */\n      tag_41\n        /* \"IntegerToRoman.sol\":1446:1459  intToRoman(4) */\n      tag_42\n        /* \"IntegerToRoman.sol\":1457:1458  4 */\n      0x04\n        /* \"IntegerToRoman.sol\":1446:1456  intToRoman */\n      tag_8\n        /* \"IntegerToRoman.sol\":1446:1459  intToRoman(4) */\n      jump\t// in\n    tag_42:\n        /* \"IntegerToRoman.sol\":1432:1466  compareString(intToRoman(4), \"IV\") */\n      mload(0x40)\n      dup1\n      0x40\n      add\n      0x40\n      mstore\n      dup1\n      0x02\n      dup2\n      mstore\n      0x20\n      add\n      0x4956000000000000000000000000000000000000000000000000000000000000\n      dup2\n      mstore\n      pop\n        /* \"IntegerToRoman.sol\":1432:1445  compareString */\n      tag_37\n        /* \"IntegerToRoman.sol\":1432:1466  compareString(intToRoman(4), \"IV\") */\n      jump\t// in\n    tag_41:\n        /* \"IntegerToRoman.sol\":1424:1488  require(compareString(intToRoman(4), \"IV\"),\"Test failed for IV\") */\n      tag_43\n      jumpi\n      mload(0x40)\n      0x08c379a000000000000000000000000000000000000000000000000000000000\n      dup2\n      mstore\n      0x04\n      add\n      tag_44\n      swap1\n      tag_45\n      jump\t// in\n    tag_44:\n      mload(0x40)\n      dup1\n      swap2\n      sub\n      swap1\n      revert\n    tag_43:\n        /* \"IntegerToRoman.sol\":1507:1541  compareString(intToRoman(9), \"IX\") */\n      tag_46\n        /* \"IntegerToRoman.sol\":1521:1534  intToRoman(9) */\n      tag_47\n        /* \"IntegerToRoman.sol\":1532:1533  9 */\n      0x09\n        /* \"IntegerToRoman.sol\":1521:1531  intToRoman */\n      tag_8\n        /* \"IntegerToRoman.sol\":1521:1534  intToRoman(9) */\n      jump\t// in\n    tag_47:\n        /* \"IntegerToRoman.sol\":1507:1541  compareString(intToRoman(9), \"IX\") */\n      mload(0x40)\n      dup1\n      0x40\n      add\n      0x40\n      mstore\n      dup1\n      0x02\n      dup2\n      mstore\n      0x20\n      add\n      0x4958000000000000000000000000000000000000000000000000000000000000\n      dup2\n      mstore\n      pop\n        /* \"IntegerToRoman.sol\":1507:1520  compareString */\n      tag_37\n        /* \"IntegerToRoman.sol\":1507:1541  compareString(intToRoman(9), \"IX\") */\n      jump\t// in\n    tag_46:\n        /* \"IntegerToRoman.sol\":1499:1563  require(compareString(intToRoman(9), \"IX\"),\"Test failed for IX\") */\n      tag_48\n      jumpi\n      mload(0x40)\n      0x08c379a000000000000000000000000000000000000000000000000000000000\n      dup2\n      mstore\n      0x04\n      add\n      tag_49\n      swap1\n      tag_50\n      jump\t// in\n    tag_49:\n      mload(0x40)\n      dup1\n      swap2\n      sub\n      swap1\n      revert\n    tag_48:\n        /* \"IntegerToRoman.sol\":1582:1620  compareString(intToRoman(58), \"LVIII\") */\n      tag_51\n        /* \"IntegerToRoman.sol\":1596:1610  intToRoman(58) */\n      tag_52\n        /* \"IntegerToRoman.sol\":1607:1609  58 */\n      0x3a\n        /* \"IntegerToRoman.sol\":1596:1606  intToRoman */\n      tag_8\n        /* \"IntegerToRoman.sol\":1596:1610  intToRoman(58) */\n      jump\t// in\n    tag_52:\n        /* \"IntegerToRoman.sol\":1582:1620  compareString(intToRoman(58), \"LVIII\") */\n      mload(0x40)\n      dup1\n      0x40\n      add\n      0x40\n      mstore\n      dup1\n      0x05\n      dup2\n      mstore\n      0x20\n      add\n      0x4c56494949000000000000000000000000000000000000000000000000000000\n      dup2\n      mstore\n      pop\n        /* \"IntegerToRoman.sol\":1582:1595  compareString */\n      tag_37\n        /* \"IntegerToRoman.sol\":1582:1620  compareString(intToRoman(58), \"LVIII\") */\n      jump\t// in\n    tag_51:\n        /* \"IntegerToRoman.sol\":1574:1645  require(compareString(intToRoman(58), \"LVIII\"),\"Test failed for LVIII\") */\n      tag_53\n      jumpi\n      mload(0x40)\n      0x08c379a000000000000000000000000000000000000000000000000000000000\n      dup2\n      mstore\n      0x04\n      add\n      tag_54\n      swap1\n      tag_55\n      jump\t// in\n    tag_54:\n      mload(0x40)\n      dup1\n      swap2\n      sub\n      swap1\n      revert\n    tag_53:\n        /* \"IntegerToRoman.sol\":1664:1706  compareString(intToRoman(1994), \"MCMXCIV\") */\n      tag_56\n        /* \"IntegerToRoman.sol\":1678:1694  intToRoman(1994) */\n      tag_57\n        /* \"IntegerToRoman.sol\":1689:1693  1994 */\n      0x07ca\n        /* \"IntegerToRoman.sol\":1678:1688  intToRoman */\n      tag_8\n        /* \"IntegerToRoman.sol\":1678:1694  intToRoman(1994) */\n      jump\t// in\n    tag_57:\n        /* \"IntegerToRoman.sol\":1664:1706  compareString(intToRoman(1994), \"MCMXCIV\") */\n      mload(0x40)\n      dup1\n      0x40\n      add\n      0x40\n      mstore\n      dup1\n      0x07\n      dup2\n      mstore\n      0x20\n      add\n      0x4d434d5843495600000000000000000000000000000000000000000000000000\n      dup2\n      mstore\n      pop\n        /* \"IntegerToRoman.sol\":1664:1677  compareString */\n      tag_37\n        /* \"IntegerToRoman.sol\":1664:1706  compareString(intToRoman(1994), \"MCMXCIV\") */\n      jump\t// in\n    tag_56:\n        /* \"IntegerToRoman.sol\":1656:1733  require(compareString(intToRoman(1994), \"MCMXCIV\"),\"Test failed for MCMXCIV\") */\n      tag_58\n      jumpi\n      mload(0x40)\n      0x08c379a000000000000000000000000000000000000000000000000000000000\n      dup2\n      mstore\n      0x04\n      add\n      tag_59\n      swap1\n      tag_60\n      jump\t// in\n    tag_59:\n      mload(0x40)\n      dup1\n      swap2\n      sub\n      swap1\n      revert\n    tag_58:\n        /* \"IntegerToRoman.sol\":1282:1741  function test() external pure {... */\n      jump\t// out\n        /* \"IntegerToRoman.sol\":1804:1977  function compareString(string memory a,string memory b) private pure returns (bool){... */\n    tag_37:\n        /* \"IntegerToRoman.sol\":1882:1886  bool */\n      0x00\n        /* \"IntegerToRoman.sol\":1966:1967  b */\n      dup2\n        /* \"IntegerToRoman.sol\":1949:1968  abi.encodePacked(b) */\n      add(0x20, mload(0x40))\n      tag_62\n      swap2\n      swap1\n      tag_63\n      jump\t// in\n    tag_62:\n      mload(0x40)\n      0x20\n      dup2\n      dup4\n      sub\n      sub\n      dup2\n      mstore\n      swap1\n      0x40\n      mstore\n        /* \"IntegerToRoman.sol\":1939:1969  keccak256(abi.encodePacked(b)) */\n      dup1\n      mload\n      swap1\n      0x20\n      add\n      keccak256\n        /* \"IntegerToRoman.sol\":1932:1933  a */\n      dup4\n        /* \"IntegerToRoman.sol\":1915:1934  abi.encodePacked(a) */\n      add(0x20, mload(0x40))\n      tag_64\n      swap2\n      swap1\n      tag_63\n      jump\t// in\n    tag_64:\n      mload(0x40)\n      0x20\n      dup2\n      dup4\n      sub\n      sub\n      dup2\n      mstore\n      swap1\n      0x40\n      mstore\n        /* \"IntegerToRoman.sol\":1905:1935  keccak256(abi.encodePacked(a)) */\n      dup1\n      mload\n      swap1\n      0x20\n      add\n      keccak256\n        /* \"IntegerToRoman.sol\":1905:1969  keccak256(abi.encodePacked(a)) == keccak256(abi.encodePacked(b)) */\n      eq\n        /* \"IntegerToRoman.sol\":1898:1969  return keccak256(abi.encodePacked(a)) == keccak256(abi.encodePacked(b)) */\n      swap1\n      pop\n        /* \"IntegerToRoman.sol\":1804:1977  function compareString(string memory a,string memory b) private pure returns (bool){... */\n      swap3\n      swap2\n      pop\n      pop\n      jump\t// out\n        /* \"#utility.yul\":88:205   */\n    tag_66:\n        /* \"#utility.yul\":197:198   */\n      0x00\n        /* \"#utility.yul\":194:195   */\n      0x00\n        /* \"#utility.yul\":187:199   */\n      revert\n        /* \"#utility.yul\":334:411   */\n    tag_68:\n        /* \"#utility.yul\":371:378   */\n      0x00\n        /* \"#utility.yul\":400:405   */\n      dup2\n        /* \"#utility.yul\":389:405   */\n      swap1\n      pop\n        /* \"#utility.yul\":334:411   */\n      swap2\n      swap1\n      pop\n      jump\t// out\n        /* \"#utility.yul\":417:539   */\n    tag_69:\n        /* \"#utility.yul\":490:514   */\n      tag_97\n        /* \"#utility.yul\":508:513   */\n      dup2\n        /* \"#utility.yul\":490:514   */\n      tag_68\n      jump\t// in\n    tag_97:\n        /* \"#utility.yul\":483:488   */\n      dup2\n        /* \"#utility.yul\":480:515   */\n      eq\n        /* \"#utility.yul\":470:533   */\n      tag_98\n      jumpi\n        /* \"#utility.yul\":529:530   */\n      0x00\n        /* \"#utility.yul\":526:527   */\n      0x00\n        /* \"#utility.yul\":519:531   */\n      revert\n        /* \"#utility.yul\":470:533   */\n    tag_98:\n        /* \"#utility.yul\":417:539   */\n      pop\n      jump\t// out\n        /* \"#utility.yul\":545:684   */\n    tag_70:\n        /* \"#utility.yul\":591:596   */\n      0x00\n        /* \"#utility.yul\":629:635   */\n      dup2\n        /* \"#utility.yul\":616:636   */\n      calldataload\n        /* \"#utility.yul\":607:636   */\n      swap1\n      pop\n        /* \"#utility.yul\":645:678   */\n      tag_100\n        /* \"#utility.yul\":672:677   */\n      dup2\n        /* \"#utility.yul\":645:678   */\n      tag_69\n      jump\t// in\n    tag_100:\n        /* \"#utility.yul\":545:684   */\n      swap3\n      swap2\n      pop\n      pop\n      jump\t// out\n        /* \"#utility.yul\":690:1019   */\n    tag_7:\n        /* \"#utility.yul\":749:755   */\n      0x00\n        /* \"#utility.yul\":798:800   */\n      0x20\n        /* \"#utility.yul\":786:795   */\n      dup3\n        /* \"#utility.yul\":777:784   */\n      dup5\n        /* \"#utility.yul\":773:796   */\n      sub\n        /* \"#utility.yul\":769:801   */\n      slt\n        /* \"#utility.yul\":766:885   */\n      iszero\n      tag_102\n      jumpi\n        /* \"#utility.yul\":804:883   */\n      tag_103\n      tag_66\n      jump\t// in\n    tag_103:\n        /* \"#utility.yul\":766:885   */\n    tag_102:\n        /* \"#utility.yul\":924:925   */\n      0x00\n        /* \"#utility.yul\":949:1002   */\n      tag_104\n        /* \"#utility.yul\":994:1001   */\n      dup5\n        /* \"#utility.yul\":985:991   */\n      dup3\n        /* \"#utility.yul\":974:983   */\n      dup6\n        /* \"#utility.yul\":970:992   */\n      add\n        /* \"#utility.yul\":949:1002   */\n      tag_70\n      jump\t// in\n    tag_104:\n        /* \"#utility.yul\":939:1002   */\n      swap2\n      pop\n        /* \"#utility.yul\":895:1012   */\n      pop\n        /* \"#utility.yul\":690:1019   */\n      swap3\n      swap2\n      pop\n      pop\n      jump\t// out\n        /* \"#utility.yul\":1025:1124   */\n    tag_71:\n        /* \"#utility.yul\":1077:1083   */\n      0x00\n        /* \"#utility.yul\":1111:1116   */\n      dup2\n        /* \"#utility.yul\":1105:1117   */\n      mload\n        /* \"#utility.yul\":1095:1117   */\n      swap1\n      pop\n        /* \"#utility.yul\":1025:1124   */\n      swap2\n      swap1\n      pop\n      jump\t// out\n        /* \"#utility.yul\":1130:1299   */\n    tag_72:\n        /* \"#utility.yul\":1214:1225   */\n      0x00\n        /* \"#utility.yul\":1248:1254   */\n      dup3\n        /* \"#utility.yul\":1243:1246   */\n      dup3\n        /* \"#utility.yul\":1236:1255   */\n      mstore\n        /* \"#utility.yul\":1288:1292   */\n      0x20\n        /* \"#utility.yul\":1283:1286   */\n      dup3\n        /* \"#utility.yul\":1279:1293   */\n      add\n        /* \"#utility.yul\":1264:1293   */\n      swap1\n      pop\n        /* \"#utility.yul\":1130:1299   */\n      swap3\n      swap2\n      pop\n      pop\n      jump\t// out\n        /* \"#utility.yul\":1305:1444   */\n    tag_73:\n        /* \"#utility.yul\":1394:1400   */\n      dup3\n        /* \"#utility.yul\":1389:1392   */\n      dup2\n        /* \"#utility.yul\":1384:1387   */\n      dup4\n        /* \"#utility.yul\":1378:1401   */\n      mcopy\n        /* \"#utility.yul\":1435:1436   */\n      0x00\n        /* \"#utility.yul\":1426:1432   */\n      dup4\n        /* \"#utility.yul\":1421:1424   */\n      dup4\n        /* \"#utility.yul\":1417:1433   */\n      add\n        /* \"#utility.yul\":1410:1437   */\n      mstore\n        /* \"#utility.yul\":1305:1444   */\n      pop\n      pop\n      pop\n      jump\t// out\n        /* \"#utility.yul\":1450:1552   */\n    tag_74:\n        /* \"#utility.yul\":1491:1497   */\n      0x00\n        /* \"#utility.yul\":1542:1544   */\n      0x1f\n        /* \"#utility.yul\":1538:1545   */\n      not\n        /* \"#utility.yul\":1533:1535   */\n      0x1f\n        /* \"#utility.yul\":1526:1531   */\n      dup4\n        /* \"#utility.yul\":1522:1536   */\n      add\n        /* \"#utility.yul\":1518:1546   */\n      and\n        /* \"#utility.yul\":1508:1546   */\n      swap1\n      pop\n        /* \"#utility.yul\":1450:1552   */\n      swap2\n      swap1\n      pop\n      jump\t// out\n        /* \"#utility.yul\":1558:1935   */\n    tag_75:\n        /* \"#utility.yul\":1646:1649   */\n      0x00\n        /* \"#utility.yul\":1674:1713   */\n      tag_110\n        /* \"#utility.yul\":1707:1712   */\n      dup3\n        /* \"#utility.yul\":1674:1713   */\n      tag_71\n      jump\t// in\n    tag_110:\n        /* \"#utility.yul\":1729:1800   */\n      tag_111\n        /* \"#utility.yul\":1793:1799   */\n      dup2\n        /* \"#utility.yul\":1788:1791   */\n      dup6\n        /* \"#utility.yul\":1729:1800   */\n      tag_72\n      jump\t// in\n    tag_111:\n        /* \"#utility.yul\":1722:1800   */\n      swap4\n      pop\n        /* \"#utility.yul\":1809:1874   */\n      tag_112\n        /* \"#utility.yul\":1867:1873   */\n      dup2\n        /* \"#utility.yul\":1862:1865   */\n      dup6\n        /* \"#utility.yul\":1855:1859   */\n      0x20\n        /* \"#utility.yul\":1848:1853   */\n      dup7\n        /* \"#utility.yul\":1844:1860   */\n      add\n        /* \"#utility.yul\":1809:1874   */\n      tag_73\n      jump\t// in\n    tag_112:\n        /* \"#utility.yul\":1899:1928   */\n      tag_113\n        /* \"#utility.yul\":1921:1927   */\n      dup2\n        /* \"#utility.yul\":1899:1928   */\n      tag_74\n      jump\t// in\n    tag_113:\n        /* \"#utility.yul\":1894:1897   */\n      dup5\n        /* \"#utility.yul\":1890:1929   */\n      add\n        /* \"#utility.yul\":1883:1929   */\n      swap2\n      pop\n        /* \"#utility.yul\":1650:1935   */\n      pop\n        /* \"#utility.yul\":1558:1935   */\n      swap3\n      swap2\n      pop\n      pop\n      jump\t// out\n        /* \"#utility.yul\":1941:2254   */\n    tag_10:\n        /* \"#utility.yul\":2054:2058   */\n      0x00\n        /* \"#utility.yul\":2092:2094   */\n      0x20\n        /* \"#utility.yul\":2081:2090   */\n      dup3\n        /* \"#utility.yul\":2077:2095   */\n      add\n        /* \"#utility.yul\":2069:2095   */\n      swap1\n      pop\n        /* \"#utility.yul\":2141:2150   */\n      dup2\n        /* \"#utility.yul\":2135:2139   */\n      dup2\n        /* \"#utility.yul\":2131:2151   */\n      sub\n        /* \"#utility.yul\":2127:2128   */\n      0x00\n        /* \"#utility.yul\":2116:2125   */\n      dup4\n        /* \"#utility.yul\":2112:2129   */\n      add\n        /* \"#utility.yul\":2105:2152   */\n      mstore\n        /* \"#utility.yul\":2169:2247   */\n      tag_115\n        /* \"#utility.yul\":2242:2246   */\n      dup2\n        /* \"#utility.yul\":2233:2239   */\n      dup5\n        /* \"#utility.yul\":2169:2247   */\n      tag_75\n      jump\t// in\n    tag_115:\n        /* \"#utility.yul\":2161:2247   */\n      swap1\n      pop\n        /* \"#utility.yul\":1941:2254   */\n      swap3\n      swap2\n      pop\n      pop\n      jump\t// out\n        /* \"#utility.yul\":2260:2480   */\n    tag_76:\n        /* \"#utility.yul\":2400:2434   */\n      0x4e756d626572206d757374206265206265747765656e203120616e6420333939\n        /* \"#utility.yul\":2396:2397   */\n      0x00\n        /* \"#utility.yul\":2388:2394   */\n      dup3\n        /* \"#utility.yul\":2384:2398   */\n      add\n        /* \"#utility.yul\":2377:2435   */\n      mstore\n        /* \"#utility.yul\":2469:2472   */\n      0x3900000000000000000000000000000000000000000000000000000000000000\n        /* \"#utility.yul\":2464:2466   */\n      0x20\n        /* \"#utility.yul\":2456:2462   */\n      dup3\n        /* \"#utility.yul\":2452:2467   */\n      add\n        /* \"#utility.yul\":2445:2473   */\n      mstore\n        /* \"#utility.yul\":2260:2480   */\n      pop\n      jump\t// out\n        /* \"#utility.yul\":2486:2852   */\n    tag_77:\n        /* \"#utility.yul\":2628:2631   */\n      0x00\n        /* \"#utility.yul\":2649:2716   */\n      tag_118\n        /* \"#utility.yul\":2713:2715   */\n      0x21\n        /* \"#utility.yul\":2708:2711   */\n      dup4\n        /* \"#utility.yul\":2649:2716   */\n      tag_72\n      jump\t// in\n    tag_118:\n        /* \"#utility.yul\":2642:2716   */\n      swap2\n      pop\n        /* \"#utility.yul\":2725:2818   */\n      tag_119\n        /* \"#utility.yul\":2814:2817   */\n      dup3\n        /* \"#utility.yul\":2725:2818   */\n      tag_76\n      jump\t// in\n    tag_119:\n        /* \"#utility.yul\":2843:2845   */\n      0x40\n        /* \"#utility.yul\":2838:2841   */\n      dup3\n        /* \"#utility.yul\":2834:2846   */\n      add\n        /* \"#utility.yul\":2827:2846   */\n      swap1\n      pop\n        /* \"#utility.yul\":2486:2852   */\n      swap2\n      swap1\n      pop\n      jump\t// out\n        /* \"#utility.yul\":2858:3277   */\n    tag_17:\n        /* \"#utility.yul\":3024:3028   */\n      0x00\n        /* \"#utility.yul\":3062:3064   */\n      0x20\n        /* \"#utility.yul\":3051:3060   */\n      dup3\n        /* \"#utility.yul\":3047:3065   */\n      add\n        /* \"#utility.yul\":3039:3065   */\n      swap1\n      pop\n        /* \"#utility.yul\":3111:3120   */\n      dup2\n        /* \"#utility.yul\":3105:3109   */\n      dup2\n        /* \"#utility.yul\":3101:3121   */\n      sub\n        /* \"#utility.yul\":3097:3098   */\n      0x00\n        /* \"#utility.yul\":3086:3095   */\n      dup4\n        /* \"#utility.yul\":3082:3099   */\n      add\n        /* \"#utility.yul\":3075:3122   */\n      mstore\n        /* \"#utility.yul\":3139:3270   */\n      tag_121\n        /* \"#utility.yul\":3265:3269   */\n      dup2\n        /* \"#utility.yul\":3139:3270   */\n      tag_77\n      jump\t// in\n    tag_121:\n        /* \"#utility.yul\":3131:3270   */\n      swap1\n      pop\n        /* \"#utility.yul\":2858:3277   */\n      swap2\n      swap1\n      pop\n      jump\t// out\n        /* \"#utility.yul\":3283:3463   */\n    tag_25:\n        /* \"#utility.yul\":3331:3408   */\n      0x4e487b7100000000000000000000000000000000000000000000000000000000\n        /* \"#utility.yul\":3328:3329   */\n      0x00\n        /* \"#utility.yul\":3321:3409   */\n      mstore\n        /* \"#utility.yul\":3428:3432   */\n      0x32\n        /* \"#utility.yul\":3425:3426   */\n      0x04\n        /* \"#utility.yul\":3418:3433   */\n      mstore\n        /* \"#utility.yul\":3452:3456   */\n      0x24\n        /* \"#utility.yul\":3449:3450   */\n      0x00\n        /* \"#utility.yul\":3442:3457   */\n      revert\n        /* \"#utility.yul\":3469:3617   */\n    tag_78:\n        /* \"#utility.yul\":3571:3582   */\n      0x00\n        /* \"#utility.yul\":3608:3611   */\n      dup2\n        /* \"#utility.yul\":3593:3611   */\n      swap1\n      pop\n        /* \"#utility.yul\":3469:3617   */\n      swap3\n      swap2\n      pop\n      pop\n      jump\t// out\n        /* \"#utility.yul\":3623:4013   */\n    tag_79:\n        /* \"#utility.yul\":3729:3732   */\n      0x00\n        /* \"#utility.yul\":3757:3796   */\n      tag_125\n        /* \"#utility.yul\":3790:3795   */\n      dup3\n        /* \"#utility.yul\":3757:3796   */\n      tag_71\n      jump\t// in\n    tag_125:\n        /* \"#utility.yul\":3812:3901   */\n      tag_126\n        /* \"#utility.yul\":3894:3900   */\n      dup2\n        /* \"#utility.yul\":3889:3892   */\n      dup6\n        /* \"#utility.yul\":3812:3901   */\n      tag_78\n      jump\t// in\n    tag_126:\n        /* \"#utility.yul\":3805:3901   */\n      swap4\n      pop\n        /* \"#utility.yul\":3910:3975   */\n      tag_127\n        /* \"#utility.yul\":3968:3974   */\n      dup2\n        /* \"#utility.yul\":3963:3966   */\n      dup6\n        /* \"#utility.yul\":3956:3960   */\n      0x20\n        /* \"#utility.yul\":3949:3954   */\n      dup7\n        /* \"#utility.yul\":3945:3961   */\n      add\n        /* \"#utility.yul\":3910:3975   */\n      tag_73\n      jump\t// in\n    tag_127:\n        /* \"#utility.yul\":4000:4006   */\n      dup1\n        /* \"#utility.yul\":3995:3998   */\n      dup5\n        /* \"#utility.yul\":3991:4007   */\n      add\n        /* \"#utility.yul\":3984:4007   */\n      swap2\n      pop\n        /* \"#utility.yul\":3733:4013   */\n      pop\n        /* \"#utility.yul\":3623:4013   */\n      swap3\n      swap2\n      pop\n      pop\n      jump\t// out\n        /* \"#utility.yul\":4019:4454   */\n    tag_29:\n        /* \"#utility.yul\":4199:4202   */\n      0x00\n        /* \"#utility.yul\":4221:4316   */\n      tag_129\n        /* \"#utility.yul\":4312:4315   */\n      dup3\n        /* \"#utility.yul\":4303:4309   */\n      dup6\n        /* \"#utility.yul\":4221:4316   */\n      tag_79\n      jump\t// in\n    tag_129:\n        /* \"#utility.yul\":4214:4316   */\n      swap2\n      pop\n        /* \"#utility.yul\":4333:4428   */\n      tag_130\n        /* \"#utility.yul\":4424:4427   */\n      dup3\n        /* \"#utility.yul\":4415:4421   */\n      dup5\n        /* \"#utility.yul\":4333:4428   */\n      tag_79\n      jump\t// in\n    tag_130:\n        /* \"#utility.yul\":4326:4428   */\n      swap2\n      pop\n        /* \"#utility.yul\":4445:4448   */\n      dup2\n        /* \"#utility.yul\":4438:4448   */\n      swap1\n      pop\n        /* \"#utility.yul\":4019:4454   */\n      swap4\n      swap3\n      pop\n      pop\n      pop\n      jump\t// out\n        /* \"#utility.yul\":4460:4640   */\n    tag_80:\n        /* \"#utility.yul\":4508:4585   */\n      0x4e487b7100000000000000000000000000000000000000000000000000000000\n        /* \"#utility.yul\":4505:4506   */\n      0x00\n        /* \"#utility.yul\":4498:4586   */\n      mstore\n        /* \"#utility.yul\":4605:4609   */\n      0x11\n        /* \"#utility.yul\":4602:4603   */\n      0x04\n        /* \"#utility.yul\":4595:4610   */\n      mstore\n        /* \"#utility.yul\":4629:4633   */\n      0x24\n        /* \"#utility.yul\":4626:4627   */\n      0x00\n        /* \"#utility.yul\":4619:4634   */\n      revert\n        /* \"#utility.yul\":4646:4840   */\n    tag_33:\n        /* \"#utility.yul\":4686:4690   */\n      0x00\n        /* \"#utility.yul\":4706:4726   */\n      tag_133\n        /* \"#utility.yul\":4724:4725   */\n      dup3\n        /* \"#utility.yul\":4706:4726   */\n      tag_68\n      jump\t// in\n    tag_133:\n        /* \"#utility.yul\":4701:4726   */\n      swap2\n      pop\n        /* \"#utility.yul\":4740:4760   */\n      tag_134\n        /* \"#utility.yul\":4758:4759   */\n      dup4\n        /* \"#utility.yul\":4740:4760   */\n      tag_68\n      jump\t// in\n    tag_134:\n        /* \"#utility.yul\":4735:4760   */\n      swap3\n      pop\n        /* \"#utility.yul\":4784:4785   */\n      dup3\n        /* \"#utility.yul\":4781:4782   */\n      dup3\n        /* \"#utility.yul\":4777:4786   */\n      sub\n        /* \"#utility.yul\":4769:4786   */\n      swap1\n      pop\n        /* \"#utility.yul\":4808:4809   */\n      dup2\n        /* \"#utility.yul\":4802:4806   */\n      dup2\n        /* \"#utility.yul\":4799:4810   */\n      gt\n        /* \"#utility.yul\":4796:4833   */\n      iszero\n      tag_135\n      jumpi\n        /* \"#utility.yul\":4813:4831   */\n      tag_136\n      tag_80\n      jump\t// in\n    tag_136:\n        /* \"#utility.yul\":4796:4833   */\n    tag_135:\n        /* \"#utility.yul\":4646:4840   */\n      swap3\n      swap2\n      pop\n      pop\n      jump\t// out\n        /* \"#utility.yul\":4846:5015   */\n    tag_81:\n        /* \"#utility.yul\":4986:5007   */\n      0x54657374206661696c656420666f722049494900000000000000000000000000\n        /* \"#utility.yul\":4982:4983   */\n      0x00\n        /* \"#utility.yul\":4974:4980   */\n      dup3\n        /* \"#utility.yul\":4970:4984   */\n      add\n        /* \"#utility.yul\":4963:5008   */\n      mstore\n        /* \"#utility.yul\":4846:5015   */\n      pop\n      jump\t// out\n        /* \"#utility.yul\":5021:5387   */\n    tag_82:\n        /* \"#utility.yul\":5163:5166   */\n      0x00\n        /* \"#utility.yul\":5184:5251   */\n      tag_139\n        /* \"#utility.yul\":5248:5250   */\n      0x13\n        /* \"#utility.yul\":5243:5246   */\n      dup4\n        /* \"#utility.yul\":5184:5251   */\n      tag_72\n      jump\t// in\n    tag_139:\n        /* \"#utility.yul\":5177:5251   */\n      swap2\n      pop\n        /* \"#utility.yul\":5260:5353   */\n      tag_140\n        /* \"#utility.yul\":5349:5352   */\n      dup3\n        /* \"#utility.yul\":5260:5353   */\n      tag_81\n      jump\t// in\n    tag_140:\n        /* \"#utility.yul\":5378:5380   */\n      0x20\n        /* \"#utility.yul\":5373:5376   */\n      dup3\n        /* \"#utility.yul\":5369:5381   */\n      add\n        /* \"#utility.yul\":5362:5381   */\n      swap1\n      pop\n        /* \"#utility.yul\":5021:5387   */\n      swap2\n      swap1\n      pop\n      jump\t// out\n        /* \"#utility.yul\":5393:5812   */\n    tag_40:\n        /* \"#utility.yul\":5559:5563   */\n      0x00\n        /* \"#utility.yul\":5597:5599   */\n      0x20\n        /* \"#utility.yul\":5586:5595   */\n      dup3\n        /* \"#utility.yul\":5582:5600   */\n      add\n        /* \"#utility.yul\":5574:5600   */\n      swap1\n      pop\n        /* \"#utility.yul\":5646:5655   */\n      dup2\n        /* \"#utility.yul\":5640:5644   */\n      dup2\n        /* \"#utility.yul\":5636:5656   */\n      sub\n        /* \"#utility.yul\":5632:5633   */\n      0x00\n        /* \"#utility.yul\":5621:5630   */\n      dup4\n        /* \"#utility.yul\":5617:5634   */\n      add\n        /* \"#utility.yul\":5610:5657   */\n      mstore\n        /* \"#utility.yul\":5674:5805   */\n      tag_142\n        /* \"#utility.yul\":5800:5804   */\n      dup2\n        /* \"#utility.yul\":5674:5805   */\n      tag_82\n      jump\t// in\n    tag_142:\n        /* \"#utility.yul\":5666:5805   */\n      swap1\n      pop\n        /* \"#utility.yul\":5393:5812   */\n      swap2\n      swap1\n      pop\n      jump\t// out\n        /* \"#utility.yul\":5818:5986   */\n    tag_83:\n        /* \"#utility.yul\":5958:5978   */\n      0x54657374206661696c656420666f722049560000000000000000000000000000\n        /* \"#utility.yul\":5954:5955   */\n      0x00\n        /* \"#utility.yul\":5946:5952   */\n      dup3\n        /* \"#utility.yul\":5942:5956   */\n      add\n        /* \"#utility.yul\":5935:5979   */\n      mstore\n        /* \"#utility.yul\":5818:5986   */\n      pop\n      jump\t// out\n        /* \"#utility.yul\":5992:6358   */\n    tag_84:\n        /* \"#utility.yul\":6134:6137   */\n      0x00\n        /* \"#utility.yul\":6155:6222   */\n      tag_145\n        /* \"#utility.yul\":6219:6221   */\n      0x12\n        /* \"#utility.yul\":6214:6217   */\n      dup4\n        /* \"#utility.yul\":6155:6222   */\n      tag_72\n      jump\t// in\n    tag_145:\n        /* \"#utility.yul\":6148:6222   */\n      swap2\n      pop\n        /* \"#utility.yul\":6231:6324   */\n      tag_146\n        /* \"#utility.yul\":6320:6323   */\n      dup3\n        /* \"#utility.yul\":6231:6324   */\n      tag_83\n      jump\t// in\n    tag_146:\n        /* \"#utility.yul\":6349:6351   */\n      0x20\n        /* \"#utility.yul\":6344:6347   */\n      dup3\n        /* \"#utility.yul\":6340:6352   */\n      add\n        /* \"#utility.yul\":6333:6352   */\n      swap1\n      pop\n        /* \"#utility.yul\":5992:6358   */\n      swap2\n      swap1\n      pop\n      jump\t// out\n        /* \"#utility.yul\":6364:6783   */\n    tag_45:\n        /* \"#utility.yul\":6530:6534   */\n      0x00\n        /* \"#utility.yul\":6568:6570   */\n      0x20\n        /* \"#utility.yul\":6557:6566   */\n      dup3\n        /* \"#utility.yul\":6553:6571   */\n      add\n        /* \"#utility.yul\":6545:6571   */\n      swap1\n      pop\n        /* \"#utility.yul\":6617:6626   */\n      dup2\n        /* \"#utility.yul\":6611:6615   */\n      dup2\n        /* \"#utility.yul\":6607:6627   */\n      sub\n        /* \"#utility.yul\":6603:6604   */\n      0x00\n        /* \"#utility.yul\":6592:6601   */\n      dup4\n        /* \"#utility.yul\":6588:6605   */\n      add\n        /* \"#utility.yul\":6581:6628   */\n      mstore\n        /* \"#utility.yul\":6645:6776   */\n      tag_148\n        /* \"#utility.yul\":6771:6775   */\n      dup2\n        /* \"#utility.yul\":6645:6776   */\n      tag_84\n      jump\t// in\n    tag_148:\n        /* \"#utility.yul\":6637:6776   */\n      swap1\n      pop\n        /* \"#utility.yul\":6364:6783   */\n      swap2\n      swap1\n      pop\n      jump\t// out\n        /* \"#utility.yul\":6789:6957   */\n    tag_85:\n        /* \"#utility.yul\":6929:6949   */\n      0x54657374206661696c656420666f722049580000000000000000000000000000\n        /* \"#utility.yul\":6925:6926   */\n      0x00\n        /* \"#utility.yul\":6917:6923   */\n      dup3\n        /* \"#utility.yul\":6913:6927   */\n      add\n        /* \"#utility.yul\":6906:6950   */\n      mstore\n        /* \"#utility.yul\":6789:6957   */\n      pop\n      jump\t// out\n        /* \"#utility.yul\":6963:7329   */\n    tag_86:\n        /* \"#utility.yul\":7105:7108   */\n      0x00\n        /* \"#utility.yul\":7126:7193   */\n      tag_151\n        /* \"#utility.yul\":7190:7192   */\n      0x12\n        /* \"#utility.yul\":7185:7188   */\n      dup4\n        /* \"#utility.yul\":7126:7193   */\n      tag_72\n      jump\t// in\n    tag_151:\n        /* \"#utility.yul\":7119:7193   */\n      swap2\n      pop\n        /* \"#utility.yul\":7202:7295   */\n      tag_152\n        /* \"#utility.yul\":7291:7294   */\n      dup3\n        /* \"#utility.yul\":7202:7295   */\n      tag_85\n      jump\t// in\n    tag_152:\n        /* \"#utility.yul\":7320:7322   */\n      0x20\n        /* \"#utility.yul\":7315:7318   */\n      dup3\n        /* \"#utility.yul\":7311:7323   */\n      add\n        /* \"#utility.yul\":7304:7323   */\n      swap1\n      pop\n        /* \"#utility.yul\":6963:7329   */\n      swap2\n      swap1\n      pop\n      jump\t// out\n        /* \"#utility.yul\":7335:7754   */\n    tag_50:\n        /* \"#utility.yul\":7501:7505   */\n      0x00\n        /* \"#utility.yul\":7539:7541   */\n      0x20\n        /* \"#utility.yul\":7528:7537   */\n      dup3\n        /* \"#utility.yul\":7524:7542   */\n      add\n        /* \"#utility.yul\":7516:7542   */\n      swap1\n      pop\n        /* \"#utility.yul\":7588:7597   */\n      dup2\n        /* \"#utility.yul\":7582:7586   */\n      dup2\n        /* \"#utility.yul\":7578:7598   */\n      sub\n        /* \"#utility.yul\":7574:7575   */\n      0x00\n        /* \"#utility.yul\":7563:7572   */\n      dup4\n        /* \"#utility.yul\":7559:7576   */\n      add\n        /* \"#utility.yul\":7552:7599   */\n      mstore\n        /* \"#utility.yul\":7616:7747   */\n      tag_154\n        /* \"#utility.yul\":7742:7746   */\n      dup2\n        /* \"#utility.yul\":7616:7747   */\n      tag_86\n      jump\t// in\n    tag_154:\n        /* \"#utility.yul\":7608:7747   */\n      swap1\n      pop\n        /* \"#utility.yul\":7335:7754   */\n      swap2\n      swap1\n      pop\n      jump\t// out\n        /* \"#utility.yul\":7760:7931   */\n    tag_87:\n        /* \"#utility.yul\":7900:7923   */\n      0x54657374206661696c656420666f72204c564949490000000000000000000000\n        /* \"#utility.yul\":7896:7897   */\n      0x00\n        /* \"#utility.yul\":7888:7894   */\n      dup3\n        /* \"#utility.yul\":7884:7898   */\n      add\n        /* \"#utility.yul\":7877:7924   */\n      mstore\n        /* \"#utility.yul\":7760:7931   */\n      pop\n      jump\t// out\n        /* \"#utility.yul\":7937:8303   */\n    tag_88:\n        /* \"#utility.yul\":8079:8082   */\n      0x00\n        /* \"#utility.yul\":8100:8167   */\n      tag_157\n        /* \"#utility.yul\":8164:8166   */\n      0x15\n        /* \"#utility.yul\":8159:8162   */\n      dup4\n        /* \"#utility.yul\":8100:8167   */\n      tag_72\n      jump\t// in\n    tag_157:\n        /* \"#utility.yul\":8093:8167   */\n      swap2\n      pop\n        /* \"#utility.yul\":8176:8269   */\n      tag_158\n        /* \"#utility.yul\":8265:8268   */\n      dup3\n        /* \"#utility.yul\":8176:8269   */\n      tag_87\n      jump\t// in\n    tag_158:\n        /* \"#utility.yul\":8294:8296   */\n      0x20\n        /* \"#utility.yul\":8289:8292   */\n      dup3\n        /* \"#utility.yul\":8285:8297   */\n      add\n        /* \"#utility.yul\":8278:8297   */\n      swap1\n      pop\n        /* \"#utility.yul\":7937:8303   */\n      swap2\n      swap1\n      pop\n      jump\t// out\n        /* \"#utility.yul\":8309:8728   */\n    tag_55:\n        /* \"#utility.yul\":8475:8479   */\n      0x00\n        /* \"#utility.yul\":8513:8515   */\n      0x20\n        /* \"#utility.yul\":8502:8511   */\n      dup3\n        /* \"#utility.yul\":8498:8516   */\n      add\n        /* \"#utility.yul\":8490:8516   */\n      swap1\n      pop\n        /* \"#utility.yul\":8562:8571   */\n      dup2\n        /* \"#utility.yul\":8556:8560   */\n      dup2\n        /* \"#utility.yul\":8552:8572   */\n      sub\n        /* \"#utility.yul\":8548:8549   */\n      0x00\n        /* \"#utility.yul\":8537:8546   */\n      dup4\n        /* \"#utility.yul\":8533:8550   */\n      add\n        /* \"#utility.yul\":8526:8573   */\n      mstore\n        /* \"#utility.yul\":8590:8721   */\n      tag_160\n        /* \"#utility.yul\":8716:8720   */\n      dup2\n        /* \"#utility.yul\":8590:8721   */\n      tag_88\n      jump\t// in\n    tag_160:\n        /* \"#utility.yul\":8582:8721   */\n      swap1\n      pop\n        /* \"#utility.yul\":8309:8728   */\n      swap2\n      swap1\n      pop\n      jump\t// out\n        /* \"#utility.yul\":8734:8907   */\n    tag_89:\n        /* \"#utility.yul\":8874:8899   */\n      0x54657374206661696c656420666f72204d434d58434956000000000000000000\n        /* \"#utility.yul\":8870:8871   */\n      0x00\n        /* \"#utility.yul\":8862:8868   */\n      dup3\n        /* \"#utility.yul\":8858:8872   */\n      add\n        /* \"#utility.yul\":8851:8900   */\n      mstore\n        /* \"#utility.yul\":8734:8907   */\n      pop\n      jump\t// out\n        /* \"#utility.yul\":8913:9279   */\n    tag_90:\n        /* \"#utility.yul\":9055:9058   */\n      0x00\n        /* \"#utility.yul\":9076:9143   */\n      tag_163\n        /* \"#utility.yul\":9140:9142   */\n      0x17\n        /* \"#utility.yul\":9135:9138   */\n      dup4\n        /* \"#utility.yul\":9076:9143   */\n      tag_72\n      jump\t// in\n    tag_163:\n        /* \"#utility.yul\":9069:9143   */\n      swap2\n      pop\n        /* \"#utility.yul\":9152:9245   */\n      tag_164\n        /* \"#utility.yul\":9241:9244   */\n      dup3\n        /* \"#utility.yul\":9152:9245   */\n      tag_89\n      jump\t// in\n    tag_164:\n        /* \"#utility.yul\":9270:9272   */\n      0x20\n        /* \"#utility.yul\":9265:9268   */\n      dup3\n        /* \"#utility.yul\":9261:9273   */\n      add\n        /* \"#utility.yul\":9254:9273   */\n      swap1\n      pop\n        /* \"#utility.yul\":8913:9279   */\n      swap2\n      swap1\n      pop\n      jump\t// out\n        /* \"#utility.yul\":9285:9704   */\n    tag_60:\n        /* \"#utility.yul\":9451:9455   */\n      0x00\n        /* \"#utility.yul\":9489:9491   */\n      0x20\n        /* \"#utility.yul\":9478:9487   */\n      dup3\n        /* \"#utility.yul\":9474:9492   */\n      add\n        /* \"#utility.yul\":9466:9492   */\n      swap1\n      pop\n        /* \"#utility.yul\":9538:9547   */\n      dup2\n        /* \"#utility.yul\":9532:9536   */\n      dup2\n        /* \"#utility.yul\":9528:9548   */\n      sub\n        /* \"#utility.yul\":9524:9525   */\n      0x00\n        /* \"#utility.yul\":9513:9522   */\n      dup4\n        /* \"#utility.yul\":9509:9526   */\n      add\n        /* \"#utility.yul\":9502:9549   */\n      mstore\n        /* \"#utility.yul\":9566:9697   */\n      tag_166\n        /* \"#utility.yul\":9692:9696   */\n      dup2\n        /* \"#utility.yul\":9566:9697   */\n      tag_90\n      jump\t// in\n    tag_166:\n        /* \"#utility.yul\":9558:9697   */\n      swap1\n      pop\n        /* \"#utility.yul\":9285:9704   */\n      swap2\n      swap1\n      pop\n      jump\t// out\n        /* \"#utility.yul\":9710:9985   */\n    tag_63:\n        /* \"#utility.yul\":9842:9845   */\n      0x00\n        /* \"#utility.yul\":9864:9959   */\n      tag_168\n        /* \"#utility.yul\":9955:9958   */\n      dup3\n        /* \"#utility.yul\":9946:9952   */\n      dup5\n        /* \"#utility.yul\":9864:9959   */\n      tag_79\n      jump\t// in\n    tag_168:\n        /* \"#utility.yul\":9857:9959   */\n      swap2\n      pop\n        /* \"#utility.yul\":9976:9979   */\n      dup2\n        /* \"#utility.yul\":9969:9979   */\n      swap1\n      pop\n        /* \"#utility.yul\":9710:9985   */\n      swap3\n      swap2\n      pop\n      pop\n      jump\t// out\n\n    auxdata: 0xa2646970667358221220371ee7bb7100fe00728ca1bc860f64ae6ebf9a754b0a00a205dc25ffface851a64736f6c634300081e0033\n}\n",
				"bytecode": {
					"linkReferences": {},
					"object": "6080604052348015600e575f5ffd5b50610cb78061001c5f395ff3fe608060405234801561000f575f5ffd5b5060043610610034575f3560e01c80630cbc513a14610038578063f8a8fd6d14610068575b5f5ffd5b610052600480360381019061004d9190610830565b610072565b60405161005f91906108cb565b60405180910390f35b6100706104fb565b005b6060600182101580156100875750610f9f8211155b6100c6576040517f08c379a00000000000000000000000000000000000000000000000000000000081526004016100bd9061095b565b60405180910390fd5b5f604051806101a001604052806040518060400160405280600181526020017f4d0000000000000000000000000000000000000000000000000000000000000081525081526020016040518060400160405280600281526020017f434d00000000000000000000000000000000000000000000000000000000000081525081526020016040518060400160405280600181526020017f440000000000000000000000000000000000000000000000000000000000000081525081526020016040518060400160405280600281526020017f434400000000000000000000000000000000000000000000000000000000000081525081526020016040518060400160405280600181526020017f430000000000000000000000000000000000000000000000000000000000000081525081526020016040518060400160405280600281526020017f584300000000000000000000000000000000000000000000000000000000000081525081526020016040518060400160405280600181526020017f4c0000000000000000000000000000000000000000000000000000000000000081525081526020016040518060400160405280600281526020017f584c00000000000000000000000000000000000000000000000000000000000081525081526020016040518060400160405280600181526020017f580000000000000000000000000000000000000000000000000000000000000081525081526020016040518060400160405280600281526020017f495800000000000000000000000000000000000000000000000000000000000081525081526020016040518060400160405280600181526020017f560000000000000000000000000000000000000000000000000000000000000081525081526020016040518060400160405280600281526020017f495600000000000000000000000000000000000000000000000000000000000081525081526020016040518060400160405280600181526020017f490000000000000000000000000000000000000000000000000000000000000081525081525090505f604051806101a001604052806103e8815260200161038481526020016101f48152602001610190815260200160648152602001605a81526020016032815260200160288152602001600a8152602001600981526020016005815260200160048152602001600181525090505f60405180602001604052805f81525090505f5f90505b600d8110156104ef575b8281600d811061047257610471610979565b5b602002015186106104e257818482600d811061049157610490610979565b5b60200201516040516020016104a79291906109e0565b60405160208183030381529060405291508281600d81106104cb576104ca610979565b5b6020020151866104db9190610a30565b955061045f565b8080600101915050610455565b50809350505050919050565b6105436105086003610072565b6040518060400160405280600481526020017f49494949000000000000000000000000000000000000000000000000000000008152506107a1565b610582576040517f08c379a000000000000000000000000000000000000000000000000000000000815260040161057990610aad565b60405180910390fd5b6105ca61058f6004610072565b6040518060400160405280600281526020017f49560000000000000000000000000000000000000000000000000000000000008152506107a1565b610609576040517f08c379a000000000000000000000000000000000000000000000000000000000815260040161060090610b15565b60405180910390fd5b6106516106166009610072565b6040518060400160405280600281526020017f49580000000000000000000000000000000000000000000000000000000000008152506107a1565b610690576040517f08c379a000000000000000000000000000000000000000000000000000000000815260040161068790610b7d565b60405180910390fd5b6106d861069d603a610072565b6040518060400160405280600581526020017f4c564949490000000000000000000000000000000000000000000000000000008152506107a1565b610717576040517f08c379a000000000000000000000000000000000000000000000000000000000815260040161070e90610be5565b60405180910390fd5b6107606107256107ca610072565b6040518060400160405280600781526020017f4d434d58434956000000000000000000000000000000000000000000000000008152506107a1565b61079f576040517f08c379a000000000000000000000000000000000000000000000000000000000815260040161079690610c4d565b60405180910390fd5b565b5f816040516020016107b39190610c6b565b60405160208183030381529060405280519060200120836040516020016107da9190610c6b565b6040516020818303038152906040528051906020012014905092915050565b5f5ffd5b5f819050919050565b61080f816107fd565b8114610819575f5ffd5b50565b5f8135905061082a81610806565b92915050565b5f60208284031215610845576108446107f9565b5b5f6108528482850161081c565b91505092915050565b5f81519050919050565b5f82825260208201905092915050565b8281835e5f83830152505050565b5f601f19601f8301169050919050565b5f61089d8261085b565b6108a78185610865565b93506108b7818560208601610875565b6108c081610883565b840191505092915050565b5f6020820190508181035f8301526108e38184610893565b905092915050565b7f4e756d626572206d757374206265206265747765656e203120616e64203339395f8201527f3900000000000000000000000000000000000000000000000000000000000000602082015250565b5f610945602183610865565b9150610950826108eb565b604082019050919050565b5f6020820190508181035f83015261097281610939565b9050919050565b7f4e487b71000000000000000000000000000000000000000000000000000000005f52603260045260245ffd5b5f81905092915050565b5f6109ba8261085b565b6109c481856109a6565b93506109d4818560208601610875565b80840191505092915050565b5f6109eb82856109b0565b91506109f782846109b0565b91508190509392505050565b7f4e487b71000000000000000000000000000000000000000000000000000000005f52601160045260245ffd5b5f610a3a826107fd565b9150610a45836107fd565b9250828203905081811115610a5d57610a5c610a03565b5b92915050565b7f54657374206661696c656420666f7220494949000000000000000000000000005f82015250565b5f610a97601383610865565b9150610aa282610a63565b602082019050919050565b5f6020820190508181035f830152610ac481610a8b565b9050919050565b7f54657374206661696c656420666f7220495600000000000000000000000000005f82015250565b5f610aff601283610865565b9150610b0a82610acb565b602082019050919050565b5f6020820190508181035f830152610b2c81610af3565b9050919050565b7f54657374206661696c656420666f7220495800000000000000000000000000005f82015250565b5f610b67601283610865565b9150610b7282610b33565b602082019050919050565b5f6020820190508181035f830152610b9481610b5b565b9050919050565b7f54657374206661696c656420666f72204c5649494900000000000000000000005f82015250565b5f610bcf601583610865565b9150610bda82610b9b565b602082019050919050565b5f6020820190508181035f830152610bfc81610bc3565b9050919050565b7f54657374206661696c656420666f72204d434d584349560000000000000000005f82015250565b5f610c37601783610865565b9150610c4282610c03565b602082019050919050565b5f6020820190508181035f830152610c6481610c2b565b9050919050565b5f610c7682846109b0565b91508190509291505056fea2646970667358221220371ee7bb7100fe00728ca1bc860f64ae6ebf9a754b0a00a205dc25ffface851a64736f6c634300081e0033",
					"opcodes": "PUSH1 0x80 PUSH1 0x40 MSTORE CALLVALUE DUP1 ISZERO PUSH1 0xE JUMPI PUSH0 PUSH0 REVERT JUMPDEST POP PUSH2 0xCB7 DUP1 PUSH2 0x1C PUSH0 CODECOPY PUSH0 RETURN INVALID PUSH1 0x80 PUSH1 0x40 MSTORE CALLVALUE DUP1 ISZERO PUSH2 0xF JUMPI PUSH0 PUSH0 REVERT JUMPDEST POP PUSH1 0x4 CALLDATASIZE LT PUSH2 0x34 JUMPI PUSH0 CALLDATALOAD PUSH1 0xE0 SHR DUP1 PUSH4 0xCBC513A EQ PUSH2 0x38 JUMPI DUP1 PUSH4 0xF8A8FD6D EQ PUSH2 0x68 JUMPI JUMPDEST PUSH0 PUSH0 REVERT JUMPDEST PUSH2 0x52 PUSH1 0x4 DUP1 CALLDATASIZE SUB DUP2 ADD SWAP1 PUSH2 0x4D SWAP2 SWAP1 PUSH2 0x830 JUMP JUMPDEST PUSH2 0x72 JUMP JUMPDEST PUSH1 0x40 MLOAD PUSH2 0x5F SWAP2 SWAP1 PUSH2 0x8CB JUMP JUMPDEST PUSH1 0x40 MLOAD DUP1 SWAP2 SUB SWAP1 RETURN JUMPDEST PUSH2 0x70 PUSH2 0x4FB JUMP JUMPDEST STOP JUMPDEST PUSH1 0x60 PUSH1 0x1 DUP3 LT ISZERO DUP1 ISZERO PUSH2 0x87 JUMPI POP PUSH2 0xF9F DUP3 GT ISZERO JUMPDEST PUSH2 0xC6 JUMPI PUSH1 0x40 MLOAD PUSH32 0x8C379A000000000000000000000000000000000000000000000000000000000 DUP2 MSTORE PUSH1 0x4 ADD PUSH2 0xBD SWAP1 PUSH2 0x95B JUMP JUMPDEST PUSH1 0x40 MLOAD DUP1 SWAP2 SUB SWAP1 REVERT JUMPDEST PUSH0 PUSH1 0x40 MLOAD DUP1 PUSH2 0x1A0 ADD PUSH1 0x40 MSTORE DUP1 PUSH1 0x40 MLOAD DUP1 PUSH1 0x40 ADD PUSH1 0x40 MSTORE DUP1 PUSH1 0x1 DUP2 MSTORE PUSH1 0x20 ADD PUSH32 0x4D00000000000000000000000000000000000000000000000000000000000000 DUP2 MSTORE POP DUP2 MSTORE PUSH1 0x20 ADD PUSH1 0x40 MLOAD DUP1 PUSH1 0x40 ADD PUSH1 0x40 MSTORE DUP1 PUSH1 0x2 DUP2 MSTORE PUSH1 0x20 ADD PUSH32 0x434D000000000000000000000000000000000000000000000000000000000000 DUP2 MSTORE POP DUP2 MSTORE PUSH1 0x20 ADD PUSH1 0x40 MLOAD DUP1 PUSH1 0x40 ADD PUSH1 0x40 MSTORE DUP1 PUSH1 0x1 DUP2 MSTORE PUSH1 0x20 ADD PUSH32 0x4400000000000000000000000000000000000000000000000000000000000000 DUP2 MSTORE POP DUP2 MSTORE PUSH1 0x20 ADD PUSH1 0x40 MLOAD DUP1 PUSH1 0x40 ADD PUSH1 0x40 MSTORE DUP1 PUSH1 0x2 DUP2 MSTORE PUSH1 0x20 ADD PUSH32 0x4344000000000000000000000000000000000000000000000000000000000000 DUP2 MSTORE POP DUP2 MSTORE PUSH1 0x20 ADD PUSH1 0x40 MLOAD DUP1 PUSH1 0x40 ADD PUSH1 0x40 MSTORE DUP1 PUSH1 0x1 DUP2 MSTORE PUSH1 0x20 ADD PUSH32 0x4300000000000000000000000000000000000000000000000000000000000000 DUP2 MSTORE POP DUP2 MSTORE PUSH1 0x20 ADD PUSH1 0x40 MLOAD DUP1 PUSH1 0x40 ADD PUSH1 0x40 MSTORE DUP1 PUSH1 0x2 DUP2 MSTORE PUSH1 0x20 ADD PUSH32 0x5843000000000000000000000000000000000000000000000000000000000000 DUP2 MSTORE POP DUP2 MSTORE PUSH1 0x20 ADD PUSH1 0x40 MLOAD DUP1 PUSH1 0x40 ADD PUSH1 0x40 MSTORE DUP1 PUSH1 0x1 DUP2 MSTORE PUSH1 0x20 ADD PUSH32 0x4C00000000000000000000000000000000000000000000000000000000000000 DUP2 MSTORE POP DUP2 MSTORE PUSH1 0x20 ADD PUSH1 0x40 MLOAD DUP1 PUSH1 0x40 ADD PUSH1 0x40 MSTORE DUP1 PUSH1 0x2 DUP2 MSTORE PUSH1 0x20 ADD PUSH32 0x584C000000000000000000000000000000000000000000000000000000000000 DUP2 MSTORE POP DUP2 MSTORE PUSH1 0x20 ADD PUSH1 0x40 MLOAD DUP1 PUSH1 0x40 ADD PUSH1 0x40 MSTORE DUP1 PUSH1 0x1 DUP2 MSTORE PUSH1 0x20 ADD PUSH32 0x5800000000000000000000000000000000000000000000000000000000000000 DUP2 MSTORE POP DUP2 MSTORE PUSH1 0x20 ADD PUSH1 0x40 MLOAD DUP1 PUSH1 0x40 ADD PUSH1 0x40 MSTORE DUP1 PUSH1 0x2 DUP2 MSTORE PUSH1 0x20 ADD PUSH32 0x4958000000000000000000000000000000000000000000000000000000000000 DUP2 MSTORE POP DUP2 MSTORE PUSH1 0x20 ADD PUSH1 0x40 MLOAD DUP1 PUSH1 0x40 ADD PUSH1 0x40 MSTORE DUP1 PUSH1 0x1 DUP2 MSTORE PUSH1 0x20 ADD PUSH32 0x5600000000000000000000000000000000000000000000000000000000000000 DUP2 MSTORE POP DUP2 MSTORE PUSH1 0x20 ADD PUSH1 0x40 MLOAD DUP1 PUSH1 0x40 ADD PUSH1 0x40 MSTORE DUP1 PUSH1 0x2 DUP2 MSTORE PUSH1 0x20 ADD PUSH32 0x4956000000000000000000000000000000000000000000000000000000000000 DUP2 MSTORE POP DUP2 MSTORE PUSH1 0x20 ADD PUSH1 0x40 MLOAD DUP1 PUSH1 0x40 ADD PUSH1 0x40 MSTORE DUP1 PUSH1 0x1 DUP2 MSTORE PUSH1 0x20 ADD PUSH32 0x4900000000000000000000000000000000000000000000000000000000000000 DUP2 MSTORE POP DUP2 MSTORE POP SWAP1 POP PUSH0 PUSH1 0x40 MLOAD DUP1 PUSH2 0x1A0 ADD PUSH1 0x40 MSTORE DUP1 PUSH2 0x3E8 DUP2 MSTORE PUSH1 0x20 ADD PUSH2 0x384 DUP2 MSTORE PUSH1 0x20 ADD PUSH2 0x1F4 DUP2 MSTORE PUSH1 0x20 ADD PUSH2 0x190 DUP2 MSTORE PUSH1 0x20 ADD PUSH1 0x64 DUP2 MSTORE PUSH1 0x20 ADD PUSH1 0x5A DUP2 MSTORE PUSH1 0x20 ADD PUSH1 0x32 DUP2 MSTORE PUSH1 0x20 ADD PUSH1 0x28 DUP2 MSTORE PUSH1 0x20 ADD PUSH1 0xA DUP2 MSTORE PUSH1 0x20 ADD PUSH1 0x9 DUP2 MSTORE PUSH1 0x20 ADD PUSH1 0x5 DUP2 MSTORE PUSH1 0x20 ADD PUSH1 0x4 DUP2 MSTORE PUSH1 0x20 ADD PUSH1 0x1 DUP2 MSTORE POP SWAP1 POP PUSH0 PUSH1 0x40 MLOAD DUP1 PUSH1 0x20 ADD PUSH1 0x40 MSTORE DUP1 PUSH0 DUP2 MSTORE POP SWAP1 POP PUSH0 PUSH0 SWAP1 POP JUMPDEST PUSH1 0xD DUP2 LT ISZERO PUSH2 0x4EF JUMPI JUMPDEST DUP3 DUP2 PUSH1 0xD DUP2 LT PUSH2 0x472 JUMPI PUSH2 0x471 PUSH2 0x979 JUMP JUMPDEST JUMPDEST PUSH1 0x20 MUL ADD MLOAD DUP7 LT PUSH2 0x4E2 JUMPI DUP2 DUP5 DUP3 PUSH1 0xD DUP2 LT PUSH2 0x491 JUMPI PUSH2 0x490 PUSH2 0x979 JUMP JUMPDEST JUMPDEST PUSH1 0x20 MUL ADD MLOAD PUSH1 0x40 MLOAD PUSH1 0x20 ADD PUSH2 0x4A7 SWAP3 SWAP2 SWAP1 PUSH2 0x9E0 JUMP JUMPDEST PUSH1 0x40 MLOAD PUSH1 0x20 DUP2 DUP4 SUB SUB DUP2 MSTORE SWAP1 PUSH1 0x40 MSTORE SWAP2 POP DUP3 DUP2 PUSH1 0xD DUP2 LT PUSH2 0x4CB JUMPI PUSH2 0x4CA PUSH2 0x979 JUMP JUMPDEST JUMPDEST PUSH1 0x20 MUL ADD MLOAD DUP7 PUSH2 0x4DB SWAP2 SWAP1 PUSH2 0xA30 JUMP JUMPDEST SWAP6 POP PUSH2 0x45F JUMP JUMPDEST DUP1 DUP1 PUSH1 0x1 ADD SWAP2 POP POP PUSH2 0x455 JUMP JUMPDEST POP DUP1 SWAP4 POP POP POP POP SWAP2 SWAP1 POP JUMP JUMPDEST PUSH2 0x543 PUSH2 0x508 PUSH1 0x3 PUSH2 0x72 JUMP JUMPDEST PUSH1 0x40 MLOAD DUP1 PUSH1 0x40 ADD PUSH1 0x40 MSTORE DUP1 PUSH1 0x4 DUP2 MSTORE PUSH1 0x20 ADD PUSH32 0x4949494900000000000000000000000000000000000000000000000000000000 DUP2 MSTORE POP PUSH2 0x7A1 JUMP JUMPDEST PUSH2 0x582 JUMPI PUSH1 0x40 MLOAD PUSH32 0x8C379A000000000000000000000000000000000000000000000000000000000 DUP2 MSTORE PUSH1 0x4 ADD PUSH2 0x579 SWAP1 PUSH2 0xAAD JUMP JUMPDEST PUSH1 0x40 MLOAD DUP1 SWAP2 SUB SWAP1 REVERT JUMPDEST PUSH2 0x5CA PUSH2 0x58F PUSH1 0x4 PUSH2 0x72 JUMP JUMPDEST PUSH1 0x40 MLOAD DUP1 PUSH1 0x40 ADD PUSH1 0x40 MSTORE DUP1 PUSH1 0x2 DUP2 MSTORE PUSH1 0x20 ADD PUSH32 0x4956000000000000000000000000000000000000000000000000000000000000 DUP2 MSTORE POP PUSH2 0x7A1 JUMP JUMPDEST PUSH2 0x609 JUMPI PUSH1 0x40 MLOAD PUSH32 0x8C379A000000000000000000000000000000000000000000000000000000000 DUP2 MSTORE PUSH1 0x4 ADD PUSH2 0x600 SWAP1 PUSH2 0xB15 JUMP JUMPDEST PUSH1 0x40 MLOAD DUP1 SWAP2 SUB SWAP1 REVERT JUMPDEST PUSH2 0x651 PUSH2 0x616 PUSH1 0x9 PUSH2 0x72 JUMP JUMPDEST PUSH1 0x40 MLOAD DUP1 PUSH1 0x40 ADD PUSH1 0x40 MSTORE DUP1 PUSH1 0x2 DUP2 MSTORE PUSH1 0x20 ADD PUSH32 0x4958000000000000000000000000000000000000000000000000000000000000 DUP2 MSTORE POP PUSH2 0x7A1 JUMP JUMPDEST PUSH2 0x690 JUMPI PUSH1 0x40 MLOAD PUSH32 0x8C379A000000000000000000000000000000000000000000000000000000000 DUP2 MSTORE PUSH1 0x4 ADD PUSH2 0x687 SWAP1 PUSH2 0xB7D JUMP JUMPDEST PUSH1 0x40 MLOAD DUP1 SWAP2 SUB SWAP1 REVERT JUMPDEST PUSH2 0x6D8 PUSH2 0x69D PUSH1 0x3A PUSH2 0x72 JUMP JUMPDEST PUSH1 0x40 MLOAD DUP1 PUSH1 0x40 ADD PUSH1 0x40 MSTORE DUP1 PUSH1 0x5 DUP2 MSTORE PUSH1 0x20 ADD PUSH32 0x4C56494949000000000000000000000000000000000000000000000000000000 DUP2 MSTORE POP PUSH2 0x7A1 JUMP JUMPDEST PUSH2 0x717 JUMPI PUSH1 0x40 MLOAD PUSH32 0x8C379A000000000000000000000000000000000000000000000000000000000 DUP2 MSTORE PUSH1 0x4 ADD PUSH2 0x70E SWAP1 PUSH2 0xBE5 JUMP JUMPDEST PUSH1 0x40 MLOAD DUP1 SWAP2 SUB SWAP1 REVERT JUMPDEST PUSH2 0x760 PUSH2 0x725 PUSH2 0x7CA PUSH2 0x72 JUMP JUMPDEST PUSH1 0x40 MLOAD DUP1 PUSH1 0x40 ADD PUSH1 0x40 MSTORE DUP1 PUSH1 0x7 DUP2 MSTORE PUSH1 0x20 ADD PUSH32 0x4D434D5843495600000000000000000000000000000000000000000000000000 DUP2 MSTORE POP PUSH2 0x7A1 JUMP JUMPDEST PUSH2 0x79F JUMPI PUSH1 0x40 MLOAD PUSH32 0x8C379A000000000000000000000000000000000000000000000000000000000 DUP2 MSTORE PUSH1 0x4 ADD PUSH2 0x796 SWAP1 PUSH2 0xC4D JUMP JUMPDEST PUSH1 0x40 MLOAD DUP1 SWAP2 SUB SWAP1 REVERT JUMPDEST JUMP JUMPDEST PUSH0 DUP2 PUSH1 0x40 MLOAD PUSH1 0x20 ADD PUSH2 0x7B3 SWAP2 SWAP1 PUSH2 0xC6B JUMP JUMPDEST PUSH1 0x40 MLOAD PUSH1 0x20 DUP2 DUP4 SUB SUB DUP2 MSTORE SWAP1 PUSH1 0x40 MSTORE DUP1 MLOAD SWAP1 PUSH1 0x20 ADD KECCAK256 DUP4 PUSH1 0x40 MLOAD PUSH1 0x20 ADD PUSH2 0x7DA SWAP2 SWAP1 PUSH2 0xC6B JUMP JUMPDEST PUSH1 0x40 MLOAD PUSH1 0x20 DUP2 DUP4 SUB SUB DUP2 MSTORE SWAP1 PUSH1 0x40 MSTORE DUP1 MLOAD SWAP1 PUSH1 0x20 ADD KECCAK256 EQ SWAP1 POP SWAP3 SWAP2 POP POP JUMP JUMPDEST PUSH0 PUSH0 REVERT JUMPDEST PUSH0 DUP2 SWAP1 POP SWAP2 SWAP1 POP JUMP JUMPDEST PUSH2 0x80F DUP2 PUSH2 0x7FD JUMP JUMPDEST DUP2 EQ PUSH2 0x819 JUMPI PUSH0 PUSH0 REVERT JUMPDEST POP JUMP JUMPDEST PUSH0 DUP2 CALLDATALOAD SWAP1 POP PUSH2 0x82A DUP2 PUSH2 0x806 JUMP JUMPDEST SWAP3 SWAP2 POP POP JUMP JUMPDEST PUSH0 PUSH1 0x20 DUP3 DUP5 SUB SLT ISZERO PUSH2 0x845 JUMPI PUSH2 0x844 PUSH2 0x7F9 JUMP JUMPDEST JUMPDEST PUSH0 PUSH2 0x852 DUP5 DUP3 DUP6 ADD PUSH2 0x81C JUMP JUMPDEST SWAP2 POP POP SWAP3 SWAP2 POP POP JUMP JUMPDEST PUSH0 DUP2 MLOAD SWAP1 POP SWAP2 SWAP1 POP JUMP JUMPDEST PUSH0 DUP3 DUP3 MSTORE PUSH1 0x20 DUP3 ADD SWAP1 POP SWAP3 SWAP2 POP POP JUMP JUMPDEST DUP3 DUP2 DUP4 MCOPY PUSH0 DUP4 DUP4 ADD MSTORE POP POP POP JUMP JUMPDEST PUSH0 PUSH1 0x1F NOT PUSH1 0x1F DUP4 ADD AND SWAP1 POP SWAP2 SWAP1 POP JUMP JUMPDEST PUSH0 PUSH2 0x89D DUP3 PUSH2 0x85B JUMP JUMPDEST PUSH2 0x8A7 DUP2 DUP6 PUSH2 0x865 JUMP JUMPDEST SWAP4 POP PUSH2 0x8B7 DUP2 DUP6 PUSH1 0x20 DUP7 ADD PUSH2 0x875 JUMP JUMPDEST PUSH2 0x8C0 DUP2 PUSH2 0x883 JUMP JUMPDEST DUP5 ADD SWAP2 POP POP SWAP3 SWAP2 POP POP JUMP JUMPDEST PUSH0 PUSH1 0x20 DUP3 ADD SWAP1 POP DUP2 DUP2 SUB PUSH0 DUP4 ADD MSTORE PUSH2 0x8E3 DUP2 DUP5 PUSH2 0x893 JUMP JUMPDEST SWAP1 POP SWAP3 SWAP2 POP POP JUMP JUMPDEST PUSH32 0x4E756D626572206D757374206265206265747765656E203120616E6420333939 PUSH0 DUP3 ADD MSTORE PUSH32 0x3900000000000000000000000000000000000000000000000000000000000000 PUSH1 0x20 DUP3 ADD MSTORE POP JUMP JUMPDEST PUSH0 PUSH2 0x945 PUSH1 0x21 DUP4 PUSH2 0x865 JUMP JUMPDEST SWAP2 POP PUSH2 0x950 DUP3 PUSH2 0x8EB JUMP JUMPDEST PUSH1 0x40 DUP3 ADD SWAP1 POP SWAP2 SWAP1 POP JUMP JUMPDEST PUSH0 PUSH1 0x20 DUP3 ADD SWAP1 POP DUP2 DUP2 SUB PUSH0 DUP4 ADD MSTORE PUSH2 0x972 DUP2 PUSH2 0x939 JUMP JUMPDEST SWAP1 POP SWAP2 SWAP1 POP JUMP JUMPDEST PUSH32 0x4E487B7100000000000000000000000000000000000000000000000000000000 PUSH0 MSTORE PUSH1 0x32 PUSH1 0x4 MSTORE PUSH1 0x24 PUSH0 REVERT JUMPDEST PUSH0 DUP2 SWAP1 POP SWAP3 SWAP2 POP POP JUMP JUMPDEST PUSH0 PUSH2 0x9BA DUP3 PUSH2 0x85B JUMP JUMPDEST PUSH2 0x9C4 DUP2 DUP6 PUSH2 0x9A6 JUMP JUMPDEST SWAP4 POP PUSH2 0x9D4 DUP2 DUP6 PUSH1 0x20 DUP7 ADD PUSH2 0x875 JUMP JUMPDEST DUP1 DUP5 ADD SWAP2 POP POP SWAP3 SWAP2 POP POP JUMP JUMPDEST PUSH0 PUSH2 0x9EB DUP3 DUP6 PUSH2 0x9B0 JUMP JUMPDEST SWAP2 POP PUSH2 0x9F7 DUP3 DUP5 PUSH2 0x9B0 JUMP JUMPDEST SWAP2 POP DUP2 SWAP1 POP SWAP4 SWAP3 POP POP POP JUMP JUMPDEST PUSH32 0x4E487B7100000000000000000000000000000000000000000000000000000000 PUSH0 MSTORE PUSH1 0x11 PUSH1 0x4 MSTORE PUSH1 0x24 PUSH0 REVERT JUMPDEST PUSH0 PUSH2 0xA3A DUP3 PUSH2 0x7FD JUMP JUMPDEST SWAP2 POP PUSH2 0xA45 DUP4 PUSH2 0x7FD JUMP JUMPDEST SWAP3 POP DUP3 DUP3 SUB SWAP1 POP DUP2 DUP2 GT ISZERO PUSH2 0xA5D JUMPI PUSH2 0xA5C PUSH2 0xA03 JUMP JUMPDEST JUMPDEST SWAP3 SWAP2 POP POP JUMP JUMPDEST PUSH32 0x54657374206661696C656420666F722049494900000000000000000000000000 PUSH0 DUP3 ADD MSTORE POP JUMP JUMPDEST PUSH0 PUSH2 0xA97 PUSH1 0x13 DUP4 PUSH2 0x865 JUMP JUMPDEST SWAP2 POP PUSH2 0xAA2 DUP3 PUSH2 0xA63 JUMP JUMPDEST PUSH1 0x20 DUP3 ADD SWAP1 POP SWAP2 SWAP1 POP JUMP JUMPDEST PUSH0 PUSH1 0x20 DUP3 ADD SWAP1 POP DUP2 DUP2 SUB PUSH0 DUP4 ADD MSTORE PUSH2 0xAC4 DUP2 PUSH2 0xA8B JUMP JUMPDEST SWAP1 POP SWAP2 SWAP1 POP JUMP JUMPDEST PUSH32 0x54657374206661696C656420666F722049560000000000000000000000000000 PUSH0 DUP3 ADD MSTORE POP JUMP JUMPDEST PUSH0 PUSH2 0xAFF PUSH1 0x12 DUP4 PUSH2 0x865 JUMP JUMPDEST SWAP2 POP PUSH2 0xB0A DUP3 PUSH2 0xACB JUMP JUMPDEST PUSH1 0x20 DUP3 ADD SWAP1 POP SWAP2 SWAP1 POP JUMP JUMPDEST PUSH0 PUSH1 0x20 DUP3 ADD SWAP1 POP DUP2 DUP2 SUB PUSH0 DUP4 ADD MSTORE PUSH2 0xB2C DUP2 PUSH2 0xAF3 JUMP JUMPDEST SWAP1 POP SWAP2 SWAP1 POP JUMP JUMPDEST PUSH32 0x54657374206661696C656420666F722049580000000000000000000000000000 PUSH0 DUP3 ADD MSTORE POP JUMP JUMPDEST PUSH0 PUSH2 0xB67 PUSH1 0x12 DUP4 PUSH2 0x865 JUMP JUMPDEST SWAP2 POP PUSH2 0xB72 DUP3 PUSH2 0xB33 JUMP JUMPDEST PUSH1 0x20 DUP3 ADD SWAP1 POP SWAP2 SWAP1 POP JUMP JUMPDEST PUSH0 PUSH1 0x20 DUP3 ADD SWAP1 POP DUP2 DUP2 SUB PUSH0 DUP4 ADD MSTORE PUSH2 0xB94 DUP2 PUSH2 0xB5B JUMP JUMPDEST SWAP1 POP SWAP2 SWAP1 POP JUMP JUMPDEST PUSH32 0x54657374206661696C656420666F72204C564949490000000000000000000000 PUSH0 DUP3 ADD MSTORE POP JUMP JUMPDEST PUSH0 PUSH2 0xBCF PUSH1 0x15 DUP4 PUSH2 0x865 JUMP JUMPDEST SWAP2 POP PUSH2 0xBDA DUP3 PUSH2 0xB9B JUMP JUMPDEST PUSH1 0x20 DUP3 ADD SWAP1 POP SWAP2 SWAP1 POP JUMP JUMPDEST PUSH0 PUSH1 0x20 DUP3 ADD SWAP1 POP DUP2 DUP2 SUB PUSH0 DUP4 ADD MSTORE PUSH2 0xBFC DUP2 PUSH2 0xBC3 JUMP JUMPDEST SWAP1 POP SWAP2 SWAP1 POP JUMP JUMPDEST PUSH32 0x54657374206661696C656420666F72204D434D58434956000000000000000000 PUSH0 DUP3 ADD MSTORE POP JUMP JUMPDEST PUSH0 PUSH2 0xC37 PUSH1 0x17 DUP4 PUSH2 0x865 JUMP JUMPDEST SWAP2 POP PUSH2 0xC42 DUP3 PUSH2 0xC03 JUMP JUMPDEST PUSH1 0x20 DUP3 ADD SWAP1 POP SWAP2 SWAP1 POP JUMP JUMPDEST PUSH0 PUSH1 0x20 DUP3 ADD SWAP1 POP DUP2 DUP2 SUB PUSH0 DUP4 ADD MSTORE PUSH2 0xC64 DUP2 PUSH2 0xC2B JUMP JUMPDEST SWAP1 POP SWAP2 SWAP1 POP JUMP JUMPDEST PUSH0 PUSH2 0xC76 DUP3 DUP5 PUSH2 0x9B0 JUMP JUMPDEST SWAP2 POP DUP2 SWAP1 POP SWAP3 SWAP2 POP POP JUMP INVALID LOG2 PUSH5 0x6970667358 0x22 SLT KECCAK256 CALLDATACOPY 0x1E SWAPN 0xBB PUSH18 0xFE00728CA1BC860F64AE6EBF9A754B0A00 LOG2 SDIV 0xDC 0x25 SELFDESTRUCT STATICCALL 0xCE DUP6 BYTE PUSH5 0x736F6C6343 STOP ADDMOD 0x1E STOP CALLER "
				},
				"gasEstimates": {
					"creation": {
						"codeDepositCost": "651000",
						"executionCost": "681",
						"totalCost": "651681"
					},
					"external": {
						"intToRoman(uint256)": "infinite",
						"test()": "infinite"
					},
					"internal": {
						"compareString(string memory,string memory)": "infinite"
					}
				},
				"methodIdentifiers": {
					"intToRoman(uint256)": "0cbc513a",
					"test()": "f8a8fd6d"
				}
			},
			"storageLayout": {
				"storage": [],
				"types": null
			},
			"userdoc": {
				"kind": "user",
				"methods": {},
				"version": 1
			}
		}
	}
}