{
	"data": {
		"bytecode": {
			"linkReferences": {},
			"object": "6080604052348015600e575f5ffd5b5061118b8061001c5f395ff3fe608060405234801561000f575f5ffd5b5060043610610086575f3560e01c8063cfdd605d11610059578063cfdd605d14610114578063d9f1ad2d14610132578063e23e74c214610162578063f7392e1f1461018057610086565b80630be7705e1461008a57806333034c2c146100a8578063b12601da146100c6578063b3d0343e146100f6575b5f5ffd5b61009261019e565b60405161009f9190610b47565b60405180910390f35b6100b06101c5565b6040516100bd9190610c05565b60405180910390f35b6100e060048036038101906100db9190610da9565b6103a4565b6040516100ed9190610b47565b60405180910390f35b6100fe6104bc565b60405161010b9190610e82565b60405180910390f35b61011c61067f565b6040516101299190610f1a565b60405180910390f35b61014c60048036038101906101479190610f33565b6107f2565b6040516101599190610f78565b60405180910390f35b61016a61081e565b6040516101779190610c05565b60405180910390f35b61018861092f565b6040516101959190610ff1565b60405180910390f35b5f7fffffffffffffffffffffffffffffffffffffffffffffffffffffffffffffffff905090565b6101cd610ac9565b5f600867ffffffffffffffff8111156101e9576101e8610c43565b5b6040519080825280602002602001820160405280156102175781602001602082028036833780820191505090505b5090506001815f8151811061022f5761022e611011565b5b60200260200101818152505060038160018151811061025157610250611011565b5b60200260200101818152505060058160028151811061027357610272611011565b5b60200260200101818152505060078160038151811061029557610294611011565b5b6020026020010181815250506009816004815181106102b7576102b6611011565b5b602002602001018181525050600b816005815181106102d9576102d8611011565b5b602002602001018181525050600d816006815181106102fb576102fa611011565b5b602002602001018181525050600f8160078151811061031d5761031c611011565b5b6020026020010181815250506103348160016103a4565b825f6003811061034757610346611011565b5b60200201818152505061035b8160096103a4565b8260016003811061036f5761036e611011565b5b60200201818152505061038381600f6103a4565b8260026003811061039757610396611011565b5b6020020181815250505090565b5f5f8351036103d5577fffffffffffffffffffffffffffffffffffffffffffffffffffffffffffffffff90506104b6565b5f5f90505f600185516103e8919061106b565b90505b808211610490575f60028383610401919061106b565b61040b91906110cb565b8361041691906110fb565b90508486828151811061042c5761042b611011565b5b602002602001015103610444578093505050506104b6565b8486828151811061045857610457611011565b5b6020026020010151101561047a5760018161047391906110fb565b925061048a565b600181610487919061106b565b91505b506103eb565b7fffffffffffffffffffffffffffffffffffffffffffffffffffffffffffffffff925050505b92915050565b6104c4610aeb565b5f600667ffffffffffffffff8111156104e0576104df610c43565b5b60405190808252806020026020018201604052801561050e5781602001602082028036833780820191505090505b509050600a815f8151811061052657610525611011565b5b60200260200101818152505060148160018151811061054857610547611011565b5b602002602001018181525050601e8160028151811061056a57610569611011565b5b60200260200101818152505060288160038151811061058c5761058b611011565b5b6020026020010181815250506032816004815181106105ae576105ad611011565b5b602002602001018181525050603c816005815181106105d0576105cf611011565b5b6020026020010181815250506105e781600a6103a4565b825f600481106105fa576105f9611011565b5b60200201818152505061060e81601e6103a4565b8260016004811061062257610621611011565b5b60200201818152505061063681603c6103a4565b8260026004811061064a57610649611011565b5b60200201818152505061065e8160636103a4565b8260036004811061067257610671611011565b5b6020020181815250505090565b610687610b0d565b5f600667ffffffffffffffff8111156106a3576106a2610c43565b5b6040519080825280602002602001820160405280156106d15781602001602082028036833780820191505090505b5090506001815f815181106106e9576106e8611011565b5b60200260200101818152505060028160018151811061070b5761070a611011565b5b60200260200101818152505060028160028151811061072d5761072c611011565b5b60200260200101818152505060028160038151811061074f5761074e611011565b5b60200260200101818152505060038160048151811061077157610770611011565b5b60200260200101818152505060048160058151811061079357610792611011565b5b6020026020010181815250506107aa8160026103a4565b825f600281106107bd576107bc611011565b5b6020020181815250506107d18160056103a4565b826001600281106107e5576107e4611011565b5b6020020181815250505090565b5f7fffffffffffffffffffffffffffffffffffffffffffffffffffffffffffffffff8214159050919050565b610826610ac9565b5f600167ffffffffffffffff81111561084257610841610c43565b5b6040519080825280602002602001820160405280156108705781602001602082028036833780820191505090505b5090506005815f8151811061088857610887611011565b5b60200260200101818152505061089f8160056103a4565b825f600381106108b2576108b1611011565b5b60200201818152505061090e5f67ffffffffffffffff8111156108d8576108d7610c43565b5b6040519080825280602002602001820160405280156109065781602001602082028036833780820191505090505b5060056103a4565b8260026003811061092257610921611011565b5b6020020181815250505090565b60605f600567ffffffffffffffff81111561094d5761094c610c43565b5b60405190808252806020026020018201604052801561097b5781602001602082028036833780820191505090505b5090506064815f8151811061099357610992611011565b5b60200260200101818152505060c8816001815181106109b5576109b4611011565b5b60200260200101818152505061012c816002815181106109d8576109d7611011565b5b602002602001018181525050610190816003815181106109fb576109fa611011565b5b6020026020010181815250506101f481600481518110610a1e57610a1d611011565b5b6020026020010181815250505f610a378261012c6103a4565b90505f610a458360fa6103a4565b9050610a50826107f2565b8015610a625750610a60816107f2565b155b15610a8a5760405180606001604052806027815260200161112f602791399350505050610ac6565b6040518060400160405280600f81526020017fe6b58be8af95e5a4b1e8b4a5efbc81000000000000000000000000000000000081525093505050505b90565b6040518060600160405280600390602082028036833780820191505090505090565b6040518060800160405280600490602082028036833780820191505090505090565b6040518060400160405280600290602082028036833780820191505090505090565b5f819050919050565b610b4181610b2f565b82525050565b5f602082019050610b5a5f830184610b38565b92915050565b5f60039050919050565b5f81905092915050565b5f819050919050565b610b8681610b2f565b82525050565b5f610b978383610b7d565b60208301905092915050565b5f602082019050919050565b610bb881610b60565b610bc28184610b6a565b9250610bcd82610b74565b805f5b83811015610bfd578151610be48782610b8c565b9650610bef83610ba3565b925050600181019050610bd0565b505050505050565b5f606082019050610c185f830184610baf565b92915050565b5f604051905090565b5f5ffd5b5f5ffd5b5f5ffd5b5f601f19601f8301169050919050565b7f4e487b71000000000000000000000000000000000000000000000000000000005f52604160045260245ffd5b610c7982610c33565b810181811067ffffffffffffffff82111715610c9857610c97610c43565b5b80604052505050565b5f610caa610c1e565b9050610cb68282610c70565b919050565b5f67ffffffffffffffff821115610cd557610cd4610c43565b5b602082029050602081019050919050565b5f5ffd5b610cf381610b2f565b8114610cfd575f5ffd5b50565b5f81359050610d0e81610cea565b92915050565b5f610d26610d2184610cbb565b610ca1565b90508083825260208201905060208402830185811115610d4957610d48610ce6565b5b835b81811015610d725780610d5e8882610d00565b845260208401935050602081019050610d4b565b5050509392505050565b5f82601f830112610d9057610d8f610c2f565b5b8135610da0848260208601610d14565b91505092915050565b5f5f60408385031215610dbf57610dbe610c27565b5b5f83013567ffffffffffffffff811115610ddc57610ddb610c2b565b5b610de885828601610d7c565b9250506020610df985828601610d00565b9150509250929050565b5f60049050919050565b5f81905092915050565b5f819050919050565b5f602082019050919050565b610e3581610e03565b610e3f8184610e0d565b9250610e4a82610e17565b805f5b83811015610e7a578151610e618782610b8c565b9650610e6c83610e20565b925050600181019050610e4d565b505050505050565b5f608082019050610e955f830184610e2c565b92915050565b5f60029050919050565b5f81905092915050565b5f819050919050565b5f602082019050919050565b610ecd81610e9b565b610ed78184610ea5565b9250610ee282610eaf565b805f5b83811015610f12578151610ef98782610b8c565b9650610f0483610eb8565b925050600181019050610ee5565b505050505050565b5f604082019050610f2d5f830184610ec4565b92915050565b5f60208284031215610f4857610f47610c27565b5b5f610f5584828501610d00565b91505092915050565b5f8115159050919050565b610f7281610f5e565b82525050565b5f602082019050610f8b5f830184610f69565b92915050565b5f81519050919050565b5f82825260208201905092915050565b8281835e5f83830152505050565b5f610fc382610f91565b610fcd8185610f9b565b9350610fdd818560208601610fab565b610fe681610c33565b840191505092915050565b5f6020820190508181035f8301526110098184610fb9565b905092915050565b7f4e487b71000000000000000000000000000000000000000000000000000000005f52603260045260245ffd5b7f4e487b71000000000000000000000000000000000000000000000000000000005f52601160045260245ffd5b5f61107582610b2f565b915061108083610b2f565b92508282039050818111156110985761109761103e565b5b92915050565b7f4e487b71000000000000000000000000000000000000000000000000000000005f52601260045260245ffd5b5f6110d582610b2f565b91506110e083610b2f565b9250826110f0576110ef61109e565b5b828204905092915050565b5f61110582610b2f565b915061111083610b2f565b92508282019050808211156111285761112761103e565b5b9291505056fee6b58be8af95e9809ae8bf87efbc81e4ba8ce58886e69fa5e689bee6ada3e5b8b8e5b7a5e4bd9ca2646970667358221220408dd108d5e7149d2b0c066099567ff4071d5f917a96783b813624f8a024584064736f6c634300081e0033",
			"opcodes": "PUSH1 0x80 PUSH1 0x40 MSTORE CALLVALUE DUP1 ISZERO PUSH1 0xE JUMPI PUSH0 PUSH0 REVERT JUMPDEST POP PUSH2 0x118B DUP1 PUSH2 0x1C PUSH0 CODECOPY PUSH0 RETURN INVALID PUSH1 0x80 PUSH1 0x40 MSTORE CALLVALUE DUP1 ISZERO PUSH2 0xF JUMPI PUSH0 PUSH0 REVERT JUMPDEST POP PUSH1 0x4 CALLDATASIZE LT PUSH2 0x86 JUMPI PUSH0 CALLDATALOAD PUSH1 0xE0 SHR DUP1 PUSH4 0xCFDD605D GT PUSH2 0x59 JUMPI DUP1 PUSH4 0xCFDD605D EQ PUSH2 0x114 JUMPI DUP1 PUSH4 0xD9F1AD2D EQ PUSH2 0x132 JUMPI DUP1 PUSH4 0xE23E74C2 EQ PUSH2 0x162 JUMPI DUP1 PUSH4 0xF7392E1F EQ PUSH2 0x180 JUMPI PUSH2 0x86 JUMP JUMPDEST DUP1 PUSH4 0xBE7705E EQ PUSH2 0x8A JUMPI DUP1 PUSH4 0x33034C2C EQ PUSH2 0xA8 JUMPI DUP1 PUSH4 0xB12601DA EQ PUSH2 0xC6 JUMPI DUP1 PUSH4 0xB3D0343E EQ PUSH2 0xF6 JUMPI JUMPDEST PUSH0 PUSH0 REVERT JUMPDEST PUSH2 0x92 PUSH2 0x19E JUMP JUMPDEST PUSH1 0x40 MLOAD PUSH2 0x9F SWAP2 SWAP1 PUSH2 0xB47 JUMP JUMPDEST PUSH1 0x40 MLOAD DUP1 SWAP2 SUB SWAP1 RETURN JUMPDEST PUSH2 0xB0 PUSH2 0x1C5 JUMP JUMPDEST PUSH1 0x40 MLOAD PUSH2 0xBD SWAP2 SWAP1 PUSH2 0xC05 JUMP JUMPDEST PUSH1 0x40 MLOAD DUP1 SWAP2 SUB SWAP1 RETURN JUMPDEST PUSH2 0xE0 PUSH1 0x4 DUP1 CALLDATASIZE SUB DUP2 ADD SWAP1 PUSH2 0xDB SWAP2 SWAP1 PUSH2 0xDA9 JUMP JUMPDEST PUSH2 0x3A4 JUMP JUMPDEST PUSH1 0x40 MLOAD PUSH2 0xED SWAP2 SWAP1 PUSH2 0xB47 JUMP JUMPDEST PUSH1 0x40 MLOAD DUP1 SWAP2 SUB SWAP1 RETURN JUMPDEST PUSH2 0xFE PUSH2 0x4BC JUMP JUMPDEST PUSH1 0x40 MLOAD PUSH2 0x10B SWAP2 SWAP1 PUSH2 0xE82 JUMP JUMPDEST PUSH1 0x40 MLOAD DUP1 SWAP2 SUB SWAP1 RETURN JUMPDEST PUSH2 0x11C PUSH2 0x67F JUMP JUMPDEST PUSH1 0x40 MLOAD PUSH2 0x129 SWAP2 SWAP1 PUSH2 0xF1A JUMP JUMPDEST PUSH1 0x40 MLOAD DUP1 SWAP2 SUB SWAP1 RETURN JUMPDEST PUSH2 0x14C PUSH1 0x4 DUP1 CALLDATASIZE SUB DUP2 ADD SWAP1 PUSH2 0x147 SWAP2 SWAP1 PUSH2 0xF33 JUMP JUMPDEST PUSH2 0x7F2 JUMP JUMPDEST PUSH1 0x40 MLOAD PUSH2 0x159 SWAP2 SWAP1 PUSH2 0xF78 JUMP JUMPDEST PUSH1 0x40 MLOAD DUP1 SWAP2 SUB SWAP1 RETURN JUMPDEST PUSH2 0x16A PUSH2 0x81E JUMP JUMPDEST PUSH1 0x40 MLOAD PUSH2 0x177 SWAP2 SWAP1 PUSH2 0xC05 JUMP JUMPDEST PUSH1 0x40 MLOAD DUP1 SWAP2 SUB SWAP1 RETURN JUMPDEST PUSH2 0x188 PUSH2 0x92F JUMP JUMPDEST PUSH1 0x40 MLOAD PUSH2 0x195 SWAP2 SWAP1 PUSH2 0xFF1 JUMP JUMPDEST PUSH1 0x40 MLOAD DUP1 SWAP2 SUB SWAP1 RETURN JUMPDEST PUSH0 PUSH32 0xFFFFFFFFFFFFFFFFFFFFFFFFFFFFFFFFFFFFFFFFFFFFFFFFFFFFFFFFFFFFFFFF SWAP1 POP SWAP1 JUMP JUMPDEST PUSH2 0x1CD PUSH2 0xAC9 JUMP JUMPDEST PUSH0 PUSH1 0x8 PUSH8 0xFFFFFFFFFFFFFFFF DUP2 GT ISZERO PUSH2 0x1E9 JUMPI PUSH2 0x1E8 PUSH2 0xC43 JUMP JUMPDEST JUMPDEST PUSH1 0x40 MLOAD SWAP1 DUP1 DUP3 MSTORE DUP1 PUSH1 0x20 MUL PUSH1 0x20 ADD DUP3 ADD PUSH1 0x40 MSTORE DUP1 ISZERO PUSH2 0x217 JUMPI DUP2 PUSH1 0x20 ADD PUSH1 0x20 DUP3 MUL DUP1 CALLDATASIZE DUP4 CALLDATACOPY DUP1 DUP3 ADD SWAP2 POP POP SWAP1 POP JUMPDEST POP SWAP1 POP PUSH1 0x1 DUP2 PUSH0 DUP2 MLOAD DUP2 LT PUSH2 0x22F JUMPI PUSH2 0x22E PUSH2 0x1011 JUMP JUMPDEST JUMPDEST PUSH1 0x20 MUL PUSH1 0x20 ADD ADD DUP2 DUP2 MSTORE POP POP PUSH1 0x3 DUP2 PUSH1 0x1 DUP2 MLOAD DUP2 LT PUSH2 0x251 JUMPI PUSH2 0x250 PUSH2 0x1011 JUMP JUMPDEST JUMPDEST PUSH1 0x20 MUL PUSH1 0x20 ADD ADD DUP2 DUP2 MSTORE POP POP PUSH1 0x5 DUP2 PUSH1 0x2 DUP2 MLOAD DUP2 LT PUSH2 0x273 JUMPI PUSH2 0x272 PUSH2 0x1011 JUMP JUMPDEST JUMPDEST PUSH1 0x20 MUL PUSH1 0x20 ADD ADD DUP2 DUP2 MSTORE POP POP PUSH1 0x7 DUP2 PUSH1 0x3 DUP2 MLOAD DUP2 LT PUSH2 0x295 JUMPI PUSH2 0x294 PUSH2 0x1011 JUMP JUMPDEST JUMPDEST PUSH1 0x20 MUL PUSH1 0x20 ADD ADD DUP2 DUP2 MSTORE POP POP PUSH1 0x9 DUP2 PUSH1 0x4 DUP2 MLOAD DUP2 LT PUSH2 0x2B7 JUMPI PUSH2 0x2B6 PUSH2 0x1011 JUMP JUMPDEST JUMPDEST PUSH1 0x20 MUL PUSH1 0x20 ADD ADD DUP2 DUP2 MSTORE POP POP PUSH1 0xB DUP2 PUSH1 0x5 DUP2 MLOAD DUP2 LT PUSH2 0x2D9 JUMPI PUSH2 0x2D8 PUSH2 0x1011 JUMP JUMPDEST JUMPDEST PUSH1 0x20 MUL PUSH1 0x20 ADD ADD DUP2 DUP2 MSTORE POP POP PUSH1 0xD DUP2 PUSH1 0x6 DUP2 MLOAD DUP2 LT PUSH2 0x2FB JUMPI PUSH2 0x2FA PUSH2 0x1011 JUMP JUMPDEST JUMPDEST PUSH1 0x20 MUL PUSH1 0x20 ADD ADD DUP2 DUP2 MSTORE POP POP PUSH1 0xF DUP2 PUSH1 0x7 DUP2 MLOAD DUP2 LT PUSH2 0x31D JUMPI PUSH2 0x31C PUSH2 0x1011 JUMP JUMPDEST JUMPDEST PUSH1 0x20 MUL PUSH1 0x20 ADD ADD DUP2 DUP2 MSTORE POP POP PUSH2 0x334 DUP2 PUSH1 0x1 PUSH2 0x3A4 JUMP JUMPDEST DUP3 PUSH0 PUSH1 0x3 DUP2 LT PUSH2 0x347 JUMPI PUSH2 0x346 PUSH2 0x1011 JUMP JUMPDEST JUMPDEST PUSH1 0x20 MUL ADD DUP2 DUP2 MSTORE POP POP PUSH2 0x35B DUP2 PUSH1 0x9 PUSH2 0x3A4 JUMP JUMPDEST DUP3 PUSH1 0x1 PUSH1 0x3 DUP2 LT PUSH2 0x36F JUMPI PUSH2 0x36E PUSH2 0x1011 JUMP JUMPDEST JUMPDEST PUSH1 0x20 MUL ADD DUP2 DUP2 MSTORE POP POP PUSH2 0x383 DUP2 PUSH1 0xF PUSH2 0x3A4 JUMP JUMPDEST DUP3 PUSH1 0x2 PUSH1 0x3 DUP2 LT PUSH2 0x397 JUMPI PUSH2 0x396 PUSH2 0x1011 JUMP JUMPDEST JUMPDEST PUSH1 0x20 MUL ADD DUP2 DUP2 MSTORE POP POP POP SWAP1 JUMP JUMPDEST PUSH0 PUSH0 DUP4 MLOAD SUB PUSH2 0x3D5 JUMPI PUSH32 0xFFFFFFFFFFFFFFFFFFFFFFFFFFFFFFFFFFFFFFFFFFFFFFFFFFFFFFFFFFFFFFFF SWAP1 POP PUSH2 0x4B6 JUMP JUMPDEST PUSH0 PUSH0 SWAP1 POP PUSH0 PUSH1 0x1 DUP6 MLOAD PUSH2 0x3E8 SWAP2 SWAP1 PUSH2 0x106B JUMP JUMPDEST SWAP1 POP JUMPDEST DUP1 DUP3 GT PUSH2 0x490 JUMPI PUSH0 PUSH1 0x2 DUP4 DUP4 PUSH2 0x401 SWAP2 SWAP1 PUSH2 0x106B JUMP JUMPDEST PUSH2 0x40B SWAP2 SWAP1 PUSH2 0x10CB JUMP JUMPDEST DUP4 PUSH2 0x416 SWAP2 SWAP1 PUSH2 0x10FB JUMP JUMPDEST SWAP1 POP DUP5 DUP7 DUP3 DUP2 MLOAD DUP2 LT PUSH2 0x42C JUMPI PUSH2 0x42B PUSH2 0x1011 JUMP JUMPDEST JUMPDEST PUSH1 0x20 MUL PUSH1 0x20 ADD ADD MLOAD SUB PUSH2 0x444 JUMPI DUP1 SWAP4 POP POP POP POP PUSH2 0x4B6 JUMP JUMPDEST DUP5 DUP7 DUP3 DUP2 MLOAD DUP2 LT PUSH2 0x458 JUMPI PUSH2 0x457 PUSH2 0x1011 JUMP JUMPDEST JUMPDEST PUSH1 0x20 MUL PUSH1 0x20 ADD ADD MLOAD LT ISZERO PUSH2 0x47A JUMPI PUSH1 0x1 DUP2 PUSH2 0x473 SWAP2 SWAP1 PUSH2 0x10FB JUMP JUMPDEST SWAP3 POP PUSH2 0x48A JUMP JUMPDEST PUSH1 0x1 DUP2 PUSH2 0x487 SWAP2 SWAP1 PUSH2 0x106B JUMP JUMPDEST SWAP2 POP JUMPDEST POP PUSH2 0x3EB JUMP JUMPDEST PUSH32 0xFFFFFFFFFFFFFFFFFFFFFFFFFFFFFFFFFFFFFFFFFFFFFFFFFFFFFFFFFFFFFFFF SWAP3 POP POP POP JUMPDEST SWAP3 SWAP2 POP POP JUMP JUMPDEST PUSH2 0x4C4 PUSH2 0xAEB JUMP JUMPDEST PUSH0 PUSH1 0x6 PUSH8 0xFFFFFFFFFFFFFFFF DUP2 GT ISZERO PUSH2 0x4E0 JUMPI PUSH2 0x4DF PUSH2 0xC43 JUMP JUMPDEST JUMPDEST PUSH1 0x40 MLOAD SWAP1 DUP1 DUP3 MSTORE DUP1 PUSH1 0x20 MUL PUSH1 0x20 ADD DUP3 ADD PUSH1 0x40 MSTORE DUP1 ISZERO PUSH2 0x50E JUMPI DUP2 PUSH1 0x20 ADD PUSH1 0x20 DUP3 MUL DUP1 CALLDATASIZE DUP4 CALLDATACOPY DUP1 DUP3 ADD SWAP2 POP POP SWAP1 POP JUMPDEST POP SWAP1 POP PUSH1 0xA DUP2 PUSH0 DUP2 MLOAD DUP2 LT PUSH2 0x526 JUMPI PUSH2 0x525 PUSH2 0x1011 JUMP JUMPDEST JUMPDEST PUSH1 0x20 MUL PUSH1 0x20 ADD ADD DUP2 DUP2 MSTORE POP POP PUSH1 0x14 DUP2 PUSH1 0x1 DUP2 MLOAD DUP2 LT PUSH2 0x548 JUMPI PUSH2 0x547 PUSH2 0x1011 JUMP JUMPDEST JUMPDEST PUSH1 0x20 MUL PUSH1 0x20 ADD ADD DUP2 DUP2 MSTORE POP POP PUSH1 0x1E DUP2 PUSH1 0x2 DUP2 MLOAD DUP2 LT PUSH2 0x56A JUMPI PUSH2 0x569 PUSH2 0x1011 JUMP JUMPDEST JUMPDEST PUSH1 0x20 MUL PUSH1 0x20 ADD ADD DUP2 DUP2 MSTORE POP POP PUSH1 0x28 DUP2 PUSH1 0x3 DUP2 MLOAD DUP2 LT PUSH2 0x58C JUMPI PUSH2 0x58B PUSH2 0x1011 JUMP JUMPDEST JUMPDEST PUSH1 0x20 MUL PUSH1 0x20 ADD ADD DUP2 DUP2 MSTORE POP POP PUSH1 0x32 DUP2 PUSH1 0x4 DUP2 MLOAD DUP2 LT PUSH2 0x5AE JUMPI PUSH2 0x5AD PUSH2 0x1011 JUMP JUMPDEST JUMPDEST PUSH1 0x20 MUL PUSH1 0x20 ADD ADD DUP2 DUP2 MSTORE POP POP PUSH1 0x3C DUP2 PUSH1 0x5 DUP2 MLOAD DUP2 LT PUSH2 0x5D0 JUMPI PUSH2 0x5CF PUSH2 0x1011 JUMP JUMPDEST JUMPDEST PUSH1 0x20 MUL PUSH1 0x20 ADD ADD DUP2 DUP2 MSTORE POP POP PUSH2 0x5E7 DUP2 PUSH1 0xA PUSH2 0x3A4 JUMP JUMPDEST DUP3 PUSH0 PUSH1 0x4 DUP2 LT PUSH2 0x5FA JUMPI PUSH2 0x5F9 PUSH2 0x1011 JUMP JUMPDEST JUMPDEST PUSH1 0x20 MUL ADD DUP2 DUP2 MSTORE POP POP PUSH2 0x60E DUP2 PUSH1 0x1E PUSH2 0x3A4 JUMP JUMPDEST DUP3 PUSH1 0x1 PUSH1 0x4 DUP2 LT PUSH2 0x622 JUMPI PUSH2 0x621 PUSH2 0x1011 JUMP JUMPDEST JUMPDEST PUSH1 0x20 MUL ADD DUP2 DUP2 MSTORE POP POP PUSH2 0x636 DUP2 PUSH1 0x3C PUSH2 0x3A4 JUMP JUMPDEST DUP3 PUSH1 0x2 PUSH1 0x4 DUP2 LT PUSH2 0x64A JUMPI PUSH2 0x649 PUSH2 0x1011 JUMP JUMPDEST JUMPDEST PUSH1 0x20 MUL ADD DUP2 DUP2 MSTORE POP POP PUSH2 0x65E DUP2 PUSH1 0x63 PUSH2 0x3A4 JUMP JUMPDEST DUP3 PUSH1 0x3 PUSH1 0x4 DUP2 LT PUSH2 0x672 JUMPI PUSH2 0x671 PUSH2 0x1011 JUMP JUMPDEST JUMPDEST PUSH1 0x20 MUL ADD DUP2 DUP2 MSTORE POP POP POP SWAP1 JUMP JUMPDEST PUSH2 0x687 PUSH2 0xB0D JUMP JUMPDEST PUSH0 PUSH1 0x6 PUSH8 0xFFFFFFFFFFFFFFFF DUP2 GT ISZERO PUSH2 0x6A3 JUMPI PUSH2 0x6A2 PUSH2 0xC43 JUMP JUMPDEST JUMPDEST PUSH1 0x40 MLOAD SWAP1 DUP1 DUP3 MSTORE DUP1 PUSH1 0x20 MUL PUSH1 0x20 ADD DUP3 ADD PUSH1 0x40 MSTORE DUP1 ISZERO PUSH2 0x6D1 JUMPI DUP2 PUSH1 0x20 ADD PUSH1 0x20 DUP3 MUL DUP1 CALLDATASIZE DUP4 CALLDATACOPY DUP1 DUP3 ADD SWAP2 POP POP SWAP1 POP JUMPDEST POP SWAP1 POP PUSH1 0x1 DUP2 PUSH0 DUP2 MLOAD DUP2 LT PUSH2 0x6E9 JUMPI PUSH2 0x6E8 PUSH2 0x1011 JUMP JUMPDEST JUMPDEST PUSH1 0x20 MUL PUSH1 0x20 ADD ADD DUP2 DUP2 MSTORE POP POP PUSH1 0x2 DUP2 PUSH1 0x1 DUP2 MLOAD DUP2 LT PUSH2 0x70B JUMPI PUSH2 0x70A PUSH2 0x1011 JUMP JUMPDEST JUMPDEST PUSH1 0x20 MUL PUSH1 0x20 ADD ADD DUP2 DUP2 MSTORE POP POP PUSH1 0x2 DUP2 PUSH1 0x2 DUP2 MLOAD DUP2 LT PUSH2 0x72D JUMPI PUSH2 0x72C PUSH2 0x1011 JUMP JUMPDEST JUMPDEST PUSH1 0x20 MUL PUSH1 0x20 ADD ADD DUP2 DUP2 MSTORE POP POP PUSH1 0x2 DUP2 PUSH1 0x3 DUP2 MLOAD DUP2 LT PUSH2 0x74F JUMPI PUSH2 0x74E PUSH2 0x1011 JUMP JUMPDEST JUMPDEST PUSH1 0x20 MUL PUSH1 0x20 ADD ADD DUP2 DUP2 MSTORE POP POP PUSH1 0x3 DUP2 PUSH1 0x4 DUP2 MLOAD DUP2 LT PUSH2 0x771 JUMPI PUSH2 0x770 PUSH2 0x1011 JUMP JUMPDEST JUMPDEST PUSH1 0x20 MUL PUSH1 0x20 ADD ADD DUP2 DUP2 MSTORE POP POP PUSH1 0x4 DUP2 PUSH1 0x5 DUP2 MLOAD DUP2 LT PUSH2 0x793 JUMPI PUSH2 0x792 PUSH2 0x1011 JUMP JUMPDEST JUMPDEST PUSH1 0x20 MUL PUSH1 0x20 ADD ADD DUP2 DUP2 MSTORE POP POP PUSH2 0x7AA DUP2 PUSH1 0x2 PUSH2 0x3A4 JUMP JUMPDEST DUP3 PUSH0 PUSH1 0x2 DUP2 LT PUSH2 0x7BD JUMPI PUSH2 0x7BC PUSH2 0x1011 JUMP JUMPDEST JUMPDEST PUSH1 0x20 MUL ADD DUP2 DUP2 MSTORE POP POP PUSH2 0x7D1 DUP2 PUSH1 0x5 PUSH2 0x3A4 JUMP JUMPDEST DUP3 PUSH1 0x1 PUSH1 0x2 DUP2 LT PUSH2 0x7E5 JUMPI PUSH2 0x7E4 PUSH2 0x1011 JUMP JUMPDEST JUMPDEST PUSH1 0x20 MUL ADD DUP2 DUP2 MSTORE POP POP POP SWAP1 JUMP JUMPDEST PUSH0 PUSH32 0xFFFFFFFFFFFFFFFFFFFFFFFFFFFFFFFFFFFFFFFFFFFFFFFFFFFFFFFFFFFFFFFF DUP3 EQ ISZERO SWAP1 POP SWAP2 SWAP1 POP JUMP JUMPDEST PUSH2 0x826 PUSH2 0xAC9 JUMP JUMPDEST PUSH0 PUSH1 0x1 PUSH8 0xFFFFFFFFFFFFFFFF DUP2 GT ISZERO PUSH2 0x842 JUMPI PUSH2 0x841 PUSH2 0xC43 JUMP JUMPDEST JUMPDEST PUSH1 0x40 MLOAD SWAP1 DUP1 DUP3 MSTORE DUP1 PUSH1 0x20 MUL PUSH1 0x20 ADD DUP3 ADD PUSH1 0x40 MSTORE DUP1 ISZERO PUSH2 0x870 JUMPI DUP2 PUSH1 0x20 ADD PUSH1 0x20 DUP3 MUL DUP1 CALLDATASIZE DUP4 CALLDATACOPY DUP1 DUP3 ADD SWAP2 POP POP SWAP1 POP JUMPDEST POP SWAP1 POP PUSH1 0x5 DUP2 PUSH0 DUP2 MLOAD DUP2 LT PUSH2 0x888 JUMPI PUSH2 0x887 PUSH2 0x1011 JUMP JUMPDEST JUMPDEST PUSH1 0x20 MUL PUSH1 0x20 ADD ADD DUP2 DUP2 MSTORE POP POP PUSH2 0x89F DUP2 PUSH1 0x5 PUSH2 0x3A4 JUMP JUMPDEST DUP3 PUSH0 PUSH1 0x3 DUP2 LT PUSH2 0x8B2 JUMPI PUSH2 0x8B1 PUSH2 0x1011 JUMP JUMPDEST JUMPDEST PUSH1 0x20 MUL ADD DUP2 DUP2 MSTORE POP POP PUSH2 0x90E PUSH0 PUSH8 0xFFFFFFFFFFFFFFFF DUP2 GT ISZERO PUSH2 0x8D8 JUMPI PUSH2 0x8D7 PUSH2 0xC43 JUMP JUMPDEST JUMPDEST PUSH1 0x40 MLOAD SWAP1 DUP1 DUP3 MSTORE DUP1 PUSH1 0x20 MUL PUSH1 0x20 ADD DUP3 ADD PUSH1 0x40 MSTORE DUP1 ISZERO PUSH2 0x906 JUMPI DUP2 PUSH1 0x20 ADD PUSH1 0x20 DUP3 MUL DUP1 CALLDATASIZE DUP4 CALLDATACOPY DUP1 DUP3 ADD SWAP2 POP POP SWAP1 POP JUMPDEST POP PUSH1 0x5 PUSH2 0x3A4 JUMP JUMPDEST DUP3 PUSH1 0x2 PUSH1 0x3 DUP2 LT PUSH2 0x922 JUMPI PUSH2 0x921 PUSH2 0x1011 JUMP JUMPDEST JUMPDEST PUSH1 0x20 MUL ADD DUP2 DUP2 MSTORE POP POP POP SWAP1 JUMP JUMPDEST PUSH1 0x60 PUSH0 PUSH1 0x5 PUSH8 0xFFFFFFFFFFFFFFFF DUP2 GT ISZERO PUSH2 0x94D JUMPI PUSH2 0x94C PUSH2 0xC43 JUMP JUMPDEST JUMPDEST PUSH1 0x40 MLOAD SWAP1 DUP1 DUP3 MSTORE DUP1 PUSH1 0x20 MUL PUSH1 0x20 ADD DUP3 ADD PUSH1 0x40 MSTORE DUP1 ISZERO PUSH2 0x97B JUMPI DUP2 PUSH1 0x20 ADD PUSH1 0x20 DUP3 MUL DUP1 CALLDATASIZE DUP4 CALLDATACOPY DUP1 DUP3 ADD SWAP2 POP POP SWAP1 POP JUMPDEST POP SWAP1 POP PUSH1 0x64 DUP2 PUSH0 DUP2 MLOAD DUP2 LT PUSH2 0x993 JUMPI PUSH2 0x992 PUSH2 0x1011 JUMP JUMPDEST JUMPDEST PUSH1 0x20 MUL PUSH1 0x20 ADD ADD DUP2 DUP2 MSTORE POP POP PUSH1 0xC8 DUP2 PUSH1 0x1 DUP2 MLOAD DUP2 LT PUSH2 0x9B5 JUMPI PUSH2 0x9B4 PUSH2 0x1011 JUMP JUMPDEST JUMPDEST PUSH1 0x20 MUL PUSH1 0x20 ADD ADD DUP2 DUP2 MSTORE POP POP PUSH2 0x12C DUP2 PUSH1 0x2 DUP2 MLOAD DUP2 LT PUSH2 0x9D8 JUMPI PUSH2 0x9D7 PUSH2 0x1011 JUMP JUMPDEST JUMPDEST PUSH1 0x20 MUL PUSH1 0x20 ADD ADD DUP2 DUP2 MSTORE POP POP PUSH2 0x190 DUP2 PUSH1 0x3 DUP2 MLOAD DUP2 LT PUSH2 0x9FB JUMPI PUSH2 0x9FA PUSH2 0x1011 JUMP JUMPDEST JUMPDEST PUSH1 0x20 MUL PUSH1 0x20 ADD ADD DUP2 DUP2 MSTORE POP POP PUSH2 0x1F4 DUP2 PUSH1 0x4 DUP2 MLOAD DUP2 LT PUSH2 0xA1E JUMPI PUSH2 0xA1D PUSH2 0x1011 JUMP JUMPDEST JUMPDEST PUSH1 0x20 MUL PUSH1 0x20 ADD ADD DUP2 DUP2 MSTORE POP POP PUSH0 PUSH2 0xA37 DUP3 PUSH2 0x12C PUSH2 0x3A4 JUMP JUMPDEST SWAP1 POP PUSH0 PUSH2 0xA45 DUP4 PUSH1 0xFA PUSH2 0x3A4 JUMP JUMPDEST SWAP1 POP PUSH2 0xA50 DUP3 PUSH2 0x7F2 JUMP JUMPDEST DUP1 ISZERO PUSH2 0xA62 JUMPI POP PUSH2 0xA60 DUP2 PUSH2 0x7F2 JUMP JUMPDEST ISZERO JUMPDEST ISZERO PUSH2 0xA8A JUMPI PUSH1 0x40 MLOAD DUP1 PUSH1 0x60 ADD PUSH1 0x40 MSTORE DUP1 PUSH1 0x27 DUP2 MSTORE PUSH1 0x20 ADD PUSH2 0x112F PUSH1 0x27 SWAP2 CODECOPY SWAP4 POP POP POP POP PUSH2 0xAC6 JUMP JUMPDEST PUSH1 0x40 MLOAD DUP1 PUSH1 0x40 ADD PUSH1 0x40 MSTORE DUP1 PUSH1 0xF DUP2 MSTORE PUSH1 0x20 ADD PUSH32 0xE6B58BE8AF95E5A4B1E8B4A5EFBC810000000000000000000000000000000000 DUP2 MSTORE POP SWAP4 POP POP POP POP JUMPDEST SWAP1 JUMP JUMPDEST PUSH1 0x40 MLOAD DUP1 PUSH1 0x60 ADD PUSH1 0x40 MSTORE DUP1 PUSH1 0x3 SWAP1 PUSH1 0x20 DUP3 MUL DUP1 CALLDATASIZE DUP4 CALLDATACOPY DUP1 DUP3 ADD SWAP2 POP POP SWAP1 POP POP SWAP1 JUMP JUMPDEST PUSH1 0x40 MLOAD DUP1 PUSH1 0x80 ADD PUSH1 0x40 MSTORE DUP1 PUSH1 0x4 SWAP1 PUSH1 0x20 DUP3 MUL DUP1 CALLDATASIZE DUP4 CALLDATACOPY DUP1 DUP3 ADD SWAP2 POP POP SWAP1 POP POP SWAP1 JUMP JUMPDEST PUSH1 0x40 MLOAD DUP1 PUSH1 0x40 ADD PUSH1 0x40 MSTORE DUP1 PUSH1 0x2 SWAP1 PUSH1 0x20 DUP3 MUL DUP1 CALLDATASIZE DUP4 CALLDATACOPY DUP1 DUP3 ADD SWAP2 POP POP SWAP1 POP POP SWAP1 JUMP JUMPDEST PUSH0 DUP2 SWAP1 POP SWAP2 SWAP1 POP JUMP JUMPDEST PUSH2 0xB41 DUP2 PUSH2 0xB2F JUMP JUMPDEST DUP3 MSTORE POP POP JUMP JUMPDEST PUSH0 PUSH1 0x20 DUP3 ADD SWAP1 POP PUSH2 0xB5A PUSH0 DUP4 ADD DUP5 PUSH2 0xB38 JUMP JUMPDEST SWAP3 SWAP2 POP POP JUMP JUMPDEST PUSH0 PUSH1 0x3 SWAP1 POP SWAP2 SWAP1 POP JUMP JUMPDEST PUSH0 DUP2 SWAP1 POP SWAP3 SWAP2 POP POP JUMP JUMPDEST PUSH0 DUP2 SWAP1 POP SWAP2 SWAP1 POP JUMP JUMPDEST PUSH2 0xB86 DUP2 PUSH2 0xB2F JUMP JUMPDEST DUP3 MSTORE POP POP JUMP JUMPDEST PUSH0 PUSH2 0xB97 DUP4 DUP4 PUSH2 0xB7D JUMP JUMPDEST PUSH1 0x20 DUP4 ADD SWAP1 POP SWAP3 SWAP2 POP POP JUMP JUMPDEST PUSH0 PUSH1 0x20 DUP3 ADD SWAP1 POP SWAP2 SWAP1 POP JUMP JUMPDEST PUSH2 0xBB8 DUP2 PUSH2 0xB60 JUMP JUMPDEST PUSH2 0xBC2 DUP2 DUP5 PUSH2 0xB6A JUMP JUMPDEST SWAP3 POP PUSH2 0xBCD DUP3 PUSH2 0xB74 JUMP JUMPDEST DUP1 PUSH0 JUMPDEST DUP4 DUP2 LT ISZERO PUSH2 0xBFD JUMPI DUP2 MLOAD PUSH2 0xBE4 DUP8 DUP3 PUSH2 0xB8C JUMP JUMPDEST SWAP7 POP PUSH2 0xBEF DUP4 PUSH2 0xBA3 JUMP JUMPDEST SWAP3 POP POP PUSH1 0x1 DUP2 ADD SWAP1 POP PUSH2 0xBD0 JUMP JUMPDEST POP POP POP POP POP POP JUMP JUMPDEST PUSH0 PUSH1 0x60 DUP3 ADD SWAP1 POP PUSH2 0xC18 PUSH0 DUP4 ADD DUP5 PUSH2 0xBAF JUMP JUMPDEST SWAP3 SWAP2 POP POP JUMP JUMPDEST PUSH0 PUSH1 0x40 MLOAD SWAP1 POP SWAP1 JUMP JUMPDEST PUSH0 PUSH0 REVERT JUMPDEST PUSH0 PUSH0 REVERT JUMPDEST PUSH0 PUSH0 REVERT JUMPDEST PUSH0 PUSH1 0x1F NOT PUSH1 0x1F DUP4 ADD AND SWAP1 POP SWAP2 SWAP1 POP JUMP JUMPDEST PUSH32 0x4E487B7100000000000000000000000000000000000000000000000000000000 PUSH0 MSTORE PUSH1 0x41 PUSH1 0x4 MSTORE PUSH1 0x24 PUSH0 REVERT JUMPDEST PUSH2 0xC79 DUP3 PUSH2 0xC33 JUMP JUMPDEST DUP2 ADD DUP2 DUP2 LT PUSH8 0xFFFFFFFFFFFFFFFF DUP3 GT OR ISZERO PUSH2 0xC98 JUMPI PUSH2 0xC97 PUSH2 0xC43 JUMP JUMPDEST JUMPDEST DUP1 PUSH1 0x40 MSTORE POP POP POP JUMP JUMPDEST PUSH0 PUSH2 0xCAA PUSH2 0xC1E JUMP JUMPDEST SWAP1 POP PUSH2 0xCB6 DUP3 DUP3 PUSH2 0xC70 JUMP JUMPDEST SWAP2 SWAP1 POP JUMP JUMPDEST PUSH0 PUSH8 0xFFFFFFFFFFFFFFFF DUP3 GT ISZERO PUSH2 0xCD5 JUMPI PUSH2 0xCD4 PUSH2 0xC43 JUMP JUMPDEST JUMPDEST PUSH1 0x20 DUP3 MUL SWAP1 POP PUSH1 0x20 DUP2 ADD SWAP1 POP SWAP2 SWAP1 POP JUMP JUMPDEST PUSH0 PUSH0 REVERT JUMPDEST PUSH2 0xCF3 DUP2 PUSH2 0xB2F JUMP JUMPDEST DUP2 EQ PUSH2 0xCFD JUMPI PUSH0 PUSH0 REVERT JUMPDEST POP JUMP JUMPDEST PUSH0 DUP2 CALLDATALOAD SWAP1 POP PUSH2 0xD0E DUP2 PUSH2 0xCEA JUMP JUMPDEST SWAP3 SWAP2 POP POP JUMP JUMPDEST PUSH0 PUSH2 0xD26 PUSH2 0xD21 DUP5 PUSH2 0xCBB JUMP JUMPDEST PUSH2 0xCA1 JUMP JUMPDEST SWAP1 POP DUP1 DUP4 DUP3 MSTORE PUSH1 0x20 DUP3 ADD SWAP1 POP PUSH1 0x20 DUP5 MUL DUP4 ADD DUP6 DUP2 GT ISZERO PUSH2 0xD49 JUMPI PUSH2 0xD48 PUSH2 0xCE6 JUMP JUMPDEST JUMPDEST DUP4 JUMPDEST DUP2 DUP2 LT ISZERO PUSH2 0xD72 JUMPI DUP1 PUSH2 0xD5E DUP9 DUP3 PUSH2 0xD00 JUMP JUMPDEST DUP5 MSTORE PUSH1 0x20 DUP5 ADD SWAP4 POP POP PUSH1 0x20 DUP2 ADD SWAP1 POP PUSH2 0xD4B JUMP JUMPDEST POP POP POP SWAP4 SWAP3 POP POP POP JUMP JUMPDEST PUSH0 DUP3 PUSH1 0x1F DUP4 ADD SLT PUSH2 0xD90 JUMPI PUSH2 0xD8F PUSH2 0xC2F JUMP JUMPDEST JUMPDEST DUP2 CALLDATALOAD PUSH2 0xDA0 DUP5 DUP3 PUSH1 0x20 DUP7 ADD PUSH2 0xD14 JUMP JUMPDEST SWAP2 POP POP SWAP3 SWAP2 POP POP JUMP JUMPDEST PUSH0 PUSH0 PUSH1 0x40 DUP4 DUP6 SUB SLT ISZERO PUSH2 0xDBF JUMPI PUSH2 0xDBE PUSH2 0xC27 JUMP JUMPDEST JUMPDEST PUSH0 DUP4 ADD CALLDATALOAD PUSH8 0xFFFFFFFFFFFFFFFF DUP2 GT ISZERO PUSH2 0xDDC JUMPI PUSH2 0xDDB PUSH2 0xC2B JUMP JUMPDEST JUMPDEST PUSH2 0xDE8 DUP6 DUP3 DUP7 ADD PUSH2 0xD7C JUMP JUMPDEST SWAP3 POP POP PUSH1 0x20 PUSH2 0xDF9 DUP6 DUP3 DUP7 ADD PUSH2 0xD00 JUMP JUMPDEST SWAP2 POP POP SWAP3 POP SWAP3 SWAP1 POP JUMP JUMPDEST PUSH0 PUSH1 0x4 SWAP1 POP SWAP2 SWAP1 POP JUMP JUMPDEST PUSH0 DUP2 SWAP1 POP SWAP3 SWAP2 POP POP JUMP JUMPDEST PUSH0 DUP2 SWAP1 POP SWAP2 SWAP1 POP JUMP JUMPDEST PUSH0 PUSH1 0x20 DUP3 ADD SWAP1 POP SWAP2 SWAP1 POP JUMP JUMPDEST PUSH2 0xE35 DUP2 PUSH2 0xE03 JUMP JUMPDEST PUSH2 0xE3F DUP2 DUP5 PUSH2 0xE0D JUMP JUMPDEST SWAP3 POP PUSH2 0xE4A DUP3 PUSH2 0xE17 JUMP JUMPDEST DUP1 PUSH0 JUMPDEST DUP4 DUP2 LT ISZERO PUSH2 0xE7A JUMPI DUP2 MLOAD PUSH2 0xE61 DUP8 DUP3 PUSH2 0xB8C JUMP JUMPDEST SWAP7 POP PUSH2 0xE6C DUP4 PUSH2 0xE20 JUMP JUMPDEST SWAP3 POP POP PUSH1 0x1 DUP2 ADD SWAP1 POP PUSH2 0xE4D JUMP JUMPDEST POP POP POP POP POP POP JUMP JUMPDEST PUSH0 PUSH1 0x80 DUP3 ADD SWAP1 POP PUSH2 0xE95 PUSH0 DUP4 ADD DUP5 PUSH2 0xE2C JUMP JUMPDEST SWAP3 SWAP2 POP POP JUMP JUMPDEST PUSH0 PUSH1 0x2 SWAP1 POP SWAP2 SWAP1 POP JUMP JUMPDEST PUSH0 DUP2 SWAP1 POP SWAP3 SWAP2 POP POP JUMP JUMPDEST PUSH0 DUP2 SWAP1 POP SWAP2 SWAP1 POP JUMP JUMPDEST PUSH0 PUSH1 0x20 DUP3 ADD SWAP1 POP SWAP2 SWAP1 POP JUMP JUMPDEST PUSH2 0xECD DUP2 PUSH2 0xE9B JUMP JUMPDEST PUSH2 0xED7 DUP2 DUP5 PUSH2 0xEA5 JUMP JUMPDEST SWAP3 POP PUSH2 0xEE2 DUP3 PUSH2 0xEAF JUMP JUMPDEST DUP1 PUSH0 JUMPDEST DUP4 DUP2 LT ISZERO PUSH2 0xF12 JUMPI DUP2 MLOAD PUSH2 0xEF9 DUP8 DUP3 PUSH2 0xB8C JUMP JUMPDEST SWAP7 POP PUSH2 0xF04 DUP4 PUSH2 0xEB8 JUMP JUMPDEST SWAP3 POP POP PUSH1 0x1 DUP2 ADD SWAP1 POP PUSH2 0xEE5 JUMP JUMPDEST POP POP POP POP POP POP JUMP JUMPDEST PUSH0 PUSH1 0x40 DUP3 ADD SWAP1 POP PUSH2 0xF2D PUSH0 DUP4 ADD DUP5 PUSH2 0xEC4 JUMP JUMPDEST SWAP3 SWAP2 POP POP JUMP JUMPDEST PUSH0 PUSH1 0x20 DUP3 DUP5 SUB SLT ISZERO PUSH2 0xF48 JUMPI PUSH2 0xF47 PUSH2 0xC27 JUMP JUMPDEST JUMPDEST PUSH0 PUSH2 0xF55 DUP5 DUP3 DUP6 ADD PUSH2 0xD00 JUMP JUMPDEST SWAP2 POP POP SWAP3 SWAP2 POP POP JUMP JUMPDEST PUSH0 DUP2 ISZERO ISZERO SWAP1 POP SWAP2 SWAP1 POP JUMP JUMPDEST PUSH2 0xF72 DUP2 PUSH2 0xF5E JUMP JUMPDEST DUP3 MSTORE POP POP JUMP JUMPDEST PUSH0 PUSH1 0x20 DUP3 ADD SWAP1 POP PUSH2 0xF8B PUSH0 DUP4 ADD DUP5 PUSH2 0xF69 JUMP JUMPDEST SWAP3 SWAP2 POP POP JUMP JUMPDEST PUSH0 DUP2 MLOAD SWAP1 POP SWAP2 SWAP1 POP JUMP JUMPDEST PUSH0 DUP3 DUP3 MSTORE PUSH1 0x20 DUP3 ADD SWAP1 POP SWAP3 SWAP2 POP POP JUMP JUMPDEST DUP3 DUP2 DUP4 MCOPY PUSH0 DUP4 DUP4 ADD MSTORE POP POP POP JUMP JUMPDEST PUSH0 PUSH2 0xFC3 DUP3 PUSH2 0xF91 JUMP JUMPDEST PUSH2 0xFCD DUP2 DUP6 PUSH2 0xF9B JUMP JUMPDEST SWAP4 POP PUSH2 0xFDD DUP2 DUP6 PUSH1 0x20 DUP7 ADD PUSH2 0xFAB JUMP JUMPDEST PUSH2 0xFE6 DUP2 PUSH2 0xC33 JUMP JUMPDEST DUP5 ADD SWAP2 POP POP SWAP3 SWAP2 POP POP JUMP JUMPDEST PUSH0 PUSH1 0x20 DUP3 ADD SWAP1 POP DUP2 DUP2 SUB PUSH0 DUP4 ADD MSTORE PUSH2 0x1009 DUP2 DUP5 PUSH2 0xFB9 JUMP JUMPDEST SWAP1 POP SWAP3 SWAP2 POP POP JUMP JUMPDEST PUSH32 0x4E487B7100000000000000000000000000000000000000000000000000000000 PUSH0 MSTORE PUSH1 0x32 PUSH1 0x4 MSTORE PUSH1 0x24 PUSH0 REVERT JUMPDEST PUSH32 0x4E487B7100000000000000000000000000000000000000000000000000000000 PUSH0 MSTORE PUSH1 0x11 PUSH1 0x4 MSTORE PUSH1 0x24 PUSH0 REVERT JUMPDEST PUSH0 PUSH2 0x1075 DUP3 PUSH2 0xB2F JUMP JUMPDEST SWAP2 POP PUSH2 0x1080 DUP4 PUSH2 0xB2F JUMP JUMPDEST SWAP3 POP DUP3 DUP3 SUB SWAP1 POP DUP2 DUP2 GT ISZERO PUSH2 0x1098 JUMPI PUSH2 0x1097 PUSH2 0x103E JUMP JUMPDEST JUMPDEST SWAP3 SWAP2 POP POP JUMP JUMPDEST PUSH32 0x4E487B7100000000000000000000000000000000000000000000000000000000 PUSH0 MSTORE PUSH1 0x12 PUSH1 0x4 MSTORE PUSH1 0x24 PUSH0 REVERT JUMPDEST PUSH0 PUSH2 0x10D5 DUP3 PUSH2 0xB2F JUMP JUMPDEST SWAP2 POP PUSH2 0x10E0 DUP4 PUSH2 0xB2F JUMP JUMPDEST SWAP3 POP DUP3 PUSH2 0x10F0 JUMPI PUSH2 0x10EF PUSH2 0x109E JUMP JUMPDEST JUMPDEST DUP3 DUP3 DIV SWAP1 POP SWAP3 SWAP2 POP POP JUMP JUMPDEST PUSH0 PUSH2 0x1105 DUP3 PUSH2 0xB2F JUMP JUMPDEST SWAP2 POP PUSH2 0x1110 DUP4 PUSH2 0xB2F JUMP JUMPDEST SWAP3 POP DUP3 DUP3 ADD SWAP1 POP DUP1 DUP3 GT ISZERO PUSH2 0x1128 JUMPI PUSH2 0x1127 PUSH2 0x103E JUMP JUMPDEST JUMPDEST SWAP3 SWAP2 POP POP JUMP INVALID DUPN 0xB5 DUP12 0xE8 0xAF SWAP6 0xE9 DUP1 SWAP11 0xE8 0xBF DUP8 0xEF 0xBC DUP2 RETF 0xBA DUP13 JUMPF 0x8886 DUPN 0x9F 0xA5 DUPN 0x89 0xBE DUPN 0xAD LOG3 JUMPF 0xB8B8 JUMPF 0xB7A5 RETF 0xBD SWAP13 LOG2 PUSH5 0x6970667358 0x22 SLT KECCAK256 BLOCKHASH DUP14 DATALOADN 0x8D5 SWAPN 0x14 SWAP14 0x2B 0xC MOD PUSH1 0x99 JUMP PUSH32 0xF4071D5F917A96783B813624F8A024584064736F6C634300081E003300000000 "
		},
		"gasEstimates": {
			"creation": {
				"codeDepositCost": "898200",
				"executionCost": "933",
				"totalCost": "899133"
			},
			"external": {
				"binarySearch(uint256[],uint256)": "infinite",
				"comprehensiveTest()": "infinite",
				"getNotFoundValue()": "333",
				"isFound(uint256)": "630",
				"testDuplicateElements()": "infinite",
				"testEdgeCases()": "infinite",
				"testLargeArray()": "infinite",
				"testNormalSearch()": "infinite"
			}
		},
		"methodIdentifiers": {
			"binarySearch(uint256[],uint256)": "b12601da",
			"comprehensiveTest()": "f7392e1f",
			"getNotFoundValue()": "0be7705e",
			"isFound(uint256)": "d9f1ad2d",
			"testDuplicateElements()": "cfdd605d",
			"testEdgeCases()": "e23e74c2",
			"testLargeArray()": "33034c2c",
			"testNormalSearch()": "b3d0343e"
		}
	},
	"abi": [
		{
			"inputs": [
				{
					"internalType": "uint256[]",
					"name": "arr",
					"type": "uint256[]"
				},
				{
					"internalType": "uint256",
					"name": "target",
					"type": "uint256"
				}
			],
			"name": "binarySearch",
			"outputs": [
				{
					"internalType": "uint256",
					"name": "",
					"type": "uint256"
				}
			],
			"stateMutability": "pure",
			"type": "function"
		},
		{
			"inputs": [],
			"name": "comprehensiveTest",
			"outputs": [
				{
					"internalType": "string",
					"name": "",
					"type": "string"
				}
			],
			"stateMutability": "pure",
			"type": "function"
		},
		{
			"inputs": [],
			"name": "getNotFoundValue",
			"outputs": [
				{
					"internalType": "uint256",
					"name": "",
					"type": "uint256"
				}
			],
			"stateMutability": "pure",
			"type": "function"
		},
		{
			"inputs": [
				{
					"internalType": "uint256",
					"name": "result",
					"type": "uint256"
				}
			],
			"name": "isFound",
			"outputs": [
				{
					"internalType": "bool",
					"name": "",
					"type": "bool"
				}
			],
			"stateMutability": "pure",
			"type": "function"
		},
		{
			"inputs": [],
			"name": "testDuplicateElements",
			"outputs": [
				{
					"internalType": "uint256[2]",
					"name": "results",
					"type": "uint256[2]"
				}
			],
			"stateMutability": "pure",
			"type": "function"
		},
		{
			"inputs": [],
			"name": "testEdgeCases",
			"outputs": [
				{
					"internalType": "uint256[3]",
					"name": "results",
					"type": "uint256[3]"
				}
			],
			"stateMutability": "pure",
			"type": "function"
		},
		{
			"inputs": [],
			"name": "testLargeArray",
			"outputs": [
				{
					"internalType": "uint256[3]",
					"name": "results",
					"type": "uint256[3]"
				}
			],
			"stateMutability": "pure",
			"type": "function"
		},
		{
			"inputs": [],
			"name": "testNormalSearch",
			"outputs": [
				{
					"internalType": "uint256[4]",
					"name": "results",
					"type": "uint256[4]"
				}
			],
			"stateMutability": "pure",
			"type": "function"
		}
	]
}